{
  "contractName": "EventMgmt",
  "abi": [
    {
      "inputs": [
        {
          "internalType": "address",
          "name": "_ticketMgmtAddress",
          "type": "address"
        }
      ],
      "stateMutability": "nonpayable",
      "type": "constructor"
    },
    {
      "anonymous": false,
      "inputs": [
        {
          "indexed": false,
          "internalType": "uint256",
          "name": "categoryId",
          "type": "uint256"
        },
        {
          "indexed": false,
          "internalType": "uint256",
          "name": "eventId",
          "type": "uint256"
        },
        {
          "indexed": false,
          "internalType": "string",
          "name": "categoryName",
          "type": "string"
        },
        {
          "indexed": false,
          "internalType": "string",
          "name": "categoryDescription",
          "type": "string"
        },
        {
          "indexed": false,
          "internalType": "uint256",
          "name": "ticketPrice",
          "type": "uint256"
        },
        {
          "indexed": false,
          "internalType": "uint256",
          "name": "numberOfTickets",
          "type": "uint256"
        }
      ],
      "name": "CategoryCreated",
      "type": "event"
    },
    {
      "anonymous": false,
      "inputs": [
        {
          "indexed": false,
          "internalType": "uint256",
          "name": "eventId",
          "type": "uint256"
        }
      ],
      "name": "EventCancelled",
      "type": "event"
    },
    {
      "anonymous": false,
      "inputs": [
        {
          "indexed": false,
          "internalType": "uint256",
          "name": "eventId",
          "type": "uint256"
        },
        {
          "indexed": false,
          "internalType": "string",
          "name": "eventName",
          "type": "string"
        },
        {
          "indexed": false,
          "internalType": "address",
          "name": "eventOrganiser",
          "type": "address"
        },
        {
          "indexed": false,
          "internalType": "string",
          "name": "eventDescription",
          "type": "string"
        },
        {
          "indexed": false,
          "internalType": "uint256",
          "name": "maxResalePercentage",
          "type": "uint256"
        }
      ],
      "name": "EventCreated",
      "type": "event"
    },
    {
      "anonymous": false,
      "inputs": [
        {
          "indexed": false,
          "internalType": "uint256",
          "name": "eventId",
          "type": "uint256"
        },
        {
          "indexed": false,
          "internalType": "string",
          "name": "newDescription",
          "type": "string"
        }
      ],
      "name": "EventDescriptionUpdated",
      "type": "event"
    },
    {
      "anonymous": false,
      "inputs": [
        {
          "indexed": false,
          "internalType": "uint256",
          "name": "eventId",
          "type": "uint256"
        },
        {
          "indexed": false,
          "internalType": "uint256",
          "name": "newMaxResalePercentage",
          "type": "uint256"
        }
      ],
      "name": "EventMaxResalePercentageUpdated",
      "type": "event"
    },
    {
      "inputs": [
        {
          "internalType": "uint256",
          "name": "",
          "type": "uint256"
        }
      ],
      "name": "categories",
      "outputs": [
        {
          "internalType": "uint256",
          "name": "eventId",
          "type": "uint256"
        },
        {
          "internalType": "uint256",
          "name": "categoryId",
          "type": "uint256"
        },
        {
          "internalType": "string",
          "name": "categoryName",
          "type": "string"
        },
        {
          "internalType": "string",
          "name": "categoryDescription",
          "type": "string"
        },
        {
          "internalType": "uint256",
          "name": "ticketPrice",
          "type": "uint256"
        }
      ],
      "stateMutability": "view",
      "type": "function",
      "constant": true
    },
    {
      "inputs": [
        {
          "internalType": "uint256",
          "name": "",
          "type": "uint256"
        }
      ],
      "name": "events",
      "outputs": [
        {
          "internalType": "uint256",
          "name": "eventId",
          "type": "uint256"
        },
        {
          "internalType": "string",
          "name": "eventName",
          "type": "string"
        },
        {
          "internalType": "address",
          "name": "eventOrganiser",
          "type": "address"
        },
        {
          "internalType": "string",
          "name": "eventDescription",
          "type": "string"
        },
        {
          "internalType": "uint256",
          "name": "maxResalePercentage",
          "type": "uint256"
        },
        {
          "internalType": "bool",
          "name": "isActive",
          "type": "bool"
        }
      ],
      "stateMutability": "view",
      "type": "function",
      "constant": true
    },
    {
      "inputs": [
        {
          "internalType": "string",
          "name": "eventName",
          "type": "string"
        },
        {
          "internalType": "string",
          "name": "eventDescription",
          "type": "string"
        },
        {
          "internalType": "uint256",
          "name": "maxResalePercentage",
          "type": "uint256"
        }
      ],
      "name": "createEvent",
      "outputs": [
        {
          "internalType": "uint256",
          "name": "eventId",
          "type": "uint256"
        }
      ],
      "stateMutability": "nonpayable",
      "type": "function"
    },
    {
      "inputs": [
        {
          "internalType": "uint256",
          "name": "eventId",
          "type": "uint256"
        },
        {
          "internalType": "string",
          "name": "categoryName",
          "type": "string"
        },
        {
          "internalType": "string",
          "name": "categoryDescription",
          "type": "string"
        },
        {
          "internalType": "uint256",
          "name": "ticketPrice",
          "type": "uint256"
        },
        {
          "internalType": "uint256",
          "name": "numberOfTickets",
          "type": "uint256"
        }
      ],
      "name": "createCategory",
      "outputs": [
        {
          "internalType": "uint256",
          "name": "categoryId",
          "type": "uint256"
        }
      ],
      "stateMutability": "nonpayable",
      "type": "function"
    },
    {
      "inputs": [
        {
          "internalType": "uint256",
          "name": "eventId",
          "type": "uint256"
        },
        {
          "internalType": "string",
          "name": "newDescription",
          "type": "string"
        }
      ],
      "name": "updateEventDescription",
      "outputs": [],
      "stateMutability": "nonpayable",
      "type": "function"
    },
    {
      "inputs": [
        {
          "internalType": "uint256",
          "name": "eventId",
          "type": "uint256"
        },
        {
          "internalType": "uint256",
          "name": "newMaxResalePercentage",
          "type": "uint256"
        }
      ],
      "name": "updateMaxResalePercentage",
      "outputs": [],
      "stateMutability": "nonpayable",
      "type": "function"
    },
    {
      "inputs": [
        {
          "internalType": "uint256",
          "name": "eventId",
          "type": "uint256"
        }
      ],
      "name": "cancelEvent",
      "outputs": [],
      "stateMutability": "nonpayable",
      "type": "function"
    },
    {
      "inputs": [
        {
          "internalType": "uint256",
          "name": "eventId",
          "type": "uint256"
        }
      ],
      "name": "getEventInfo",
      "outputs": [
        {
          "internalType": "string",
          "name": "",
          "type": "string"
        },
        {
          "internalType": "address",
          "name": "",
          "type": "address"
        },
        {
          "internalType": "string",
          "name": "",
          "type": "string"
        },
        {
          "internalType": "uint256",
          "name": "",
          "type": "uint256"
        },
        {
          "internalType": "bool",
          "name": "",
          "type": "bool"
        },
        {
          "internalType": "uint256[]",
          "name": "",
          "type": "uint256[]"
        }
      ],
      "stateMutability": "view",
      "type": "function",
      "constant": true
    },
    {
      "inputs": [
        {
          "internalType": "uint256",
          "name": "categoryId",
          "type": "uint256"
        }
      ],
      "name": "getCategoryInfo",
      "outputs": [
        {
          "internalType": "uint256",
          "name": "",
          "type": "uint256"
        },
        {
          "internalType": "string",
          "name": "",
          "type": "string"
        },
        {
          "internalType": "string",
          "name": "",
          "type": "string"
        },
        {
          "internalType": "uint256",
          "name": "",
          "type": "uint256"
        },
        {
          "internalType": "uint256[]",
          "name": "",
          "type": "uint256[]"
        }
      ],
      "stateMutability": "view",
      "type": "function",
      "constant": true
    },
    {
      "inputs": [
        {
          "internalType": "uint256",
          "name": "ticketId",
          "type": "uint256"
        }
      ],
      "name": "getTicketInfo",
      "outputs": [
        {
          "internalType": "uint256",
          "name": "",
          "type": "uint256"
        },
        {
          "internalType": "uint256",
          "name": "",
          "type": "uint256"
        },
        {
          "internalType": "address",
          "name": "",
          "type": "address"
        },
        {
          "internalType": "bool",
          "name": "",
          "type": "bool"
        },
        {
          "internalType": "uint256",
          "name": "",
          "type": "uint256"
        },
        {
          "internalType": "uint256",
          "name": "",
          "type": "uint256"
        }
      ],
      "stateMutability": "view",
      "type": "function",
      "constant": true
    },
    {
      "inputs": [
        {
          "internalType": "uint256",
          "name": "eventId",
          "type": "uint256"
        }
      ],
      "name": "getEventTickets",
      "outputs": [
        {
          "internalType": "uint256[]",
          "name": "",
          "type": "uint256[]"
        }
      ],
      "stateMutability": "view",
      "type": "function",
      "constant": true
    },
    {
      "inputs": [
        {
          "internalType": "uint256",
          "name": "categoryId",
          "type": "uint256"
        }
      ],
      "name": "getCategoryTickets",
      "outputs": [
        {
          "internalType": "uint256[]",
          "name": "",
          "type": "uint256[]"
        }
      ],
      "stateMutability": "view",
      "type": "function",
      "constant": true
    },
    {
      "inputs": [
        {
          "internalType": "uint256",
          "name": "eventId",
          "type": "uint256"
        },
        {
          "internalType": "address",
          "name": "user",
          "type": "address"
        }
      ],
      "name": "isEventOrganiser",
      "outputs": [
        {
          "internalType": "bool",
          "name": "",
          "type": "bool"
        }
      ],
      "stateMutability": "view",
      "type": "function",
      "constant": true
    },
    {
      "inputs": [
        {
          "internalType": "uint256",
          "name": "ticketId",
          "type": "uint256"
        }
      ],
      "name": "getTicketOwner",
      "outputs": [
        {
          "internalType": "address",
          "name": "",
          "type": "address"
        }
      ],
      "stateMutability": "view",
      "type": "function",
      "constant": true
    },
    {
      "inputs": [
        {
          "internalType": "uint256",
          "name": "ticketId",
          "type": "uint256"
        }
      ],
      "name": "getTicketPrice",
      "outputs": [
        {
          "internalType": "uint256",
          "name": "",
          "type": "uint256"
        }
      ],
      "stateMutability": "view",
      "type": "function",
      "constant": true
    },
    {
      "inputs": [
        {
          "internalType": "uint256",
          "name": "ticketId",
          "type": "uint256"
        }
      ],
      "name": "isForSale",
      "outputs": [
        {
          "internalType": "bool",
          "name": "",
          "type": "bool"
        }
      ],
      "stateMutability": "view",
      "type": "function",
      "constant": true
    },
    {
      "inputs": [
        {
          "internalType": "uint256",
          "name": "ticketId",
          "type": "uint256"
        },
        {
          "internalType": "address",
          "name": "newOwner",
          "type": "address"
        }
      ],
      "name": "transferTicket",
      "outputs": [],
      "stateMutability": "nonpayable",
      "type": "function"
    },
    {
      "inputs": [
        {
          "internalType": "uint256",
          "name": "ticketId",
          "type": "uint256"
        }
      ],
      "name": "calculateMaxResalePrice",
      "outputs": [
        {
          "internalType": "uint256",
          "name": "",
          "type": "uint256"
        }
      ],
      "stateMutability": "view",
      "type": "function",
      "constant": true
    },
    {
      "inputs": [
        {
          "internalType": "uint256",
          "name": "ticketId",
          "type": "uint256"
        },
        {
          "internalType": "uint256",
          "name": "resalePrice",
          "type": "uint256"
        }
      ],
      "name": "listTicketForResale",
      "outputs": [],
      "stateMutability": "nonpayable",
      "type": "function"
    },
    {
      "inputs": [
        {
          "internalType": "uint256",
          "name": "ticketId",
          "type": "uint256"
        }
      ],
      "name": "unlistTicketFromResale",
      "outputs": [],
      "stateMutability": "nonpayable",
      "type": "function"
    },
    {
      "inputs": [
        {
          "internalType": "uint256",
          "name": "ticketId",
          "type": "uint256"
        }
      ],
      "name": "getEventId",
      "outputs": [
        {
          "internalType": "uint256",
          "name": "",
          "type": "uint256"
        }
      ],
      "stateMutability": "view",
      "type": "function",
      "constant": true
    }
  ],
  "bytecode": "0x60806040523480156200001157600080fd5b506040516200308f3803806200308f833981810160405281019062000037919062000095565b806000806101000a81548173ffffffffffffffffffffffffffffffffffffffff021916908373ffffffffffffffffffffffffffffffffffffffff160217905550506200010f565b6000815190506200008f81620000f5565b92915050565b600060208284031215620000a857600080fd5b6000620000b8848285016200007e565b91505092915050565b6000620000ce82620000d5565b9050919050565b600073ffffffffffffffffffffffffffffffffffffffff82169050919050565b6200010081620000c1565b81146200010c57600080fd5b50565b612f70806200011f6000396000f3fe608060405234801561001057600080fd5b50600436106101375760003560e01c80638546d002116100b8578063c6cdbe5e1161007c578063c6cdbe5e146103a2578063ca261ce1146103d6578063cf52f78014610406578063f06fc96114610436578063f1f04baa14610466578063ff99a0631461049657610137565b80638546d002146102ae578063ad093409146102de578063c0fb74271461030e578063c37113831461033e578063c3be559b1461037257610137565b80635b906bd7116100ff5780635b906bd71461020e5780635c7447691461022a5780636053b0ef1461025a578063679ebf1a146102765780636c23b7c61461029257610137565b80630b7914301461013c5780631d645b12146101715780633f69babd146101a65780635555fe17146101c257806359cda41f146101f2575b600080fd5b610156600480360381019061015191906122a4565b6104cb565b60405161016896959493929190612849565b60405180910390f35b61018b600480360381019061018691906122a4565b610644565b60405161019d9695949392919061269e565b60405180910390f35b6101c060048036038101906101bb91906122a4565b610950565b005b6101dc60048036038101906101d79190612225565b610a6d565b6040516101e99190612774565b60405180910390f35b61020c6004803603810190610207919061242d565b610d0e565b005b610228600480360381019061022391906122a4565b610db7565b005b610244600480360381019061023f91906122a4565b610e45565b6040516102519190612774565b60405180910390f35b610274600480360381019061026f919061242d565b610fe3565b005b610290600480360381019061028b91906122f6565b611074565b005b6102ac60048036038101906102a79190612332565b611105565b005b6102c860048036038101906102c391906122a4565b6111be565b6040516102d59190612683565b60405180910390f35b6102f860048036038101906102f391906122a4565b611271565b6040516103059190612646565b60405180910390f35b610328600480360381019061032391906122a4565b611324565b6040516103359190612661565b60405180910390f35b610358600480360381019061035391906122a4565b6113e9565b6040516103699594939291906128b8565b60405180910390f35b61038c600480360381019061038791906122a4565b61162c565b6040516103999190612774565b60405180910390f35b6103bc60048036038101906103b791906122a4565b6116df565b6040516103cd9594939291906129aa565b60405180910390f35b6103f060048036038101906103eb91906122a4565b611825565b6040516103fd9190612661565b60405180910390f35b610420600480360381019061041b9190612386565b6118ea565b60405161042d9190612774565b60405180910390f35b610450600480360381019061044b91906122a4565b611ba3565b60405161045d9190612774565b60405180910390f35b610480600480360381019061047b91906122f6565b611db5565b60405161048d9190612683565b60405180910390f35b6104b060048036038101906104ab91906122a4565b611e74565b6040516104c296959493929190612949565b60405180910390f35b60036020528060005260406000206000915090508060000154908060010180546104f490612d01565b80601f016020809104026020016040519081016040528092919081815260200182805461052090612d01565b801561056d5780601f106105425761010080835404028352916020019161056d565b820191906000526020600020905b81548152906001019060200180831161055057829003601f168201915b5050505050908060020160009054906101000a900473ffffffffffffffffffffffffffffffffffffffff16908060030180546105a890612d01565b80601f01602080910402602001604051908101604052809291908181526020018280546105d490612d01565b80156106215780601f106105f657610100808354040283529160200191610621565b820191906000526020600020905b81548152906001019060200180831161060457829003601f168201915b5050505050908060040154908060050160009054906101000a900460ff16905086565b606060006060600080606060008710158015610661575060015487105b6106a0576040517f08c379a000000000000000000000000000000000000000000000000000000000815260040161069790612754565b60405180910390fd5b60006003600089815260200190815260200160002060405180610100016040529081600082015481526020016001820180546106db90612d01565b80601f016020809104026020016040519081016040528092919081815260200182805461070790612d01565b80156107545780601f1061072957610100808354040283529160200191610754565b820191906000526020600020905b81548152906001019060200180831161073757829003601f168201915b505050505081526020016002820160009054906101000a900473ffffffffffffffffffffffffffffffffffffffff1673ffffffffffffffffffffffffffffffffffffffff1673ffffffffffffffffffffffffffffffffffffffff1681526020016003820180546107c390612d01565b80601f01602080910402602001604051908101604052809291908181526020018280546107ef90612d01565b801561083c5780601f106108115761010080835404028352916020019161083c565b820191906000526020600020905b81548152906001019060200180831161081f57829003601f168201915b50505050508152602001600482015481526020016005820160009054906101000a900460ff16151515158152602001600682018054806020026020016040519081016040528092919081815260200182805480156108b957602002820191906000526020600020905b8154815260200190600101908083116108a5575b505050505081526020016007820180548060200260200160405190810160405280929190818152602001828054801561091157602002820191906000526020600020905b8154815260200190600101908083116108fd575b505050505081525050905080602001518160400151826060015183608001518460a001518560c001519650965096509650965096505091939550919395565b60008110158015610962575060015481105b6109a1576040517f08c379a000000000000000000000000000000000000000000000000000000000815260040161099890612754565b60405180910390fd5b6003600082815260200190815260200160002060050160009054906101000a900460ff16610a04576040517f08c379a00000000000000000000000000000000000000000000000000000000081526004016109fb90612714565b60405180910390fd5b60006003600083815260200190815260200160002060050160006101000a81548160ff0219169083151502179055507fdc3cb569b066460f4a22dffa05317bdcce5d3826382ed49a21f13e5fa2063d3981604051610a629190612774565b60405180910390a150565b6000600154905060016000815480929190610a8790612d64565b919050555060006040518061010001604052808381526020018681526020013273ffffffffffffffffffffffffffffffffffffffff168152602001858152602001848152602001600115158152602001600067ffffffffffffffff811115610b18577f4e487b7100000000000000000000000000000000000000000000000000000000600052604160045260246000fd5b604051908082528060200260200182016040528015610b465781602001602082028036833780820191505090505b508152602001600067ffffffffffffffff811115610b8d577f4e487b7100000000000000000000000000000000000000000000000000000000600052604160045260246000fd5b604051908082528060200260200182016040528015610bbb5781602001602082028036833780820191505090505b5081525090508060036000848152602001908152602001600020600082015181600001556020820151816001019080519060200190610bfb929190611f3b565b5060408201518160020160006101000a81548173ffffffffffffffffffffffffffffffffffffffff021916908373ffffffffffffffffffffffffffffffffffffffff1602179055506060820151816003019080519060200190610c5f929190611f3b565b506080820151816004015560a08201518160050160006101000a81548160ff02191690831515021790555060c0820151816006019080519060200190610ca6929190611fc1565b5060e0820151816007019080519060200190610cc3929190611fc1565b509050507f33f062957884acb8efee2caecee03585896eb49115ec58afbe7b8343f3639e558286328787604051610cfe9594939291906127e8565b60405180910390a1509392505050565b60008210158015610d20575060015482105b610d5f576040517f08c379a0000000000000000000000000000000000000000000000000000000008152600401610d5690612754565b60405180910390fd5b8060036000848152602001908152602001600020600401819055507f8943d5ec077e850aa5ca16bcaf37cab9ce6f26eccb2e3702aeec853c0d5f29828282604051610dab929190612920565b60405180910390a15050565b60008054906101000a900473ffffffffffffffffffffffffffffffffffffffff1673ffffffffffffffffffffffffffffffffffffffff16635b906bd7826040518263ffffffff1660e01b8152600401610e109190612774565b600060405180830381600087803b158015610e2a57600080fd5b505af1158015610e3e573d6000803e3d6000fd5b5050505050565b60008060008054906101000a900473ffffffffffffffffffffffffffffffffffffffff1673ffffffffffffffffffffffffffffffffffffffff1663bd9a77ed846040518263ffffffff1660e01b8152600401610ea19190612774565b60206040518083038186803b158015610eb957600080fd5b505afa158015610ecd573d6000803e3d6000fd5b505050506040513d601f19601f82011682018060405250810190610ef191906122cd565b90506000600360008060009054906101000a900473ffffffffffffffffffffffffffffffffffffffff1673ffffffffffffffffffffffffffffffffffffffff1663c3be559b876040518263ffffffff1660e01b8152600401610f539190612774565b60206040518083038186803b158015610f6b57600080fd5b505afa158015610f7f573d6000803e3d6000fd5b505050506040513d601f19601f82011682018060405250810190610fa391906122cd565b815260200190815260200160002060040154905060648183610fc59190612c1d565b610fcf9190612bec565b82610fda9190612b96565b92505050919050565b60008054906101000a900473ffffffffffffffffffffffffffffffffffffffff1673ffffffffffffffffffffffffffffffffffffffff16636053b0ef83836040518363ffffffff1660e01b815260040161103e929190612920565b600060405180830381600087803b15801561105857600080fd5b505af115801561106c573d6000803e3d6000fd5b505050505050565b60008054906101000a900473ffffffffffffffffffffffffffffffffffffffff1673ffffffffffffffffffffffffffffffffffffffff1663679ebf1a83836040518363ffffffff1660e01b81526004016110cf92919061278f565b600060405180830381600087803b1580156110e957600080fd5b505af11580156110fd573d6000803e3d6000fd5b505050505050565b60008210158015611117575060015482105b611156576040517f08c379a000000000000000000000000000000000000000000000000000000000815260040161114d90612754565b60405180910390fd5b80600360008481526020019081526020016000206003019080519060200190611180929190611f3b565b507fc0043efb772dbfa7f5e5154fd48e3163dd877035968411f6365514346da2d09282826040516111b29291906127b8565b60405180910390a15050565b60008060009054906101000a900473ffffffffffffffffffffffffffffffffffffffff1673ffffffffffffffffffffffffffffffffffffffff16638546d002836040518263ffffffff1660e01b815260040161121a9190612774565b60206040518083038186803b15801561123257600080fd5b505afa158015611246573d6000803e3d6000fd5b505050506040513d601f19601f8201168201806040525081019061126a91906121fc565b9050919050565b60008060009054906101000a900473ffffffffffffffffffffffffffffffffffffffff1673ffffffffffffffffffffffffffffffffffffffff1663ad093409836040518263ffffffff1660e01b81526004016112cd9190612774565b60206040518083038186803b1580156112e557600080fd5b505afa1580156112f9573d6000803e3d6000fd5b505050506040513d601f19601f8201168201806040525081019061131d9190612192565b9050919050565b606060008210158015611338575060025482105b611377576040517f08c379a000000000000000000000000000000000000000000000000000000000815260040161136e90612734565b60405180910390fd5b6000600460008481526020019081526020016000206005018054806020026020016040519081016040528092919081815260200182805480156113d957602002820191906000526020600020905b8154815260200190600101908083116113c5575b5050505050905080915050919050565b60006060806000606060008610158015611404575060025486105b611443576040517f08c379a000000000000000000000000000000000000000000000000000000000815260040161143a90612734565b60405180910390fd5b6000600460008881526020019081526020016000206040518060c0016040529081600082015481526020016001820154815260200160028201805461148790612d01565b80601f01602080910402602001604051908101604052809291908181526020018280546114b390612d01565b80156115005780601f106114d557610100808354040283529160200191611500565b820191906000526020600020905b8154815290600101906020018083116114e357829003601f168201915b5050505050815260200160038201805461151990612d01565b80601f016020809104026020016040519081016040528092919081815260200182805461154590612d01565b80156115925780601f1061156757610100808354040283529160200191611592565b820191906000526020600020905b81548152906001019060200180831161157557829003601f168201915b5050505050815260200160048201548152602001600582018054806020026020016040519081016040528092919081815260200182805480156115f457602002820191906000526020600020905b8154815260200190600101908083116115e0575b505050505081525050905080600001518160400151826060015183608001518460a00151955095509550955095505091939590929450565b60008060009054906101000a900473ffffffffffffffffffffffffffffffffffffffff1673ffffffffffffffffffffffffffffffffffffffff1663c3be559b836040518263ffffffff1660e01b81526004016116889190612774565b60206040518083038186803b1580156116a057600080fd5b505afa1580156116b4573d6000803e3d6000fd5b505050506040513d601f19601f820116820180604052508101906116d891906122cd565b9050919050565b600460205280600052604060002060009150905080600001549080600101549080600201805461170e90612d01565b80601f016020809104026020016040519081016040528092919081815260200182805461173a90612d01565b80156117875780601f1061175c57610100808354040283529160200191611787565b820191906000526020600020905b81548152906001019060200180831161176a57829003601f168201915b50505050509080600301805461179c90612d01565b80601f01602080910402602001604051908101604052809291908181526020018280546117c890612d01565b80156118155780601f106117ea57610100808354040283529160200191611815565b820191906000526020600020905b8154815290600101906020018083116117f857829003601f168201915b5050505050908060040154905085565b606060008210158015611839575060015482105b611878576040517f08c379a000000000000000000000000000000000000000000000000000000000815260040161186f90612754565b60405180910390fd5b6000600360008481526020019081526020016000206007018054806020026020016040519081016040528092919081815260200182805480156118da57602002820191906000526020600020905b8154815260200190600101908083116118c6575b5050505050905080915050919050565b600060025490506002600081548092919061190490612d64565b919050555060006040518060c0016040528088815260200183815260200187815260200186815260200185815260200160008054906101000a900473ffffffffffffffffffffffffffffffffffffffff1673ffffffffffffffffffffffffffffffffffffffff166311a1c9998a8689896040518563ffffffff1660e01b81526004016119939493929190612a7a565b600060405180830381600087803b1580156119ad57600080fd5b505af11580156119c1573d6000803e3d6000fd5b505050506040513d6000823e3d601f19601f820116820180604052508101906119ea91906121bb565b8152509050806004600084815260200190815260200160002060008201518160000155602082015181600101556040820151816002019080519060200190611a33929190611f3b565b506060820151816003019080519060200190611a50929190611f3b565b506080820151816004015560a0820151816005019080519060200190611a77929190611fc1565b509050506003600088815260200190815260200160002060060182908060018154018082558091505060019003906000526020600020016000909190919091505560005b83811015611b5757600360008981526020019081526020016000206007018260a001518281518110611b16577f4e487b7100000000000000000000000000000000000000000000000000000000600052603260045260246000fd5b602002602001015190806001815401808255809150506001900390600052602060002001600090919091909150558080611b4f90612d64565b915050611abb565b507fa68ebcd6cf56682a2be85a8fef7913be763a27e0c51b2716c285467421fa75e6828888888888604051611b9196959493929190612a0b565b60405180910390a15095945050505050565b60008060008054906101000a900473ffffffffffffffffffffffffffffffffffffffff1673ffffffffffffffffffffffffffffffffffffffff1663509688d7846040518263ffffffff1660e01b8152600401611bff9190612774565b60206040518083038186803b158015611c1757600080fd5b505afa158015611c2b573d6000803e3d6000fd5b505050506040513d601f19601f82011682018060405250810190611c4f91906122cd565b14611d045760008054906101000a900473ffffffffffffffffffffffffffffffffffffffff1673ffffffffffffffffffffffffffffffffffffffff1663509688d7836040518263ffffffff1660e01b8152600401611cad9190612774565b60206040518083038186803b158015611cc557600080fd5b505afa158015611cd9573d6000803e3d6000fd5b505050506040513d601f19601f82011682018060405250810190611cfd91906122cd565b9050611db0565b60008054906101000a900473ffffffffffffffffffffffffffffffffffffffff1673ffffffffffffffffffffffffffffffffffffffff1663bd9a77ed836040518263ffffffff1660e01b8152600401611d5d9190612774565b60206040518083038186803b158015611d7557600080fd5b505afa158015611d89573d6000803e3d6000fd5b505050506040513d601f19601f82011682018060405250810190611dad91906122cd565b90505b919050565b6000808310158015611dc8575060015483105b611e07576040517f08c379a0000000000000000000000000000000000000000000000000000000008152600401611dfe90612754565b60405180910390fd5b8173ffffffffffffffffffffffffffffffffffffffff166003600085815260200190815260200160002060020160009054906101000a900473ffffffffffffffffffffffffffffffffffffffff1673ffffffffffffffffffffffffffffffffffffffff1614905092915050565b60008060008060008060008054906101000a900473ffffffffffffffffffffffffffffffffffffffff1673ffffffffffffffffffffffffffffffffffffffff1663ff99a063886040518263ffffffff1660e01b8152600401611ed69190612774565b60c06040518083038186803b158015611eee57600080fd5b505afa158015611f02573d6000803e3d6000fd5b505050506040513d601f19601f82011682018060405250810190611f269190612469565b95509550955095509550955091939550919395565b828054611f4790612d01565b90600052602060002090601f016020900481019282611f695760008555611fb0565b82601f10611f8257805160ff1916838001178555611fb0565b82800160010185558215611fb0579182015b82811115611faf578251825591602001919060010190611f94565b5b509050611fbd919061200e565b5090565b828054828255906000526020600020908101928215611ffd579160200282015b82811115611ffc578251825591602001919060010190611fe1565b5b50905061200a919061200e565b5090565b5b8082111561202757600081600090555060010161200f565b5090565b600061203e61203984612ae4565b612abf565b9050808382526020820190508285602086028201111561205d57600080fd5b60005b8581101561208d5781612073888261217d565b845260208401935060208301925050600181019050612060565b5050509392505050565b60006120aa6120a584612b10565b612abf565b9050828152602081018484840111156120c257600080fd5b6120cd848285612cbf565b509392505050565b6000813590506120e481612ef5565b92915050565b6000815190506120f981612ef5565b92915050565b600082601f83011261211057600080fd5b815161212084826020860161202b565b91505092915050565b60008151905061213881612f0c565b92915050565b600082601f83011261214f57600080fd5b813561215f848260208601612097565b91505092915050565b60008135905061217781612f23565b92915050565b60008151905061218c81612f23565b92915050565b6000602082840312156121a457600080fd5b60006121b2848285016120ea565b91505092915050565b6000602082840312156121cd57600080fd5b600082015167ffffffffffffffff8111156121e757600080fd5b6121f3848285016120ff565b91505092915050565b60006020828403121561220e57600080fd5b600061221c84828501612129565b91505092915050565b60008060006060848603121561223a57600080fd5b600084013567ffffffffffffffff81111561225457600080fd5b6122608682870161213e565b935050602084013567ffffffffffffffff81111561227d57600080fd5b6122898682870161213e565b925050604061229a86828701612168565b9150509250925092565b6000602082840312156122b657600080fd5b60006122c484828501612168565b91505092915050565b6000602082840312156122df57600080fd5b60006122ed8482850161217d565b91505092915050565b6000806040838503121561230957600080fd5b600061231785828601612168565b9250506020612328858286016120d5565b9150509250929050565b6000806040838503121561234557600080fd5b600061235385828601612168565b925050602083013567ffffffffffffffff81111561237057600080fd5b61237c8582860161213e565b9150509250929050565b600080600080600060a0868803121561239e57600080fd5b60006123ac88828901612168565b955050602086013567ffffffffffffffff8111156123c957600080fd5b6123d58882890161213e565b945050604086013567ffffffffffffffff8111156123f257600080fd5b6123fe8882890161213e565b935050606061240f88828901612168565b925050608061242088828901612168565b9150509295509295909350565b6000806040838503121561244057600080fd5b600061244e85828601612168565b925050602061245f85828601612168565b9150509250929050565b60008060008060008060c0878903121561248257600080fd5b600061249089828a0161217d565b96505060206124a189828a0161217d565b95505060406124b289828a016120ea565b94505060606124c389828a01612129565b93505060806124d489828a0161217d565b92505060a06124e589828a0161217d565b9150509295509295509295565b60006124fe8383612628565b60208301905092915050565b61251381612c77565b82525050565b600061252482612b51565b61252e8185612b74565b935061253983612b41565b8060005b8381101561256a57815161255188826124f2565b975061255c83612b67565b92505060018101905061253d565b5085935050505092915050565b61258081612c89565b82525050565b600061259182612b5c565b61259b8185612b85565b93506125ab818560208601612cce565b6125b481612e69565b840191505092915050565b60006125cc601483612b85565b91506125d782612e7a565b602082019050919050565b60006125ef601883612b85565b91506125fa82612ea3565b602082019050919050565b6000612612601583612b85565b915061261d82612ecc565b602082019050919050565b61263181612cb5565b82525050565b61264081612cb5565b82525050565b600060208201905061265b600083018461250a565b92915050565b6000602082019050818103600083015261267b8184612519565b905092915050565b60006020820190506126986000830184612577565b92915050565b600060c08201905081810360008301526126b88189612586565b90506126c7602083018861250a565b81810360408301526126d98187612586565b90506126e86060830186612637565b6126f56080830185612577565b81810360a08301526127078184612519565b9050979650505050505050565b6000602082019050818103600083015261272d816125bf565b9050919050565b6000602082019050818103600083015261274d816125e2565b9050919050565b6000602082019050818103600083015261276d81612605565b9050919050565b60006020820190506127896000830184612637565b92915050565b60006040820190506127a46000830185612637565b6127b1602083018461250a565b9392505050565b60006040820190506127cd6000830185612637565b81810360208301526127df8184612586565b90509392505050565b600060a0820190506127fd6000830188612637565b818103602083015261280f8187612586565b905061281e604083018661250a565b81810360608301526128308185612586565b905061283f6080830184612637565b9695505050505050565b600060c08201905061285e6000830189612637565b81810360208301526128708188612586565b905061287f604083018761250a565b81810360608301526128918186612586565b90506128a06080830185612637565b6128ad60a0830184612577565b979650505050505050565b600060a0820190506128cd6000830188612637565b81810360208301526128df8187612586565b905081810360408301526128f38186612586565b90506129026060830185612637565b81810360808301526129148184612519565b90509695505050505050565b60006040820190506129356000830185612637565b6129426020830184612637565b9392505050565b600060c08201905061295e6000830189612637565b61296b6020830188612637565b612978604083018761250a565b6129856060830186612577565b6129926080830185612637565b61299f60a0830184612637565b979650505050505050565b600060a0820190506129bf6000830188612637565b6129cc6020830187612637565b81810360408301526129de8186612586565b905081810360608301526129f28185612586565b9050612a016080830184612637565b9695505050505050565b600060c082019050612a206000830189612637565b612a2d6020830188612637565b8181036040830152612a3f8187612586565b90508181036060830152612a538186612586565b9050612a626080830185612637565b612a6f60a0830184612637565b979650505050505050565b6000608082019050612a8f6000830187612637565b612a9c6020830186612637565b612aa96040830185612637565b612ab66060830184612637565b95945050505050565b6000612ac9612ada565b9050612ad58282612d33565b919050565b6000604051905090565b600067ffffffffffffffff821115612aff57612afe612e3a565b5b602082029050602081019050919050565b600067ffffffffffffffff821115612b2b57612b2a612e3a565b5b612b3482612e69565b9050602081019050919050565b6000819050602082019050919050565b600081519050919050565b600081519050919050565b6000602082019050919050565b600082825260208201905092915050565b600082825260208201905092915050565b6000612ba182612cb5565b9150612bac83612cb5565b9250827fffffffffffffffffffffffffffffffffffffffffffffffffffffffffffffffff03821115612be157612be0612dad565b5b828201905092915050565b6000612bf782612cb5565b9150612c0283612cb5565b925082612c1257612c11612ddc565b5b828204905092915050565b6000612c2882612cb5565b9150612c3383612cb5565b9250817fffffffffffffffffffffffffffffffffffffffffffffffffffffffffffffffff0483118215151615612c6c57612c6b612dad565b5b828202905092915050565b6000612c8282612c95565b9050919050565b60008115159050919050565b600073ffffffffffffffffffffffffffffffffffffffff82169050919050565b6000819050919050565b82818337600083830152505050565b60005b83811015612cec578082015181840152602081019050612cd1565b83811115612cfb576000848401525b50505050565b60006002820490506001821680612d1957607f821691505b60208210811415612d2d57612d2c612e0b565b5b50919050565b612d3c82612e69565b810181811067ffffffffffffffff82111715612d5b57612d5a612e3a565b5b80604052505050565b6000612d6f82612cb5565b91507fffffffffffffffffffffffffffffffffffffffffffffffffffffffffffffffff821415612da257612da1612dad565b5b600182019050919050565b7f4e487b7100000000000000000000000000000000000000000000000000000000600052601160045260246000fd5b7f4e487b7100000000000000000000000000000000000000000000000000000000600052601260045260246000fd5b7f4e487b7100000000000000000000000000000000000000000000000000000000600052602260045260246000fd5b7f4e487b7100000000000000000000000000000000000000000000000000000000600052604160045260246000fd5b6000601f19601f8301169050919050565b7f4576656e74206973206e6f742061637469766521000000000000000000000000600082015250565b7f43617465676f727920646f6573206e6f74206578697374210000000000000000600082015250565b7f4576656e7420646f6573206e6f74206578697374210000000000000000000000600082015250565b612efe81612c77565b8114612f0957600080fd5b50565b612f1581612c89565b8114612f2057600080fd5b50565b612f2c81612cb5565b8114612f3757600080fd5b5056fea264697066735822122039c94a88e99187f16a86759eb42b01c79db65338c86e89e7b171733fcad26f0164736f6c63430008010033",
  "immutableReferences": {},
  "source": "// SPDX-License-Identifier: UNLICENSED\npragma solidity >=0.6.0 <0.9.0;\n\nimport \"./TicketMgmt.sol\";\n\ninterface IEventMgmt {\n    function createEvent(\n        string memory eventName,\n        string memory eventDescription,\n        uint256 maxResalePercentage\n    ) external returns (uint256 eventId);\n\n    function createCategory(\n        uint256 eventId,\n        string memory categoryName,\n        string memory categoryDescription,\n        uint256 ticketPrice,\n        uint256 numberOfTickets\n    ) external returns (uint256 categoryId);\n\n    function updateEventDescription(\n        uint256 eventId,\n        string memory newDescription\n    ) external;\n\n    function updateMaxResalePercentage(\n        uint256 eventId,\n        uint256 newMaxResalePercentage\n    ) external;\n\n    function cancelEvent(uint256 eventId) external;\n\n    function getEventInfo(\n        uint256 eventId\n    )\n        external\n        view\n        returns (\n            string memory eventName,\n            address eventOrganiser,\n            string memory eventDescription,\n            uint256 maxResalePercentage,\n            bool isActive,\n            uint256[] memory categoryIds\n        );\n\n    function getCategoryInfo(\n        uint256 categoryId\n    )\n        external\n        view\n        returns (\n            uint256 eventId,\n            string memory categoryName,\n            string memory categoryDescription,\n            uint256 ticketPrice,\n            uint256[] memory ticketIds\n        );\n\n    function getTicketInfo(\n        uint256 ticketId\n    )\n        external\n        view\n        returns (\n            uint256 eventId,\n            uint256 categoryId,\n            address owner,\n            bool isOnSale,\n            uint256 originalPrice,\n            uint256 resalePrice\n        );\n\n    function getEventTickets(\n        uint256 eventId\n    ) external view returns (uint256[] memory tickets);\n\n    function getCategoryTickets(\n        uint256 categoryId\n    ) external view returns (uint256[] memory tickets);\n\n    function isEventOrganiser(\n        uint256 eventId,\n        address user\n    ) external view returns (bool);\n\n    function getEventId(uint256 ticketId) external view returns (uint256);\n\n    function getTicketOwner(uint256 ticketId) external view returns (address);\n\n    function isForSale(uint256 ticketId) external view returns (bool);\n\n    function getTicketPrice(uint256 ticketId) external view returns (uint256);\n\n    function transferTicket(uint256 ticketId, address newOwner) external;\n\n    function calculateMaxResalePrice(\n        uint256 ticketId\n    ) external view returns (uint256);\n\n    function listTicketForResale(\n        uint256 ticketId,\n        uint256 resalePrice\n    ) external;\n\n    function unlistTicketFromResale(uint256 ticketId) external;\n}\n\ncontract EventMgmt is IEventMgmt {\n    ITicketMgmt private ITicketMgmtInstance;\n\n    constructor(address _ticketMgmtAddress) {\n        ITicketMgmtInstance = ITicketMgmt(_ticketMgmtAddress);\n    }\n\n    // counter for eventId - incremented each time a new event is created;\n    uint256 private eventCounter;\n    // counter for categoryId - incremented each time a new category is created;\n    uint256 private categoryCounter;\n\n    // mapping of eventId to EventInfo\n    mapping(uint256 => EventInfo) public events;\n    // mapping of categoryId to CategoryInfo\n    mapping(uint256 => CategoryInfo) public categories;\n\n    struct EventInfo {\n        uint256 eventId;\n        string eventName;\n        address eventOrganiser;\n        string eventDescription;\n        uint256 maxResalePercentage;\n        bool isActive;\n        uint256[] categoryIds;\n        uint256[] ticketIds;\n    }\n\n    struct CategoryInfo {\n        uint256 eventId;\n        uint256 categoryId;\n        string categoryName;\n        string categoryDescription;\n        uint256 ticketPrice;\n        uint256[] ticketIds;\n    }\n\n    event EventCreated(\n        uint256 eventId,\n        string eventName,\n        address eventOrganiser,\n        string eventDescription,\n        uint256 maxResalePercentage\n    );\n\n    event EventDescriptionUpdated(uint256 eventId, string newDescription);\n\n    event EventMaxResalePercentageUpdated(\n        uint256 eventId,\n        uint256 newMaxResalePercentage\n    );\n\n    event EventCancelled(uint256 eventId);\n\n    event CategoryCreated(\n        uint256 categoryId,\n        uint256 eventId,\n        string categoryName,\n        string categoryDescription,\n        uint256 ticketPrice,\n        uint256 numberOfTickets\n    );\n\n    function createEvent(\n        string memory eventName,\n        string memory eventDescription,\n        uint256 maxResalePercentage\n    ) public override returns (uint256 eventId) {\n        eventId = eventCounter;\n        eventCounter++;\n        EventInfo memory newEvent = EventInfo({\n            eventId: eventId,\n            eventName: eventName,\n            eventOrganiser: tx.origin,\n            eventDescription: eventDescription,\n            maxResalePercentage: maxResalePercentage,\n            isActive: true,\n            categoryIds: new uint256[](0),\n            ticketIds: new uint256[](0)\n        });\n        events[eventId] = newEvent;\n\n        emit EventCreated(\n            eventId,\n            eventName,\n            tx.origin,\n            eventDescription,\n            maxResalePercentage\n        );\n    }\n\n    function createCategory(\n        uint256 eventId,\n        string memory categoryName,\n        string memory categoryDescription,\n        uint256 ticketPrice,\n        uint256 numberOfTickets\n    ) public override returns (uint256 categoryId) {\n        categoryId = categoryCounter;\n        categoryCounter++;\n        CategoryInfo memory newCategory = CategoryInfo({\n            eventId: eventId,\n            categoryId: categoryId,\n            categoryName: categoryName,\n            categoryDescription: categoryDescription,\n            ticketPrice: ticketPrice,\n            ticketIds: ITicketMgmtInstance.createTickets(\n                eventId,\n                categoryId,\n                ticketPrice,\n                numberOfTickets\n            )\n        });\n\n        categories[categoryId] = newCategory;\n        events[eventId].categoryIds.push(categoryId);\n        for (uint256 index = 0; index < numberOfTickets; index++) {\n            events[eventId].ticketIds.push(newCategory.ticketIds[index]);\n        }\n\n        emit CategoryCreated(\n            categoryId,\n            eventId,\n            categoryName,\n            categoryDescription,\n            ticketPrice,\n            numberOfTickets\n        );\n        return categoryId;\n    }\n\n    function updateEventDescription(\n        uint256 eventId,\n        string memory newDescription\n    ) external override {\n        require(\n            (eventId >= 0) && (eventId < eventCounter),\n            \"Event does not exist!\"\n        );\n        events[eventId].eventDescription = newDescription;\n        emit EventDescriptionUpdated(eventId, newDescription);\n    }\n\n    function updateMaxResalePercentage(\n        uint256 eventId,\n        uint256 newMaxResalePercentage\n    ) external override {\n        require(\n            (eventId >= 0) && (eventId < eventCounter),\n            \"Event does not exist!\"\n        );\n        events[eventId].maxResalePercentage = newMaxResalePercentage;\n        emit EventMaxResalePercentageUpdated(eventId, newMaxResalePercentage);\n    }\n\n    function cancelEvent(uint256 eventId) external override {\n        require(\n            (eventId >= 0) && (eventId < eventCounter),\n            \"Event does not exist!\"\n        );\n        require(events[eventId].isActive, \"Event is not active!\");\n        events[eventId].isActive = false;\n        emit EventCancelled(eventId);\n    }\n\n    function getEventInfo(\n        uint256 eventId\n    )\n        public\n        view\n        override\n        returns (\n            string memory,\n            address,\n            string memory,\n            uint256,\n            bool,\n            uint256[] memory\n        )\n    {\n        require(\n            (eventId >= 0) && (eventId < eventCounter),\n            \"Event does not exist!\"\n        );\n        EventInfo memory eventInfo = events[eventId];\n        return (\n            eventInfo.eventName,\n            eventInfo.eventOrganiser,\n            eventInfo.eventDescription,\n            eventInfo.maxResalePercentage,\n            eventInfo.isActive,\n            eventInfo.categoryIds\n        );\n    }\n\n    function getCategoryInfo(\n        uint256 categoryId\n    )\n        public\n        view\n        override\n        returns (\n            uint256,\n            string memory,\n            string memory,\n            uint256,\n            uint256[] memory\n        )\n    {\n        require(\n            (categoryId >= 0) && (categoryId < categoryCounter),\n            \"Category does not exist!\"\n        );\n        CategoryInfo memory categoryInfo = categories[categoryId];\n        return (\n            categoryInfo.eventId,\n            categoryInfo.categoryName,\n            categoryInfo.categoryDescription,\n            categoryInfo.ticketPrice,\n            categoryInfo.ticketIds\n        );\n    }\n\n    function getTicketInfo(\n        uint256 ticketId\n    )\n        public\n        view\n        override\n        returns (uint256, uint256, address, bool, uint256, uint256)\n    {\n        return ITicketMgmtInstance.getTicketInfo(ticketId);\n    }\n\n    function getEventTickets(\n        uint256 eventId\n    ) public view override returns (uint256[] memory) {\n        require(\n            (eventId >= 0) && (eventId < eventCounter),\n            \"Event does not exist!\"\n        );\n        uint256[] memory eventTickets = events[eventId].ticketIds;\n        return eventTickets;\n    }\n\n    function getCategoryTickets(\n        uint256 categoryId\n    ) public view override returns (uint256[] memory) {\n        require(\n            (categoryId >= 0) && (categoryId < categoryCounter),\n            \"Category does not exist!\"\n        );\n        uint256[] memory categoryTickets = categories[categoryId].ticketIds;\n        return categoryTickets;\n    }\n\n    function isEventOrganiser(\n        uint256 eventId,\n        address user\n    ) public view override returns (bool) {\n        require(\n            (eventId >= 0) && (eventId < eventCounter),\n            \"Event does not exist!\"\n        );\n        return events[eventId].eventOrganiser == user;\n    }\n\n    function getTicketOwner(\n        uint256 ticketId\n    ) public view override returns (address) {\n        return ITicketMgmtInstance.getTicketOwner(ticketId);\n    }\n\n    function getTicketPrice(\n        uint256 ticketId\n    ) public view override returns (uint256) {\n        if (ITicketMgmtInstance.getResaleTicketPrice(ticketId) != 0) {\n            return ITicketMgmtInstance.getResaleTicketPrice(ticketId);\n        } else {\n            return ITicketMgmtInstance.getOriginalTicketPrice(ticketId);\n        }\n    }\n\n    function isForSale(uint256 ticketId) public view override returns (bool) {\n        return ITicketMgmtInstance.isForSale(ticketId);\n    }\n\n    function transferTicket(\n        uint256 ticketId,\n        address newOwner\n    ) public override {\n        ITicketMgmtInstance.transferTicket(ticketId, newOwner);\n    }\n\n    function calculateMaxResalePrice(\n        uint256 ticketId\n    ) public view override returns (uint256) {\n        uint256 originalPrice = ITicketMgmtInstance.getOriginalTicketPrice(\n            ticketId\n        );\n        uint256 maxResalePercentage = events[\n            ITicketMgmtInstance.getEventId(ticketId)\n        ].maxResalePercentage;\n        return originalPrice + ((originalPrice * maxResalePercentage) / 100);\n    }\n\n    function listTicketForResale(\n        uint256 ticketId,\n        uint256 resalePrice\n    ) public override {\n        ITicketMgmtInstance.listTicketForResale(ticketId, resalePrice);\n    }\n\n    function unlistTicketFromResale(uint256 ticketId) public override {\n        ITicketMgmtInstance.unlistTicketFromResale(ticketId);\n    }\n\n    function getEventId(\n        uint256 ticketId\n    ) public view override returns (uint256) {\n        return ITicketMgmtInstance.getEventId(ticketId);\n    }\n}\n",
  "sourcePath": "/Users/yaner/Documents/NUS/Y2S2/IS4302/ticketmister/contracts/EventMgmt.sol",
  "compiler": {
    "name": "solc",
    "version": "0.8.1+commit.df193b15.Emscripten.clang"
  },
  "schemaVersion": "3.3.3",
  "updatedAt": "2024-04-20T08:29:23.577Z",
  "networkType": "ethereum",
  "devdoc": {
    "kind": "dev",
    "methods": {},
    "version": 1
  },
  "userdoc": {
    "kind": "user",
    "methods": {},
    "version": 1
  }
}