{
  "contractName": "EventMgmt",
  "abi": [
    {
      "inputs": [
        {
          "internalType": "address",
          "name": "_ticketMgmtAddress",
          "type": "address"
        }
      ],
      "stateMutability": "nonpayable",
      "type": "constructor"
    },
    {
      "anonymous": false,
      "inputs": [
        {
          "indexed": false,
          "internalType": "uint256",
          "name": "categoryId",
          "type": "uint256"
        },
        {
          "indexed": false,
          "internalType": "uint256",
          "name": "eventId",
          "type": "uint256"
        },
        {
          "indexed": false,
          "internalType": "string",
          "name": "categoryName",
          "type": "string"
        },
        {
          "indexed": false,
          "internalType": "string",
          "name": "categoryDescription",
          "type": "string"
        },
        {
          "indexed": false,
          "internalType": "uint256",
          "name": "ticketPrice",
          "type": "uint256"
        },
        {
          "indexed": false,
          "internalType": "uint256",
          "name": "numberOfTickets",
          "type": "uint256"
        }
      ],
      "name": "CategoryCreated",
      "type": "event"
    },
    {
      "anonymous": false,
      "inputs": [
        {
          "indexed": false,
          "internalType": "uint256",
          "name": "eventId",
          "type": "uint256"
        }
      ],
      "name": "EventCancelled",
      "type": "event"
    },
    {
      "anonymous": false,
      "inputs": [
        {
          "indexed": false,
          "internalType": "uint256",
          "name": "eventId",
          "type": "uint256"
        },
        {
          "indexed": false,
          "internalType": "string",
          "name": "eventName",
          "type": "string"
        },
        {
          "indexed": false,
          "internalType": "address",
          "name": "eventOrganiser",
          "type": "address"
        },
        {
          "indexed": false,
          "internalType": "string",
          "name": "eventDescription",
          "type": "string"
        },
        {
          "indexed": false,
          "internalType": "uint256",
          "name": "maxResalePercentage",
          "type": "uint256"
        }
      ],
      "name": "EventCreated",
      "type": "event"
    },
    {
      "anonymous": false,
      "inputs": [
        {
          "indexed": false,
          "internalType": "uint256",
          "name": "eventId",
          "type": "uint256"
        },
        {
          "indexed": false,
          "internalType": "string",
          "name": "newDescription",
          "type": "string"
        }
      ],
      "name": "EventDescriptionUpdated",
      "type": "event"
    },
    {
      "anonymous": false,
      "inputs": [
        {
          "indexed": false,
          "internalType": "uint256",
          "name": "eventId",
          "type": "uint256"
        },
        {
          "indexed": false,
          "internalType": "uint256",
          "name": "newMaxResalePercentage",
          "type": "uint256"
        }
      ],
      "name": "EventMaxResalePercentageUpdated",
      "type": "event"
    },
    {
      "inputs": [
        {
          "internalType": "uint256",
          "name": "",
          "type": "uint256"
        }
      ],
      "name": "categories",
      "outputs": [
        {
          "internalType": "uint256",
          "name": "eventId",
          "type": "uint256"
        },
        {
          "internalType": "uint256",
          "name": "categoryId",
          "type": "uint256"
        },
        {
          "internalType": "string",
          "name": "categoryName",
          "type": "string"
        },
        {
          "internalType": "string",
          "name": "categoryDescription",
          "type": "string"
        },
        {
          "internalType": "uint256",
          "name": "ticketPrice",
          "type": "uint256"
        }
      ],
      "stateMutability": "view",
      "type": "function"
    },
    {
      "inputs": [
        {
          "internalType": "uint256",
          "name": "",
          "type": "uint256"
        }
      ],
      "name": "events",
      "outputs": [
        {
          "internalType": "uint256",
          "name": "eventId",
          "type": "uint256"
        },
        {
          "internalType": "string",
          "name": "eventName",
          "type": "string"
        },
        {
          "internalType": "address",
          "name": "eventOrganiser",
          "type": "address"
        },
        {
          "internalType": "string",
          "name": "eventDescription",
          "type": "string"
        },
        {
          "internalType": "uint256",
          "name": "maxResalePercentage",
          "type": "uint256"
        },
        {
          "internalType": "bool",
          "name": "isActive",
          "type": "bool"
        }
      ],
      "stateMutability": "view",
      "type": "function"
    },
    {
      "inputs": [
        {
          "internalType": "string",
          "name": "eventName",
          "type": "string"
        },
        {
          "internalType": "string",
          "name": "eventDescription",
          "type": "string"
        },
        {
          "internalType": "uint256",
          "name": "maxResalePercentage",
          "type": "uint256"
        }
      ],
      "name": "createEvent",
      "outputs": [
        {
          "internalType": "uint256",
          "name": "eventId",
          "type": "uint256"
        }
      ],
      "stateMutability": "nonpayable",
      "type": "function"
    },
    {
      "inputs": [
        {
          "internalType": "uint256",
          "name": "eventId",
          "type": "uint256"
        },
        {
          "internalType": "string",
          "name": "categoryName",
          "type": "string"
        },
        {
          "internalType": "string",
          "name": "categoryDescription",
          "type": "string"
        },
        {
          "internalType": "uint256",
          "name": "ticketPrice",
          "type": "uint256"
        },
        {
          "internalType": "uint256",
          "name": "numberOfTickets",
          "type": "uint256"
        }
      ],
      "name": "createCategory",
      "outputs": [
        {
          "internalType": "uint256",
          "name": "categoryId",
          "type": "uint256"
        }
      ],
      "stateMutability": "nonpayable",
      "type": "function"
    },
    {
      "inputs": [
        {
          "internalType": "uint256",
          "name": "eventId",
          "type": "uint256"
        },
        {
          "internalType": "string",
          "name": "newDescription",
          "type": "string"
        }
      ],
      "name": "updateEventDescription",
      "outputs": [],
      "stateMutability": "nonpayable",
      "type": "function"
    },
    {
      "inputs": [
        {
          "internalType": "uint256",
          "name": "eventId",
          "type": "uint256"
        },
        {
          "internalType": "uint256",
          "name": "newMaxResalePercentage",
          "type": "uint256"
        }
      ],
      "name": "updateMaxResalePercentage",
      "outputs": [],
      "stateMutability": "nonpayable",
      "type": "function"
    },
    {
      "inputs": [
        {
          "internalType": "uint256",
          "name": "eventId",
          "type": "uint256"
        }
      ],
      "name": "cancelEvent",
      "outputs": [],
      "stateMutability": "nonpayable",
      "type": "function"
    },
    {
      "inputs": [
        {
          "internalType": "uint256",
          "name": "ticketId",
          "type": "uint256"
        }
      ],
      "name": "cancelTicket",
      "outputs": [],
      "stateMutability": "nonpayable",
      "type": "function"
    },
    {
      "inputs": [
        {
          "internalType": "uint256",
          "name": "eventId",
          "type": "uint256"
        }
      ],
      "name": "getEventInfo",
      "outputs": [
        {
          "internalType": "string",
          "name": "",
          "type": "string"
        },
        {
          "internalType": "address",
          "name": "",
          "type": "address"
        },
        {
          "internalType": "string",
          "name": "",
          "type": "string"
        },
        {
          "internalType": "uint256",
          "name": "",
          "type": "uint256"
        },
        {
          "internalType": "bool",
          "name": "",
          "type": "bool"
        },
        {
          "internalType": "uint256[]",
          "name": "",
          "type": "uint256[]"
        }
      ],
      "stateMutability": "view",
      "type": "function"
    },
    {
      "inputs": [
        {
          "internalType": "uint256",
          "name": "categoryId",
          "type": "uint256"
        }
      ],
      "name": "getCategoryInfo",
      "outputs": [
        {
          "internalType": "uint256",
          "name": "",
          "type": "uint256"
        },
        {
          "internalType": "string",
          "name": "",
          "type": "string"
        },
        {
          "internalType": "string",
          "name": "",
          "type": "string"
        },
        {
          "internalType": "uint256",
          "name": "",
          "type": "uint256"
        },
        {
          "internalType": "uint256[]",
          "name": "",
          "type": "uint256[]"
        }
      ],
      "stateMutability": "view",
      "type": "function"
    },
    {
      "inputs": [
        {
          "internalType": "uint256",
          "name": "ticketId",
          "type": "uint256"
        }
      ],
      "name": "getTicketInfo",
      "outputs": [
        {
          "internalType": "uint256",
          "name": "",
          "type": "uint256"
        },
        {
          "internalType": "uint256",
          "name": "",
          "type": "uint256"
        },
        {
          "internalType": "address",
          "name": "",
          "type": "address"
        },
        {
          "internalType": "bool",
          "name": "",
          "type": "bool"
        },
        {
          "internalType": "uint256",
          "name": "",
          "type": "uint256"
        },
        {
          "internalType": "uint256",
          "name": "",
          "type": "uint256"
        }
      ],
      "stateMutability": "view",
      "type": "function"
    },
    {
      "inputs": [
        {
          "internalType": "uint256",
          "name": "eventId",
          "type": "uint256"
        }
      ],
      "name": "getEventTickets",
      "outputs": [
        {
          "internalType": "uint256[]",
          "name": "",
          "type": "uint256[]"
        }
      ],
      "stateMutability": "view",
      "type": "function"
    },
    {
      "inputs": [
        {
          "internalType": "uint256",
          "name": "categoryId",
          "type": "uint256"
        }
      ],
      "name": "getCategoryTickets",
      "outputs": [
        {
          "internalType": "uint256[]",
          "name": "",
          "type": "uint256[]"
        }
      ],
      "stateMutability": "view",
      "type": "function"
    },
    {
      "inputs": [
        {
          "internalType": "uint256",
          "name": "eventId",
          "type": "uint256"
        },
        {
          "internalType": "address",
          "name": "user",
          "type": "address"
        }
      ],
      "name": "isEventOrganiser",
      "outputs": [
        {
          "internalType": "bool",
          "name": "",
          "type": "bool"
        }
      ],
      "stateMutability": "view",
      "type": "function"
    },
    {
      "inputs": [
        {
          "internalType": "uint256",
          "name": "ticketId",
          "type": "uint256"
        }
      ],
      "name": "getTicketOwner",
      "outputs": [
        {
          "internalType": "address",
          "name": "",
          "type": "address"
        }
      ],
      "stateMutability": "view",
      "type": "function"
    },
    {
      "inputs": [
        {
          "internalType": "uint256",
          "name": "ticketId",
          "type": "uint256"
        }
      ],
      "name": "getTicketPrice",
      "outputs": [
        {
          "internalType": "uint256",
          "name": "currentSalePrice",
          "type": "uint256"
        }
      ],
      "stateMutability": "view",
      "type": "function"
    },
    {
      "inputs": [
        {
          "internalType": "uint256",
          "name": "ticketId",
          "type": "uint256"
        }
      ],
      "name": "getOriginalTicketPrice",
      "outputs": [
        {
          "internalType": "uint256",
          "name": "originalTicketPrice",
          "type": "uint256"
        }
      ],
      "stateMutability": "view",
      "type": "function"
    },
    {
      "inputs": [
        {
          "internalType": "uint256",
          "name": "ticketId",
          "type": "uint256"
        }
      ],
      "name": "isForSale",
      "outputs": [
        {
          "internalType": "bool",
          "name": "",
          "type": "bool"
        }
      ],
      "stateMutability": "view",
      "type": "function"
    },
    {
      "inputs": [
        {
          "internalType": "uint256",
          "name": "ticketId",
          "type": "uint256"
        },
        {
          "internalType": "address",
          "name": "newOwner",
          "type": "address"
        }
      ],
      "name": "transferTicket",
      "outputs": [],
      "stateMutability": "nonpayable",
      "type": "function"
    },
    {
      "inputs": [
        {
          "internalType": "uint256",
          "name": "ticketId",
          "type": "uint256"
        }
      ],
      "name": "calculateMaxResalePrice",
      "outputs": [
        {
          "internalType": "uint256",
          "name": "",
          "type": "uint256"
        }
      ],
      "stateMutability": "view",
      "type": "function"
    },
    {
      "inputs": [
        {
          "internalType": "uint256",
          "name": "ticketId",
          "type": "uint256"
        },
        {
          "internalType": "uint256",
          "name": "resalePrice",
          "type": "uint256"
        }
      ],
      "name": "listTicketForResale",
      "outputs": [],
      "stateMutability": "nonpayable",
      "type": "function"
    },
    {
      "inputs": [
        {
          "internalType": "uint256",
          "name": "ticketId",
          "type": "uint256"
        },
        {
          "internalType": "address",
          "name": "recipient",
          "type": "address"
        }
      ],
      "name": "giftTicket",
      "outputs": [],
      "stateMutability": "nonpayable",
      "type": "function"
    },
    {
      "inputs": [
        {
          "internalType": "uint256",
          "name": "ticketId",
          "type": "uint256"
        }
      ],
      "name": "unlistTicketFromResale",
      "outputs": [],
      "stateMutability": "nonpayable",
      "type": "function"
    },
    {
      "inputs": [
        {
          "internalType": "uint256",
          "name": "ticketId",
          "type": "uint256"
        }
      ],
      "name": "getEventId",
      "outputs": [
        {
          "internalType": "uint256",
          "name": "",
          "type": "uint256"
        }
      ],
      "stateMutability": "view",
      "type": "function"
    }
  ],
  "bytecode": "0x60806040523480156200001157600080fd5b50604051620032ea380380620032ea833981810160405281019062000037919062000095565b806000806101000a81548173ffffffffffffffffffffffffffffffffffffffff021916908373ffffffffffffffffffffffffffffffffffffffff160217905550506200010f565b6000815190506200008f81620000f5565b92915050565b600060208284031215620000a857600080fd5b6000620000b8848285016200007e565b91505092915050565b6000620000ce82620000d5565b9050919050565b600073ffffffffffffffffffffffffffffffffffffffff82169050919050565b6200010081620000c1565b81146200010c57600080fd5b50565b6131cb806200011f6000396000f3fe608060405234801561001057600080fd5b50600436106101585760003560e01c8063ad093409116100c3578063ca261ce11161007c578063ca261ce114610443578063cf52f78014610473578063ee355b1f146104a3578063f06fc961146104bf578063f1f04baa146104ef578063ff99a0631461051f57610158565b8063ad0934091461031b578063bd9a77ed1461034b578063c0fb74271461037b578063c3711383146103ab578063c3be559b146103df578063c6cdbe5e1461040f57610158565b80635c744769116101155780635c7447691461024b5780636053b0ef1461027b578063679ebf1a146102975780636c23b7c6146102b35780638546d002146102cf578063a98eac52146102ff57610158565b80630b7914301461015d5780631d645b12146101925780633f69babd146101c75780635555fe17146101e357806359cda41f146102135780635b906bd71461022f575b600080fd5b610177600480360381019061017291906124ff565b610554565b60405161018996959493929190612aa4565b60405180910390f35b6101ac60048036038101906101a791906124ff565b6106cd565b6040516101be969594939291906128f9565b60405180910390f35b6101e160048036038101906101dc91906124ff565b6109d9565b005b6101fd60048036038101906101f89190612480565b610af6565b60405161020a91906129cf565b60405180910390f35b61022d60048036038101906102289190612688565b610d97565b005b610249600480360381019061024491906124ff565b610e40565b005b610265600480360381019061026091906124ff565b610ece565b60405161027291906129cf565b60405180910390f35b61029560048036038101906102909190612688565b61106c565b005b6102b160048036038101906102ac9190612551565b6110fd565b005b6102cd60048036038101906102c8919061258d565b61118e565b005b6102e960048036038101906102e491906124ff565b611247565b6040516102f691906128de565b60405180910390f35b61031960048036038101906103149190612551565b6112fa565b005b610335600480360381019061033091906124ff565b61138b565b60405161034291906128a1565b60405180910390f35b610365600480360381019061036091906124ff565b61143e565b60405161037291906129cf565b60405180910390f35b610395600480360381019061039091906124ff565b6114f1565b6040516103a291906128bc565b60405180910390f35b6103c560048036038101906103c091906124ff565b6115b6565b6040516103d6959493929190612b13565b60405180910390f35b6103f960048036038101906103f491906124ff565b6117f9565b60405161040691906129cf565b60405180910390f35b610429600480360381019061042491906124ff565b6118ac565b60405161043a959493929190612c05565b60405180910390f35b61045d600480360381019061045891906124ff565b6119f2565b60405161046a91906128bc565b60405180910390f35b61048d600480360381019061048891906125e1565b611ab7565b60405161049a91906129cf565b60405180910390f35b6104bd60048036038101906104b891906124ff565b611d70565b005b6104d960048036038101906104d491906124ff565b611dfe565b6040516104e691906129cf565b60405180910390f35b61050960048036038101906105049190612551565b612010565b60405161051691906128de565b60405180910390f35b610539600480360381019061053491906124ff565b6120cf565b60405161054b96959493929190612ba4565b60405180910390f35b600360205280600052604060002060009150905080600001549080600101805461057d90612f5c565b80601f01602080910402602001604051908101604052809291908181526020018280546105a990612f5c565b80156105f65780601f106105cb576101008083540402835291602001916105f6565b820191906000526020600020905b8154815290600101906020018083116105d957829003601f168201915b5050505050908060020160009054906101000a900473ffffffffffffffffffffffffffffffffffffffff169080600301805461063190612f5c565b80601f016020809104026020016040519081016040528092919081815260200182805461065d90612f5c565b80156106aa5780601f1061067f576101008083540402835291602001916106aa565b820191906000526020600020905b81548152906001019060200180831161068d57829003601f168201915b5050505050908060040154908060050160009054906101000a900460ff16905086565b60606000606060008060606000871180156106ea57506001548711155b610729576040517f08c379a0000000000000000000000000000000000000000000000000000000008152600401610720906129af565b60405180910390fd5b600060036000898152602001908152602001600020604051806101000160405290816000820154815260200160018201805461076490612f5c565b80601f016020809104026020016040519081016040528092919081815260200182805461079090612f5c565b80156107dd5780601f106107b2576101008083540402835291602001916107dd565b820191906000526020600020905b8154815290600101906020018083116107c057829003601f168201915b505050505081526020016002820160009054906101000a900473ffffffffffffffffffffffffffffffffffffffff1673ffffffffffffffffffffffffffffffffffffffff1673ffffffffffffffffffffffffffffffffffffffff16815260200160038201805461084c90612f5c565b80601f016020809104026020016040519081016040528092919081815260200182805461087890612f5c565b80156108c55780601f1061089a576101008083540402835291602001916108c5565b820191906000526020600020905b8154815290600101906020018083116108a857829003601f168201915b50505050508152602001600482015481526020016005820160009054906101000a900460ff161515151581526020016006820180548060200260200160405190810160405280929190818152602001828054801561094257602002820191906000526020600020905b81548152602001906001019080831161092e575b505050505081526020016007820180548060200260200160405190810160405280929190818152602001828054801561099a57602002820191906000526020600020905b815481526020019060010190808311610986575b505050505081525050905080602001518160400151826060015183608001518460a001518560c001519650965096509650965096505091939550919395565b6000811180156109eb57506001548111155b610a2a576040517f08c379a0000000000000000000000000000000000000000000000000000000008152600401610a21906129af565b60405180910390fd5b6003600082815260200190815260200160002060050160009054906101000a900460ff16610a8d576040517f08c379a0000000000000000000000000000000000000000000000000000000008152600401610a849061296f565b60405180910390fd5b60006003600083815260200190815260200160002060050160006101000a81548160ff0219169083151502179055507fdc3cb569b066460f4a22dffa05317bdcce5d3826382ed49a21f13e5fa2063d3981604051610aeb91906129cf565b60405180910390a150565b600060016000815480929190610b0b90612fbf565b9190505550600154905060006040518061010001604052808381526020018681526020013273ffffffffffffffffffffffffffffffffffffffff168152602001858152602001848152602001600115158152602001600067ffffffffffffffff811115610ba1577f4e487b7100000000000000000000000000000000000000000000000000000000600052604160045260246000fd5b604051908082528060200260200182016040528015610bcf5781602001602082028036833780820191505090505b508152602001600067ffffffffffffffff811115610c16577f4e487b7100000000000000000000000000000000000000000000000000000000600052604160045260246000fd5b604051908082528060200260200182016040528015610c445781602001602082028036833780820191505090505b5081525090508060036000848152602001908152602001600020600082015181600001556020820151816001019080519060200190610c84929190612196565b5060408201518160020160006101000a81548173ffffffffffffffffffffffffffffffffffffffff021916908373ffffffffffffffffffffffffffffffffffffffff1602179055506060820151816003019080519060200190610ce8929190612196565b506080820151816004015560a08201518160050160006101000a81548160ff02191690831515021790555060c0820151816006019080519060200190610d2f92919061221c565b5060e0820151816007019080519060200190610d4c92919061221c565b509050507f33f062957884acb8efee2caecee03585896eb49115ec58afbe7b8343f3639e558286328787604051610d87959493929190612a43565b60405180910390a1509392505050565b600082118015610da957506001548211155b610de8576040517f08c379a0000000000000000000000000000000000000000000000000000000008152600401610ddf906129af565b60405180910390fd5b8060036000848152602001908152602001600020600401819055507f8943d5ec077e850aa5ca16bcaf37cab9ce6f26eccb2e3702aeec853c0d5f29828282604051610e34929190612b7b565b60405180910390a15050565b60008054906101000a900473ffffffffffffffffffffffffffffffffffffffff1673ffffffffffffffffffffffffffffffffffffffff16635b906bd7826040518263ffffffff1660e01b8152600401610e9991906129cf565b600060405180830381600087803b158015610eb357600080fd5b505af1158015610ec7573d6000803e3d6000fd5b5050505050565b60008060008054906101000a900473ffffffffffffffffffffffffffffffffffffffff1673ffffffffffffffffffffffffffffffffffffffff1663bd9a77ed846040518263ffffffff1660e01b8152600401610f2a91906129cf565b60206040518083038186803b158015610f4257600080fd5b505afa158015610f56573d6000803e3d6000fd5b505050506040513d601f19601f82011682018060405250810190610f7a9190612528565b90506000600360008060009054906101000a900473ffffffffffffffffffffffffffffffffffffffff1673ffffffffffffffffffffffffffffffffffffffff1663c3be559b876040518263ffffffff1660e01b8152600401610fdc91906129cf565b60206040518083038186803b158015610ff457600080fd5b505afa158015611008573d6000803e3d6000fd5b505050506040513d601f19601f8201168201806040525081019061102c9190612528565b81526020019081526020016000206004015490506064818361104e9190612e78565b6110589190612e47565b826110639190612df1565b92505050919050565b60008054906101000a900473ffffffffffffffffffffffffffffffffffffffff1673ffffffffffffffffffffffffffffffffffffffff16636053b0ef83836040518363ffffffff1660e01b81526004016110c7929190612b7b565b600060405180830381600087803b1580156110e157600080fd5b505af11580156110f5573d6000803e3d6000fd5b505050505050565b60008054906101000a900473ffffffffffffffffffffffffffffffffffffffff1673ffffffffffffffffffffffffffffffffffffffff1663679ebf1a83836040518363ffffffff1660e01b81526004016111589291906129ea565b600060405180830381600087803b15801561117257600080fd5b505af1158015611186573d6000803e3d6000fd5b505050505050565b6000821180156111a057506001548211155b6111df576040517f08c379a00000000000000000000000000000000000000000000000000000000081526004016111d6906129af565b60405180910390fd5b80600360008481526020019081526020016000206003019080519060200190611209929190612196565b507fc0043efb772dbfa7f5e5154fd48e3163dd877035968411f6365514346da2d092828260405161123b929190612a13565b60405180910390a15050565b60008060009054906101000a900473ffffffffffffffffffffffffffffffffffffffff1673ffffffffffffffffffffffffffffffffffffffff16638546d002836040518263ffffffff1660e01b81526004016112a391906129cf565b60206040518083038186803b1580156112bb57600080fd5b505afa1580156112cf573d6000803e3d6000fd5b505050506040513d601f19601f820116820180604052508101906112f39190612457565b9050919050565b60008054906101000a900473ffffffffffffffffffffffffffffffffffffffff1673ffffffffffffffffffffffffffffffffffffffff1663679ebf1a83836040518363ffffffff1660e01b81526004016113559291906129ea565b600060405180830381600087803b15801561136f57600080fd5b505af1158015611383573d6000803e3d6000fd5b505050505050565b60008060009054906101000a900473ffffffffffffffffffffffffffffffffffffffff1673ffffffffffffffffffffffffffffffffffffffff1663ad093409836040518263ffffffff1660e01b81526004016113e791906129cf565b60206040518083038186803b1580156113ff57600080fd5b505afa158015611413573d6000803e3d6000fd5b505050506040513d601f19601f8201168201806040525081019061143791906123ed565b9050919050565b60008060009054906101000a900473ffffffffffffffffffffffffffffffffffffffff1673ffffffffffffffffffffffffffffffffffffffff1663bd9a77ed836040518263ffffffff1660e01b815260040161149a91906129cf565b60206040518083038186803b1580156114b257600080fd5b505afa1580156114c6573d6000803e3d6000fd5b505050506040513d601f19601f820116820180604052508101906114ea9190612528565b9050919050565b606060008211801561150557506002548211155b611544576040517f08c379a000000000000000000000000000000000000000000000000000000000815260040161153b9061298f565b60405180910390fd5b6000600460008481526020019081526020016000206005018054806020026020016040519081016040528092919081815260200182805480156115a657602002820191906000526020600020905b815481526020019060010190808311611592575b5050505050905080915050919050565b6000606080600060606000861180156115d157506002548611155b611610576040517f08c379a00000000000000000000000000000000000000000000000000000000081526004016116079061298f565b60405180910390fd5b6000600460008881526020019081526020016000206040518060c0016040529081600082015481526020016001820154815260200160028201805461165490612f5c565b80601f016020809104026020016040519081016040528092919081815260200182805461168090612f5c565b80156116cd5780601f106116a2576101008083540402835291602001916116cd565b820191906000526020600020905b8154815290600101906020018083116116b057829003601f168201915b505050505081526020016003820180546116e690612f5c565b80601f016020809104026020016040519081016040528092919081815260200182805461171290612f5c565b801561175f5780601f106117345761010080835404028352916020019161175f565b820191906000526020600020905b81548152906001019060200180831161174257829003601f168201915b5050505050815260200160048201548152602001600582018054806020026020016040519081016040528092919081815260200182805480156117c157602002820191906000526020600020905b8154815260200190600101908083116117ad575b505050505081525050905080600001518160400151826060015183608001518460a00151955095509550955095505091939590929450565b60008060009054906101000a900473ffffffffffffffffffffffffffffffffffffffff1673ffffffffffffffffffffffffffffffffffffffff1663c3be559b836040518263ffffffff1660e01b815260040161185591906129cf565b60206040518083038186803b15801561186d57600080fd5b505afa158015611881573d6000803e3d6000fd5b505050506040513d601f19601f820116820180604052508101906118a59190612528565b9050919050565b60046020528060005260406000206000915090508060000154908060010154908060020180546118db90612f5c565b80601f016020809104026020016040519081016040528092919081815260200182805461190790612f5c565b80156119545780601f1061192957610100808354040283529160200191611954565b820191906000526020600020905b81548152906001019060200180831161193757829003601f168201915b50505050509080600301805461196990612f5c565b80601f016020809104026020016040519081016040528092919081815260200182805461199590612f5c565b80156119e25780601f106119b7576101008083540402835291602001916119e2565b820191906000526020600020905b8154815290600101906020018083116119c557829003601f168201915b5050505050908060040154905085565b6060600082118015611a0657506001548211155b611a45576040517f08c379a0000000000000000000000000000000000000000000000000000000008152600401611a3c906129af565b60405180910390fd5b600060036000848152602001908152602001600020600701805480602002602001604051908101604052809291908181526020018280548015611aa757602002820191906000526020600020905b815481526020019060010190808311611a93575b5050505050905080915050919050565b600060026000815480929190611acc90612fbf565b9190505550600254905060006040518060c0016040528088815260200183815260200187815260200186815260200185815260200160008054906101000a900473ffffffffffffffffffffffffffffffffffffffff1673ffffffffffffffffffffffffffffffffffffffff166311a1c9998a8689896040518563ffffffff1660e01b8152600401611b609493929190612cd5565b600060405180830381600087803b158015611b7a57600080fd5b505af1158015611b8e573d6000803e3d6000fd5b505050506040513d6000823e3d601f19601f82011682018060405250810190611bb79190612416565b8152509050806004600084815260200190815260200160002060008201518160000155602082015181600101556040820151816002019080519060200190611c00929190612196565b506060820151816003019080519060200190611c1d929190612196565b506080820151816004015560a0820151816005019080519060200190611c4492919061221c565b509050506003600088815260200190815260200160002060060182908060018154018082558091505060019003906000526020600020016000909190919091505560005b83811015611d2457600360008981526020019081526020016000206007018260a001518281518110611ce3577f4e487b7100000000000000000000000000000000000000000000000000000000600052603260045260246000fd5b602002602001015190806001815401808255809150506001900390600052602060002001600090919091909150558080611d1c90612fbf565b915050611c88565b507fa68ebcd6cf56682a2be85a8fef7913be763a27e0c51b2716c285467421fa75e6828888888888604051611d5e96959493929190612c66565b60405180910390a15095945050505050565b60008054906101000a900473ffffffffffffffffffffffffffffffffffffffff1673ffffffffffffffffffffffffffffffffffffffff1663ee355b1f826040518263ffffffff1660e01b8152600401611dc991906129cf565b600060405180830381600087803b158015611de357600080fd5b505af1158015611df7573d6000803e3d6000fd5b5050505050565b60008060008054906101000a900473ffffffffffffffffffffffffffffffffffffffff1673ffffffffffffffffffffffffffffffffffffffff1663509688d7846040518263ffffffff1660e01b8152600401611e5a91906129cf565b60206040518083038186803b158015611e7257600080fd5b505afa158015611e86573d6000803e3d6000fd5b505050506040513d601f19601f82011682018060405250810190611eaa9190612528565b14611f5f5760008054906101000a900473ffffffffffffffffffffffffffffffffffffffff1673ffffffffffffffffffffffffffffffffffffffff1663509688d7836040518263ffffffff1660e01b8152600401611f0891906129cf565b60206040518083038186803b158015611f2057600080fd5b505afa158015611f34573d6000803e3d6000fd5b505050506040513d601f19601f82011682018060405250810190611f589190612528565b905061200b565b60008054906101000a900473ffffffffffffffffffffffffffffffffffffffff1673ffffffffffffffffffffffffffffffffffffffff1663bd9a77ed836040518263ffffffff1660e01b8152600401611fb891906129cf565b60206040518083038186803b158015611fd057600080fd5b505afa158015611fe4573d6000803e3d6000fd5b505050506040513d601f19601f820116820180604052508101906120089190612528565b90505b919050565b6000808311801561202357506001548311155b612062576040517f08c379a0000000000000000000000000000000000000000000000000000000008152600401612059906129af565b60405180910390fd5b8173ffffffffffffffffffffffffffffffffffffffff166003600085815260200190815260200160002060020160009054906101000a900473ffffffffffffffffffffffffffffffffffffffff1673ffffffffffffffffffffffffffffffffffffffff1614905092915050565b60008060008060008060008054906101000a900473ffffffffffffffffffffffffffffffffffffffff1673ffffffffffffffffffffffffffffffffffffffff1663ff99a063886040518263ffffffff1660e01b815260040161213191906129cf565b60c06040518083038186803b15801561214957600080fd5b505afa15801561215d573d6000803e3d6000fd5b505050506040513d601f19601f8201168201806040525081019061218191906126c4565b95509550955095509550955091939550919395565b8280546121a290612f5c565b90600052602060002090601f0160209004810192826121c4576000855561220b565b82601f106121dd57805160ff191683800117855561220b565b8280016001018555821561220b579182015b8281111561220a5782518255916020019190600101906121ef565b5b5090506122189190612269565b5090565b828054828255906000526020600020908101928215612258579160200282015b8281111561225757825182559160200191906001019061223c565b5b5090506122659190612269565b5090565b5b8082111561228257600081600090555060010161226a565b5090565b600061229961229484612d3f565b612d1a565b905080838252602082019050828560208602820111156122b857600080fd5b60005b858110156122e857816122ce88826123d8565b8452602084019350602083019250506001810190506122bb565b5050509392505050565b600061230561230084612d6b565b612d1a565b90508281526020810184848401111561231d57600080fd5b612328848285612f1a565b509392505050565b60008135905061233f81613150565b92915050565b60008151905061235481613150565b92915050565b600082601f83011261236b57600080fd5b815161237b848260208601612286565b91505092915050565b60008151905061239381613167565b92915050565b600082601f8301126123aa57600080fd5b81356123ba8482602086016122f2565b91505092915050565b6000813590506123d28161317e565b92915050565b6000815190506123e78161317e565b92915050565b6000602082840312156123ff57600080fd5b600061240d84828501612345565b91505092915050565b60006020828403121561242857600080fd5b600082015167ffffffffffffffff81111561244257600080fd5b61244e8482850161235a565b91505092915050565b60006020828403121561246957600080fd5b600061247784828501612384565b91505092915050565b60008060006060848603121561249557600080fd5b600084013567ffffffffffffffff8111156124af57600080fd5b6124bb86828701612399565b935050602084013567ffffffffffffffff8111156124d857600080fd5b6124e486828701612399565b92505060406124f5868287016123c3565b9150509250925092565b60006020828403121561251157600080fd5b600061251f848285016123c3565b91505092915050565b60006020828403121561253a57600080fd5b6000612548848285016123d8565b91505092915050565b6000806040838503121561256457600080fd5b6000612572858286016123c3565b925050602061258385828601612330565b9150509250929050565b600080604083850312156125a057600080fd5b60006125ae858286016123c3565b925050602083013567ffffffffffffffff8111156125cb57600080fd5b6125d785828601612399565b9150509250929050565b600080600080600060a086880312156125f957600080fd5b6000612607888289016123c3565b955050602086013567ffffffffffffffff81111561262457600080fd5b61263088828901612399565b945050604086013567ffffffffffffffff81111561264d57600080fd5b61265988828901612399565b935050606061266a888289016123c3565b925050608061267b888289016123c3565b9150509295509295909350565b6000806040838503121561269b57600080fd5b60006126a9858286016123c3565b92505060206126ba858286016123c3565b9150509250929050565b60008060008060008060c087890312156126dd57600080fd5b60006126eb89828a016123d8565b96505060206126fc89828a016123d8565b955050604061270d89828a01612345565b945050606061271e89828a01612384565b935050608061272f89828a016123d8565b92505060a061274089828a016123d8565b9150509295509295509295565b60006127598383612883565b60208301905092915050565b61276e81612ed2565b82525050565b600061277f82612dac565b6127898185612dcf565b935061279483612d9c565b8060005b838110156127c55781516127ac888261274d565b97506127b783612dc2565b925050600181019050612798565b5085935050505092915050565b6127db81612ee4565b82525050565b60006127ec82612db7565b6127f68185612de0565b9350612806818560208601612f29565b61280f816130c4565b840191505092915050565b6000612827601483612de0565b9150612832826130d5565b602082019050919050565b600061284a601883612de0565b9150612855826130fe565b602082019050919050565b600061286d601583612de0565b915061287882613127565b602082019050919050565b61288c81612f10565b82525050565b61289b81612f10565b82525050565b60006020820190506128b66000830184612765565b92915050565b600060208201905081810360008301526128d68184612774565b905092915050565b60006020820190506128f360008301846127d2565b92915050565b600060c082019050818103600083015261291381896127e1565b90506129226020830188612765565b818103604083015261293481876127e1565b90506129436060830186612892565b61295060808301856127d2565b81810360a08301526129628184612774565b9050979650505050505050565b600060208201905081810360008301526129888161281a565b9050919050565b600060208201905081810360008301526129a88161283d565b9050919050565b600060208201905081810360008301526129c881612860565b9050919050565b60006020820190506129e46000830184612892565b92915050565b60006040820190506129ff6000830185612892565b612a0c6020830184612765565b9392505050565b6000604082019050612a286000830185612892565b8181036020830152612a3a81846127e1565b90509392505050565b600060a082019050612a586000830188612892565b8181036020830152612a6a81876127e1565b9050612a796040830186612765565b8181036060830152612a8b81856127e1565b9050612a9a6080830184612892565b9695505050505050565b600060c082019050612ab96000830189612892565b8181036020830152612acb81886127e1565b9050612ada6040830187612765565b8181036060830152612aec81866127e1565b9050612afb6080830185612892565b612b0860a08301846127d2565b979650505050505050565b600060a082019050612b286000830188612892565b8181036020830152612b3a81876127e1565b90508181036040830152612b4e81866127e1565b9050612b5d6060830185612892565b8181036080830152612b6f8184612774565b90509695505050505050565b6000604082019050612b906000830185612892565b612b9d6020830184612892565b9392505050565b600060c082019050612bb96000830189612892565b612bc66020830188612892565b612bd36040830187612765565b612be060608301866127d2565b612bed6080830185612892565b612bfa60a0830184612892565b979650505050505050565b600060a082019050612c1a6000830188612892565b612c276020830187612892565b8181036040830152612c3981866127e1565b90508181036060830152612c4d81856127e1565b9050612c5c6080830184612892565b9695505050505050565b600060c082019050612c7b6000830189612892565b612c886020830188612892565b8181036040830152612c9a81876127e1565b90508181036060830152612cae81866127e1565b9050612cbd6080830185612892565b612cca60a0830184612892565b979650505050505050565b6000608082019050612cea6000830187612892565b612cf76020830186612892565b612d046040830185612892565b612d116060830184612892565b95945050505050565b6000612d24612d35565b9050612d308282612f8e565b919050565b6000604051905090565b600067ffffffffffffffff821115612d5a57612d59613095565b5b602082029050602081019050919050565b600067ffffffffffffffff821115612d8657612d85613095565b5b612d8f826130c4565b9050602081019050919050565b6000819050602082019050919050565b600081519050919050565b600081519050919050565b6000602082019050919050565b600082825260208201905092915050565b600082825260208201905092915050565b6000612dfc82612f10565b9150612e0783612f10565b9250827fffffffffffffffffffffffffffffffffffffffffffffffffffffffffffffffff03821115612e3c57612e3b613008565b5b828201905092915050565b6000612e5282612f10565b9150612e5d83612f10565b925082612e6d57612e6c613037565b5b828204905092915050565b6000612e8382612f10565b9150612e8e83612f10565b9250817fffffffffffffffffffffffffffffffffffffffffffffffffffffffffffffffff0483118215151615612ec757612ec6613008565b5b828202905092915050565b6000612edd82612ef0565b9050919050565b60008115159050919050565b600073ffffffffffffffffffffffffffffffffffffffff82169050919050565b6000819050919050565b82818337600083830152505050565b60005b83811015612f47578082015181840152602081019050612f2c565b83811115612f56576000848401525b50505050565b60006002820490506001821680612f7457607f821691505b60208210811415612f8857612f87613066565b5b50919050565b612f97826130c4565b810181811067ffffffffffffffff82111715612fb657612fb5613095565b5b80604052505050565b6000612fca82612f10565b91507fffffffffffffffffffffffffffffffffffffffffffffffffffffffffffffffff821415612ffd57612ffc613008565b5b600182019050919050565b7f4e487b7100000000000000000000000000000000000000000000000000000000600052601160045260246000fd5b7f4e487b7100000000000000000000000000000000000000000000000000000000600052601260045260246000fd5b7f4e487b7100000000000000000000000000000000000000000000000000000000600052602260045260246000fd5b7f4e487b7100000000000000000000000000000000000000000000000000000000600052604160045260246000fd5b6000601f19601f8301169050919050565b7f4576656e74206973206e6f742061637469766521000000000000000000000000600082015250565b7f43617465676f727920646f6573206e6f74206578697374210000000000000000600082015250565b7f4576656e7420646f6573206e6f74206578697374210000000000000000000000600082015250565b61315981612ed2565b811461316457600080fd5b50565b61317081612ee4565b811461317b57600080fd5b50565b61318781612f10565b811461319257600080fd5b5056fea26469706673582212207a0ed8a3dbd092935165eecd9b310f9043fec6a2cfb21aa701245ab574d6f85764736f6c63430008010033",
  "immutableReferences": {},
  "source": "// SPDX-License-Identifier: UNLICENSED\npragma solidity >=0.6.0 <0.9.0;\n\nimport \"./TicketMgmt.sol\";\n\ninterface IEventMgmt {\n    function createEvent(\n        string memory eventName,\n        string memory eventDescription,\n        uint256 maxResalePercentage\n    ) external returns (uint256 eventId);\n\n    function createCategory(\n        uint256 eventId,\n        string memory categoryName,\n        string memory categoryDescription,\n        uint256 ticketPrice,\n        uint256 numberOfTickets\n    ) external returns (uint256 categoryId);\n\n    function updateEventDescription(\n        uint256 eventId,\n        string memory newDescription\n    ) external;\n\n    function updateMaxResalePercentage(\n        uint256 eventId,\n        uint256 newMaxResalePercentage\n    ) external;\n\n    function cancelEvent(uint256 eventId) external;\n    function cancelTicket(uint256 ticketId) external;\n\n    function getEventInfo(\n        uint256 eventId\n    )\n        external\n        view\n        returns (\n            string memory eventName,\n            address eventOrganiser,\n            string memory eventDescription,\n            uint256 maxResalePercentage,\n            bool isActive,\n            uint256[] memory categoryIds\n        );\n\n    function getCategoryInfo(\n        uint256 categoryId\n    )\n        external\n        view\n        returns (\n            uint256 eventId,\n            string memory categoryName,\n            string memory categoryDescription,\n            uint256 ticketPrice,\n            uint256[] memory ticketIds\n        );\n\n    function getTicketInfo(\n        uint256 ticketId\n    )\n        external\n        view\n        returns (\n            uint256 eventId,\n            uint256 categoryId,\n            address owner,\n            bool isOnSale,\n            uint256 originalPrice,\n            uint256 resalePrice\n        );\n\n    function getEventTickets(\n        uint256 eventId\n    ) external view returns (uint256[] memory tickets);\n\n    function getCategoryTickets(\n        uint256 categoryId\n    ) external view returns (uint256[] memory tickets);\n\n    function isEventOrganiser(\n        uint256 eventId,\n        address user\n    ) external view returns (bool);\n\n    function getEventId(uint256 ticketId) external view returns (uint256);\n\n    function getTicketOwner(uint256 ticketId) external view returns (address);\n\n    function isForSale(uint256 ticketId) external view returns (bool);\n\n    function getTicketPrice(uint256 ticketId) external view returns (uint256);\n\n    function getOriginalTicketPrice(\n        uint256 ticketId\n    ) external view returns (uint256);\n\n    function transferTicket(uint256 ticketId, address newOwner) external;\n\n    function calculateMaxResalePrice(\n        uint256 ticketId\n    ) external view returns (uint256);\n\n    function listTicketForResale(\n        uint256 ticketId,\n        uint256 resalePrice\n    ) external;\n\n    function giftTicket(\n        uint256 ticketId,\n        address recipient\n    ) external;\n\n    function unlistTicketFromResale(uint256 ticketId) external;\n}\n\ncontract EventMgmt is IEventMgmt {\n    ITicketMgmt private ITicketMgmtInstance;\n\n    constructor(address _ticketMgmtAddress) {\n        ITicketMgmtInstance = ITicketMgmt(_ticketMgmtAddress);\n    }\n\n    // counter for eventId - incremented each time a new event is created;\n    uint256 private eventCounter;\n    // counter for categoryId - incremented each time a new category is created;\n    uint256 private categoryCounter;\n\n    // mapping of eventId to EventInfo\n    mapping(uint256 => EventInfo) public events;\n    // mapping of categoryId to CategoryInfo\n    mapping(uint256 => CategoryInfo) public categories;\n\n    struct EventInfo {\n        uint256 eventId;\n        string eventName;\n        address eventOrganiser;\n        string eventDescription;\n        uint256 maxResalePercentage;\n        bool isActive;\n        uint256[] categoryIds;\n        uint256[] ticketIds;\n    }\n\n    struct CategoryInfo {\n        uint256 eventId;\n        uint256 categoryId;\n        string categoryName;\n        string categoryDescription;\n        uint256 ticketPrice;\n        uint256[] ticketIds;\n    }\n\n    event EventCreated(\n        uint256 eventId,\n        string eventName,\n        address eventOrganiser,\n        string eventDescription,\n        uint256 maxResalePercentage\n    );\n\n    event EventDescriptionUpdated(uint256 eventId, string newDescription);\n\n    event EventMaxResalePercentageUpdated(\n        uint256 eventId,\n        uint256 newMaxResalePercentage\n    );\n\n    event EventCancelled(uint256 eventId);\n\n    event CategoryCreated(\n        uint256 categoryId,\n        uint256 eventId,\n        string categoryName,\n        string categoryDescription,\n        uint256 ticketPrice,\n        uint256 numberOfTickets\n    );\n\n    function createEvent(\n        string memory eventName,\n        string memory eventDescription,\n        uint256 maxResalePercentage\n    ) public override returns (uint256 eventId) {\n        eventCounter++;\n        eventId = eventCounter;\n        EventInfo memory newEvent = EventInfo({\n            eventId: eventId,\n            eventName: eventName,\n            eventOrganiser: tx.origin,\n            eventDescription: eventDescription,\n            maxResalePercentage: maxResalePercentage,\n            isActive: true,\n            categoryIds: new uint256[](0),\n            ticketIds: new uint256[](0)\n        });\n        events[eventId] = newEvent;\n\n        emit EventCreated(\n            eventId,\n            eventName,\n            tx.origin,\n            eventDescription,\n            maxResalePercentage\n        );\n    }\n    \n    function createCategory(\n        uint256 eventId,\n        string memory categoryName,\n        string memory categoryDescription,\n        uint256 ticketPrice,\n        uint256 numberOfTickets\n    ) public override returns (uint256 categoryId) {\n        categoryCounter++;\n        categoryId = categoryCounter;\n        CategoryInfo memory newCategory = CategoryInfo({\n            eventId: eventId,\n            categoryId: categoryId,\n            categoryName: categoryName,\n            categoryDescription: categoryDescription,\n            ticketPrice: ticketPrice,\n            ticketIds: ITicketMgmtInstance.createTickets(\n                eventId,\n                categoryId,\n                ticketPrice,\n                numberOfTickets\n            )\n        });\n\n        categories[categoryId] = newCategory;\n        events[eventId].categoryIds.push(categoryId);\n        for (uint256 index = 0; index < numberOfTickets; index++) {\n            events[eventId].ticketIds.push(newCategory.ticketIds[index]);\n        }\n\n        emit CategoryCreated(\n            categoryId,\n            eventId,\n            categoryName,\n            categoryDescription,\n            ticketPrice,\n            numberOfTickets\n        );\n        return categoryId;\n    }\n\n    function updateEventDescription(\n        uint256 eventId,\n        string memory newDescription\n    ) external override {\n        require(\n            (eventId > 0) && (eventId <= eventCounter),\n            \"Event does not exist!\"\n        );\n        events[eventId].eventDescription = newDescription;\n        emit EventDescriptionUpdated(eventId, newDescription);\n    }\n\n    function updateMaxResalePercentage(\n        uint256 eventId,\n        uint256 newMaxResalePercentage\n    ) external override {\n        require(\n            (eventId > 0) && (eventId <= eventCounter),\n            \"Event does not exist!\"\n        );\n        events[eventId].maxResalePercentage = newMaxResalePercentage;\n        emit EventMaxResalePercentageUpdated(eventId, newMaxResalePercentage);\n    }\n\n    function cancelEvent(uint256 eventId) external override {\n        require(\n            (eventId > 0) && (eventId <= eventCounter),\n            \"Event does not exist!\"\n        );\n        require(events[eventId].isActive, \"Event is not active!\");\n        events[eventId].isActive = false;\n        emit EventCancelled(eventId);\n    }\n\n    function cancelTicket(uint256 ticketId) external override {\n        ITicketMgmtInstance.cancelTicket(ticketId);\n    }\n\n    function getEventInfo(\n        uint256 eventId\n    )\n        public\n        view\n        override\n        returns (\n            string memory,\n            address,\n            string memory,\n            uint256,\n            bool,\n            uint256[] memory\n        )\n    {\n        require(\n            (eventId > 0) && (eventId <= eventCounter),\n            \"Event does not exist!\"\n        );\n        EventInfo memory eventInfo = events[eventId];\n        return (\n            eventInfo.eventName,\n            eventInfo.eventOrganiser,\n            eventInfo.eventDescription,\n            eventInfo.maxResalePercentage,\n            eventInfo.isActive,\n            eventInfo.categoryIds\n        );\n    }\n\n    function getCategoryInfo(\n        uint256 categoryId\n    )\n        public\n        view\n        override\n        returns (\n            uint256,\n            string memory,\n            string memory,\n            uint256,\n            uint256[] memory\n        )\n    {\n        require(\n            (categoryId > 0) && (categoryId <= categoryCounter),\n            \"Category does not exist!\"\n        );\n        CategoryInfo memory categoryInfo = categories[categoryId];\n        return (\n            categoryInfo.eventId,\n            categoryInfo.categoryName,\n            categoryInfo.categoryDescription,\n            categoryInfo.ticketPrice,\n            categoryInfo.ticketIds\n        );\n    }\n\n    function getTicketInfo(\n        uint256 ticketId\n    )\n        public\n        view\n        override\n        returns (uint256, uint256, address, bool, uint256, uint256)\n    {\n        return ITicketMgmtInstance.getTicketInfo(ticketId);\n    }\n\n    function getEventTickets(\n        uint256 eventId\n    ) public view override returns (uint256[] memory) {\n        require(\n            (eventId > 0) && (eventId <= eventCounter),\n            \"Event does not exist!\"\n        );\n        uint256[] memory eventTickets = events[eventId].ticketIds;\n        return eventTickets;\n    }\n\n    function getCategoryTickets(\n        uint256 categoryId\n    ) public view override returns (uint256[] memory) {\n        require(\n            (categoryId > 0) && (categoryId <= categoryCounter),\n            \"Category does not exist!\"\n        );\n        uint256[] memory categoryTickets = categories[categoryId].ticketIds;\n        return categoryTickets;\n    }\n\n    function isEventOrganiser(\n        uint256 eventId,\n        address user\n    ) public view override returns (bool) {\n        require(\n            (eventId > 0) && (eventId <= eventCounter),\n            \"Event does not exist!\"\n        );\n        return events[eventId].eventOrganiser == user;\n    }\n\n    function getTicketOwner(\n        uint256 ticketId\n    ) public view override returns (address) {\n        return ITicketMgmtInstance.getTicketOwner(ticketId);\n    }\n\n    function getTicketPrice(\n        uint256 ticketId\n    ) public view override returns (uint256 currentSalePrice) {\n        if (ITicketMgmtInstance.getResaleTicketPrice(ticketId) != 0) {\n            return ITicketMgmtInstance.getResaleTicketPrice(ticketId);\n        } else {\n            return ITicketMgmtInstance.getOriginalTicketPrice(ticketId);\n        }\n    }\n\n    function getOriginalTicketPrice(\n        uint256 ticketId\n    ) public view override returns (uint256 originalTicketPrice) {\n        return ITicketMgmtInstance.getOriginalTicketPrice(ticketId);\n    }\n\n    function isForSale(uint256 ticketId) public view override returns (bool) {\n        return ITicketMgmtInstance.isForSale(ticketId);\n    }\n\n    function transferTicket(\n        uint256 ticketId,\n        address newOwner\n    ) public override {\n        ITicketMgmtInstance.transferTicket(ticketId, newOwner);\n    }\n\n    function calculateMaxResalePrice(\n        uint256 ticketId\n    ) public view override returns (uint256) {\n        uint256 originalPrice = ITicketMgmtInstance.getOriginalTicketPrice(\n            ticketId\n        );\n        uint256 maxResalePercentage = events[\n            ITicketMgmtInstance.getEventId(ticketId)\n        ].maxResalePercentage;\n        return originalPrice + ((originalPrice * maxResalePercentage) / 100);\n    }\n\n    function listTicketForResale(\n        uint256 ticketId,\n        uint256 resalePrice\n    ) public override {\n        ITicketMgmtInstance.listTicketForResale(ticketId, resalePrice);\n    }\n\n    function giftTicket(\n        uint256 ticketId,\n        address recipient\n    ) public override {\n        ITicketMgmtInstance.transferTicket(ticketId, recipient);\n    }\n\n    function unlistTicketFromResale(uint256 ticketId) public override {\n        ITicketMgmtInstance.unlistTicketFromResale(ticketId);\n    }\n\n    function getEventId(\n        uint256 ticketId\n    ) public view override returns (uint256) {\n        return ITicketMgmtInstance.getEventId(ticketId);\n    }\n}",
  "sourcePath": "/Users/yaner/Documents/NUS/Y2S2/IS4302/ticketmister/contracts/EventMgmt.sol",
  "compiler": {
    "name": "solc",
    "version": "0.8.1+commit.df193b15.Emscripten.clang"
  },
  "schemaVersion": "3.3.3",
  "updatedAt": "2024-04-20T15:08:42.312Z",
  "devdoc": {
    "kind": "dev",
    "methods": {},
    "version": 1
  },
  "userdoc": {
    "kind": "user",
    "methods": {},
    "version": 1
  }
}