{
  "contractName": "TicketMister",
  "abi": [
    {
      "inputs": [],
      "stateMutability": "nonpayable",
      "type": "constructor"
    },
    {
      "anonymous": false,
      "inputs": [
        {
          "indexed": true,
          "internalType": "address",
          "name": "owner",
          "type": "address"
        },
        {
          "indexed": true,
          "internalType": "address",
          "name": "approved",
          "type": "address"
        },
        {
          "indexed": true,
          "internalType": "uint256",
          "name": "tokenId",
          "type": "uint256"
        }
      ],
      "name": "Approval",
      "type": "event"
    },
    {
      "anonymous": false,
      "inputs": [
        {
          "indexed": true,
          "internalType": "address",
          "name": "owner",
          "type": "address"
        },
        {
          "indexed": true,
          "internalType": "address",
          "name": "operator",
          "type": "address"
        },
        {
          "indexed": false,
          "internalType": "bool",
          "name": "approved",
          "type": "bool"
        }
      ],
      "name": "ApprovalForAll",
      "type": "event"
    },
    {
      "anonymous": false,
      "inputs": [
        {
          "indexed": true,
          "internalType": "address",
          "name": "previousOwner",
          "type": "address"
        },
        {
          "indexed": true,
          "internalType": "address",
          "name": "newOwner",
          "type": "address"
        }
      ],
      "name": "OwnershipTransferred",
      "type": "event"
    },
    {
      "anonymous": false,
      "inputs": [
        {
          "indexed": true,
          "internalType": "address",
          "name": "from",
          "type": "address"
        },
        {
          "indexed": true,
          "internalType": "address",
          "name": "to",
          "type": "address"
        },
        {
          "indexed": true,
          "internalType": "uint256",
          "name": "tokenId",
          "type": "uint256"
        }
      ],
      "name": "Transfer",
      "type": "event"
    },
    {
      "anonymous": false,
      "inputs": [
        {
          "indexed": false,
          "internalType": "uint256",
          "name": "eventId",
          "type": "uint256"
        },
        {
          "indexed": false,
          "internalType": "string",
          "name": "eventName",
          "type": "string"
        },
        {
          "indexed": false,
          "internalType": "address",
          "name": "organiser",
          "type": "address"
        }
      ],
      "name": "eventCreated",
      "type": "event"
    },
    {
      "anonymous": false,
      "inputs": [
        {
          "indexed": false,
          "internalType": "uint256",
          "name": "ticketId",
          "type": "uint256"
        },
        {
          "indexed": false,
          "internalType": "address",
          "name": "seller",
          "type": "address"
        },
        {
          "indexed": false,
          "internalType": "uint256",
          "name": "price",
          "type": "uint256"
        }
      ],
      "name": "ticketListedForResale",
      "type": "event"
    },
    {
      "anonymous": false,
      "inputs": [
        {
          "indexed": false,
          "internalType": "uint256",
          "name": "ticketId",
          "type": "uint256"
        },
        {
          "indexed": false,
          "internalType": "address",
          "name": "buyer",
          "type": "address"
        },
        {
          "indexed": false,
          "internalType": "address",
          "name": "seller",
          "type": "address"
        },
        {
          "indexed": false,
          "internalType": "uint256",
          "name": "price",
          "type": "uint256"
        }
      ],
      "name": "ticketSold",
      "type": "event"
    },
    {
      "anonymous": false,
      "inputs": [
        {
          "indexed": false,
          "internalType": "uint256",
          "name": "ticketId",
          "type": "uint256"
        },
        {
          "indexed": false,
          "internalType": "address",
          "name": "seller",
          "type": "address"
        }
      ],
      "name": "ticketUnlistedFromResale",
      "type": "event"
    },
    {
      "inputs": [
        {
          "internalType": "address",
          "name": "to",
          "type": "address"
        },
        {
          "internalType": "uint256",
          "name": "tokenId",
          "type": "uint256"
        }
      ],
      "name": "approve",
      "outputs": [],
      "stateMutability": "nonpayable",
      "type": "function"
    },
    {
      "inputs": [
        {
          "internalType": "address",
          "name": "owner",
          "type": "address"
        }
      ],
      "name": "balanceOf",
      "outputs": [
        {
          "internalType": "uint256",
          "name": "",
          "type": "uint256"
        }
      ],
      "stateMutability": "view",
      "type": "function"
    },
    {
      "inputs": [
        {
          "internalType": "uint256",
          "name": "tokenId",
          "type": "uint256"
        }
      ],
      "name": "getApproved",
      "outputs": [
        {
          "internalType": "address",
          "name": "",
          "type": "address"
        }
      ],
      "stateMutability": "view",
      "type": "function"
    },
    {
      "inputs": [
        {
          "internalType": "address",
          "name": "owner",
          "type": "address"
        },
        {
          "internalType": "address",
          "name": "operator",
          "type": "address"
        }
      ],
      "name": "isApprovedForAll",
      "outputs": [
        {
          "internalType": "bool",
          "name": "",
          "type": "bool"
        }
      ],
      "stateMutability": "view",
      "type": "function"
    },
    {
      "inputs": [],
      "name": "name",
      "outputs": [
        {
          "internalType": "string",
          "name": "",
          "type": "string"
        }
      ],
      "stateMutability": "view",
      "type": "function"
    },
    {
      "inputs": [],
      "name": "owner",
      "outputs": [
        {
          "internalType": "address",
          "name": "",
          "type": "address"
        }
      ],
      "stateMutability": "view",
      "type": "function"
    },
    {
      "inputs": [
        {
          "internalType": "uint256",
          "name": "tokenId",
          "type": "uint256"
        }
      ],
      "name": "ownerOf",
      "outputs": [
        {
          "internalType": "address",
          "name": "",
          "type": "address"
        }
      ],
      "stateMutability": "view",
      "type": "function"
    },
    {
      "inputs": [],
      "name": "renounceOwnership",
      "outputs": [],
      "stateMutability": "nonpayable",
      "type": "function"
    },
    {
      "inputs": [
        {
          "internalType": "address",
          "name": "from",
          "type": "address"
        },
        {
          "internalType": "address",
          "name": "to",
          "type": "address"
        },
        {
          "internalType": "uint256",
          "name": "tokenId",
          "type": "uint256"
        }
      ],
      "name": "safeTransferFrom",
      "outputs": [],
      "stateMutability": "nonpayable",
      "type": "function"
    },
    {
      "inputs": [
        {
          "internalType": "address",
          "name": "from",
          "type": "address"
        },
        {
          "internalType": "address",
          "name": "to",
          "type": "address"
        },
        {
          "internalType": "uint256",
          "name": "tokenId",
          "type": "uint256"
        },
        {
          "internalType": "bytes",
          "name": "data",
          "type": "bytes"
        }
      ],
      "name": "safeTransferFrom",
      "outputs": [],
      "stateMutability": "nonpayable",
      "type": "function"
    },
    {
      "inputs": [
        {
          "internalType": "address",
          "name": "operator",
          "type": "address"
        },
        {
          "internalType": "bool",
          "name": "approved",
          "type": "bool"
        }
      ],
      "name": "setApprovalForAll",
      "outputs": [],
      "stateMutability": "nonpayable",
      "type": "function"
    },
    {
      "inputs": [
        {
          "internalType": "bytes4",
          "name": "interfaceId",
          "type": "bytes4"
        }
      ],
      "name": "supportsInterface",
      "outputs": [
        {
          "internalType": "bool",
          "name": "",
          "type": "bool"
        }
      ],
      "stateMutability": "view",
      "type": "function"
    },
    {
      "inputs": [],
      "name": "symbol",
      "outputs": [
        {
          "internalType": "string",
          "name": "",
          "type": "string"
        }
      ],
      "stateMutability": "view",
      "type": "function"
    },
    {
      "inputs": [
        {
          "internalType": "uint256",
          "name": "tokenId",
          "type": "uint256"
        }
      ],
      "name": "tokenURI",
      "outputs": [
        {
          "internalType": "string",
          "name": "",
          "type": "string"
        }
      ],
      "stateMutability": "view",
      "type": "function"
    },
    {
      "inputs": [
        {
          "internalType": "address",
          "name": "from",
          "type": "address"
        },
        {
          "internalType": "address",
          "name": "to",
          "type": "address"
        },
        {
          "internalType": "uint256",
          "name": "tokenId",
          "type": "uint256"
        }
      ],
      "name": "transferFrom",
      "outputs": [],
      "stateMutability": "nonpayable",
      "type": "function"
    },
    {
      "inputs": [
        {
          "internalType": "address",
          "name": "newOwner",
          "type": "address"
        }
      ],
      "name": "transferOwnership",
      "outputs": [],
      "stateMutability": "nonpayable",
      "type": "function"
    },
    {
      "inputs": [
        {
          "internalType": "string",
          "name": "eventName",
          "type": "string"
        },
        {
          "internalType": "string",
          "name": "eventDescription",
          "type": "string"
        },
        {
          "internalType": "uint256",
          "name": "maxResalePercentage",
          "type": "uint256"
        }
      ],
      "name": "createEvent",
      "outputs": [],
      "stateMutability": "nonpayable",
      "type": "function"
    },
    {
      "inputs": [
        {
          "internalType": "uint256",
          "name": "eventId",
          "type": "uint256"
        },
        {
          "internalType": "string",
          "name": "categoryName",
          "type": "string"
        },
        {
          "internalType": "string",
          "name": "description",
          "type": "string"
        },
        {
          "internalType": "uint256",
          "name": "ticketPrice",
          "type": "uint256"
        },
        {
          "internalType": "uint256",
          "name": "numberOfTickets",
          "type": "uint256"
        }
      ],
      "name": "createCategory",
      "outputs": [],
      "stateMutability": "nonpayable",
      "type": "function"
    },
    {
      "inputs": [
        {
          "internalType": "uint256",
          "name": "ticketId",
          "type": "uint256"
        }
      ],
      "name": "buyTicket",
      "outputs": [],
      "stateMutability": "payable",
      "type": "function"
    },
    {
      "inputs": [
        {
          "internalType": "uint256",
          "name": "ticketId",
          "type": "uint256"
        },
        {
          "internalType": "uint256",
          "name": "price",
          "type": "uint256"
        }
      ],
      "name": "listTicketForResale",
      "outputs": [],
      "stateMutability": "nonpayable",
      "type": "function"
    },
    {
      "inputs": [
        {
          "internalType": "uint256",
          "name": "ticketId",
          "type": "uint256"
        }
      ],
      "name": "unlistTicketFromResale",
      "outputs": [],
      "stateMutability": "nonpayable",
      "type": "function"
    },
    {
      "inputs": [
        {
          "internalType": "uint256",
          "name": "eventId",
          "type": "uint256"
        }
      ],
      "name": "viewAllEventTickets",
      "outputs": [
        {
          "components": [
            {
              "internalType": "uint256",
              "name": "eventId",
              "type": "uint256"
            },
            {
              "internalType": "uint256",
              "name": "categoryId",
              "type": "uint256"
            },
            {
              "internalType": "uint256",
              "name": "ticketId",
              "type": "uint256"
            },
            {
              "internalType": "address",
              "name": "owner",
              "type": "address"
            },
            {
              "internalType": "uint256",
              "name": "originalPrice",
              "type": "uint256"
            },
            {
              "internalType": "bool",
              "name": "isForSale",
              "type": "bool"
            },
            {
              "internalType": "uint256",
              "name": "resalePrice",
              "type": "uint256"
            }
          ],
          "internalType": "struct TicketMister.TicketInfo[]",
          "name": "",
          "type": "tuple[]"
        }
      ],
      "stateMutability": "view",
      "type": "function"
    },
    {
      "inputs": [
        {
          "internalType": "uint256",
          "name": "eventId",
          "type": "uint256"
        }
      ],
      "name": "getEventInfo",
      "outputs": [
        {
          "internalType": "uint256",
          "name": "",
          "type": "uint256"
        },
        {
          "internalType": "address",
          "name": "",
          "type": "address"
        },
        {
          "internalType": "string",
          "name": "",
          "type": "string"
        },
        {
          "internalType": "string",
          "name": "",
          "type": "string"
        },
        {
          "internalType": "uint256",
          "name": "",
          "type": "uint256"
        },
        {
          "internalType": "uint256",
          "name": "",
          "type": "uint256"
        },
        {
          "internalType": "uint256",
          "name": "",
          "type": "uint256"
        },
        {
          "internalType": "bool",
          "name": "",
          "type": "bool"
        },
        {
          "internalType": "uint256[]",
          "name": "",
          "type": "uint256[]"
        }
      ],
      "stateMutability": "view",
      "type": "function"
    },
    {
      "inputs": [
        {
          "internalType": "uint256",
          "name": "categoryId",
          "type": "uint256"
        }
      ],
      "name": "getCategoryInfo",
      "outputs": [
        {
          "internalType": "uint256",
          "name": "",
          "type": "uint256"
        },
        {
          "internalType": "uint256",
          "name": "",
          "type": "uint256"
        },
        {
          "internalType": "string",
          "name": "",
          "type": "string"
        },
        {
          "internalType": "string",
          "name": "",
          "type": "string"
        },
        {
          "internalType": "uint256",
          "name": "",
          "type": "uint256"
        },
        {
          "internalType": "uint256",
          "name": "",
          "type": "uint256"
        }
      ],
      "stateMutability": "view",
      "type": "function"
    },
    {
      "inputs": [
        {
          "internalType": "uint256",
          "name": "ticketId",
          "type": "uint256"
        }
      ],
      "name": "getTicketInfo",
      "outputs": [
        {
          "internalType": "uint256",
          "name": "",
          "type": "uint256"
        },
        {
          "internalType": "uint256",
          "name": "",
          "type": "uint256"
        },
        {
          "internalType": "uint256",
          "name": "",
          "type": "uint256"
        },
        {
          "internalType": "address",
          "name": "",
          "type": "address"
        },
        {
          "internalType": "uint256",
          "name": "",
          "type": "uint256"
        },
        {
          "internalType": "bool",
          "name": "",
          "type": "bool"
        },
        {
          "internalType": "uint256",
          "name": "",
          "type": "uint256"
        }
      ],
      "stateMutability": "view",
      "type": "function"
    }
  ],
  "bytecode": "0x60806040523480156200001157600080fd5b506040518060400160405280600c81526020017f5469636b65744d697374657200000000000000000000000000000000000000008152506040518060400160405280600381526020017f544d540000000000000000000000000000000000000000000000000000000000815250816000908051906020019062000096929190620001a6565b508060019080519060200190620000af929190620001a6565b505050620000d2620000c6620000d860201b60201c565b620000e060201b60201c565b620002bb565b600033905090565b6000600760009054906101000a900473ffffffffffffffffffffffffffffffffffffffff16905081600760006101000a81548173ffffffffffffffffffffffffffffffffffffffff021916908373ffffffffffffffffffffffffffffffffffffffff1602179055508173ffffffffffffffffffffffffffffffffffffffff168173ffffffffffffffffffffffffffffffffffffffff167f8be0079c531659141344cd1fd0a4f28419497f9722a3daafe3b4186f6b6457e060405160405180910390a35050565b828054620001b49062000256565b90600052602060002090601f016020900481019282620001d8576000855562000224565b82601f10620001f357805160ff191683800117855562000224565b8280016001018555821562000224579182015b828111156200022357825182559160200191906001019062000206565b5b50905062000233919062000237565b5090565b5b808211156200025257600081600090555060010162000238565b5090565b600060028204905060018216806200026f57607f821691505b602082108114156200028657620002856200028c565b5b50919050565b7f4e487b7100000000000000000000000000000000000000000000000000000000600052602260045260246000fd5b61606080620002cb6000396000f3fe6080604052600436106101665760003560e01c806370a08231116100d1578063b88d4fde1161008a578063cf52f78011610064578063cf52f7801461055c578063e985e9c514610585578063f2fde38b146105c2578063ff99a063146105eb57610166565b8063b88d4fde146104b4578063c3711383146104dd578063c87b56dd1461051f57610166565b806370a08231146103a4578063715018a6146103e15780638da5cb5b146103f857806395d89b4114610423578063a22cb4651461044e578063b5fefe061461047757610166565b806342842e0e1161012357806342842e0e146102a75780635555fe17146102d05780635b906bd7146102f95780636053b0ef146103225780636352211e1461034b57806367dd74ca1461038857610166565b806301ffc9a71461016b57806306fdde03146101a8578063081812fc146101d3578063095ea7b3146102105780631d645b121461023957806323b872dd1461027e575b600080fd5b34801561017757600080fd5b50610192600480360381019061018d919061462b565b61062e565b60405161019f91906154da565b60405180910390f35b3480156101b457600080fd5b506101bd610710565b6040516101ca91906154f5565b60405180910390f35b3480156101df57600080fd5b506101fa60048036038101906101f591906146fc565b6107a2565b6040516102079190615451565b60405180910390f35b34801561021c57600080fd5b50610237600480360381019061023291906145ef565b6107e8565b005b34801561024557600080fd5b50610260600480360381019061025b91906146fc565b610900565b60405161027599989796959493929190615980565b60405180910390f35b34801561028a57600080fd5b506102a560048036038101906102a091906144e9565b610bd9565b005b3480156102b357600080fd5b506102ce60048036038101906102c991906144e9565b610c39565b005b3480156102dc57600080fd5b506102f760048036038101906102f2919061467d565b610c59565b005b34801561030557600080fd5b50610320600480360381019061031b91906146fc565b611001565b005b34801561032e57600080fd5b50610349600480360381019061034491906147cc565b6111ee565b005b34801561035757600080fd5b50610372600480360381019061036d91906146fc565b6116f9565b60405161037f9190615451565b60405180910390f35b6103a2600480360381019061039d91906146fc565b611780565b005b3480156103b057600080fd5b506103cb60048036038101906103c69190614484565b611d74565b6040516103d891906158f7565b60405180910390f35b3480156103ed57600080fd5b506103f6611e2c565b005b34801561040457600080fd5b5061040d611e40565b60405161041a9190615451565b60405180910390f35b34801561042f57600080fd5b50610438611e6a565b60405161044591906154f5565b60405180910390f35b34801561045a57600080fd5b50610475600480360381019061047091906145b3565b611efc565b005b34801561048357600080fd5b5061049e600480360381019061049991906146fc565b611f12565b6040516104ab91906154b8565b60405180910390f35b3480156104c057600080fd5b506104db60048036038101906104d69190614538565b6121b9565b005b3480156104e957600080fd5b5061050460048036038101906104ff91906146fc565b61221b565b60405161051696959493929190615a97565b60405180910390f35b34801561052b57600080fd5b50610546600480360381019061054191906146fc565b61240b565b60405161055391906154f5565b60405180910390f35b34801561056857600080fd5b50610583600480360381019061057e9190614725565b61251e565b005b34801561059157600080fd5b506105ac60048036038101906105a791906144ad565b6126e6565b6040516105b991906154da565b60405180910390f35b3480156105ce57600080fd5b506105e960048036038101906105e49190614484565b61277a565b005b3480156105f757600080fd5b50610612600480360381019061060d91906146fc565b6127fe565b6040516106259796959493929190615b06565b60405180910390f35b60007f80ac58cd000000000000000000000000000000000000000000000000000000007bffffffffffffffffffffffffffffffffffffffffffffffffffffffff1916827bffffffffffffffffffffffffffffffffffffffffffffffffffffffff191614806106f957507f5b5e139f000000000000000000000000000000000000000000000000000000007bffffffffffffffffffffffffffffffffffffffffffffffffffffffff1916827bffffffffffffffffffffffffffffffffffffffffffffffffffffffff1916145b80610709575061070882612950565b5b9050919050565b60606000805461071f90615e86565b80601f016020809104026020016040519081016040528092919081815260200182805461074b90615e86565b80156107985780601f1061076d57610100808354040283529160200191610798565b820191906000526020600020905b81548152906001019060200180831161077b57829003601f168201915b5050505050905090565b60006107ad826129ba565b6004600083815260200190815260200160002060009054906101000a900473ffffffffffffffffffffffffffffffffffffffff169050919050565b60006107f3826116f9565b90508073ffffffffffffffffffffffffffffffffffffffff168373ffffffffffffffffffffffffffffffffffffffff161415610864576040517f08c379a000000000000000000000000000000000000000000000000000000000815260040161085b906157b7565b60405180910390fd5b8073ffffffffffffffffffffffffffffffffffffffff16610883612a05565b73ffffffffffffffffffffffffffffffffffffffff1614806108b257506108b1816108ac612a05565b6126e6565b5b6108f1576040517f08c379a00000000000000000000000000000000000000000000000000000000081526004016108e8906157d7565b60405180910390fd5b6108fb8383612a0d565b505050565b60008060608060008060008060606008548a1115610953576040517f08c379a000000000000000000000000000000000000000000000000000000000815260040161094a90615897565b60405180910390fd5b6000600c60008c815260200190815260200160002060405180610120016040529081600082015481526020016001820160009054906101000a900473ffffffffffffffffffffffffffffffffffffffff1673ffffffffffffffffffffffffffffffffffffffff1673ffffffffffffffffffffffffffffffffffffffff1681526020016002820180546109e490615e86565b80601f0160208091040260200160405190810160405280929190818152602001828054610a1090615e86565b8015610a5d5780601f10610a3257610100808354040283529160200191610a5d565b820191906000526020600020905b815481529060010190602001808311610a4057829003601f168201915b50505050508152602001600382018054610a7690615e86565b80601f0160208091040260200160405190810160405280929190818152602001828054610aa290615e86565b8015610aef5780601f10610ac457610100808354040283529160200191610aef565b820191906000526020600020905b815481529060010190602001808311610ad257829003601f168201915b505050505081526020016004820154815260200160058201548152602001600682015481526020016007820160009054906101000a900460ff1615151515815260200160088201805480602002602001604051908101604052809291908181526020018280548015610b8057602002820191906000526020600020905b815481526020019060010190808311610b6c575b5050505050815250509050806000015181602001518260400151836060015184608001518560a001518660c001518760e00151886101000151995099509950995099509950995099509950509193959799909294969850565b610bea610be4612a05565b82612ac6565b610c29576040517f08c379a0000000000000000000000000000000000000000000000000000000008152600401610c2090615537565b60405180910390fd5b610c34838383612b5b565b505050565b610c54838383604051806020016040528060008152506121b9565b505050565b60086000815480929190610c6c90615eb8565b91905055506000600854905060006040518061012001604052808381526020013373ffffffffffffffffffffffffffffffffffffffff1681526020018681526020018581526020016000815260200160008152602001848152602001600115158152602001600067ffffffffffffffff811115610d12577f4e487b7100000000000000000000000000000000000000000000000000000000600052604160045260246000fd5b604051908082528060200260200182016040528015610d405781602001602082028036833780820191505090505b50815250905080600c60008481526020019081526020016000206000820151816000015560208201518160010160006101000a81548173ffffffffffffffffffffffffffffffffffffffff021916908373ffffffffffffffffffffffffffffffffffffffff1602179055506040820151816002019080519060200190610dc7929190614206565b506060820151816003019080519060200190610de4929190614206565b506080820151816004015560a0820151816005015560c0820151816006015560e08201518160070160006101000a81548160ff021916908315150217905550610100820151816008019080519060200190610e4092919061428c565b5090505060118190806001815401808255809150506001900390600052602060002090600902016000909190919091506000820151816000015560208201518160010160006101000a81548173ffffffffffffffffffffffffffffffffffffffff021916908373ffffffffffffffffffffffffffffffffffffffff1602179055506040820151816002019080519060200190610edd929190614206565b506060820151816003019080519060200190610efa929190614206565b506080820151816004015560a0820151816005015560c0820151816006015560e08201518160070160006101000a81548160ff021916908315150217905550610100820151816008019080519060200190610f5692919061428c565b505050600e60003373ffffffffffffffffffffffffffffffffffffffff1673ffffffffffffffffffffffffffffffffffffffff1681526020019081526020016000208290806001815401808255809150506001900390600052602060002001600090919091909150557fc289dc0834afce1928a99ab79e00669db71091db16f571ad965d5ed147da0afe828633604051610ff293929190615a59565b60405180910390a15050505050565b3373ffffffffffffffffffffffffffffffffffffffff16611021826116f9565b73ffffffffffffffffffffffffffffffffffffffff1614611077576040517f08c379a000000000000000000000000000000000000000000000000000000000815260040161106e90615657565b60405180910390fd5b6000600b60008381526020019081526020016000206040518060e00160405290816000820154815260200160018201548152602001600282015481526020016003820160009054906101000a900473ffffffffffffffffffffffffffffffffffffffff1673ffffffffffffffffffffffffffffffffffffffff1673ffffffffffffffffffffffffffffffffffffffff168152602001600482015481526020016005820160009054906101000a900460ff161515151581526020016006820154815250509050600115158160a00151151514611187576040517f08c379a000000000000000000000000000000000000000000000000000000000815260040161117e90615877565b60405180910390fd5b60008160a001901515908115158152505060008160c00181815250506111b1816000015183612e55565b7f4a891ae0e779db402c7e720a700f7470c92565c84d19711fa900ec87f4172b5b82336040516111e2929190615912565b60405180910390a15050565b3373ffffffffffffffffffffffffffffffffffffffff1661120e836116f9565b73ffffffffffffffffffffffffffffffffffffffff1614611264576040517f08c379a000000000000000000000000000000000000000000000000000000000815260040161125b90615657565b60405180910390fd5b6000600b60008481526020019081526020016000206040518060e00160405290816000820154815260200160018201548152602001600282015481526020016003820160009054906101000a900473ffffffffffffffffffffffffffffffffffffffff1673ffffffffffffffffffffffffffffffffffffffff1673ffffffffffffffffffffffffffffffffffffffff168152602001600482015481526020016005820160009054906101000a900460ff161515151581526020016006820154815250509050600015158160a00151151514611374576040517f08c379a000000000000000000000000000000000000000000000000000000000815260040161136b90615677565b60405180910390fd5b60008160c00151146113bb576040517f08c379a00000000000000000000000000000000000000000000000000000000081526004016113b2906156d7565b60405180910390fd5b6000600c60008360000151815260200190815260200160002060405180610120016040529081600082015481526020016001820160009054906101000a900473ffffffffffffffffffffffffffffffffffffffff1673ffffffffffffffffffffffffffffffffffffffff1673ffffffffffffffffffffffffffffffffffffffff16815260200160028201805461145090615e86565b80601f016020809104026020016040519081016040528092919081815260200182805461147c90615e86565b80156114c95780601f1061149e576101008083540402835291602001916114c9565b820191906000526020600020905b8154815290600101906020018083116114ac57829003601f168201915b505050505081526020016003820180546114e290615e86565b80601f016020809104026020016040519081016040528092919081815260200182805461150e90615e86565b801561155b5780601f106115305761010080835404028352916020019161155b565b820191906000526020600020905b81548152906001019060200180831161153e57829003601f168201915b505050505081526020016004820154815260200160058201548152602001600682015481526020016007820160009054906101000a900460ff16151515158152602001600882018054806020026020016040519081016040528092919081815260200182805480156115ec57602002820191906000526020600020905b8154815260200190600101908083116115d8575b5050505050815250509050600060648260c00151846080015161160f9190615d42565b6116199190615d11565b90508084111561165e576040517f08c379a000000000000000000000000000000000000000000000000000000000815260040161165590615817565b60405180910390fd5b838360c001818152505060018360a001901515908115158152505060106000846000015181526020019081526020016000208590806001815401808255809150506001900390600052602060002001600090919091909150557fb852647c1ba317c7485f6f5732fe8b19b23ca3ea408034ccf31d44856c60208e8533866040516116ea93929190615a22565b60405180910390a15050505050565b60008061170583612fb7565b9050600073ffffffffffffffffffffffffffffffffffffffff168173ffffffffffffffffffffffffffffffffffffffff161415611777576040517f08c379a000000000000000000000000000000000000000000000000000000000815260040161176e90615797565b60405180910390fd5b80915050919050565b61178981612ff4565b6117c8576040517f08c379a00000000000000000000000000000000000000000000000000000000081526004016117bf90615617565b60405180910390fd5b6000600b60008381526020019081526020016000206040518060e00160405290816000820154815260200160018201548152602001600282015481526020016003820160009054906101000a900473ffffffffffffffffffffffffffffffffffffffff1673ffffffffffffffffffffffffffffffffffffffff1673ffffffffffffffffffffffffffffffffffffffff168152602001600482015481526020016005820160009054906101000a900460ff1615151515815260200160068201548152505090506000816060015190508160a001516118da576040517f08c379a00000000000000000000000000000000000000000000000000000000081526004016118d1906158d7565b60405180910390fd5b8160c001513414611920576040517f08c379a0000000000000000000000000000000000000000000000000000000008152600401611917906158b7565b60405180910390fd5b8073ffffffffffffffffffffffffffffffffffffffff163373ffffffffffffffffffffffffffffffffffffffff16141561198f576040517f08c379a000000000000000000000000000000000000000000000000000000000815260040161198690615717565b60405180910390fd5b600081905061199f823386613035565b8073ffffffffffffffffffffffffffffffffffffffff166108fc349081150290604051600060405180830381858888f193505050501580156119e5573d6000803e3d6000fd5b5033600b600086815260200190815260200160002060030160006101000a81548173ffffffffffffffffffffffffffffffffffffffff021916908373ffffffffffffffffffffffffffffffffffffffff1602179055506000600b600086815260200190815260200160002060050160006101000a81548160ff0219169083151502179055506000600b60008681526020019081526020016000206006018190555060005b600f60008473ffffffffffffffffffffffffffffffffffffffff1673ffffffffffffffffffffffffffffffffffffffff16815260200190815260200160002080549050811015611b7e5784600f60008573ffffffffffffffffffffffffffffffffffffffff1673ffffffffffffffffffffffffffffffffffffffff1681526020019081526020016000208281548110611b4b577f4e487b7100000000000000000000000000000000000000000000000000000000600052603260045260246000fd5b90600052602060002001541415611b6b57611b66838261319b565b611b7e565b8080611b7690615eb8565b915050611a89565b50600f60003373ffffffffffffffffffffffffffffffffffffffff1673ffffffffffffffffffffffffffffffffffffffff16815260200190815260200160002084908060018154018082558091505060019003906000526020600020016000909190919091505560005b601060008560000151815260200190815260200160002080549050811015611c91578460106000866000015181526020019081526020016000208281548110611c5a577f4e487b7100000000000000000000000000000000000000000000000000000000600052603260045260246000fd5b90600052602060002001541415611c7e57611c79846000015182612e55565b611c91565b8080611c8990615eb8565b915050611be8565b50600c60008460000151815260200190815260200160002060010160009054906101000a900473ffffffffffffffffffffffffffffffffffffffff1673ffffffffffffffffffffffffffffffffffffffff168273ffffffffffffffffffffffffffffffffffffffff161415611d3157600c6000846000015181526020019081526020016000206005016000815480929190611d2b90615eb8565b91905055505b7ff0e0db42a7a0ca5f3ce8dd6dd05ed77ae315f1f448a1f9b634fe849743aaa95c84338434604051611d66949392919061593b565b60405180910390a150505050565b60008073ffffffffffffffffffffffffffffffffffffffff168273ffffffffffffffffffffffffffffffffffffffff161415611de5576040517f08c379a0000000000000000000000000000000000000000000000000000000008152600401611ddc90615697565b60405180910390fd5b600360008373ffffffffffffffffffffffffffffffffffffffff1673ffffffffffffffffffffffffffffffffffffffff168152602001908152602001600020549050919050565b611e346133ad565b611e3e600061342b565b565b6000600760009054906101000a900473ffffffffffffffffffffffffffffffffffffffff16905090565b606060018054611e7990615e86565b80601f0160208091040260200160405190810160405280929190818152602001828054611ea590615e86565b8015611ef25780601f10611ec757610100808354040283529160200191611ef2565b820191906000526020600020905b815481529060010190602001808311611ed557829003601f168201915b5050505050905090565b611f0e611f07612a05565b83836134f1565b5050565b6060600854821115611f59576040517f08c379a0000000000000000000000000000000000000000000000000000000008152600401611f5090615637565b60405180910390fd5b600060106000848152602001908152602001600020805480602002602001604051908101604052809291908181526020018280548015611fb857602002820191906000526020600020905b815481526020019060010190808311611fa4575b505050505090506000815167ffffffffffffffff811115612002577f4e487b7100000000000000000000000000000000000000000000000000000000600052604160045260246000fd5b60405190808252806020026020018201604052801561203b57816020015b6120286142d9565b8152602001906001900390816120205790505b50905060005b82518110156121ae576000838281518110612085577f4e487b7100000000000000000000000000000000000000000000000000000000600052603260045260246000fd5b602002602001015190506000600b60008381526020019081526020016000206040518060e00160405290816000820154815260200160018201548152602001600282015481526020016003820160009054906101000a900473ffffffffffffffffffffffffffffffffffffffff1673ffffffffffffffffffffffffffffffffffffffff1673ffffffffffffffffffffffffffffffffffffffff168152602001600482015481526020016005820160009054906101000a900460ff1615151515815260200160068201548152505090508084848151811061218e577f4e487b7100000000000000000000000000000000000000000000000000000000600052603260045260246000fd5b6020026020010181905250505080806121a690615eb8565b915050612041565b508092505050919050565b6121ca6121c4612a05565b83612ac6565b612209576040517f08c379a000000000000000000000000000000000000000000000000000000000815260040161220090615537565b60405180910390fd5b6122158484848461365e565b50505050565b600080606080600080600954871115612269576040517f08c379a000000000000000000000000000000000000000000000000000000000815260040161226090615857565b60405180910390fd5b6000600d60008981526020019081526020016000206040518060c001604052908160008201548152602001600182015481526020016002820180546122ad90615e86565b80601f01602080910402602001604051908101604052809291908181526020018280546122d990615e86565b80156123265780601f106122fb57610100808354040283529160200191612326565b820191906000526020600020905b81548152906001019060200180831161230957829003601f168201915b5050505050815260200160038201805461233f90615e86565b80601f016020809104026020016040519081016040528092919081815260200182805461236b90615e86565b80156123b85780601f1061238d576101008083540402835291602001916123b8565b820191906000526020600020905b81548152906001019060200180831161239b57829003601f168201915b50505050508152602001600482015481526020016005820154815250509050806000015181602001518260400151836060015184608001518560a001519650965096509650965096505091939550919395565b6060612416826129ba565b600060066000848152602001908152602001600020805461243690615e86565b80601f016020809104026020016040519081016040528092919081815260200182805461246290615e86565b80156124af5780601f10612484576101008083540402835291602001916124af565b820191906000526020600020905b81548152906001019060200180831161249257829003601f168201915b5050505050905060006124c06136ba565b90506000815114156124d6578192505050612519565b60008251111561250b5780826040516020016124f392919061542d565b60405160208183030381529060405292505050612519565b612514846136d1565b925050505b919050565b84600061252a82613739565b90508073ffffffffffffffffffffffffffffffffffffffff163373ffffffffffffffffffffffffffffffffffffffff161461259a576040517f08c379a000000000000000000000000000000000000000000000000000000000815260040161259190615837565b60405180910390fd5b600960008154809291906125ad90615eb8565b91905055506000600954905060006040518060c001604052808a815260200183815260200189815260200188815260200187815260200186815250905080600d60008481526020019081526020016000206000820151816000015560208201518160010155604082015181600201908051906020019061262e929190614206565b50606082015181600301908051906020019061264b929190614206565b506080820151816004015560a08201518160050155905050600c60008a81526020019081526020016000206008018290806001815401808255809150506001900390600052602060002001600090919091909150556126ae338a84888a33613779565b84600c60008b815260200190815260200160002060040160008282546126d49190615cbb565b92505081905550505050505050505050565b6000600560008473ffffffffffffffffffffffffffffffffffffffff1673ffffffffffffffffffffffffffffffffffffffff16815260200190815260200160002060008373ffffffffffffffffffffffffffffffffffffffff1673ffffffffffffffffffffffffffffffffffffffff16815260200190815260200160002060009054906101000a900460ff16905092915050565b6127826133ad565b600073ffffffffffffffffffffffffffffffffffffffff168173ffffffffffffffffffffffffffffffffffffffff1614156127f2576040517f08c379a00000000000000000000000000000000000000000000000000000000081526004016127e990615577565b60405180910390fd5b6127fb8161342b565b50565b6000806000806000806000600a5488111561284e576040517f08c379a0000000000000000000000000000000000000000000000000000000008152600401612845906156f7565b60405180910390fd5b6000600b60008a81526020019081526020016000206040518060e00160405290816000820154815260200160018201548152602001600282015481526020016003820160009054906101000a900473ffffffffffffffffffffffffffffffffffffffff1673ffffffffffffffffffffffffffffffffffffffff1673ffffffffffffffffffffffffffffffffffffffff168152602001600482015481526020016005820160009054906101000a900460ff161515151581526020016006820154815250509050806000015181602001518260400151836060015184608001518560a001518660c00151975097509750975097509750975050919395979092949650565b60007f01ffc9a7000000000000000000000000000000000000000000000000000000007bffffffffffffffffffffffffffffffffffffffffffffffffffffffff1916827bffffffffffffffffffffffffffffffffffffffffffffffffffffffff1916149050919050565b6129c381612ff4565b612a02576040517f08c379a00000000000000000000000000000000000000000000000000000000081526004016129f990615797565b60405180910390fd5b50565b600033905090565b816004600083815260200190815260200160002060006101000a81548173ffffffffffffffffffffffffffffffffffffffff021916908373ffffffffffffffffffffffffffffffffffffffff160217905550808273ffffffffffffffffffffffffffffffffffffffff16612a80836116f9565b73ffffffffffffffffffffffffffffffffffffffff167f8c5be1e5ebec7d5bd14f71427d1e84f3dd0314c0f7b2291e5b200ac8c7c3b92560405160405180910390a45050565b600080612ad2836116f9565b90508073ffffffffffffffffffffffffffffffffffffffff168473ffffffffffffffffffffffffffffffffffffffff161480612b145750612b1381856126e6565b5b80612b5257508373ffffffffffffffffffffffffffffffffffffffff16612b3a846107a2565b73ffffffffffffffffffffffffffffffffffffffff16145b91505092915050565b8273ffffffffffffffffffffffffffffffffffffffff16612b7b826116f9565b73ffffffffffffffffffffffffffffffffffffffff1614612bd1576040517f08c379a0000000000000000000000000000000000000000000000000000000008152600401612bc890615597565b60405180910390fd5b600073ffffffffffffffffffffffffffffffffffffffff168273ffffffffffffffffffffffffffffffffffffffff161415612c41576040517f08c379a0000000000000000000000000000000000000000000000000000000008152600401612c38906155d7565b60405180910390fd5b612c4e8383836001613a32565b8273ffffffffffffffffffffffffffffffffffffffff16612c6e826116f9565b73ffffffffffffffffffffffffffffffffffffffff1614612cc4576040517f08c379a0000000000000000000000000000000000000000000000000000000008152600401612cbb90615597565b60405180910390fd5b6004600082815260200190815260200160002060006101000a81549073ffffffffffffffffffffffffffffffffffffffff02191690556001600360008573ffffffffffffffffffffffffffffffffffffffff1673ffffffffffffffffffffffffffffffffffffffff168152602001908152602001600020600082825403925050819055506001600360008473ffffffffffffffffffffffffffffffffffffffff1673ffffffffffffffffffffffffffffffffffffffff16815260200190815260200160002060008282540192505081905550816002600083815260200190815260200160002060006101000a81548173ffffffffffffffffffffffffffffffffffffffff021916908373ffffffffffffffffffffffffffffffffffffffff160217905550808273ffffffffffffffffffffffffffffffffffffffff168473ffffffffffffffffffffffffffffffffffffffff167fddf252ad1be2c89b69c2b068fc378daa952ba7f163c4a11628f55a4df523b3ef60405160405180910390a4612e508383836001613a38565b505050565b60008190505b60016010600085815260200190815260200160002080549050612e7e9190615d9c565b811015612f535760106000848152602001908152602001600020600182612ea59190615cbb565b81548110612edc577f4e487b7100000000000000000000000000000000000000000000000000000000600052603260045260246000fd5b9060005260206000200154601060008581526020019081526020016000208281548110612f32577f4e487b7100000000000000000000000000000000000000000000000000000000600052603260045260246000fd5b90600052602060002001819055508080612f4b90615eb8565b915050612e5b565b5060106000838152602001908152602001600020805480612f9d577f4e487b7100000000000000000000000000000000000000000000000000000000600052603160045260246000fd5b600190038181906000526020600020016000905590555050565b60006002600083815260200190815260200160002060009054906101000a900473ffffffffffffffffffffffffffffffffffffffff169050919050565b60008073ffffffffffffffffffffffffffffffffffffffff1661301683612fb7565b73ffffffffffffffffffffffffffffffffffffffff1614159050919050565b8273ffffffffffffffffffffffffffffffffffffffff16613055826116f9565b73ffffffffffffffffffffffffffffffffffffffff16146130ab576040517f08c379a00000000000000000000000000000000000000000000000000000000081526004016130a290615517565b60405180910390fd5b600073ffffffffffffffffffffffffffffffffffffffff168273ffffffffffffffffffffffffffffffffffffffff16141561311b576040517f08c379a000000000000000000000000000000000000000000000000000000000815260040161311290615757565b60405180910390fd5b600073ffffffffffffffffffffffffffffffffffffffff168373ffffffffffffffffffffffffffffffffffffffff16141561318b576040517f08c379a0000000000000000000000000000000000000000000000000000000008152600401613182906157f7565b60405180910390fd5b613196838383612b5b565b505050565b60008190505b6001600f60008573ffffffffffffffffffffffffffffffffffffffff1673ffffffffffffffffffffffffffffffffffffffff168152602001908152602001600020805490506131f09190615d9c565b81101561331d57600f60008473ffffffffffffffffffffffffffffffffffffffff1673ffffffffffffffffffffffffffffffffffffffff1681526020019081526020016000206001826132439190615cbb565b8154811061327a577f4e487b7100000000000000000000000000000000000000000000000000000000600052603260045260246000fd5b9060005260206000200154600f60008573ffffffffffffffffffffffffffffffffffffffff1673ffffffffffffffffffffffffffffffffffffffff16815260200190815260200160002082815481106132fc577f4e487b7100000000000000000000000000000000000000000000000000000000600052603260045260246000fd5b9060005260206000200181905550808061331590615eb8565b9150506131a1565b50600f60008373ffffffffffffffffffffffffffffffffffffffff1673ffffffffffffffffffffffffffffffffffffffff168152602001908152602001600020805480613393577f4e487b7100000000000000000000000000000000000000000000000000000000600052603160045260246000fd5b600190038181906000526020600020016000905590555050565b6133b5612a05565b73ffffffffffffffffffffffffffffffffffffffff166133d3611e40565b73ffffffffffffffffffffffffffffffffffffffff1614613429576040517f08c379a000000000000000000000000000000000000000000000000000000000815260040161342090615777565b60405180910390fd5b565b6000600760009054906101000a900473ffffffffffffffffffffffffffffffffffffffff16905081600760006101000a81548173ffffffffffffffffffffffffffffffffffffffff021916908373ffffffffffffffffffffffffffffffffffffffff1602179055508173ffffffffffffffffffffffffffffffffffffffff168173ffffffffffffffffffffffffffffffffffffffff167f8be0079c531659141344cd1fd0a4f28419497f9722a3daafe3b4186f6b6457e060405160405180910390a35050565b8173ffffffffffffffffffffffffffffffffffffffff168373ffffffffffffffffffffffffffffffffffffffff161415613560576040517f08c379a0000000000000000000000000000000000000000000000000000000008152600401613557906155f7565b60405180910390fd5b80600560008573ffffffffffffffffffffffffffffffffffffffff1673ffffffffffffffffffffffffffffffffffffffff16815260200190815260200160002060008473ffffffffffffffffffffffffffffffffffffffff1673ffffffffffffffffffffffffffffffffffffffff16815260200190815260200160002060006101000a81548160ff0219169083151502179055508173ffffffffffffffffffffffffffffffffffffffff168373ffffffffffffffffffffffffffffffffffffffff167f17307eab39ab6107e8899845ad3d59bd9653f200f220920489ca2b5937696c318360405161365191906154da565b60405180910390a3505050565b613669848484612b5b565b61367584848484613a3e565b6136b4576040517f08c379a00000000000000000000000000000000000000000000000000000000081526004016136ab90615557565b60405180910390fd5b50505050565b606060405180602001604052806000815250905090565b60606136dc826129ba565b60006136e66136ba565b905060008151116137065760405180602001604052806000815250613731565b8061371084613bd5565b60405160200161372192919061542d565b6040516020818303038152906040525b915050919050565b6000600c600083815260200190815260200160002060010160009054906101000a900473ffffffffffffffffffffffffffffffffffffffff169050919050565b84600061378582613739565b90508073ffffffffffffffffffffffffffffffffffffffff163373ffffffffffffffffffffffffffffffffffffffff16146137f5576040517f08c379a00000000000000000000000000000000000000000000000000000000081526004016137ec90615837565b60405180910390fd5b60005b85811015613a2757600a600081548092919061381390615eb8565b91905055506000600a54905061382881612ff4565b15613868576040517f08c379a000000000000000000000000000000000000000000000000000000000815260040161385f906156b7565b60405180910390fd5b6138728a82613cf9565b60006040518060e001604052808b81526020018a81526020018381526020018773ffffffffffffffffffffffffffffffffffffffff16815260200188815260200160011515815260200188815250905080600b600084815260200190815260200160002060008201518160000155602082015181600101556040820151816002015560608201518160030160006101000a81548173ffffffffffffffffffffffffffffffffffffffff021916908373ffffffffffffffffffffffffffffffffffffffff1602179055506080820151816004015560a08201518160050160006101000a81548160ff02191690831515021790555060c08201518160060155905050601060008b8152602001908152602001600020829080600181540180825580915050600190039060005260206000200160009091909190915055600f60008773ffffffffffffffffffffffffffffffffffffffff1673ffffffffffffffffffffffffffffffffffffffff16815260200190815260200160002082908060018154018082558091505060019003906000526020600020016000909190919091505550508080613a1f90615eb8565b9150506137f8565b505050505050505050565b50505050565b50505050565b6000613a5f8473ffffffffffffffffffffffffffffffffffffffff16613d17565b15613bc8578373ffffffffffffffffffffffffffffffffffffffff1663150b7a02613a88612a05565b8786866040518563ffffffff1660e01b8152600401613aaa949392919061546c565b602060405180830381600087803b158015613ac457600080fd5b505af1925050508015613af557506040513d601f19601f82011682018060405250810190613af29190614654565b60015b613b78573d8060008114613b25576040519150601f19603f3d011682016040523d82523d6000602084013e613b2a565b606091505b50600081511415613b70576040517f08c379a0000000000000000000000000000000000000000000000000000000008152600401613b6790615557565b60405180910390fd5b805181602001fd5b63150b7a0260e01b7bffffffffffffffffffffffffffffffffffffffffffffffffffffffff1916817bffffffffffffffffffffffffffffffffffffffffffffffffffffffff191614915050613bcd565b600190505b949350505050565b606060006001613be484613d56565b01905060008167ffffffffffffffff811115613c29577f4e487b7100000000000000000000000000000000000000000000000000000000600052604160045260246000fd5b6040519080825280601f01601f191660200182016040528015613c5b5781602001600182028036833780820191505090505b509050600082602001820190505b600115613cee578080600190039150507f3031323334353637383961626364656600000000000000000000000000000000600a86061a8153600a8581613cd8577f4e487b7100000000000000000000000000000000000000000000000000000000600052601260045260246000fd5b0494506000851415613ce957613cee565b613c69565b819350505050919050565b613d13828260405180602001604052806000815250613f8d565b5050565b6000808273ffffffffffffffffffffffffffffffffffffffff16803b806020016040519081016040528181526000908060200190933c51119050919050565b600080600090507a184f03e93ff9f4daa797ed6e38ed64bf6a1f0100000000000000008310613dda577a184f03e93ff9f4daa797ed6e38ed64bf6a1f0100000000000000008381613dd0577f4e487b7100000000000000000000000000000000000000000000000000000000600052601260045260246000fd5b0492506040810190505b6d04ee2d6d415b85acef81000000008310613e3d576d04ee2d6d415b85acef81000000008381613e33577f4e487b7100000000000000000000000000000000000000000000000000000000600052601260045260246000fd5b0492506020810190505b662386f26fc100008310613e9257662386f26fc100008381613e88577f4e487b7100000000000000000000000000000000000000000000000000000000600052601260045260246000fd5b0492506010810190505b6305f5e1008310613ee1576305f5e1008381613ed7577f4e487b7100000000000000000000000000000000000000000000000000000000600052601260045260246000fd5b0492506008810190505b6127108310613f2c576127108381613f22577f4e487b7100000000000000000000000000000000000000000000000000000000600052601260045260246000fd5b0492506004810190505b60648310613f755760648381613f6b577f4e487b7100000000000000000000000000000000000000000000000000000000600052601260045260246000fd5b0492506002810190505b600a8310613f84576001810190505b80915050919050565b613f978383613fe8565b613fa46000848484613a3e565b613fe3576040517f08c379a0000000000000000000000000000000000000000000000000000000008152600401613fda90615557565b60405180910390fd5b505050565b600073ffffffffffffffffffffffffffffffffffffffff168273ffffffffffffffffffffffffffffffffffffffff161415614058576040517f08c379a000000000000000000000000000000000000000000000000000000000815260040161404f90615737565b60405180910390fd5b61406181612ff4565b156140a1576040517f08c379a0000000000000000000000000000000000000000000000000000000008152600401614098906155b7565b60405180910390fd5b6140af600083836001613a32565b6140b881612ff4565b156140f8576040517f08c379a00000000000000000000000000000000000000000000000000000000081526004016140ef906155b7565b60405180910390fd5b6001600360008473ffffffffffffffffffffffffffffffffffffffff1673ffffffffffffffffffffffffffffffffffffffff16815260200190815260200160002060008282540192505081905550816002600083815260200190815260200160002060006101000a81548173ffffffffffffffffffffffffffffffffffffffff021916908373ffffffffffffffffffffffffffffffffffffffff160217905550808273ffffffffffffffffffffffffffffffffffffffff16600073ffffffffffffffffffffffffffffffffffffffff167fddf252ad1be2c89b69c2b068fc378daa952ba7f163c4a11628f55a4df523b3ef60405160405180910390a4614202600083836001613a38565b5050565b82805461421290615e86565b90600052602060002090601f016020900481019282614234576000855561427b565b82601f1061424d57805160ff191683800117855561427b565b8280016001018555821561427b579182015b8281111561427a57825182559160200191906001019061425f565b5b509050614288919061432e565b5090565b8280548282559060005260206000209081019282156142c8579160200282015b828111156142c75782518255916020019190600101906142ac565b5b5090506142d5919061432e565b5090565b6040518060e00160405280600081526020016000815260200160008152602001600073ffffffffffffffffffffffffffffffffffffffff16815260200160008152602001600015158152602001600081525090565b5b8082111561434757600081600090555060010161432f565b5090565b600061435e61435984615ba6565b615b75565b90508281526020810184848401111561437657600080fd5b614381848285615e44565b509392505050565b600061439c61439784615bd6565b615b75565b9050828152602081018484840111156143b457600080fd5b6143bf848285615e44565b509392505050565b6000813590506143d681615fce565b92915050565b6000813590506143eb81615fe5565b92915050565b60008135905061440081615ffc565b92915050565b60008151905061441581615ffc565b92915050565b600082601f83011261442c57600080fd5b813561443c84826020860161434b565b91505092915050565b600082601f83011261445657600080fd5b8135614466848260208601614389565b91505092915050565b60008135905061447e81616013565b92915050565b60006020828403121561449657600080fd5b60006144a4848285016143c7565b91505092915050565b600080604083850312156144c057600080fd5b60006144ce858286016143c7565b92505060206144df858286016143c7565b9150509250929050565b6000806000606084860312156144fe57600080fd5b600061450c868287016143c7565b935050602061451d868287016143c7565b925050604061452e8682870161446f565b9150509250925092565b6000806000806080858703121561454e57600080fd5b600061455c878288016143c7565b945050602061456d878288016143c7565b935050604061457e8782880161446f565b925050606085013567ffffffffffffffff81111561459b57600080fd5b6145a78782880161441b565b91505092959194509250565b600080604083850312156145c657600080fd5b60006145d4858286016143c7565b92505060206145e5858286016143dc565b9150509250929050565b6000806040838503121561460257600080fd5b6000614610858286016143c7565b92505060206146218582860161446f565b9150509250929050565b60006020828403121561463d57600080fd5b600061464b848285016143f1565b91505092915050565b60006020828403121561466657600080fd5b600061467484828501614406565b91505092915050565b60008060006060848603121561469257600080fd5b600084013567ffffffffffffffff8111156146ac57600080fd5b6146b886828701614445565b935050602084013567ffffffffffffffff8111156146d557600080fd5b6146e186828701614445565b92505060406146f28682870161446f565b9150509250925092565b60006020828403121561470e57600080fd5b600061471c8482850161446f565b91505092915050565b600080600080600060a0868803121561473d57600080fd5b600061474b8882890161446f565b955050602086013567ffffffffffffffff81111561476857600080fd5b61477488828901614445565b945050604086013567ffffffffffffffff81111561479157600080fd5b61479d88828901614445565b93505060606147ae8882890161446f565b92505060806147bf8882890161446f565b9150509295509295909350565b600080604083850312156147df57600080fd5b60006147ed8582860161446f565b92505060206147fe8582860161446f565b9150509250929050565b60006148148383615381565b60e08301905092915050565b600061482c838361540f565b60208301905092915050565b61484181615dd0565b82525050565b61485081615dd0565b82525050565b600061486182615c26565b61486b8185615c6c565b935061487683615c06565b8060005b838110156148a757815161488e8882614808565b975061489983615c52565b92505060018101905061487a565b5085935050505092915050565b60006148bf82615c31565b6148c98185615c7d565b93506148d483615c16565b8060005b838110156149055781516148ec8882614820565b97506148f783615c5f565b9250506001810190506148d8565b5085935050505092915050565b61491b81615de2565b82525050565b61492a81615de2565b82525050565b600061493b82615c3c565b6149458185615c8e565b9350614955818560208601615e53565b61495e81615fbd565b840191505092915050565b600061497482615c47565b61497e8185615c9f565b935061498e818560208601615e53565b61499781615fbd565b840191505092915050565b60006149ad82615c47565b6149b78185615cb0565b93506149c7818560208601615e53565b80840191505092915050565b60006149e0601a83615c9f565b91507f5469636b6574206e6f74206f776e65642062792073656e6465720000000000006000830152602082019050919050565b6000614a20602d83615c9f565b91507f4552433732313a2063616c6c6572206973206e6f7420746f6b656e206f776e6560008301527f72206f7220617070726f766564000000000000000000000000000000000000006020830152604082019050919050565b6000614a86603283615c9f565b91507f4552433732313a207472616e7366657220746f206e6f6e20455243373231526560008301527f63656976657220696d706c656d656e74657200000000000000000000000000006020830152604082019050919050565b6000614aec602683615c9f565b91507f4f776e61626c653a206e6577206f776e657220697320746865207a65726f206160008301527f64647265737300000000000000000000000000000000000000000000000000006020830152604082019050919050565b6000614b52602583615c9f565b91507f4552433732313a207472616e736665722066726f6d20696e636f72726563742060008301527f6f776e65720000000000000000000000000000000000000000000000000000006020830152604082019050919050565b6000614bb8601c83615c9f565b91507f4552433732313a20746f6b656e20616c7265616479206d696e746564000000006000830152602082019050919050565b6000614bf8602483615c9f565b91507f4552433732313a207472616e7366657220746f20746865207a65726f2061646460008301527f72657373000000000000000000000000000000000000000000000000000000006020830152604082019050919050565b6000614c5e601983615c9f565b91507f4552433732313a20617070726f766520746f2063616c6c6572000000000000006000830152602082019050919050565b6000614c9e601a83615c9f565b91507f54686973207469636b657420646f65736e2774206578697374210000000000006000830152602082019050919050565b6000614cde601883615c9f565b91507f54686973206576656e7420646f65736e277420657869737400000000000000006000830152602082019050919050565b6000614d1e601983615c9f565b91507f596f7520646f6e2774206f776e2074686973207469636b6574000000000000006000830152602082019050919050565b6000614d5e602183615c9f565b91507f5469636b657420697320616c7265616479206c697374656420666f722073616c60008301527f65000000000000000000000000000000000000000000000000000000000000006020830152604082019050919050565b6000614dc4602983615c9f565b91507f4552433732313a2061646472657373207a65726f206973206e6f74206120766160008301527f6c6964206f776e657200000000000000000000000000000000000000000000006020830152604082019050919050565b6000614e2a601d83615c9f565b91507f546f6b656e2068617320616c7265616479206265656e206d696e7465640000006000830152602082019050919050565b6000614e6a602383615c9f565b91507f5469636b657420697320616c7265616479206c697374656420666f722072657360008301527f616c6500000000000000000000000000000000000000000000000000000000006020830152604082019050919050565b6000614ed0601a83615c9f565b91507f54686973207469636b657420646f6573206e6f742065786973740000000000006000830152602082019050919050565b6000614f10601c83615c9f565b91507f596f7520616c7265616479206f776e2074686973207469636b657421000000006000830152602082019050919050565b6000614f50602083615c9f565b91507f4552433732313a206d696e7420746f20746865207a65726f20616464726573736000830152602082019050919050565b6000614f90601983615c9f565b91507f496e76616c696420726563697069656e742061646472657373000000000000006000830152602082019050919050565b6000614fd0602083615c9f565b91507f4f776e61626c653a2063616c6c6572206973206e6f7420746865206f776e65726000830152602082019050919050565b6000615010601883615c9f565b91507f4552433732313a20696e76616c696420746f6b656e20494400000000000000006000830152602082019050919050565b6000615050602183615c9f565b91507f4552433732313a20617070726f76616c20746f2063757272656e74206f776e6560008301527f72000000000000000000000000000000000000000000000000000000000000006020830152604082019050919050565b60006150b6603d83615c9f565b91507f4552433732313a20617070726f76652063616c6c6572206973206e6f7420746f60008301527f6b656e206f776e6572206f7220617070726f76656420666f7220616c6c0000006020830152604082019050919050565b600061511c601683615c9f565b91507f496e76616c69642073656e6465722061646472657373000000000000000000006000830152602082019050919050565b600061515c603b83615c9f565b91507f526573616c652070726963652063616e6e6f742062652068696768657220746860008301527f616e20746865206d6178696d756d20726573616c6520707269636500000000006020830152604082019050919050565b60006151c2603183615c9f565b91507f4f6e6c7920746865206f7267616e69736572206f662074686973206576656e7460008301527f2063616e206578656375746520746869730000000000000000000000000000006020830152604082019050919050565b6000615228601c83615c9f565b91507f546869732063617465676f727920646f6573206e6f74206578697374000000006000830152602082019050919050565b6000615268601f83615c9f565b91507f5469636b6574206973206e6f74206c697374656420666f7220726573616c65006000830152602082019050919050565b60006152a8601983615c9f565b91507f54686973206576656e7420646f6573206e6f74206578697374000000000000006000830152602082019050919050565b60006152e8603683615c9f565b91507f596f75206d757374207061792074686520657861637420616d6f756e7420746860008301527f61742074686973206973206c697374656420666f7221000000000000000000006020830152604082019050919050565b600061534e601c83615c9f565b91507f54686973207469636b6574206973206e6f7420666f722073616c6521000000006000830152602082019050919050565b60e082016000820151615397600085018261540f565b5060208201516153aa602085018261540f565b5060408201516153bd604085018261540f565b5060608201516153d06060850182614838565b5060808201516153e3608085018261540f565b5060a08201516153f660a0850182614912565b5060c082015161540960c085018261540f565b50505050565b61541881615e3a565b82525050565b61542781615e3a565b82525050565b600061543982856149a2565b915061544582846149a2565b91508190509392505050565b60006020820190506154666000830184614847565b92915050565b60006080820190506154816000830187614847565b61548e6020830186614847565b61549b604083018561541e565b81810360608301526154ad8184614930565b905095945050505050565b600060208201905081810360008301526154d28184614856565b905092915050565b60006020820190506154ef6000830184614921565b92915050565b6000602082019050818103600083015261550f8184614969565b905092915050565b60006020820190508181036000830152615530816149d3565b9050919050565b6000602082019050818103600083015261555081614a13565b9050919050565b6000602082019050818103600083015261557081614a79565b9050919050565b6000602082019050818103600083015261559081614adf565b9050919050565b600060208201905081810360008301526155b081614b45565b9050919050565b600060208201905081810360008301526155d081614bab565b9050919050565b600060208201905081810360008301526155f081614beb565b9050919050565b6000602082019050818103600083015261561081614c51565b9050919050565b6000602082019050818103600083015261563081614c91565b9050919050565b6000602082019050818103600083015261565081614cd1565b9050919050565b6000602082019050818103600083015261567081614d11565b9050919050565b6000602082019050818103600083015261569081614d51565b9050919050565b600060208201905081810360008301526156b081614db7565b9050919050565b600060208201905081810360008301526156d081614e1d565b9050919050565b600060208201905081810360008301526156f081614e5d565b9050919050565b6000602082019050818103600083015261571081614ec3565b9050919050565b6000602082019050818103600083015261573081614f03565b9050919050565b6000602082019050818103600083015261575081614f43565b9050919050565b6000602082019050818103600083015261577081614f83565b9050919050565b6000602082019050818103600083015261579081614fc3565b9050919050565b600060208201905081810360008301526157b081615003565b9050919050565b600060208201905081810360008301526157d081615043565b9050919050565b600060208201905081810360008301526157f0816150a9565b9050919050565b600060208201905081810360008301526158108161510f565b9050919050565b600060208201905081810360008301526158308161514f565b9050919050565b60006020820190508181036000830152615850816151b5565b9050919050565b600060208201905081810360008301526158708161521b565b9050919050565b600060208201905081810360008301526158908161525b565b9050919050565b600060208201905081810360008301526158b08161529b565b9050919050565b600060208201905081810360008301526158d0816152db565b9050919050565b600060208201905081810360008301526158f081615341565b9050919050565b600060208201905061590c600083018461541e565b92915050565b6000604082019050615927600083018561541e565b6159346020830184614847565b9392505050565b6000608082019050615950600083018761541e565b61595d6020830186614847565b61596a6040830185614847565b615977606083018461541e565b95945050505050565b600061012082019050615996600083018c61541e565b6159a3602083018b614847565b81810360408301526159b5818a614969565b905081810360608301526159c98189614969565b90506159d8608083018861541e565b6159e560a083018761541e565b6159f260c083018661541e565b6159ff60e0830185614921565b818103610100830152615a1281846148b4565b90509a9950505050505050505050565b6000606082019050615a37600083018661541e565b615a446020830185614847565b615a51604083018461541e565b949350505050565b6000606082019050615a6e600083018661541e565b8181036020830152615a808185614969565b9050615a8f6040830184614847565b949350505050565b600060c082019050615aac600083018961541e565b615ab9602083018861541e565b8181036040830152615acb8187614969565b90508181036060830152615adf8186614969565b9050615aee608083018561541e565b615afb60a083018461541e565b979650505050505050565b600060e082019050615b1b600083018a61541e565b615b28602083018961541e565b615b35604083018861541e565b615b426060830187614847565b615b4f608083018661541e565b615b5c60a0830185614921565b615b6960c083018461541e565b98975050505050505050565b6000604051905081810181811067ffffffffffffffff82111715615b9c57615b9b615f8e565b5b8060405250919050565b600067ffffffffffffffff821115615bc157615bc0615f8e565b5b601f19601f8301169050602081019050919050565b600067ffffffffffffffff821115615bf157615bf0615f8e565b5b601f19601f8301169050602081019050919050565b6000819050602082019050919050565b6000819050602082019050919050565b600081519050919050565b600081519050919050565b600081519050919050565b600081519050919050565b6000602082019050919050565b6000602082019050919050565b600082825260208201905092915050565b600082825260208201905092915050565b600082825260208201905092915050565b600082825260208201905092915050565b600081905092915050565b6000615cc682615e3a565b9150615cd183615e3a565b9250827fffffffffffffffffffffffffffffffffffffffffffffffffffffffffffffffff03821115615d0657615d05615f01565b5b828201905092915050565b6000615d1c82615e3a565b9150615d2783615e3a565b925082615d3757615d36615f30565b5b828204905092915050565b6000615d4d82615e3a565b9150615d5883615e3a565b9250817fffffffffffffffffffffffffffffffffffffffffffffffffffffffffffffffff0483118215151615615d9157615d90615f01565b5b828202905092915050565b6000615da782615e3a565b9150615db283615e3a565b925082821015615dc557615dc4615f01565b5b828203905092915050565b6000615ddb82615e1a565b9050919050565b60008115159050919050565b60007fffffffff0000000000000000000000000000000000000000000000000000000082169050919050565b600073ffffffffffffffffffffffffffffffffffffffff82169050919050565b6000819050919050565b82818337600083830152505050565b60005b83811015615e71578082015181840152602081019050615e56565b83811115615e80576000848401525b50505050565b60006002820490506001821680615e9e57607f821691505b60208210811415615eb257615eb1615f5f565b5b50919050565b6000615ec382615e3a565b91507fffffffffffffffffffffffffffffffffffffffffffffffffffffffffffffffff821415615ef657615ef5615f01565b5b600182019050919050565b7f4e487b7100000000000000000000000000000000000000000000000000000000600052601160045260246000fd5b7f4e487b7100000000000000000000000000000000000000000000000000000000600052601260045260246000fd5b7f4e487b7100000000000000000000000000000000000000000000000000000000600052602260045260246000fd5b7f4e487b7100000000000000000000000000000000000000000000000000000000600052604160045260246000fd5b6000601f19601f8301169050919050565b615fd781615dd0565b8114615fe257600080fd5b50565b615fee81615de2565b8114615ff957600080fd5b50565b61600581615dee565b811461601057600080fd5b50565b61601c81615e3a565b811461602757600080fd5b5056fea2646970667358221220ab3840c33b215793602c616cb9674a1d18be36eb56e0e52cb83b591bdde3def564736f6c63430008000033",
  "immutableReferences": {},
  "source": "// SPDX-License-Identifier: UNLICENSED\npragma solidity >=0.6.0 <0.9.0;\npragma experimental ABIEncoderV2;\n\n//import \"https://github.com/OpenZeppelin/openzeppelin-contracts/blob/v2.5.0/contracts/token/ERC721/ERC721.sol\";\nimport \"../node_modules/@openzeppelin/contracts/token/ERC721/ERC721.sol\";\nimport \"../node_modules/@openzeppelin/contracts/utils/math/SafeMath.sol\";\n//import \"../node_modules/@openzeppelin/contracts/utils/Counters.sol\";\n//use uint256 private _tokenIds instead;\n//to increment: _tokenIds++;\nimport \"../node_modules/@openzeppelin/contracts/access/Ownable.sol\";\nimport \"../node_modules/@openzeppelin/contracts/token/ERC721/extensions/ERC721URIStorage.sol\";\n\ncontract TicketMister is ERC721URIStorage, Ownable {\n    constructor() ERC721(\"TicketMister\", \"TMT\") {}\n\n    // 1 token = 1 ticket\n\n    // counter for eventId - incremented each time a new event is created\n    uint256 private eventIdCounter;\n\n    // counter for categoryId - incremented each time a new category is created\n    uint256 private categoryIdCounter;\n\n    // counter for ticketId - incremented each time a new ticket is created\n    uint256 private ticketIdCounter;\n\n    // ticketId mapped to TicketInfo struct\n    mapping(uint256 => TicketInfo) private tickets;\n\n    // eventId mapped to EventInfo struct\n    mapping(uint256 => EventInfo) private events;\n\n    // categoryId mapped to CategoryInfo struct\n    mapping(uint256 => CategoryInfo) private categories;\n\n    // address of event organiser mapped to an array of eventIds\n    mapping(address => uint256[]) private eventsOrganised;\n\n    // address of owner mapped to array of ticketIds of the tickets they own\n    mapping(address => uint256[]) private ticketsOwned;\n\n    // eventId mapped to array of ticketIds of all tickets on sale (whether first sale or resale)\n    mapping(uint256 => uint256[]) private ticketsForSale;\n\n    // array storing all of the events\n    EventInfo[] allEventsArray;\n\n    struct EventInfo {\n        uint256 eventId;\n        address organiser;\n        string eventName;\n        string eventDescription;\n        uint256 numberOfTickets; // total number of tickets for this event\n        uint256 soldTickets; // number of tickets already sold for this event - updated when someone buys from organiser\n        uint256 maxResalePercentage; // maximum percentage that the ticket price can be resold for - might be complicated with decimals\n        bool isActive;\n        uint256[] categoryIds; // list of categoryIds for this event\n    }\n\n    struct CategoryInfo {\n        uint256 eventId; // event that this category is tagged to\n        uint256 categoryId;\n        string categoryName;\n        string description;\n        uint256 ticketPrice;\n        uint256 numberOfTickets; // number of tickets for this category\n    }\n\n    struct TicketInfo {\n        uint256 eventId; // event that this category is tagged to\n        uint256 categoryId; // category that this ticket is tagged to\n        uint256 ticketId;\n        address owner;\n        uint256 originalPrice;\n        bool isForSale;\n        uint256 resalePrice;\n    }\n\n    // Events\n    event eventCreated(uint256 eventId, string eventName, address organiser);\n    event ticketSold(\n        uint256 ticketId,\n        address buyer,\n        address seller,\n        uint256 price\n    );\n    event ticketListedForResale(\n        uint256 ticketId,\n        address seller,\n        uint256 price\n    ); // emitted when listing ticket (NOT by organisers)\n    event ticketUnlistedFromResale(uint256 ticketId, address seller);\n\n    // function to create a new event - anyone can create a new event\n    function createEvent(\n        string memory eventName,\n        string memory eventDescription,\n        uint256 maxResalePercentage\n    ) public {\n        eventIdCounter++;\n        uint256 newEventId = eventIdCounter;\n\n        // Create new event struct\n        EventInfo memory newEvent = EventInfo(\n            newEventId,\n            msg.sender,\n            eventName,\n            eventDescription,\n            0,\n            0,\n            maxResalePercentage,\n            true,\n            new uint256[](0)\n        );\n\n        // Update events mapping (eventId => EventInfo)\n        events[newEventId] = newEvent;\n\n        // push new event to allEventsArray\n        allEventsArray.push(newEvent);\n\n        // push new event to eventsOrganised mapping (organiser => eventId[])\n        eventsOrganised[msg.sender].push(newEventId);\n\n        emit eventCreated(newEventId, eventName, msg.sender);\n    }\n\n    // user needs to create event first before they can create category and mint tickets for that event\n    function createCategory(\n        uint256 eventId,\n        string memory categoryName,\n        string memory description,\n        uint256 ticketPrice,\n        uint256 numberOfTickets\n    ) public onlyOrganiser(eventId) {\n        categoryIdCounter++;\n        uint256 newCategoryId = categoryIdCounter;\n\n        // Create new category struct\n        CategoryInfo memory newCategory = CategoryInfo(\n            eventId,\n            newCategoryId,\n            categoryName,\n            description,\n            ticketPrice,\n            numberOfTickets\n        );\n\n        // Update categories mapping (categoryId => CategoryInfo)\n        categories[newCategoryId] = newCategory;\n\n        // push new category to event's ticketCategories array\n        events[eventId].categoryIds.push(newCategoryId);\n\n        // mint tickets for this category\n        mintTickets(\n            msg.sender,\n            eventId,\n            newCategoryId,\n            numberOfTickets,\n            ticketPrice,\n            msg.sender\n        );\n\n        // increment total number of tickets for this event\n        events[eventId].numberOfTickets += numberOfTickets;\n    }\n\n    // this function will be called when createCategory is called, to mint the tickets for that respective category\n    function mintTickets(\n        address to, // address of owner (im unsure what the use of this is - 'to' & 'owner' are the same address when minting)\n        uint256 eventId, // will be generated when event is created\n        uint256 categoryId, // will be generated when category is created\n        uint256 numberOfTickets,\n        uint256 ticketPrice,\n        address owner // address of owner\n    ) private onlyOrganiser(eventId) {\n        for (uint256 counter = 0; counter < numberOfTickets; counter++) {\n            ticketIdCounter++;\n            uint256 newTicketId = ticketIdCounter;\n            require(!_exists(newTicketId), \"Token has already been minted\");\n            _safeMint(to, newTicketId);\n\n            // Each ticketId will have the ticket information mapped to it (ticketID => TicketInfo)\n            // Create new ticket struct\n            TicketInfo memory newTicket = TicketInfo(\n                eventId,\n                categoryId,\n                newTicketId,\n                owner,\n                ticketPrice,\n                true, // when minted, will be for sale\n                ticketPrice // set resale price as original price at the start. buying will always use resale price\n            );\n\n            // Update tickets mapping (ticketId => TicketInfo)\n            tickets[newTicketId] = newTicket;\n\n            // push tickets minted to 'ticketsForSale' (eventId => uint256[] List of ticketIds for sale)\n            ticketsForSale[eventId].push(newTicketId);\n\n            // push tickets minted to 'ticketsOwned' for organiser (owner => uint256[] List of ticketIds owned)\n            ticketsOwned[owner].push(newTicketId);\n        }\n    }\n\n    function buyTicket(uint256 ticketId) public payable {\n        require(_exists(ticketId), \"This ticket doesn't exist!\");\n        TicketInfo memory ticketInfo = tickets[ticketId];\n        address previousOwner = ticketInfo.owner;\n        require(ticketInfo.isForSale, \"This ticket is not for sale!\");\n        require(\n            msg.value == ticketInfo.resalePrice,\n            \"You must pay the exact amount that this is listed for!\"\n        );\n        require(msg.sender != previousOwner, \"You already own this ticket!\");\n        address payable ownerPayable = payable(previousOwner);\n\n        // transfer ticket to new owner\n        transferTicket(previousOwner, msg.sender, ticketId);\n        ownerPayable.transfer(msg.value);\n\n        // update respective ticketInfo\n        tickets[ticketId].owner = msg.sender;\n        tickets[ticketId].isForSale = false;\n        tickets[ticketId].resalePrice = 0;\n\n        // remove ticket from ticketsOwned for previous owner\n        for (\n            // iterate through ticketsOwned for previous owner\n            uint256 index = 0;\n            index < ticketsOwned[previousOwner].length;\n            index++\n        ) {\n            // find the ticketId in the array\n            if (ticketsOwned[previousOwner][index] == ticketId) {\n                removeTicketFromTicketsOwned(previousOwner, index);\n                break;\n            }\n        }\n\n        // add ticket to new owner\n        ticketsOwned[msg.sender].push(ticketId);\n\n        // remove ticket from ticketsForSale for event\n        for (\n            // iterate through ticketsForSale for event\n            uint256 index = 0;\n            index < ticketsForSale[ticketInfo.eventId].length;\n            index++\n        ) {\n            // find the ticketId in the array\n            if (ticketsForSale[ticketInfo.eventId][index] == ticketId) {\n                removeTicketFromTicketsForSale(ticketInfo.eventId, index);\n                break;\n            }\n        }\n\n        // update eventInfo if ticket was bought from organiser\n        if (previousOwner == events[ticketInfo.eventId].organiser) {\n            events[ticketInfo.eventId].soldTickets++;\n        }\n\n        emit ticketSold(ticketId, msg.sender, previousOwner, msg.value);\n    }\n\n    // Function to list a ticket for resale\n    function listTicketForResale(uint256 ticketId, uint256 price) public {\n        require(ownerOf(ticketId) == msg.sender, \"You don't own this ticket\");\n        TicketInfo memory ticket = tickets[ticketId];\n        require(ticket.isForSale == false, \"Ticket is already listed for sale\");\n        require(ticket.resalePrice == 0, \"Ticket is already listed for resale\");\n\n        // Calculate max resale price based on the resale percentage\n        EventInfo memory eventInfo = events[ticket.eventId];\n        uint256 maxResalePrice = (ticket.originalPrice *\n            eventInfo.maxResalePercentage) / 100;\n\n        require(\n            price <= maxResalePrice,\n            \"Resale price cannot be higher than the maximum resale price\"\n        );\n\n        // Update ticket info\n        ticket.resalePrice = price;\n        ticket.isForSale = true;\n\n        // Add ticket to ticketsForSale mapping\n        ticketsForSale[ticket.eventId].push(ticketId);\n\n        emit ticketListedForResale(ticketId, msg.sender, price);\n    }\n\n    // Function to unlist a ticket from resale\n    function unlistTicketFromResale(uint256 ticketId) public {\n        require(ownerOf(ticketId) == msg.sender, \"You don't own this ticket\");\n        TicketInfo memory ticket = tickets[ticketId];\n        require(ticket.isForSale == true, \"Ticket is not listed for resale\");\n\n        // Update ticket info\n        ticket.isForSale = false;\n        ticket.resalePrice = 0;\n\n        // Remove ticket from ticketsForSale mapping\n        removeTicketFromTicketsForSale(ticket.eventId, ticketId);\n\n        emit ticketUnlistedFromResale(ticketId, msg.sender);\n    }\n\n    function removeTicketFromTicketsOwned(\n        address owner,\n        uint256 index\n    ) private {\n        // index = index of ticket to remove\n        for (uint256 i = index; i < ticketsOwned[owner].length - 1; i++) {\n            // shift all tickets from index onwards, to the left\n            ticketsOwned[owner][i] = ticketsOwned[owner][i + 1];\n        }\n\n        // remove last element\n        ticketsOwned[owner].pop();\n    }\n\n    function removeTicketFromTicketsForSale(\n        uint256 eventId,\n        uint256 index\n    ) private {\n        // index = index of ticket to remove\n        for (uint256 i = index; i < ticketsForSale[eventId].length - 1; i++) {\n            // shift all tickets from index onwards, to the left\n            ticketsForSale[eventId][i] = ticketsForSale[eventId][i + 1];\n        }\n\n        // remove last element\n        ticketsForSale[eventId].pop();\n    }\n\n    function transferTicket(\n        address from,\n        address to,\n        uint256 ticketId\n    ) private {\n        require(ownerOf(ticketId) == from, \"Ticket not owned by sender\");\n        require(to != address(0), \"Invalid recipient address\");\n        require(from != address(0), \"Invalid sender address\");\n        _transfer(from, to, ticketId);\n    } // im not sure whether this works - because we completely remove 'tokens'\n\n    // only the organiser can execute a specific function\n    modifier onlyOrganiser(uint256 eventId) {\n        address eventOrganiserAddress = getEventOrganiserAddress(eventId);\n        require(\n            msg.sender == eventOrganiserAddress,\n            \"Only the organiser of this event can execute this\"\n        );\n        _;\n    }\n\n    function getEventOrganiserAddress(\n        uint256 eventId\n    ) private view returns (address) {\n        return events[eventId].organiser;\n    }\n\n    // This is the function to see all of the tickets being sold for a specific event\n    function viewAllEventTickets(\n        uint256 eventId\n    ) public view returns (TicketInfo[] memory) {\n        require(eventId <= eventIdCounter, \"This event doesn't exist\");\n        uint256[] memory ticketIdsForSale = ticketsForSale[eventId];\n        TicketInfo[] memory allEventTickets = new TicketInfo[](\n            ticketIdsForSale.length\n        );\n        for (\n            uint256 counter = 0;\n            counter < ticketIdsForSale.length;\n            counter++\n        ) {\n            uint256 ticketId = ticketIdsForSale[counter];\n            TicketInfo memory ticketInfo = tickets[ticketId];\n            allEventTickets[counter] = ticketInfo;\n        }\n        return (allEventTickets);\n    }\n\n    function getEventInfo(\n        uint256 eventId\n    )\n        public\n        view\n        returns (\n            uint256,\n            address,\n            string memory,\n            string memory,\n            uint256,\n            uint256,\n            uint256,\n            bool,\n            uint256[] memory\n        )\n    {\n        require(eventId <= eventIdCounter, \"This event does not exist\");\n        EventInfo memory eventInfo = events[eventId];\n        return (\n            eventInfo.eventId,\n            eventInfo.organiser,\n            eventInfo.eventName,\n            eventInfo.eventDescription,\n            eventInfo.numberOfTickets,\n            eventInfo.soldTickets,\n            eventInfo.maxResalePercentage,\n            eventInfo.isActive,\n            eventInfo.categoryIds\n        );\n    }\n\n    function getCategoryInfo(\n        uint256 categoryId\n    )\n        public\n        view\n        returns (\n            uint256,\n            uint256,\n            string memory,\n            string memory,\n            uint256,\n            uint256\n        )\n    {\n        require(\n            categoryId <= categoryIdCounter,\n            \"This category does not exist\"\n        );\n        CategoryInfo memory categoryInfo = categories[categoryId];\n        return (\n            categoryInfo.eventId,\n            categoryInfo.categoryId,\n            categoryInfo.categoryName,\n            categoryInfo.description,\n            categoryInfo.ticketPrice,\n            categoryInfo.numberOfTickets\n        );\n    }\n\n    function getTicketInfo(\n        uint256 ticketId\n    )\n        public\n        view\n        returns (uint256, uint256, uint256, address, uint256, bool, uint256)\n    {\n        require(ticketId <= ticketIdCounter, \"This ticket does not exist\");\n        TicketInfo memory ticketInfo = tickets[ticketId];\n        return (\n            ticketInfo.eventId,\n            ticketInfo.categoryId,\n            ticketInfo.ticketId,\n            ticketInfo.owner,\n            ticketInfo.originalPrice,\n            ticketInfo.isForSale,\n            ticketInfo.resalePrice\n        );\n    }\n}\n",
  "sourcePath": "/Users/yaner/Documents/NUS/Y2S2/IS4302/ticketmister/contracts/TicketMister.sol",
  "compiler": {
    "name": "solc",
    "version": "0.8.0+commit.c7dfd78e.Emscripten.clang"
  },
  "schemaVersion": "3.3.3",
  "updatedAt": "2024-04-18T08:12:14.903Z",
  "devdoc": {
    "kind": "dev",
    "methods": {
      "approve(address,uint256)": {
        "details": "See {IERC721-approve}."
      },
      "balanceOf(address)": {
        "details": "See {IERC721-balanceOf}."
      },
      "getApproved(uint256)": {
        "details": "See {IERC721-getApproved}."
      },
      "isApprovedForAll(address,address)": {
        "details": "See {IERC721-isApprovedForAll}."
      },
      "name()": {
        "details": "See {IERC721Metadata-name}."
      },
      "owner()": {
        "details": "Returns the address of the current owner."
      },
      "ownerOf(uint256)": {
        "details": "See {IERC721-ownerOf}."
      },
      "renounceOwnership()": {
        "details": "Leaves the contract without owner. It will not be possible to call `onlyOwner` functions anymore. Can only be called by the current owner. NOTE: Renouncing ownership will leave the contract without an owner, thereby removing any functionality that is only available to the owner."
      },
      "safeTransferFrom(address,address,uint256)": {
        "details": "See {IERC721-safeTransferFrom}."
      },
      "safeTransferFrom(address,address,uint256,bytes)": {
        "details": "See {IERC721-safeTransferFrom}."
      },
      "setApprovalForAll(address,bool)": {
        "details": "See {IERC721-setApprovalForAll}."
      },
      "supportsInterface(bytes4)": {
        "details": "See {IERC165-supportsInterface}."
      },
      "symbol()": {
        "details": "See {IERC721Metadata-symbol}."
      },
      "tokenURI(uint256)": {
        "details": "See {IERC721Metadata-tokenURI}."
      },
      "transferFrom(address,address,uint256)": {
        "details": "See {IERC721-transferFrom}."
      },
      "transferOwnership(address)": {
        "details": "Transfers ownership of the contract to a new account (`newOwner`). Can only be called by the current owner."
      }
    },
    "version": 1
  },
  "userdoc": {
    "kind": "user",
    "methods": {},
    "version": 1
  }
}