{
  "contractName": "TicketMkt",
  "abi": [
    {
      "inputs": [
        {
          "internalType": "address",
          "name": "_eventMgmtAddress",
          "type": "address"
        }
      ],
      "stateMutability": "nonpayable",
      "type": "constructor"
    },
    {
      "anonymous": false,
      "inputs": [
        {
          "indexed": false,
          "internalType": "uint256",
          "name": "categoryId",
          "type": "uint256"
        },
        {
          "indexed": false,
          "internalType": "uint256",
          "name": "eventId",
          "type": "uint256"
        },
        {
          "indexed": false,
          "internalType": "string",
          "name": "categoryName",
          "type": "string"
        },
        {
          "indexed": false,
          "internalType": "string",
          "name": "categoryDescription",
          "type": "string"
        },
        {
          "indexed": false,
          "internalType": "uint256",
          "name": "ticketPrice",
          "type": "uint256"
        },
        {
          "indexed": false,
          "internalType": "uint256",
          "name": "numberOfTickets",
          "type": "uint256"
        }
      ],
      "name": "CategoryCreated",
      "type": "event"
    },
    {
      "anonymous": false,
      "inputs": [
        {
          "indexed": false,
          "internalType": "uint256",
          "name": "eventId",
          "type": "uint256"
        },
        {
          "indexed": false,
          "internalType": "string",
          "name": "eventName",
          "type": "string"
        },
        {
          "indexed": false,
          "internalType": "address",
          "name": "eventOrganiser",
          "type": "address"
        },
        {
          "indexed": false,
          "internalType": "string",
          "name": "eventDescription",
          "type": "string"
        },
        {
          "indexed": false,
          "internalType": "uint256",
          "name": "maxResalePercentage",
          "type": "uint256"
        }
      ],
      "name": "EventCreated",
      "type": "event"
    },
    {
      "anonymous": false,
      "inputs": [
        {
          "indexed": false,
          "internalType": "uint256",
          "name": "eventId",
          "type": "uint256"
        },
        {
          "indexed": false,
          "internalType": "string",
          "name": "newDescription",
          "type": "string"
        }
      ],
      "name": "EventDescriptionUpdated",
      "type": "event"
    },
    {
      "anonymous": false,
      "inputs": [
        {
          "indexed": false,
          "internalType": "uint256",
          "name": "eventId",
          "type": "uint256"
        },
        {
          "indexed": false,
          "internalType": "uint256",
          "name": "newMaxPercentage",
          "type": "uint256"
        }
      ],
      "name": "MaxResalePercentageUpdated",
      "type": "event"
    },
    {
      "anonymous": false,
      "inputs": [
        {
          "indexed": false,
          "internalType": "uint256",
          "name": "ticketId",
          "type": "uint256"
        },
        {
          "indexed": false,
          "internalType": "address",
          "name": "buyer",
          "type": "address"
        },
        {
          "indexed": false,
          "internalType": "address",
          "name": "seller",
          "type": "address"
        }
      ],
      "name": "ticketBought",
      "type": "event"
    },
    {
      "anonymous": false,
      "inputs": [
        {
          "indexed": false,
          "internalType": "uint256",
          "name": "ticketId",
          "type": "uint256"
        },
        {
          "indexed": false,
          "internalType": "address",
          "name": "recipient",
          "type": "address"
        }
      ],
      "name": "ticketGifted",
      "type": "event"
    },
    {
      "anonymous": false,
      "inputs": [
        {
          "indexed": false,
          "internalType": "uint256",
          "name": "ticketId",
          "type": "uint256"
        },
        {
          "indexed": false,
          "internalType": "address",
          "name": "refundRecipient",
          "type": "address"
        },
        {
          "indexed": false,
          "internalType": "uint256",
          "name": "refundAmount",
          "type": "uint256"
        }
      ],
      "name": "ticketRefunded",
      "type": "event"
    },
    {
      "inputs": [
        {
          "internalType": "string",
          "name": "eventName",
          "type": "string"
        },
        {
          "internalType": "string",
          "name": "eventDescription",
          "type": "string"
        },
        {
          "internalType": "uint256",
          "name": "maxResalePercentage",
          "type": "uint256"
        }
      ],
      "name": "createEvent",
      "outputs": [
        {
          "internalType": "uint256",
          "name": "eventId",
          "type": "uint256"
        }
      ],
      "stateMutability": "nonpayable",
      "type": "function"
    },
    {
      "inputs": [
        {
          "internalType": "uint256",
          "name": "eventId",
          "type": "uint256"
        },
        {
          "internalType": "string",
          "name": "categoryName",
          "type": "string"
        },
        {
          "internalType": "string",
          "name": "categoryDescription",
          "type": "string"
        },
        {
          "internalType": "uint256",
          "name": "ticketPrice",
          "type": "uint256"
        },
        {
          "internalType": "uint256",
          "name": "numberOfTickets",
          "type": "uint256"
        }
      ],
      "name": "createTicketCategory",
      "outputs": [
        {
          "internalType": "uint256",
          "name": "categoryId",
          "type": "uint256"
        }
      ],
      "stateMutability": "nonpayable",
      "type": "function"
    },
    {
      "inputs": [
        {
          "internalType": "uint256",
          "name": "eventId",
          "type": "uint256"
        },
        {
          "internalType": "string",
          "name": "newDescription",
          "type": "string"
        }
      ],
      "name": "updateEventDescription",
      "outputs": [],
      "stateMutability": "nonpayable",
      "type": "function"
    },
    {
      "inputs": [
        {
          "internalType": "uint256",
          "name": "eventId",
          "type": "uint256"
        },
        {
          "internalType": "uint256",
          "name": "newMaxPercentage",
          "type": "uint256"
        }
      ],
      "name": "updateMaxResalePercentage",
      "outputs": [],
      "stateMutability": "nonpayable",
      "type": "function"
    },
    {
      "inputs": [
        {
          "internalType": "uint256",
          "name": "eventId",
          "type": "uint256"
        }
      ],
      "name": "getRefundAmount",
      "outputs": [
        {
          "internalType": "uint256",
          "name": "refundAmount",
          "type": "uint256"
        }
      ],
      "stateMutability": "view",
      "type": "function"
    },
    {
      "inputs": [
        {
          "internalType": "uint256",
          "name": "eventId",
          "type": "uint256"
        }
      ],
      "name": "cancelEventAndRefund",
      "outputs": [],
      "stateMutability": "payable",
      "type": "function"
    },
    {
      "inputs": [
        {
          "internalType": "uint256",
          "name": "ticketId",
          "type": "uint256"
        }
      ],
      "name": "buyTicket",
      "outputs": [],
      "stateMutability": "payable",
      "type": "function"
    },
    {
      "inputs": [
        {
          "internalType": "uint256",
          "name": "ticketId",
          "type": "uint256"
        },
        {
          "internalType": "uint256",
          "name": "resalePrice",
          "type": "uint256"
        }
      ],
      "name": "listTicketForResale",
      "outputs": [],
      "stateMutability": "nonpayable",
      "type": "function"
    },
    {
      "inputs": [
        {
          "internalType": "uint256",
          "name": "ticketId",
          "type": "uint256"
        },
        {
          "internalType": "address",
          "name": "recipient",
          "type": "address"
        }
      ],
      "name": "giftTicket",
      "outputs": [],
      "stateMutability": "nonpayable",
      "type": "function"
    },
    {
      "inputs": [
        {
          "internalType": "uint256",
          "name": "ticketId",
          "type": "uint256"
        }
      ],
      "name": "unlistTicketFromResale",
      "outputs": [],
      "stateMutability": "nonpayable",
      "type": "function"
    },
    {
      "inputs": [
        {
          "internalType": "uint256",
          "name": "eventId",
          "type": "uint256"
        }
      ],
      "name": "getEventInfo",
      "outputs": [
        {
          "internalType": "string",
          "name": "eventName",
          "type": "string"
        },
        {
          "internalType": "address",
          "name": "eventOrganiser",
          "type": "address"
        },
        {
          "internalType": "string",
          "name": "eventDescription",
          "type": "string"
        },
        {
          "internalType": "uint256",
          "name": "maxResalePercentage",
          "type": "uint256"
        },
        {
          "internalType": "bool",
          "name": "isActive",
          "type": "bool"
        },
        {
          "internalType": "uint256[]",
          "name": "categoryIds",
          "type": "uint256[]"
        }
      ],
      "stateMutability": "view",
      "type": "function"
    },
    {
      "inputs": [
        {
          "internalType": "uint256",
          "name": "categoryId",
          "type": "uint256"
        }
      ],
      "name": "getCategoryInfo",
      "outputs": [
        {
          "internalType": "uint256",
          "name": "eventId",
          "type": "uint256"
        },
        {
          "internalType": "string",
          "name": "categoryName",
          "type": "string"
        },
        {
          "internalType": "string",
          "name": "categoryDescription",
          "type": "string"
        },
        {
          "internalType": "uint256",
          "name": "ticketPrice",
          "type": "uint256"
        },
        {
          "internalType": "uint256[]",
          "name": "ticketIds",
          "type": "uint256[]"
        }
      ],
      "stateMutability": "view",
      "type": "function"
    },
    {
      "inputs": [
        {
          "internalType": "uint256",
          "name": "ticketId",
          "type": "uint256"
        }
      ],
      "name": "getTicketInfo",
      "outputs": [
        {
          "internalType": "uint256",
          "name": "eventId",
          "type": "uint256"
        },
        {
          "internalType": "uint256",
          "name": "categoryId",
          "type": "uint256"
        },
        {
          "internalType": "address",
          "name": "owner",
          "type": "address"
        },
        {
          "internalType": "bool",
          "name": "isOnSale",
          "type": "bool"
        },
        {
          "internalType": "uint256",
          "name": "originalPrice",
          "type": "uint256"
        },
        {
          "internalType": "uint256",
          "name": "resalePrice",
          "type": "uint256"
        }
      ],
      "stateMutability": "view",
      "type": "function"
    },
    {
      "inputs": [
        {
          "internalType": "uint256",
          "name": "eventId",
          "type": "uint256"
        }
      ],
      "name": "getEventTickets",
      "outputs": [
        {
          "internalType": "uint256[]",
          "name": "eventTickets",
          "type": "uint256[]"
        }
      ],
      "stateMutability": "view",
      "type": "function"
    },
    {
      "inputs": [
        {
          "internalType": "uint256",
          "name": "categoryId",
          "type": "uint256"
        }
      ],
      "name": "getCategoryTickets",
      "outputs": [
        {
          "internalType": "uint256[]",
          "name": "categoryTickets",
          "type": "uint256[]"
        }
      ],
      "stateMutability": "view",
      "type": "function"
    },
    {
      "inputs": [],
      "name": "getEventsOrganised",
      "outputs": [
        {
          "internalType": "uint256[]",
          "name": "eventIds",
          "type": "uint256[]"
        }
      ],
      "stateMutability": "view",
      "type": "function"
    },
    {
      "inputs": [],
      "name": "getTicketsOwned",
      "outputs": [
        {
          "internalType": "uint256[]",
          "name": "ticketIds",
          "type": "uint256[]"
        }
      ],
      "stateMutability": "view",
      "type": "function"
    },
    {
      "inputs": [
        {
          "internalType": "uint256",
          "name": "eventId",
          "type": "uint256"
        }
      ],
      "name": "getTicketsOnSale",
      "outputs": [
        {
          "internalType": "uint256[]",
          "name": "ticketIds",
          "type": "uint256[]"
        }
      ],
      "stateMutability": "view",
      "type": "function"
    }
  ],
  "bytecode": "0x60806040523480156200001157600080fd5b506040516200487a3803806200487a833981810160405281019062000037919062000095565b806000806101000a81548173ffffffffffffffffffffffffffffffffffffffff021916908373ffffffffffffffffffffffffffffffffffffffff160217905550506200010f565b6000815190506200008f81620000f5565b92915050565b600060208284031215620000a857600080fd5b6000620000b8848285016200007e565b91505092915050565b6000620000ce82620000d5565b9050919050565b600073ffffffffffffffffffffffffffffffffffffffff82169050919050565b6200010081620000c1565b81146200010c57600080fd5b50565b61475b806200011f6000396000f3fe6080604052600436106101095760003560e01c80637fbdba5511610095578063c371138311610064578063c371138314610362578063ca261ce1146103a3578063e78ab4f7146103e0578063f7619c1d1461041d578063ff99a0631461045a57610109565b80637fbdba55146102b557806393dca79d146102e0578063a98eac52146102fc578063c0fb74271461032557610109565b806359cda41f116100dc57806359cda41f146101f55780635b906bd71461021e5780636053b0ef1461024757806367dd74ca146102705780636c23b7c61461028c57610109565b806304cd52941461010e5780630c77e30f1461014b5780631d645b12146101765780635555fe17146101b8575b600080fd5b34801561011a57600080fd5b506101356004803603810190610130919061363f565b61049c565b6040516101429190613e04565b60405180910390f35b34801561015757600080fd5b506101606107a0565b60405161016d9190613bc7565b60405180910390f35b34801561018257600080fd5b5061019d6004803603810190610198919061363f565b610835565b6040516101af96959493929190613be9565b60405180910390f35b3480156101c457600080fd5b506101df60048036038101906101da91906135c0565b610903565b6040516101ec9190613e04565b60405180910390f35b34801561020157600080fd5b5061021c60048036038101906102179190613887565b610a63565b005b34801561022a57600080fd5b506102456004803603810190610240919061363f565b610c19565b005b34801561025357600080fd5b5061026e60048036038101906102699190613887565b610ffc565b005b61028a6004803603810190610285919061363f565b611460565b005b34801561029857600080fd5b506102b360048036038101906102ae91906136cd565b611b1e565b005b3480156102c157600080fd5b506102ca611cd4565b6040516102d79190613bc7565b60405180910390f35b6102fa60048036038101906102f5919061363f565b611d69565b005b34801561030857600080fd5b50610323600480360381019061031e9190613691565b61248f565b005b34801561033157600080fd5b5061034c6004803603810190610347919061363f565b6127ce565b6040516103599190613bc7565b60405180910390f35b34801561036e57600080fd5b506103896004803603810190610384919061363f565b612885565b60405161039a959493929190613f47565b60405180910390f35b3480156103af57600080fd5b506103ca60048036038101906103c5919061363f565b61294f565b6040516103d79190613bc7565b60405180910390f35b3480156103ec57600080fd5b50610407600480360381019061040291906137e0565b612a06565b6040516104149190613e04565b60405180910390f35b34801561042957600080fd5b50610444600480360381019061043f919061363f565b612de7565b6040516104519190613bc7565b60405180910390f35b34801561046657600080fd5b50610481600480360381019061047c919061363f565b612e52565b60405161049396959493929190614039565b60405180910390f35b60008160008054906101000a900473ffffffffffffffffffffffffffffffffffffffff1673ffffffffffffffffffffffffffffffffffffffff1663f1f04baa82336040518363ffffffff1660e01b81526004016104fa929190613e1f565b60206040518083038186803b15801561051257600080fd5b505afa158015610526573d6000803e3d6000fd5b505050506040513d601f19601f8201168201806040525081019061054a91906134c6565b610589576040517f08c379a000000000000000000000000000000000000000000000000000000000815260040161058090613d84565b60405180910390fd5b60006105948461294f565b90506000925060005b81518110156107985760008282815181106105e1577f4e487b7100000000000000000000000000000000000000000000000000000000600052603260045260246000fd5b6020026020010151905060008060009054906101000a900473ffffffffffffffffffffffffffffffffffffffff1673ffffffffffffffffffffffffffffffffffffffff1663ad093409836040518263ffffffff1660e01b81526004016106479190613e04565b60206040518083038186803b15801561065f57600080fd5b505afa158015610673573d6000803e3d6000fd5b505050506040513d601f19601f82011682018060405250810190610697919061345c565b90503373ffffffffffffffffffffffffffffffffffffffff168173ffffffffffffffffffffffffffffffffffffffff16146107835760008054906101000a900473ffffffffffffffffffffffffffffffffffffffff1673ffffffffffffffffffffffffffffffffffffffff1663bd9a77ed836040518263ffffffff1660e01b81526004016107259190613e04565b60206040518083038186803b15801561073d57600080fd5b505afa158015610751573d6000803e3d6000fd5b505050506040513d601f19601f820116820180604052508101906107759190613668565b8661078091906141e0565b95505b505080806107909061435b565b91505061059d565b505050919050565b6060600260003373ffffffffffffffffffffffffffffffffffffffff1673ffffffffffffffffffffffffffffffffffffffff16815260200190815260200160002080548060200260200160405190810160405280929190818152602001828054801561082b57602002820191906000526020600020905b815481526020019060010190808311610817575b5050505050905090565b606060006060600080606060008054906101000a900473ffffffffffffffffffffffffffffffffffffffff1673ffffffffffffffffffffffffffffffffffffffff16631d645b12886040518263ffffffff1660e01b81526004016108999190613e04565b60006040518083038186803b1580156108b157600080fd5b505afa1580156108c5573d6000803e3d6000fd5b505050506040513d6000823e3d601f19601f820116820180604052508101906108ee91906134ef565b95509550955095509550955091939550919395565b60008060009054906101000a900473ffffffffffffffffffffffffffffffffffffffff1673ffffffffffffffffffffffffffffffffffffffff16635555fe178585856040518463ffffffff1660e01b815260040161096393929190613c5f565b602060405180830381600087803b15801561097d57600080fd5b505af1158015610991573d6000803e3d6000fd5b505050506040513d601f19601f820116820180604052508101906109b59190613668565b9050600160003373ffffffffffffffffffffffffffffffffffffffff1673ffffffffffffffffffffffffffffffffffffffff1681526020019081526020016000208190806001815401808255809150506001900390600052602060002001600090919091909150557f33f062957884acb8efee2caecee03585896eb49115ec58afbe7b8343f3639e558185328686604051610a54959493929190613ee6565b60405180910390a19392505050565b8160008054906101000a900473ffffffffffffffffffffffffffffffffffffffff1673ffffffffffffffffffffffffffffffffffffffff1663f1f04baa82336040518363ffffffff1660e01b8152600401610abf929190613e1f565b60206040518083038186803b158015610ad757600080fd5b505afa158015610aeb573d6000803e3d6000fd5b505050506040513d601f19601f82011682018060405250810190610b0f91906134c6565b610b4e576040517f08c379a0000000000000000000000000000000000000000000000000000000008152600401610b4590613d84565b60405180910390fd5b60008054906101000a900473ffffffffffffffffffffffffffffffffffffffff1673ffffffffffffffffffffffffffffffffffffffff166359cda41f84846040518363ffffffff1660e01b8152600401610ba9929190614010565b600060405180830381600087803b158015610bc357600080fd5b505af1158015610bd7573d6000803e3d6000fd5b505050507f7cbc887e55d679387ad81a4d21a8bf2d5cfb6fbb23095d3ea6b03b714111abe28383604051610c0c929190614010565b60405180910390a1505050565b3373ffffffffffffffffffffffffffffffffffffffff1660008054906101000a900473ffffffffffffffffffffffffffffffffffffffff1673ffffffffffffffffffffffffffffffffffffffff1663ad093409836040518263ffffffff1660e01b8152600401610c899190613e04565b60206040518083038186803b158015610ca157600080fd5b505afa158015610cb5573d6000803e3d6000fd5b505050506040513d601f19601f82011682018060405250810190610cd9919061345c565b73ffffffffffffffffffffffffffffffffffffffff1614610d2f576040517f08c379a0000000000000000000000000000000000000000000000000000000008152600401610d2690613da4565b60405180910390fd5b6001151560008054906101000a900473ffffffffffffffffffffffffffffffffffffffff1673ffffffffffffffffffffffffffffffffffffffff16638546d002836040518263ffffffff1660e01b8152600401610d8c9190613e04565b60206040518083038186803b158015610da457600080fd5b505afa158015610db8573d6000803e3d6000fd5b505050506040513d601f19601f82011682018060405250810190610ddc91906134c6565b151514610e1e576040517f08c379a0000000000000000000000000000000000000000000000000000000008152600401610e1590613cc4565b60405180910390fd5b60008054906101000a900473ffffffffffffffffffffffffffffffffffffffff1673ffffffffffffffffffffffffffffffffffffffff16635b906bd7826040518263ffffffff1660e01b8152600401610e779190613e04565b600060405180830381600087803b158015610e9157600080fd5b505af1158015610ea5573d6000803e3d6000fd5b5050505060008060009054906101000a900473ffffffffffffffffffffffffffffffffffffffff1673ffffffffffffffffffffffffffffffffffffffff1663c3be559b836040518263ffffffff1660e01b8152600401610f059190613e04565b60206040518083038186803b158015610f1d57600080fd5b505afa158015610f31573d6000803e3d6000fd5b505050506040513d601f19601f82011682018060405250810190610f559190613668565b905060005b6003600083815260200190815260200160002080549050811015610ff75782600360008481526020019081526020016000208281548110610fc4577f4e487b7100000000000000000000000000000000000000000000000000000000600052603260045260246000fd5b90600052602060002001541415610fe457610fdf8282612f19565b610ff7565b8080610fef9061435b565b915050610f5a565b505050565b3373ffffffffffffffffffffffffffffffffffffffff1660008054906101000a900473ffffffffffffffffffffffffffffffffffffffff1673ffffffffffffffffffffffffffffffffffffffff1663ad093409846040518263ffffffff1660e01b815260040161106c9190613e04565b60206040518083038186803b15801561108457600080fd5b505afa158015611098573d6000803e3d6000fd5b505050506040513d601f19601f820116820180604052508101906110bc919061345c565b73ffffffffffffffffffffffffffffffffffffffff1614611112576040517f08c379a000000000000000000000000000000000000000000000000000000000815260040161110990613da4565b60405180910390fd5b6000151560008054906101000a900473ffffffffffffffffffffffffffffffffffffffff1673ffffffffffffffffffffffffffffffffffffffff16638546d002846040518263ffffffff1660e01b815260040161116f9190613e04565b60206040518083038186803b15801561118757600080fd5b505afa15801561119b573d6000803e3d6000fd5b505050506040513d601f19601f820116820180604052508101906111bf91906134c6565b151514611201576040517f08c379a00000000000000000000000000000000000000000000000000000000081526004016111f890613ce4565b60405180910390fd5b60008054906101000a900473ffffffffffffffffffffffffffffffffffffffff1673ffffffffffffffffffffffffffffffffffffffff16635c744769836040518263ffffffff1660e01b815260040161125a9190613e04565b60206040518083038186803b15801561127257600080fd5b505afa158015611286573d6000803e3d6000fd5b505050506040513d601f19601f820116820180604052508101906112aa9190613668565b8111156112ec576040517f08c379a00000000000000000000000000000000000000000000000000000000081526004016112e390613ca4565b60405180910390fd5b60008054906101000a900473ffffffffffffffffffffffffffffffffffffffff1673ffffffffffffffffffffffffffffffffffffffff16636053b0ef83836040518363ffffffff1660e01b8152600401611347929190614010565b600060405180830381600087803b15801561136157600080fd5b505af1158015611375573d6000803e3d6000fd5b50505050600360008060009054906101000a900473ffffffffffffffffffffffffffffffffffffffff1673ffffffffffffffffffffffffffffffffffffffff1663c3be559b856040518263ffffffff1660e01b81526004016113d79190613e04565b60206040518083038186803b1580156113ef57600080fd5b505afa158015611403573d6000803e3d6000fd5b505050506040513d601f19601f820116820180604052508101906114279190613668565b81526020019081526020016000208290806001815401808255809150506001900390600052602060002001600090919091909150555050565b60008054906101000a900473ffffffffffffffffffffffffffffffffffffffff1673ffffffffffffffffffffffffffffffffffffffff16638546d002826040518263ffffffff1660e01b81526004016114b99190613e04565b60206040518083038186803b1580156114d157600080fd5b505afa1580156114e5573d6000803e3d6000fd5b505050506040513d601f19601f8201168201806040525081019061150991906134c6565b611548576040517f08c379a000000000000000000000000000000000000000000000000000000000815260040161153f90613de4565b60405180910390fd5b60008060009054906101000a900473ffffffffffffffffffffffffffffffffffffffff1673ffffffffffffffffffffffffffffffffffffffff1663f06fc961836040518263ffffffff1660e01b81526004016115a49190613e04565b60206040518083038186803b1580156115bc57600080fd5b505afa1580156115d0573d6000803e3d6000fd5b505050506040513d601f19601f820116820180604052508101906115f49190613668565b9050803414611638576040517f08c379a000000000000000000000000000000000000000000000000000000000815260040161162f90613dc4565b60405180910390fd5b60008060009054906101000a900473ffffffffffffffffffffffffffffffffffffffff1673ffffffffffffffffffffffffffffffffffffffff1663ad093409846040518263ffffffff1660e01b81526004016116949190613e04565b60206040518083038186803b1580156116ac57600080fd5b505afa1580156116c0573d6000803e3d6000fd5b505050506040513d601f19601f820116820180604052508101906116e4919061345c565b90508073ffffffffffffffffffffffffffffffffffffffff163373ffffffffffffffffffffffffffffffffffffffff161415611755576040517f08c379a000000000000000000000000000000000000000000000000000000000815260040161174c90613d64565b60405180910390fd5b60008054906101000a900473ffffffffffffffffffffffffffffffffffffffff1673ffffffffffffffffffffffffffffffffffffffff1663679ebf1a84336040518363ffffffff1660e01b81526004016117b0929190613e1f565b600060405180830381600087803b1580156117ca57600080fd5b505af11580156117de573d6000803e3d6000fd5b5050505060008190508073ffffffffffffffffffffffffffffffffffffffff166108fc349081150290604051600060405180830381858888f1935050505015801561182d573d6000803e3d6000fd5b5060005b600260008473ffffffffffffffffffffffffffffffffffffffff1673ffffffffffffffffffffffffffffffffffffffff168152602001908152602001600020805490508110156119265784600260008573ffffffffffffffffffffffffffffffffffffffff1673ffffffffffffffffffffffffffffffffffffffff16815260200190815260200160002082815481106118f3577f4e487b7100000000000000000000000000000000000000000000000000000000600052603260045260246000fd5b906000526020600020015414156119135761190e838261307b565b611926565b808061191e9061435b565b915050611831565b50600260003373ffffffffffffffffffffffffffffffffffffffff1673ffffffffffffffffffffffffffffffffffffffff16815260200190815260200160002084908060018154018082558091505060019003906000526020600020016000909190919091505560008060009054906101000a900473ffffffffffffffffffffffffffffffffffffffff1673ffffffffffffffffffffffffffffffffffffffff1663c3be559b866040518263ffffffff1660e01b81526004016119e99190613e04565b60206040518083038186803b158015611a0157600080fd5b505afa158015611a15573d6000803e3d6000fd5b505050506040513d601f19601f82011682018060405250810190611a399190613668565b905060005b6003600083815260200190815260200160002080549050811015611adb5785600360008481526020019081526020016000208281548110611aa8577f4e487b7100000000000000000000000000000000000000000000000000000000600052603260045260246000fd5b90600052602060002001541415611ac857611ac38282612f19565b611adb565b8080611ad39061435b565b915050611a3e565b507fdbbdbdbebcc77cbb6a5bbf2c2190b7462f85d855cad3a985652b1bde31b293f0853385604051611b0f93929190613e7f565b60405180910390a15050505050565b8160008054906101000a900473ffffffffffffffffffffffffffffffffffffffff1673ffffffffffffffffffffffffffffffffffffffff1663f1f04baa82336040518363ffffffff1660e01b8152600401611b7a929190613e1f565b60206040518083038186803b158015611b9257600080fd5b505afa158015611ba6573d6000803e3d6000fd5b505050506040513d601f19601f82011682018060405250810190611bca91906134c6565b611c09576040517f08c379a0000000000000000000000000000000000000000000000000000000008152600401611c0090613d84565b60405180910390fd5b60008054906101000a900473ffffffffffffffffffffffffffffffffffffffff1673ffffffffffffffffffffffffffffffffffffffff16636c23b7c684846040518363ffffffff1660e01b8152600401611c64929190613eb6565b600060405180830381600087803b158015611c7e57600080fd5b505af1158015611c92573d6000803e3d6000fd5b505050507fc0043efb772dbfa7f5e5154fd48e3163dd877035968411f6365514346da2d0928383604051611cc7929190613eb6565b60405180910390a1505050565b6060600160003373ffffffffffffffffffffffffffffffffffffffff1673ffffffffffffffffffffffffffffffffffffffff168152602001908152602001600020805480602002602001604051908101604052809291908181526020018280548015611d5f57602002820191906000526020600020905b815481526020019060010190808311611d4b575b5050505050905090565b8060008054906101000a900473ffffffffffffffffffffffffffffffffffffffff1673ffffffffffffffffffffffffffffffffffffffff1663f1f04baa82336040518363ffffffff1660e01b8152600401611dc5929190613e1f565b60206040518083038186803b158015611ddd57600080fd5b505afa158015611df1573d6000803e3d6000fd5b505050506040513d601f19601f82011682018060405250810190611e1591906134c6565b611e54576040517f08c379a0000000000000000000000000000000000000000000000000000000008152600401611e4b90613d84565b60405180910390fd5b611e5d8261049c565b3414611e9e576040517f08c379a0000000000000000000000000000000000000000000000000000000008152600401611e9590613d44565b60405180910390fd5b6000611ea98361294f565b905060005b81518110156123fe576000828281518110611ef2577f4e487b7100000000000000000000000000000000000000000000000000000000600052603260045260246000fd5b6020026020010151905060008060009054906101000a900473ffffffffffffffffffffffffffffffffffffffff1673ffffffffffffffffffffffffffffffffffffffff1663ad093409836040518263ffffffff1660e01b8152600401611f589190613e04565b60206040518083038186803b158015611f7057600080fd5b505afa158015611f84573d6000803e3d6000fd5b505050506040513d601f19601f82011682018060405250810190611fa8919061345c565b90503373ffffffffffffffffffffffffffffffffffffffff168173ffffffffffffffffffffffffffffffffffffffff161461211557600081905060008060009054906101000a900473ffffffffffffffffffffffffffffffffffffffff1673ffffffffffffffffffffffffffffffffffffffff1663bd9a77ed856040518263ffffffff1660e01b815260040161203e9190613e04565b60206040518083038186803b15801561205657600080fd5b505afa15801561206a573d6000803e3d6000fd5b505050506040513d601f19601f8201168201806040525081019061208e9190613668565b90508173ffffffffffffffffffffffffffffffffffffffff166108fc829081150290604051600060405180830381858888f193505050501580156120d6573d6000803e3d6000fd5b507f030f9c7a44d75a55e7cb9ba1d44224bcb2f1aee8634a1cb120d629167217c51784838360405161210a93929190613e48565b60405180910390a150505b60005b600260008373ffffffffffffffffffffffffffffffffffffffff1673ffffffffffffffffffffffffffffffffffffffff1681526020019081526020016000208054905081101561220d5782600260008473ffffffffffffffffffffffffffffffffffffffff1673ffffffffffffffffffffffffffffffffffffffff16815260200190815260200160002082815481106121da577f4e487b7100000000000000000000000000000000000000000000000000000000600052603260045260246000fd5b906000526020600020015414156121fa576121f5828261307b565b61220d565b80806122059061435b565b915050612118565b5060008054906101000a900473ffffffffffffffffffffffffffffffffffffffff1673ffffffffffffffffffffffffffffffffffffffff16638546d002836040518263ffffffff1660e01b81526004016122679190613e04565b60206040518083038186803b15801561227f57600080fd5b505afa158015612293573d6000803e3d6000fd5b505050506040513d601f19601f820116820180604052508101906122b791906134c6565b1561235e5760005b600360008881526020019081526020016000208054905081101561235c5782600360008981526020019081526020016000208281548110612329577f4e487b7100000000000000000000000000000000000000000000000000000000600052603260045260246000fd5b90600052602060002001541415612349576123448782612f19565b61235c565b80806123549061435b565b9150506122bf565b505b60008054906101000a900473ffffffffffffffffffffffffffffffffffffffff1673ffffffffffffffffffffffffffffffffffffffff1663ee355b1f836040518263ffffffff1660e01b81526004016123b79190613e04565b600060405180830381600087803b1580156123d157600080fd5b505af11580156123e5573d6000803e3d6000fd5b50505050505080806123f69061435b565b915050611eae565b5060008054906101000a900473ffffffffffffffffffffffffffffffffffffffff1673ffffffffffffffffffffffffffffffffffffffff16633f69babd846040518263ffffffff1660e01b81526004016124589190613e04565b600060405180830381600087803b15801561247257600080fd5b505af1158015612486573d6000803e3d6000fd5b50505050505050565b3373ffffffffffffffffffffffffffffffffffffffff1660008054906101000a900473ffffffffffffffffffffffffffffffffffffffff1673ffffffffffffffffffffffffffffffffffffffff1663ad093409846040518263ffffffff1660e01b81526004016124ff9190613e04565b60206040518083038186803b15801561251757600080fd5b505afa15801561252b573d6000803e3d6000fd5b505050506040513d601f19601f8201168201806040525081019061254f919061345c565b73ffffffffffffffffffffffffffffffffffffffff16146125a5576040517f08c379a000000000000000000000000000000000000000000000000000000000815260040161259c90613da4565b60405180910390fd5b6000151560008054906101000a900473ffffffffffffffffffffffffffffffffffffffff1673ffffffffffffffffffffffffffffffffffffffff16638546d002846040518263ffffffff1660e01b81526004016126029190613e04565b60206040518083038186803b15801561261a57600080fd5b505afa15801561262e573d6000803e3d6000fd5b505050506040513d601f19601f8201168201806040525081019061265291906134c6565b151514612694576040517f08c379a000000000000000000000000000000000000000000000000000000000815260040161268b90613d24565b60405180910390fd5b600073ffffffffffffffffffffffffffffffffffffffff168173ffffffffffffffffffffffffffffffffffffffff161415612704576040517f08c379a00000000000000000000000000000000000000000000000000000000081526004016126fb90613d04565b60405180910390fd5b60008054906101000a900473ffffffffffffffffffffffffffffffffffffffff1673ffffffffffffffffffffffffffffffffffffffff1663a98eac5283836040518363ffffffff1660e01b815260040161275f929190613e1f565b600060405180830381600087803b15801561277957600080fd5b505af115801561278d573d6000803e3d6000fd5b505050507fe13b919ff94f9add531d7b62e890214499c96c23cd9c991bf3c8ad52042d23b282826040516127c2929190613e1f565b60405180910390a15050565b606060008054906101000a900473ffffffffffffffffffffffffffffffffffffffff1673ffffffffffffffffffffffffffffffffffffffff1663c0fb7427836040518263ffffffff1660e01b81526004016128299190613e04565b60006040518083038186803b15801561284157600080fd5b505afa158015612855573d6000803e3d6000fd5b505050506040513d6000823e3d601f19601f8201168201806040525081019061287e9190613485565b9050919050565b60006060806000606060008054906101000a900473ffffffffffffffffffffffffffffffffffffffff1673ffffffffffffffffffffffffffffffffffffffff1663c3711383876040518263ffffffff1660e01b81526004016128e79190613e04565b60006040518083038186803b1580156128ff57600080fd5b505afa158015612913573d6000803e3d6000fd5b505050506040513d6000823e3d601f19601f8201168201806040525081019061293c9190613721565b9450945094509450945091939590929450565b606060008054906101000a900473ffffffffffffffffffffffffffffffffffffffff1673ffffffffffffffffffffffffffffffffffffffff1663ca261ce1836040518263ffffffff1660e01b81526004016129aa9190613e04565b60006040518083038186803b1580156129c257600080fd5b505afa1580156129d6573d6000803e3d6000fd5b505050506040513d6000823e3d601f19601f820116820180604052508101906129ff9190613485565b9050919050565b60008560008054906101000a900473ffffffffffffffffffffffffffffffffffffffff1673ffffffffffffffffffffffffffffffffffffffff1663f1f04baa82336040518363ffffffff1660e01b8152600401612a64929190613e1f565b60206040518083038186803b158015612a7c57600080fd5b505afa158015612a90573d6000803e3d6000fd5b505050506040513d601f19601f82011682018060405250810190612ab491906134c6565b612af3576040517f08c379a0000000000000000000000000000000000000000000000000000000008152600401612aea90613d84565b60405180910390fd5b60008054906101000a900473ffffffffffffffffffffffffffffffffffffffff1673ffffffffffffffffffffffffffffffffffffffff1663cf52f78088888888886040518663ffffffff1660e01b8152600401612b54959493929190613faf565b602060405180830381600087803b158015612b6e57600080fd5b505af1158015612b82573d6000803e3d6000fd5b505050506040513d601f19601f82011682018060405250810190612ba69190613668565b915060008060009054906101000a900473ffffffffffffffffffffffffffffffffffffffff1673ffffffffffffffffffffffffffffffffffffffff1663c0fb7427846040518263ffffffff1660e01b8152600401612c049190613e04565b60006040518083038186803b158015612c1c57600080fd5b505afa158015612c30573d6000803e3d6000fd5b505050506040513d6000823e3d601f19601f82011682018060405250810190612c599190613485565b905060005b8151811015612d9a57600260003373ffffffffffffffffffffffffffffffffffffffff1673ffffffffffffffffffffffffffffffffffffffff168152602001908152602001600020828281518110612cdf577f4e487b7100000000000000000000000000000000000000000000000000000000600052603260045260246000fd5b60200260200101519080600181540180825580915050600190039060005260206000200160009091909190915055600360008a8152602001908152602001600020828281518110612d59577f4e487b7100000000000000000000000000000000000000000000000000000000600052603260045260246000fd5b602002602001015190806001815401808255809150506001900390600052602060002001600090919091909150558080612d929061435b565b915050612c5e565b507fa68ebcd6cf56682a2be85a8fef7913be763a27e0c51b2716c285467421fa75e6838989898989604051612dd49695949392919061409a565b60405180910390a1505095945050505050565b606060036000838152602001908152602001600020805480602002602001604051908101604052809291908181526020018280548015612e4657602002820191906000526020600020905b815481526020019060010190808311612e32575b50505050509050919050565b60008060008060008060008054906101000a900473ffffffffffffffffffffffffffffffffffffffff1673ffffffffffffffffffffffffffffffffffffffff1663ff99a063886040518263ffffffff1660e01b8152600401612eb49190613e04565b60c06040518083038186803b158015612ecc57600080fd5b505afa158015612ee0573d6000803e3d6000fd5b505050506040513d601f19601f82011682018060405250810190612f0491906138c3565b95509550955095509550955091939550919395565b60008190505b60016003600085815260200190815260200160002080549050612f429190614236565b8110156130175760036000848152602001908152602001600020600182612f6991906141e0565b81548110612fa0577f4e487b7100000000000000000000000000000000000000000000000000000000600052603260045260246000fd5b9060005260206000200154600360008581526020019081526020016000208281548110612ff6577f4e487b7100000000000000000000000000000000000000000000000000000000600052603260045260246000fd5b9060005260206000200181905550808061300f9061435b565b915050612f1f565b5060036000838152602001908152602001600020805480613061577f4e487b7100000000000000000000000000000000000000000000000000000000600052603160045260246000fd5b600190038181906000526020600020016000905590555050565b60008190505b6001600260008573ffffffffffffffffffffffffffffffffffffffff1673ffffffffffffffffffffffffffffffffffffffff168152602001908152602001600020805490506130d09190614236565b8110156131fd57600260008473ffffffffffffffffffffffffffffffffffffffff1673ffffffffffffffffffffffffffffffffffffffff16815260200190815260200160002060018261312391906141e0565b8154811061315a577f4e487b7100000000000000000000000000000000000000000000000000000000600052603260045260246000fd5b9060005260206000200154600260008573ffffffffffffffffffffffffffffffffffffffff1673ffffffffffffffffffffffffffffffffffffffff16815260200190815260200160002082815481106131dc577f4e487b7100000000000000000000000000000000000000000000000000000000600052603260045260246000fd5b906000526020600020018190555080806131f59061435b565b915050613081565b50600260008373ffffffffffffffffffffffffffffffffffffffff1673ffffffffffffffffffffffffffffffffffffffff168152602001908152602001600020805480613273577f4e487b7100000000000000000000000000000000000000000000000000000000600052603160045260246000fd5b600190038181906000526020600020016000905590555050565b60006132a061329b8461412e565b614109565b905080838252602082019050828560208602820111156132bf57600080fd5b60005b858110156132ef57816132d58882613447565b8452602084019350602083019250506001810190506132c2565b5050509392505050565b600061330c6133078461415a565b614109565b90508281526020810184848401111561332457600080fd5b61332f8482856142e8565b509392505050565b600061334a6133458461415a565b614109565b90508281526020810184848401111561336257600080fd5b61336d8482856142f7565b509392505050565b600081359050613384816146e0565b92915050565b600081519050613399816146e0565b92915050565b600082601f8301126133b057600080fd5b81516133c084826020860161328d565b91505092915050565b6000815190506133d8816146f7565b92915050565b600082601f8301126133ef57600080fd5b81356133ff8482602086016132f9565b91505092915050565b600082601f83011261341957600080fd5b8151613429848260208601613337565b91505092915050565b6000813590506134418161470e565b92915050565b6000815190506134568161470e565b92915050565b60006020828403121561346e57600080fd5b600061347c8482850161338a565b91505092915050565b60006020828403121561349757600080fd5b600082015167ffffffffffffffff8111156134b157600080fd5b6134bd8482850161339f565b91505092915050565b6000602082840312156134d857600080fd5b60006134e6848285016133c9565b91505092915050565b60008060008060008060c0878903121561350857600080fd5b600087015167ffffffffffffffff81111561352257600080fd5b61352e89828a01613408565b965050602061353f89828a0161338a565b955050604087015167ffffffffffffffff81111561355c57600080fd5b61356889828a01613408565b945050606061357989828a01613447565b935050608061358a89828a016133c9565b92505060a087015167ffffffffffffffff8111156135a757600080fd5b6135b389828a0161339f565b9150509295509295509295565b6000806000606084860312156135d557600080fd5b600084013567ffffffffffffffff8111156135ef57600080fd5b6135fb868287016133de565b935050602084013567ffffffffffffffff81111561361857600080fd5b613624868287016133de565b925050604061363586828701613432565b9150509250925092565b60006020828403121561365157600080fd5b600061365f84828501613432565b91505092915050565b60006020828403121561367a57600080fd5b600061368884828501613447565b91505092915050565b600080604083850312156136a457600080fd5b60006136b285828601613432565b92505060206136c385828601613375565b9150509250929050565b600080604083850312156136e057600080fd5b60006136ee85828601613432565b925050602083013567ffffffffffffffff81111561370b57600080fd5b613717858286016133de565b9150509250929050565b600080600080600060a0868803121561373957600080fd5b600061374788828901613447565b955050602086015167ffffffffffffffff81111561376457600080fd5b61377088828901613408565b945050604086015167ffffffffffffffff81111561378d57600080fd5b61379988828901613408565b93505060606137aa88828901613447565b925050608086015167ffffffffffffffff8111156137c757600080fd5b6137d38882890161339f565b9150509295509295909350565b600080600080600060a086880312156137f857600080fd5b600061380688828901613432565b955050602086013567ffffffffffffffff81111561382357600080fd5b61382f888289016133de565b945050604086013567ffffffffffffffff81111561384c57600080fd5b613858888289016133de565b935050606061386988828901613432565b925050608061387a88828901613432565b9150509295509295909350565b6000806040838503121561389a57600080fd5b60006138a885828601613432565b92505060206138b985828601613432565b9150509250929050565b60008060008060008060c087890312156138dc57600080fd5b60006138ea89828a01613447565b96505060206138fb89828a01613447565b955050604061390c89828a0161338a565b945050606061391d89828a016133c9565b935050608061392e89828a01613447565b92505060a061393f89828a01613447565b9150509295509295509295565b60006139588383613ba9565b60208301905092915050565b61396d816142b2565b82525050565b61397c8161426a565b82525050565b600061398d8261419b565b61399781856141be565b93506139a28361418b565b8060005b838110156139d35781516139ba888261394c565b97506139c5836141b1565b9250506001810190506139a6565b5085935050505092915050565b6139e98161427c565b82525050565b60006139fa826141a6565b613a0481856141cf565b9350613a148185602086016142f7565b613a1d81614402565b840191505092915050565b6000613a35603c836141cf565b9150613a4082614413565b604082019050919050565b6000613a586023836141cf565b9150613a6382614462565b604082019050919050565b6000613a7b6027836141cf565b9150613a86826144b1565b604082019050919050565b6000613a9e6012836141cf565b9150613aa982614500565b602082019050919050565b6000613ac16035836141cf565b9150613acc82614529565b604082019050919050565b6000613ae46030836141cf565b9150613aef82614578565b604082019050919050565b6000613b07601c836141cf565b9150613b12826145c7565b602082019050919050565b6000613b2a602d836141cf565b9150613b35826145f0565b604082019050919050565b6000613b4d601b836141cf565b9150613b588261463f565b602082019050919050565b6000613b706036836141cf565b9150613b7b82614668565b604082019050919050565b6000613b93601c836141cf565b9150613b9e826146b7565b602082019050919050565b613bb2816142a8565b82525050565b613bc1816142a8565b82525050565b60006020820190508181036000830152613be18184613982565b905092915050565b600060c0820190508181036000830152613c0381896139ef565b9050613c126020830188613973565b8181036040830152613c2481876139ef565b9050613c336060830186613bb8565b613c4060808301856139e0565b81810360a0830152613c528184613982565b9050979650505050505050565b60006060820190508181036000830152613c7981866139ef565b90508181036020830152613c8d81856139ef565b9050613c9c6040830184613bb8565b949350505050565b60006020820190508181036000830152613cbd81613a28565b9050919050565b60006020820190508181036000830152613cdd81613a4b565b9050919050565b60006020820190508181036000830152613cfd81613a6e565b9050919050565b60006020820190508181036000830152613d1d81613a91565b9050919050565b60006020820190508181036000830152613d3d81613ab4565b9050919050565b60006020820190508181036000830152613d5d81613ad7565b9050919050565b60006020820190508181036000830152613d7d81613afa565b9050919050565b60006020820190508181036000830152613d9d81613b1d565b9050919050565b60006020820190508181036000830152613dbd81613b40565b9050919050565b60006020820190508181036000830152613ddd81613b63565b9050919050565b60006020820190508181036000830152613dfd81613b86565b9050919050565b6000602082019050613e196000830184613bb8565b92915050565b6000604082019050613e346000830185613bb8565b613e416020830184613973565b9392505050565b6000606082019050613e5d6000830186613bb8565b613e6a6020830185613964565b613e776040830184613bb8565b949350505050565b6000606082019050613e946000830186613bb8565b613ea16020830185613973565b613eae6040830184613973565b949350505050565b6000604082019050613ecb6000830185613bb8565b8181036020830152613edd81846139ef565b90509392505050565b600060a082019050613efb6000830188613bb8565b8181036020830152613f0d81876139ef565b9050613f1c6040830186613973565b8181036060830152613f2e81856139ef565b9050613f3d6080830184613bb8565b9695505050505050565b600060a082019050613f5c6000830188613bb8565b8181036020830152613f6e81876139ef565b90508181036040830152613f8281866139ef565b9050613f916060830185613bb8565b8181036080830152613fa38184613982565b90509695505050505050565b600060a082019050613fc46000830188613bb8565b8181036020830152613fd681876139ef565b90508181036040830152613fea81866139ef565b9050613ff96060830185613bb8565b6140066080830184613bb8565b9695505050505050565b60006040820190506140256000830185613bb8565b6140326020830184613bb8565b9392505050565b600060c08201905061404e6000830189613bb8565b61405b6020830188613bb8565b6140686040830187613973565b61407560608301866139e0565b6140826080830185613bb8565b61408f60a0830184613bb8565b979650505050505050565b600060c0820190506140af6000830189613bb8565b6140bc6020830188613bb8565b81810360408301526140ce81876139ef565b905081810360608301526140e281866139ef565b90506140f16080830185613bb8565b6140fe60a0830184613bb8565b979650505050505050565b6000614113614124565b905061411f828261432a565b919050565b6000604051905090565b600067ffffffffffffffff821115614149576141486143d3565b5b602082029050602081019050919050565b600067ffffffffffffffff821115614175576141746143d3565b5b61417e82614402565b9050602081019050919050565b6000819050602082019050919050565b600081519050919050565b600081519050919050565b6000602082019050919050565b600082825260208201905092915050565b600082825260208201905092915050565b60006141eb826142a8565b91506141f6836142a8565b9250827fffffffffffffffffffffffffffffffffffffffffffffffffffffffffffffffff0382111561422b5761422a6143a4565b5b828201905092915050565b6000614241826142a8565b915061424c836142a8565b92508282101561425f5761425e6143a4565b5b828203905092915050565b600061427582614288565b9050919050565b60008115159050919050565b600073ffffffffffffffffffffffffffffffffffffffff82169050919050565b6000819050919050565b60006142bd826142c4565b9050919050565b60006142cf826142d6565b9050919050565b60006142e182614288565b9050919050565b82818337600083830152505050565b60005b838110156143155780820151818401526020810190506142fa565b83811115614324576000848401525b50505050565b61433382614402565b810181811067ffffffffffffffff82111715614352576143516143d3565b5b80604052505050565b6000614366826142a8565b91507fffffffffffffffffffffffffffffffffffffffffffffffffffffffffffffffff821415614399576143986143a4565b5b600182019050919050565b7f4e487b7100000000000000000000000000000000000000000000000000000000600052601160045260246000fd5b7f4e487b7100000000000000000000000000000000000000000000000000000000600052604160045260246000fd5b6000601f19601f8301169050919050565b7f526573616c652070726963652063616e6e6f742062652068696768657220746860008201527f616e20746865206d6178696d756d20726573616c652070726963652100000000602082015250565b7f54686973207469636b6574206973206e6f74206c697374656420666f7220736160008201527f6c65210000000000000000000000000000000000000000000000000000000000602082015250565b7f54686973207469636b657420697320616c7265616479206c697374656420666f60008201527f722073616c652100000000000000000000000000000000000000000000000000602082015250565b7f496e76616c696420726563697069656e74210000000000000000000000000000600082015250565b7f54686973207469636b6574206973206c697374656420666f722073616c65212060008201527f556e6c69737420697420746f2067696674206974210000000000000000000000602082015250565b7f596f75206e65656420746f20686176652074686520657861637420616d6f756e60008201527f7420666f7220726566756e64696e672100000000000000000000000000000000602082015250565b7f596f7520616c7265616479206f776e2074686973207469636b65742100000000600082015250565b7f4f6e6c79206576656e74206f7267616e697365722063616e20706572666f726d60008201527f207468697320616374696f6e2100000000000000000000000000000000000000602082015250565b7f596f7520646f206e6f74206f776e2074686973207469636b6574210000000000600082015250565b7f596f75206d757374207061792074686520657861637420616d6f756e7420746860008201527f61742074686973206973206c697374656420666f722100000000000000000000602082015250565b7f54686973207469636b6574206973206e6f7420666f722073616c652100000000600082015250565b6146e98161426a565b81146146f457600080fd5b50565b6147008161427c565b811461470b57600080fd5b50565b614717816142a8565b811461472257600080fd5b5056fea264697066735822122079b17fc8253b6d05e3aa57b5f889d2e9d491aeb3703be8c00d95a67553e5d68264736f6c63430008010033",
  "immutableReferences": {},
  "source": "// SPDX-License-Identifier: UNLICENSED\npragma solidity >=0.6.0 <0.9.0;\npragma experimental ABIEncoderV2;\n\nimport \"../node_modules/@openzeppelin/contracts/token/ERC721/ERC721.sol\";\nimport \"../node_modules/@openzeppelin/contracts/utils/math/SafeMath.sol\";\nimport \"./EventMgmt.sol\";\nimport \"./TicketMgmt.sol\";\n\ncontract TicketMkt {\n    using SafeMath for uint256;\n\n    IEventMgmt private IEventMgmtInstance;\n\n    constructor(address _eventMgmtAddress) {\n        IEventMgmtInstance = IEventMgmt(_eventMgmtAddress);\n    }\n\n    // address of event organiser mapped to an array of eventIds\n    mapping(address => uint256[]) private eventsOrganised;\n    // address of owner mapped to array of ticketIds of the tickets they own\n    mapping(address => uint256[]) private ticketsOwned;\n    // eventId mapped to array of ticketIds of all tickets on sale (whether first sale or resale)\n    mapping(uint256 => uint256[]) private ticketsOnSale;\n\n    event EventCreated(\n        uint256 eventId,\n        string eventName,\n        address eventOrganiser,\n        string eventDescription,\n        uint256 maxResalePercentage\n    );\n\n    event CategoryCreated(\n        uint256 categoryId,\n        uint256 eventId,\n        string categoryName,\n        string categoryDescription,\n        uint256 ticketPrice,\n        uint256 numberOfTickets\n    );\n\n    event ticketBought(uint256 ticketId, address buyer, address seller);\n    event ticketGifted(uint256 ticketId, address recipient);\n    event ticketRefunded(\n        uint256 ticketId,\n        address refundRecipient,\n        uint256 refundAmount\n    );\n    event EventDescriptionUpdated(uint256 eventId, string newDescription);\n    event MaxResalePercentageUpdated(uint256 eventId, uint256 newMaxPercentage);\n\n    /**\n        Main Functions For Event Organisers\n     */\n    function createEvent(\n        string memory eventName,\n        string memory eventDescription,\n        uint256 maxResalePercentage\n    ) public returns (uint256 eventId) {\n        eventId = IEventMgmtInstance.createEvent(\n            eventName,\n            eventDescription,\n            maxResalePercentage\n        );\n        eventsOrganised[msg.sender].push(eventId);\n\n        emit EventCreated(\n            eventId,\n            eventName,\n            tx.origin,\n            eventDescription,\n            maxResalePercentage\n        );\n    }\n\n    function createTicketCategory(\n        uint256 eventId,\n        string memory categoryName,\n        string memory categoryDescription,\n        uint256 ticketPrice,\n        uint256 numberOfTickets\n    ) public onlyEventOrganiser(eventId) returns (uint256 categoryId) {\n        categoryId = IEventMgmtInstance.createCategory(\n            eventId,\n            categoryName,\n            categoryDescription,\n            ticketPrice,\n            numberOfTickets\n        );\n        uint256[] memory tickets = IEventMgmtInstance.getCategoryTickets(\n            categoryId\n        );\n        for (uint256 i = 0; i < tickets.length; i++) {\n            ticketsOwned[msg.sender].push(tickets[i]);\n            ticketsOnSale[eventId].push(tickets[i]);\n        }\n\n        emit CategoryCreated(\n        categoryId,\n        eventId,\n        categoryName,\n        categoryDescription,\n        ticketPrice,\n        numberOfTickets\n    );\n        \n    }\n\n    function updateEventDescription(\n        uint256 eventId,\n        string memory newDescription\n    ) public onlyEventOrganiser(eventId) {\n        IEventMgmtInstance.updateEventDescription(eventId, newDescription);\n        emit EventDescriptionUpdated(eventId, newDescription);\n    }\n\n    function updateMaxResalePercentage(\n        uint256 eventId,\n        uint256 newMaxPercentage\n    ) public onlyEventOrganiser(eventId) {\n        IEventMgmtInstance.updateMaxResalePercentage(eventId, newMaxPercentage);\n        emit MaxResalePercentageUpdated(eventId, newMaxPercentage);\n    }\n\n    function getRefundAmount(\n        uint256 eventId\n    ) public view onlyEventOrganiser(eventId) returns (uint256 refundAmount) {\n        uint256[] memory eventTickets = getEventTickets(eventId);\n        refundAmount = 0;\n        for (uint256 index = 0; index < eventTickets.length; index++) {\n            uint256 ticketId = eventTickets[index];\n            address ticketOwner = IEventMgmtInstance.getTicketOwner(ticketId);\n            if (ticketOwner != msg.sender) {\n                refundAmount += IEventMgmtInstance.getOriginalTicketPrice(\n                    ticketId\n                );\n            }\n        }\n        return refundAmount;\n    }\n\n    function cancelEventAndRefund(\n        uint256 eventId\n    ) public payable onlyEventOrganiser(eventId) {\n        require(\n            msg.value == getRefundAmount(eventId),\n            \"You need to have the exact amount for refunding!\"\n        );\n        uint256[] memory eventTickets = getEventTickets(eventId);\n        for (uint256 index = 0; index < eventTickets.length; index++) {\n            uint256 ticketId = eventTickets[index];\n            address ticketOwner = IEventMgmtInstance.getTicketOwner(ticketId);\n\n            if (ticketOwner != msg.sender) {\n                address payable refundRecipient = payable(ticketOwner);\n                uint256 refundAmount = IEventMgmtInstance\n                    .getOriginalTicketPrice(ticketId);\n                refundRecipient.transfer(refundAmount);\n                emit ticketRefunded(ticketId, refundRecipient, refundAmount);\n            }\n\n            // remove from ticketsOwned\n            for (\n                // iterate through ticketsOwned for previous owner\n                uint256 i = 0;\n                i < ticketsOwned[ticketOwner].length;\n                i++\n            ) {\n                // find the ticketId in the array\n                if (ticketsOwned[ticketOwner][i] == ticketId) {\n                    removeTicketFromTicketsOwned(ticketOwner, i);\n                    break;\n                }\n            }\n\n            // remove from ticketsOnSale\n            if (IEventMgmtInstance.isForSale(ticketId)) {\n                for (\n                    // iterate through ticketsForSale for event\n                    uint256 j = 0;\n                    j < ticketsOnSale[eventId].length;\n                    j++\n                ) {\n                    // find the ticketId in the array\n                    if (ticketsOnSale[eventId][j] == ticketId) {\n                        removeTicketFromTicketsOnSale(eventId, j);\n                        break;\n                    }\n                }\n            }\n\n            IEventMgmtInstance.cancelTicket(ticketId);\n        }\n        IEventMgmtInstance.cancelEvent(eventId);\n    }\n\n    /**\n        Main Functions For Ticket Buyers\n     */\n    function buyTicket(uint256 ticketId) public payable {\n        require(\n            IEventMgmtInstance.isForSale(ticketId),\n            \"This ticket is not for sale!\"\n        );\n\n        uint256 ticketPrice = IEventMgmtInstance.getTicketPrice(ticketId);\n        require(\n            msg.value == ticketPrice,\n            \"You must pay the exact amount that this is listed for!\"\n        );\n\n        address currentOwner = IEventMgmtInstance.getTicketOwner(ticketId);\n        require(msg.sender != currentOwner, \"You already own this ticket!\");\n\n        // transfer to new owner\n        IEventMgmtInstance.transferTicket(ticketId, msg.sender);\n\n        // pay current owner\n        address payable ownerPayable = payable(currentOwner);\n        ownerPayable.transfer(msg.value);\n\n        // update mappings\n        for (\n            // iterate through ticketsOwned for previous owner\n            uint256 index = 0;\n            index < ticketsOwned[currentOwner].length;\n            index++\n        ) {\n            // find the ticketId in the array\n            if (ticketsOwned[currentOwner][index] == ticketId) {\n                removeTicketFromTicketsOwned(currentOwner, index);\n                break;\n            }\n        }\n\n        // update mappings\n        ticketsOwned[msg.sender].push(ticketId);\n\n        // update mappings\n        uint256 eventId = IEventMgmtInstance.getEventId(ticketId);\n        for (\n            // iterate through ticketsForSale for event\n            uint256 index = 0;\n            index < ticketsOnSale[eventId].length;\n            index++\n        ) {\n            // find the ticketId in the array\n            if (ticketsOnSale[eventId][index] == ticketId) {\n                removeTicketFromTicketsOnSale(eventId, index);\n                break;\n            }\n        }\n        emit ticketBought(ticketId, msg.sender, currentOwner);\n    }\n\n    /**\n        Main Functions For Resellers\n     */\n    function listTicketForResale(uint256 ticketId, uint256 resalePrice) public {\n        require(\n            IEventMgmtInstance.getTicketOwner(ticketId) == msg.sender,\n            \"You do not own this ticket!\"\n        );\n        require(\n            IEventMgmtInstance.isForSale(ticketId) == false,\n            \"This ticket is already listed for sale!\"\n        );\n        require(\n            resalePrice <= IEventMgmtInstance.calculateMaxResalePrice(ticketId),\n            \"Resale price cannot be higher than the maximum resale price!\"\n        );\n\n        IEventMgmtInstance.listTicketForResale(ticketId, resalePrice);\n        ticketsOnSale[IEventMgmtInstance.getEventId(ticketId)].push(ticketId);\n    }\n\n    function giftTicket(uint256 ticketId, address recipient) public {\n        require(\n            IEventMgmtInstance.getTicketOwner(ticketId) == msg.sender,\n            \"You do not own this ticket!\"\n        );\n        require(\n            IEventMgmtInstance.isForSale(ticketId) == false,\n            \"This ticket is listed for sale! Unlist it to gift it!\"\n        );\n        require(\n            recipient != address(0),\n            \"Invalid recipient!\"\n        );\n        IEventMgmtInstance.giftTicket(ticketId, recipient);\n        emit ticketGifted(ticketId, recipient);\n    }\n\n    function unlistTicketFromResale(uint256 ticketId) public {\n        require(\n            IEventMgmtInstance.getTicketOwner(ticketId) == msg.sender,\n            \"You do not own this ticket!\"\n        );\n        require(\n            IEventMgmtInstance.isForSale(ticketId) == true,\n            \"This ticket is not listed for sale!\"\n        );\n\n        IEventMgmtInstance.unlistTicketFromResale(ticketId);\n        uint256 eventId = IEventMgmtInstance.getEventId(ticketId);\n        for (\n            // iterate through ticketsForSale for event\n            uint256 index = 0;\n            index < ticketsOnSale[eventId].length;\n            index++\n        ) {\n            // find the ticketId in the array\n            if (ticketsOnSale[eventId][index] == ticketId) {\n                removeTicketFromTicketsOnSale(eventId, index);\n                break;\n            }\n        }\n    }\n\n    /**\n        Helper Functions (Private)\n     */\n    function removeTicketFromTicketsOwned(\n        address owner,\n        uint256 index\n    ) private {\n        // index = index of ticket to remove\n        for (uint256 i = index; i < ticketsOwned[owner].length - 1; i++) {\n            // shift all tickets from index onwards, to the left\n            ticketsOwned[owner][i] = ticketsOwned[owner][i + 1];\n        }\n\n        // remove last element\n        ticketsOwned[owner].pop();\n    }\n\n    function removeTicketFromTicketsOnSale(\n        uint256 eventId,\n        uint256 index\n    ) private {\n        // index = index of ticket to remove\n        for (uint256 i = index; i < ticketsOnSale[eventId].length - 1; i++) {\n            // shift all tickets from index onwards, to the left\n            ticketsOnSale[eventId][i] = ticketsOnSale[eventId][i + 1];\n        }\n\n        // remove last element\n        ticketsOnSale[eventId].pop();\n    }\n\n    /**\n        Getter Functions\n     */\n    function getEventInfo(\n        uint256 eventId\n    )\n        public\n        view\n        returns (\n            string memory eventName,\n            address eventOrganiser,\n            string memory eventDescription,\n            uint256 maxResalePercentage,\n            bool isActive,\n            uint256[] memory categoryIds\n        )\n    {\n        return IEventMgmtInstance.getEventInfo(eventId);\n    }\n\n    function getCategoryInfo(\n        uint256 categoryId\n    )\n        public\n        view\n        returns (\n            uint256 eventId,\n            string memory categoryName,\n            string memory categoryDescription,\n            uint256 ticketPrice,\n            uint256[] memory ticketIds\n        )\n    {\n        return IEventMgmtInstance.getCategoryInfo(categoryId);\n    }\n\n    function getTicketInfo(\n        uint256 ticketId\n    )\n        public\n        view\n        returns (\n            uint256 eventId,\n            uint256 categoryId,\n            address owner,\n            bool isOnSale,\n            uint256 originalPrice,\n            uint256 resalePrice\n        )\n    {\n        return IEventMgmtInstance.getTicketInfo(ticketId);\n    }\n\n    function getEventTickets(\n        uint256 eventId\n    ) public view returns (uint256[] memory eventTickets) {\n        return IEventMgmtInstance.getEventTickets(eventId);\n    }\n\n    function getCategoryTickets(\n        uint256 categoryId\n    ) public view returns (uint256[] memory categoryTickets) {\n        return IEventMgmtInstance.getCategoryTickets(categoryId);\n    }\n\n    /**\n        Getter functions (State variables)\n    */\n    function getEventsOrganised() public view returns (uint256[] memory eventIds) {\n        return eventsOrganised[msg.sender];\n    }\n\n    function getTicketsOwned() public view returns (uint256[] memory ticketIds) {\n        return ticketsOwned[msg.sender];\n    }\n\n    function getTicketsOnSale(uint256 eventId) public view returns (uint256[] memory ticketIds) {\n        return ticketsOnSale[eventId];\n    }\n\n    /**\n        Modifiers\n     */\n    modifier onlyEventOrganiser(uint256 eventId) {\n        require(\n            IEventMgmtInstance.isEventOrganiser(eventId, msg.sender),\n            \"Only event organiser can perform this action!\"\n        );\n        _;\n    }\n}\n",
  "sourcePath": "/Users/yaner/Documents/NUS/Y2S2/IS4302/ticketmister/contracts/TicketMkt.sol",
  "compiler": {
    "name": "solc",
    "version": "0.8.1+commit.df193b15.Emscripten.clang"
  },
  "schemaVersion": "3.3.3",
  "updatedAt": "2024-04-20T15:08:42.348Z",
  "devdoc": {
    "kind": "dev",
    "methods": {},
    "version": 1
  },
  "userdoc": {
    "kind": "user",
    "methods": {
      "buyTicket(uint256)": {
        "notice": "Main Functions For Ticket Buyers"
      },
      "createEvent(string,string,uint256)": {
        "notice": "Main Functions For Event Organisers"
      },
      "getEventInfo(uint256)": {
        "notice": "Getter Functions"
      },
      "getEventsOrganised()": {
        "notice": "Getter functions (State variables)"
      },
      "listTicketForResale(uint256,uint256)": {
        "notice": "Main Functions For Resellers"
      }
    },
    "version": 1
  }
}