{
  "contractName": "TicketMgmt",
  "abi": [
    {
      "inputs": [],
      "stateMutability": "nonpayable",
      "type": "constructor"
    },
    {
      "anonymous": false,
      "inputs": [
        {
          "indexed": true,
          "internalType": "address",
          "name": "owner",
          "type": "address"
        },
        {
          "indexed": true,
          "internalType": "address",
          "name": "approved",
          "type": "address"
        },
        {
          "indexed": true,
          "internalType": "uint256",
          "name": "tokenId",
          "type": "uint256"
        }
      ],
      "name": "Approval",
      "type": "event"
    },
    {
      "anonymous": false,
      "inputs": [
        {
          "indexed": true,
          "internalType": "address",
          "name": "owner",
          "type": "address"
        },
        {
          "indexed": true,
          "internalType": "address",
          "name": "operator",
          "type": "address"
        },
        {
          "indexed": false,
          "internalType": "bool",
          "name": "approved",
          "type": "bool"
        }
      ],
      "name": "ApprovalForAll",
      "type": "event"
    },
    {
      "anonymous": false,
      "inputs": [
        {
          "indexed": false,
          "internalType": "uint256",
          "name": "ticketId",
          "type": "uint256"
        }
      ],
      "name": "TicketCancelled",
      "type": "event"
    },
    {
      "anonymous": false,
      "inputs": [
        {
          "indexed": false,
          "internalType": "uint256",
          "name": "ticketId",
          "type": "uint256"
        },
        {
          "indexed": false,
          "internalType": "address",
          "name": "owner",
          "type": "address"
        },
        {
          "indexed": false,
          "internalType": "uint256",
          "name": "resalePrice",
          "type": "uint256"
        }
      ],
      "name": "TicketListedForResale",
      "type": "event"
    },
    {
      "anonymous": false,
      "inputs": [
        {
          "indexed": false,
          "internalType": "uint256",
          "name": "ticketId",
          "type": "uint256"
        },
        {
          "indexed": false,
          "internalType": "address",
          "name": "previousOwner",
          "type": "address"
        },
        {
          "indexed": false,
          "internalType": "address",
          "name": "newOwner",
          "type": "address"
        }
      ],
      "name": "TicketTransferred",
      "type": "event"
    },
    {
      "anonymous": false,
      "inputs": [
        {
          "indexed": false,
          "internalType": "uint256",
          "name": "ticketId",
          "type": "uint256"
        },
        {
          "indexed": false,
          "internalType": "address",
          "name": "owner",
          "type": "address"
        }
      ],
      "name": "TicketUnlistedFromResale",
      "type": "event"
    },
    {
      "anonymous": false,
      "inputs": [
        {
          "indexed": false,
          "internalType": "uint256",
          "name": "eventId",
          "type": "uint256"
        },
        {
          "indexed": false,
          "internalType": "uint256",
          "name": "categoryId",
          "type": "uint256"
        },
        {
          "indexed": false,
          "internalType": "uint256",
          "name": "numberOfTickets",
          "type": "uint256"
        },
        {
          "indexed": false,
          "internalType": "address",
          "name": "owner",
          "type": "address"
        }
      ],
      "name": "TicketsCreated",
      "type": "event"
    },
    {
      "anonymous": false,
      "inputs": [
        {
          "indexed": true,
          "internalType": "address",
          "name": "from",
          "type": "address"
        },
        {
          "indexed": true,
          "internalType": "address",
          "name": "to",
          "type": "address"
        },
        {
          "indexed": true,
          "internalType": "uint256",
          "name": "tokenId",
          "type": "uint256"
        }
      ],
      "name": "Transfer",
      "type": "event"
    },
    {
      "inputs": [
        {
          "internalType": "address",
          "name": "to",
          "type": "address"
        },
        {
          "internalType": "uint256",
          "name": "tokenId",
          "type": "uint256"
        }
      ],
      "name": "approve",
      "outputs": [],
      "stateMutability": "nonpayable",
      "type": "function"
    },
    {
      "inputs": [
        {
          "internalType": "address",
          "name": "owner",
          "type": "address"
        }
      ],
      "name": "balanceOf",
      "outputs": [
        {
          "internalType": "uint256",
          "name": "",
          "type": "uint256"
        }
      ],
      "stateMutability": "view",
      "type": "function",
      "constant": true
    },
    {
      "inputs": [
        {
          "internalType": "uint256",
          "name": "tokenId",
          "type": "uint256"
        }
      ],
      "name": "getApproved",
      "outputs": [
        {
          "internalType": "address",
          "name": "",
          "type": "address"
        }
      ],
      "stateMutability": "view",
      "type": "function",
      "constant": true
    },
    {
      "inputs": [
        {
          "internalType": "address",
          "name": "owner",
          "type": "address"
        },
        {
          "internalType": "address",
          "name": "operator",
          "type": "address"
        }
      ],
      "name": "isApprovedForAll",
      "outputs": [
        {
          "internalType": "bool",
          "name": "",
          "type": "bool"
        }
      ],
      "stateMutability": "view",
      "type": "function",
      "constant": true
    },
    {
      "inputs": [],
      "name": "name",
      "outputs": [
        {
          "internalType": "string",
          "name": "",
          "type": "string"
        }
      ],
      "stateMutability": "view",
      "type": "function",
      "constant": true
    },
    {
      "inputs": [
        {
          "internalType": "uint256",
          "name": "tokenId",
          "type": "uint256"
        }
      ],
      "name": "ownerOf",
      "outputs": [
        {
          "internalType": "address",
          "name": "",
          "type": "address"
        }
      ],
      "stateMutability": "view",
      "type": "function",
      "constant": true
    },
    {
      "inputs": [
        {
          "internalType": "address",
          "name": "from",
          "type": "address"
        },
        {
          "internalType": "address",
          "name": "to",
          "type": "address"
        },
        {
          "internalType": "uint256",
          "name": "tokenId",
          "type": "uint256"
        }
      ],
      "name": "safeTransferFrom",
      "outputs": [],
      "stateMutability": "nonpayable",
      "type": "function"
    },
    {
      "inputs": [
        {
          "internalType": "address",
          "name": "from",
          "type": "address"
        },
        {
          "internalType": "address",
          "name": "to",
          "type": "address"
        },
        {
          "internalType": "uint256",
          "name": "tokenId",
          "type": "uint256"
        },
        {
          "internalType": "bytes",
          "name": "data",
          "type": "bytes"
        }
      ],
      "name": "safeTransferFrom",
      "outputs": [],
      "stateMutability": "nonpayable",
      "type": "function"
    },
    {
      "inputs": [
        {
          "internalType": "address",
          "name": "operator",
          "type": "address"
        },
        {
          "internalType": "bool",
          "name": "approved",
          "type": "bool"
        }
      ],
      "name": "setApprovalForAll",
      "outputs": [],
      "stateMutability": "nonpayable",
      "type": "function"
    },
    {
      "inputs": [
        {
          "internalType": "bytes4",
          "name": "interfaceId",
          "type": "bytes4"
        }
      ],
      "name": "supportsInterface",
      "outputs": [
        {
          "internalType": "bool",
          "name": "",
          "type": "bool"
        }
      ],
      "stateMutability": "view",
      "type": "function",
      "constant": true
    },
    {
      "inputs": [],
      "name": "symbol",
      "outputs": [
        {
          "internalType": "string",
          "name": "",
          "type": "string"
        }
      ],
      "stateMutability": "view",
      "type": "function",
      "constant": true
    },
    {
      "inputs": [
        {
          "internalType": "uint256",
          "name": "",
          "type": "uint256"
        }
      ],
      "name": "tickets",
      "outputs": [
        {
          "internalType": "uint256",
          "name": "ticketId",
          "type": "uint256"
        },
        {
          "internalType": "uint256",
          "name": "eventId",
          "type": "uint256"
        },
        {
          "internalType": "uint256",
          "name": "categoryId",
          "type": "uint256"
        },
        {
          "internalType": "address",
          "name": "owner",
          "type": "address"
        },
        {
          "internalType": "bool",
          "name": "isOnSale",
          "type": "bool"
        },
        {
          "internalType": "uint256",
          "name": "originalPrice",
          "type": "uint256"
        },
        {
          "internalType": "uint256",
          "name": "resalePrice",
          "type": "uint256"
        }
      ],
      "stateMutability": "view",
      "type": "function",
      "constant": true
    },
    {
      "inputs": [
        {
          "internalType": "uint256",
          "name": "tokenId",
          "type": "uint256"
        }
      ],
      "name": "tokenURI",
      "outputs": [
        {
          "internalType": "string",
          "name": "",
          "type": "string"
        }
      ],
      "stateMutability": "view",
      "type": "function",
      "constant": true
    },
    {
      "inputs": [
        {
          "internalType": "address",
          "name": "from",
          "type": "address"
        },
        {
          "internalType": "address",
          "name": "to",
          "type": "address"
        },
        {
          "internalType": "uint256",
          "name": "tokenId",
          "type": "uint256"
        }
      ],
      "name": "transferFrom",
      "outputs": [],
      "stateMutability": "nonpayable",
      "type": "function"
    },
    {
      "inputs": [
        {
          "internalType": "uint256",
          "name": "eventId",
          "type": "uint256"
        },
        {
          "internalType": "uint256",
          "name": "categoryId",
          "type": "uint256"
        },
        {
          "internalType": "uint256",
          "name": "ticketPrice",
          "type": "uint256"
        },
        {
          "internalType": "uint256",
          "name": "numberOfTickets",
          "type": "uint256"
        }
      ],
      "name": "createTickets",
      "outputs": [
        {
          "internalType": "uint256[]",
          "name": "ticketIds",
          "type": "uint256[]"
        }
      ],
      "stateMutability": "nonpayable",
      "type": "function"
    },
    {
      "inputs": [
        {
          "internalType": "uint256",
          "name": "ticketId",
          "type": "uint256"
        }
      ],
      "name": "cancelTicket",
      "outputs": [],
      "stateMutability": "nonpayable",
      "type": "function"
    },
    {
      "inputs": [
        {
          "internalType": "uint256",
          "name": "ticketId",
          "type": "uint256"
        }
      ],
      "name": "getTicketInfo",
      "outputs": [
        {
          "internalType": "uint256",
          "name": "",
          "type": "uint256"
        },
        {
          "internalType": "uint256",
          "name": "",
          "type": "uint256"
        },
        {
          "internalType": "address",
          "name": "",
          "type": "address"
        },
        {
          "internalType": "bool",
          "name": "",
          "type": "bool"
        },
        {
          "internalType": "uint256",
          "name": "",
          "type": "uint256"
        },
        {
          "internalType": "uint256",
          "name": "",
          "type": "uint256"
        }
      ],
      "stateMutability": "view",
      "type": "function",
      "constant": true
    },
    {
      "inputs": [
        {
          "internalType": "uint256",
          "name": "ticketId",
          "type": "uint256"
        }
      ],
      "name": "getEventId",
      "outputs": [
        {
          "internalType": "uint256",
          "name": "",
          "type": "uint256"
        }
      ],
      "stateMutability": "view",
      "type": "function",
      "constant": true
    },
    {
      "inputs": [
        {
          "internalType": "uint256",
          "name": "ticketId",
          "type": "uint256"
        }
      ],
      "name": "getTicketOwner",
      "outputs": [
        {
          "internalType": "address",
          "name": "",
          "type": "address"
        }
      ],
      "stateMutability": "view",
      "type": "function",
      "constant": true
    },
    {
      "inputs": [
        {
          "internalType": "uint256",
          "name": "ticketId",
          "type": "uint256"
        }
      ],
      "name": "isForSale",
      "outputs": [
        {
          "internalType": "bool",
          "name": "",
          "type": "bool"
        }
      ],
      "stateMutability": "view",
      "type": "function",
      "constant": true
    },
    {
      "inputs": [
        {
          "internalType": "uint256",
          "name": "ticketId",
          "type": "uint256"
        }
      ],
      "name": "getOriginalTicketPrice",
      "outputs": [
        {
          "internalType": "uint256",
          "name": "",
          "type": "uint256"
        }
      ],
      "stateMutability": "view",
      "type": "function",
      "constant": true
    },
    {
      "inputs": [
        {
          "internalType": "uint256",
          "name": "ticketId",
          "type": "uint256"
        }
      ],
      "name": "getResaleTicketPrice",
      "outputs": [
        {
          "internalType": "uint256",
          "name": "",
          "type": "uint256"
        }
      ],
      "stateMutability": "view",
      "type": "function",
      "constant": true
    },
    {
      "inputs": [
        {
          "internalType": "uint256",
          "name": "ticketId",
          "type": "uint256"
        },
        {
          "internalType": "address",
          "name": "newOwner",
          "type": "address"
        }
      ],
      "name": "transferTicket",
      "outputs": [],
      "stateMutability": "nonpayable",
      "type": "function"
    },
    {
      "inputs": [
        {
          "internalType": "uint256",
          "name": "ticketId",
          "type": "uint256"
        },
        {
          "internalType": "uint256",
          "name": "resalePrice",
          "type": "uint256"
        }
      ],
      "name": "listTicketForResale",
      "outputs": [],
      "stateMutability": "nonpayable",
      "type": "function"
    },
    {
      "inputs": [
        {
          "internalType": "uint256",
          "name": "ticketId",
          "type": "uint256"
        }
      ],
      "name": "unlistTicketFromResale",
      "outputs": [],
      "stateMutability": "nonpayable",
      "type": "function"
    }
  ],
  "bytecode": "0x60806040523480156200001157600080fd5b506040518060400160405280600c81526020017f5469636b65744d697374657200000000000000000000000000000000000000008152506040518060400160405280600381526020017f544d540000000000000000000000000000000000000000000000000000000000815250816000908051906020019062000096929190620000b8565b508060019080519060200190620000af929190620000b8565b505050620001cd565b828054620000c69062000168565b90600052602060002090601f016020900481019282620000ea576000855562000136565b82601f106200010557805160ff191683800117855562000136565b8280016001018555821562000136579182015b828111156200013557825182559160200191906001019062000118565b5b50905062000145919062000149565b5090565b5b80821115620001645760008160009055506001016200014a565b5090565b600060028204905060018216806200018157607f821691505b602082108114156200019857620001976200019e565b5b50919050565b7f4e487b7100000000000000000000000000000000000000000000000000000000600052602260045260246000fd5b613a6080620001dd6000396000f3fe608060405234801561001057600080fd5b50600436106101735760003560e01c8063679ebf1a116100de578063b88d4fde11610097578063c87b56dd11610071578063c87b56dd146104aa578063e985e9c5146104da578063ee355b1f1461050a578063ff99a0631461052657610173565b8063b88d4fde1461042e578063bd9a77ed1461044a578063c3be559b1461047a57610173565b8063679ebf1a1461034857806370a08231146103645780638546d0021461039457806395d89b41146103c4578063a22cb465146103e2578063ad093409146103fe57610173565b806342842e0e1161013057806342842e0e1461025e578063509688d71461027a57806350b44712146102aa5780635b906bd7146102e05780636053b0ef146102fc5780636352211e1461031857610173565b806301ffc9a71461017857806306fdde03146101a8578063081812fc146101c6578063095ea7b3146101f657806311a1c9991461021257806323b872dd14610242575b600080fd5b610192600480360381019061018d9190612af4565b61055b565b60405161019f9190613013565b60405180910390f35b6101b061063d565b6040516101bd919061302e565b60405180910390f35b6101e060048036038101906101db9190612b46565b6106cf565b6040516101ed9190612f8a565b60405180910390f35b610210600480360381019061020b9190612ab8565b610715565b005b61022c60048036038101906102279190612be7565b61082d565b6040516102399190612ff1565b60405180910390f35b61025c600480360381019061025791906129b2565b610abf565b005b610278600480360381019061027391906129b2565b610b1f565b005b610294600480360381019061028f9190612b46565b610b3f565b6040516102a191906131f0565b60405180910390f35b6102c460048036038101906102bf9190612b46565b610baf565b6040516102d79796959493929190613348565b60405180910390f35b6102fa60048036038101906102f59190612b46565b610c1e565b005b61031660048036038101906103119190612bab565b610cda565b005b610332600480360381019061032d9190612b46565b610db4565b60405161033f9190612f8a565b60405180910390f35b610362600480360381019061035d9190612b6f565b610e3b565b005b61037e6004803603810190610379919061294d565b610f96565b60405161038b91906131f0565b60405180910390f35b6103ae60048036038101906103a99190612b46565b61104e565b6040516103bb9190613013565b60405180910390f35b6103cc6110cb565b6040516103d9919061302e565b60405180910390f35b6103fc60048036038101906103f79190612a7c565b61115d565b005b61041860048036038101906104139190612b46565b611173565b6040516104259190612f8a565b60405180910390f35b61044860048036038101906104439190612a01565b611203565b005b610464600480360381019061045f9190612b46565b611265565b60405161047191906131f0565b60405180910390f35b610494600480360381019061048f9190612b46565b6112d5565b6040516104a191906131f0565b60405180910390f35b6104c460048036038101906104bf9190612b46565b611345565b6040516104d1919061302e565b60405180910390f35b6104f460048036038101906104ef9190612976565b611458565b6040516105019190613013565b60405180910390f35b610524600480360381019061051f9190612b46565b6114ec565b005b610540600480360381019061053b9190612b46565b6115a8565b604051610552969594939291906132a2565b60405180910390f35b60007f80ac58cd000000000000000000000000000000000000000000000000000000007bffffffffffffffffffffffffffffffffffffffffffffffffffffffff1916827bffffffffffffffffffffffffffffffffffffffffffffffffffffffff1916148061062657507f5b5e139f000000000000000000000000000000000000000000000000000000007bffffffffffffffffffffffffffffffffffffffffffffffffffffffff1916827bffffffffffffffffffffffffffffffffffffffffffffffffffffffff1916145b806106365750610635826116fb565b5b9050919050565b60606000805461064c9061353f565b80601f01602080910402602001604051908101604052809291908181526020018280546106789061353f565b80156106c55780601f1061069a576101008083540402835291602001916106c5565b820191906000526020600020905b8154815290600101906020018083116106a857829003601f168201915b5050505050905090565b60006106da82611765565b6004600083815260200190815260200160002060009054906101000a900473ffffffffffffffffffffffffffffffffffffffff169050919050565b600061072082610db4565b90508073ffffffffffffffffffffffffffffffffffffffff168373ffffffffffffffffffffffffffffffffffffffff161415610791576040517f08c379a0000000000000000000000000000000000000000000000000000000008152600401610788906131b0565b60405180910390fd5b8073ffffffffffffffffffffffffffffffffffffffff166107b06117b0565b73ffffffffffffffffffffffffffffffffffffffff1614806107df57506107de816107d96117b0565b611458565b5b61081e576040517f08c379a0000000000000000000000000000000000000000000000000000000008152600401610815906131d0565b60405180910390fd5b61082883836117b8565b505050565b60608167ffffffffffffffff81111561086f577f4e487b7100000000000000000000000000000000000000000000000000000000600052604160045260246000fd5b60405190808252806020026020018201604052801561089d5781602001602082028036833780820191505090505b50905060005b82811015610a795760006007549050600760008154809291906108c5906135a2565b91905055506108d381611871565b15610913576040517f08c379a000000000000000000000000000000000000000000000000000000000815260040161090a90613150565b60405180910390fd5b61091d32826118b2565b60006040518060e001604052808381526020018981526020018881526020013273ffffffffffffffffffffffffffffffffffffffff16815260200160011515815260200187815260200160008152509050806008600084815260200190815260200160002060008201518160000155602082015181600101556040820151816002015560608201518160030160006101000a81548173ffffffffffffffffffffffffffffffffffffffff021916908373ffffffffffffffffffffffffffffffffffffffff16021790555060808201518160030160146101000a81548160ff02191690831515021790555060a0820151816004015560c0820151816005015590505081848481518110610a58577f4e487b7100000000000000000000000000000000000000000000000000000000600052603260045260246000fd5b60200260200101818152505050508080610a71906135a2565b9150506108a3565b507f79098b20f80a5e28c269d9fd8f028538177584eee5999e5f74f5ddcc5b4a733a85858432604051610aaf9493929190613303565b60405180910390a1949350505050565b610ad0610aca6117b0565b826118d0565b610b0f576040517f08c379a0000000000000000000000000000000000000000000000000000000008152600401610b0690613050565b60405180910390fd5b610b1a838383611965565b505050565b610b3a83838360405180602001604052806000815250611203565b505050565b6000808210158015610b52575060075482105b610b91576040517f08c379a0000000000000000000000000000000000000000000000000000000008152600401610b8890613090565b60405180910390fd5b60086000838152602001908152602001600020600501549050919050565b60086020528060005260406000206000915090508060000154908060010154908060020154908060030160009054906101000a900473ffffffffffffffffffffffffffffffffffffffff16908060030160149054906101000a900460ff16908060040154908060050154905087565b60008110158015610c30575060075481105b610c6f576040517f08c379a0000000000000000000000000000000000000000000000000000000008152600401610c6690613090565b60405180910390fd5b60006008600083815260200190815260200160002060030160146101000a81548160ff0219169083151502179055507f50fb0da31f51d5941eb530f40ae9be31281f6d95cd66bdebb9059eab24337b348132604051610ccf92919061320b565b60405180910390a150565b60008210158015610cec575060075482105b610d2b576040517f08c379a0000000000000000000000000000000000000000000000000000000008152600401610d2290613090565b60405180910390fd5b60016008600084815260200190815260200160002060030160146101000a81548160ff0219169083151502179055508060086000848152602001908152602001600020600501819055507fc2c5e12125f9e5bf4720760322e943e274b1e7d378dcf5097250aabe27405277823283604051610da89392919061326b565b60405180910390a15050565b600080610dc083611c5f565b9050600073ffffffffffffffffffffffffffffffffffffffff168173ffffffffffffffffffffffffffffffffffffffff161415610e32576040517f08c379a0000000000000000000000000000000000000000000000000000000008152600401610e2990613190565b60405180910390fd5b80915050919050565b60008210158015610e4d575060075482105b610e8c576040517f08c379a0000000000000000000000000000000000000000000000000000000008152600401610e8390613090565b60405180910390fd5b60006008600084815260200190815260200160002060030160009054906101000a900473ffffffffffffffffffffffffffffffffffffffff169050610ed2818385611965565b816008600085815260200190815260200160002060030160006101000a81548173ffffffffffffffffffffffffffffffffffffffff021916908373ffffffffffffffffffffffffffffffffffffffff16021790555060006008600085815260200190815260200160002060030160146101000a81548160ff0219169083151502179055507fd15524263ae66f75c1e604c47db6085085110f23ef7322b355179ac5e3b0783a838284604051610f8993929190613234565b60405180910390a1505050565b60008073ffffffffffffffffffffffffffffffffffffffff168273ffffffffffffffffffffffffffffffffffffffff161415611007576040517f08c379a0000000000000000000000000000000000000000000000000000000008152600401610ffe90613130565b60405180910390fd5b600360008373ffffffffffffffffffffffffffffffffffffffff1673ffffffffffffffffffffffffffffffffffffffff168152602001908152602001600020549050919050565b6000808210158015611061575060075482105b6110a0576040517f08c379a000000000000000000000000000000000000000000000000000000000815260040161109790613090565b60405180910390fd5b6008600083815260200190815260200160002060030160149054906101000a900460ff169050919050565b6060600180546110da9061353f565b80601f01602080910402602001604051908101604052809291908181526020018280546111069061353f565b80156111535780601f1061112857610100808354040283529160200191611153565b820191906000526020600020905b81548152906001019060200180831161113657829003601f168201915b5050505050905090565b61116f6111686117b0565b8383611c9c565b5050565b6000808210158015611186575060075482105b6111c5576040517f08c379a00000000000000000000000000000000000000000000000000000000081526004016111bc90613090565b60405180910390fd5b6008600083815260200190815260200160002060030160009054906101000a900473ffffffffffffffffffffffffffffffffffffffff169050919050565b61121461120e6117b0565b836118d0565b611253576040517f08c379a000000000000000000000000000000000000000000000000000000000815260040161124a90613050565b60405180910390fd5b61125f84848484611e09565b50505050565b6000808210158015611278575060075482105b6112b7576040517f08c379a00000000000000000000000000000000000000000000000000000000081526004016112ae90613090565b60405180910390fd5b60086000838152602001908152602001600020600401549050919050565b60008082101580156112e8575060075482105b611327576040517f08c379a000000000000000000000000000000000000000000000000000000000815260040161131e90613090565b60405180910390fd5b60086000838152602001908152602001600020600101549050919050565b606061135082611765565b60006006600084815260200190815260200160002080546113709061353f565b80601f016020809104026020016040519081016040528092919081815260200182805461139c9061353f565b80156113e95780601f106113be576101008083540402835291602001916113e9565b820191906000526020600020905b8154815290600101906020018083116113cc57829003601f168201915b5050505050905060006113fa611e65565b9050600081511415611410578192505050611453565b60008251111561144557808260405160200161142d929190612f66565b60405160208183030381529060405292505050611453565b61144e84611e7c565b925050505b919050565b6000600560008473ffffffffffffffffffffffffffffffffffffffff1673ffffffffffffffffffffffffffffffffffffffff16815260200190815260200160002060008373ffffffffffffffffffffffffffffffffffffffff1673ffffffffffffffffffffffffffffffffffffffff16815260200190815260200160002060009054906101000a900460ff16905092915050565b6114f581611ee4565b60086000828152602001908152602001600020600080820160009055600182016000905560028201600090556003820160006101000a81549073ffffffffffffffffffffffffffffffffffffffff02191690556003820160146101000a81549060ff02191690556004820160009055600582016000905550507f90a5808be5f77b4a2e0aa0389f433983252aabf738204c5c421fc59e5ecdaeea8160405161159d91906131f0565b60405180910390a150565b600080600080600080600087101580156115c3575060075487105b611602576040517f08c379a00000000000000000000000000000000000000000000000000000000081526004016115f990613090565b60405180910390fd5b6000600860008981526020019081526020016000206040518060e00160405290816000820154815260200160018201548152602001600282015481526020016003820160009054906101000a900473ffffffffffffffffffffffffffffffffffffffff1673ffffffffffffffffffffffffffffffffffffffff1673ffffffffffffffffffffffffffffffffffffffff1681526020016003820160149054906101000a900460ff1615151515815260200160048201548152602001600582015481525050905080602001518160400151826060015183608001518460a001518560c001519650965096509650965096505091939550919395565b60007f01ffc9a7000000000000000000000000000000000000000000000000000000007bffffffffffffffffffffffffffffffffffffffffffffffffffffffff1916827bffffffffffffffffffffffffffffffffffffffffffffffffffffffff1916149050919050565b61176e81611871565b6117ad576040517f08c379a00000000000000000000000000000000000000000000000000000000081526004016117a490613190565b60405180910390fd5b50565b600033905090565b816004600083815260200190815260200160002060006101000a81548173ffffffffffffffffffffffffffffffffffffffff021916908373ffffffffffffffffffffffffffffffffffffffff160217905550808273ffffffffffffffffffffffffffffffffffffffff1661182b83610db4565b73ffffffffffffffffffffffffffffffffffffffff167f8c5be1e5ebec7d5bd14f71427d1e84f3dd0314c0f7b2291e5b200ac8c7c3b92560405160405180910390a45050565b60008073ffffffffffffffffffffffffffffffffffffffff1661189383611c5f565b73ffffffffffffffffffffffffffffffffffffffff1614159050919050565b6118cc828260405180602001604052806000815250611f37565b5050565b6000806118dc83610db4565b90508073ffffffffffffffffffffffffffffffffffffffff168473ffffffffffffffffffffffffffffffffffffffff16148061191e575061191d8185611458565b5b8061195c57508373ffffffffffffffffffffffffffffffffffffffff16611944846106cf565b73ffffffffffffffffffffffffffffffffffffffff16145b91505092915050565b8273ffffffffffffffffffffffffffffffffffffffff1661198582610db4565b73ffffffffffffffffffffffffffffffffffffffff16146119db576040517f08c379a00000000000000000000000000000000000000000000000000000000081526004016119d2906130b0565b60405180910390fd5b600073ffffffffffffffffffffffffffffffffffffffff168273ffffffffffffffffffffffffffffffffffffffff161415611a4b576040517f08c379a0000000000000000000000000000000000000000000000000000000008152600401611a42906130f0565b60405180910390fd5b611a588383836001611f92565b8273ffffffffffffffffffffffffffffffffffffffff16611a7882610db4565b73ffffffffffffffffffffffffffffffffffffffff1614611ace576040517f08c379a0000000000000000000000000000000000000000000000000000000008152600401611ac5906130b0565b60405180910390fd5b6004600082815260200190815260200160002060006101000a81549073ffffffffffffffffffffffffffffffffffffffff02191690556001600360008573ffffffffffffffffffffffffffffffffffffffff1673ffffffffffffffffffffffffffffffffffffffff168152602001908152602001600020600082825403925050819055506001600360008473ffffffffffffffffffffffffffffffffffffffff1673ffffffffffffffffffffffffffffffffffffffff16815260200190815260200160002060008282540192505081905550816002600083815260200190815260200160002060006101000a81548173ffffffffffffffffffffffffffffffffffffffff021916908373ffffffffffffffffffffffffffffffffffffffff160217905550808273ffffffffffffffffffffffffffffffffffffffff168473ffffffffffffffffffffffffffffffffffffffff167fddf252ad1be2c89b69c2b068fc378daa952ba7f163c4a11628f55a4df523b3ef60405160405180910390a4611c5a8383836001611f98565b505050565b60006002600083815260200190815260200160002060009054906101000a900473ffffffffffffffffffffffffffffffffffffffff169050919050565b8173ffffffffffffffffffffffffffffffffffffffff168373ffffffffffffffffffffffffffffffffffffffff161415611d0b576040517f08c379a0000000000000000000000000000000000000000000000000000000008152600401611d0290613110565b60405180910390fd5b80600560008573ffffffffffffffffffffffffffffffffffffffff1673ffffffffffffffffffffffffffffffffffffffff16815260200190815260200160002060008473ffffffffffffffffffffffffffffffffffffffff1673ffffffffffffffffffffffffffffffffffffffff16815260200190815260200160002060006101000a81548160ff0219169083151502179055508173ffffffffffffffffffffffffffffffffffffffff168373ffffffffffffffffffffffffffffffffffffffff167f17307eab39ab6107e8899845ad3d59bd9653f200f220920489ca2b5937696c3183604051611dfc9190613013565b60405180910390a3505050565b611e14848484611965565b611e2084848484611f9e565b611e5f576040517f08c379a0000000000000000000000000000000000000000000000000000000008152600401611e5690613070565b60405180910390fd5b50505050565b606060405180602001604052806000815250905090565b6060611e8782611765565b6000611e91611e65565b90506000815111611eb15760405180602001604052806000815250611edc565b80611ebb84612135565b604051602001611ecc929190612f66565b6040516020818303038152906040525b915050919050565b611eed81612259565b6000600660008381526020019081526020016000208054611f0d9061353f565b905014611f3457600660008281526020019081526020016000206000611f33919061281f565b5b50565b611f4183836123a7565b611f4e6000848484611f9e565b611f8d576040517f08c379a0000000000000000000000000000000000000000000000000000000008152600401611f8490613070565b60405180910390fd5b505050565b50505050565b50505050565b6000611fbf8473ffffffffffffffffffffffffffffffffffffffff166125c5565b15612128578373ffffffffffffffffffffffffffffffffffffffff1663150b7a02611fe86117b0565b8786866040518563ffffffff1660e01b815260040161200a9493929190612fa5565b602060405180830381600087803b15801561202457600080fd5b505af192505050801561205557506040513d601f19601f820116820180604052508101906120529190612b1d565b60015b6120d8573d8060008114612085576040519150601f19603f3d011682016040523d82523d6000602084013e61208a565b606091505b506000815114156120d0576040517f08c379a00000000000000000000000000000000000000000000000000000000081526004016120c790613070565b60405180910390fd5b805181602001fd5b63150b7a0260e01b7bffffffffffffffffffffffffffffffffffffffffffffffffffffffff1916817bffffffffffffffffffffffffffffffffffffffffffffffffffffffff19161491505061212d565b600190505b949350505050565b606060006001612144846125e8565b01905060008167ffffffffffffffff811115612189577f4e487b7100000000000000000000000000000000000000000000000000000000600052604160045260246000fd5b6040519080825280601f01601f1916602001820160405280156121bb5781602001600182028036833780820191505090505b509050600082602001820190505b60011561224e578080600190039150507f3031323334353637383961626364656600000000000000000000000000000000600a86061a8153600a8581612238577f4e487b7100000000000000000000000000000000000000000000000000000000600052601260045260246000fd5b04945060008514156122495761224e565b6121c9565b819350505050919050565b600061226482610db4565b9050612274816000846001611f92565b61227d82610db4565b90506004600083815260200190815260200160002060006101000a81549073ffffffffffffffffffffffffffffffffffffffff02191690556001600360008373ffffffffffffffffffffffffffffffffffffffff1673ffffffffffffffffffffffffffffffffffffffff168152602001908152602001600020600082825403925050819055506002600083815260200190815260200160002060006101000a81549073ffffffffffffffffffffffffffffffffffffffff021916905581600073ffffffffffffffffffffffffffffffffffffffff168273ffffffffffffffffffffffffffffffffffffffff167fddf252ad1be2c89b69c2b068fc378daa952ba7f163c4a11628f55a4df523b3ef60405160405180910390a46123a3816000846001611f98565b5050565b600073ffffffffffffffffffffffffffffffffffffffff168273ffffffffffffffffffffffffffffffffffffffff161415612417576040517f08c379a000000000000000000000000000000000000000000000000000000000815260040161240e90613170565b60405180910390fd5b61242081611871565b15612460576040517f08c379a0000000000000000000000000000000000000000000000000000000008152600401612457906130d0565b60405180910390fd5b61246e600083836001611f92565b61247781611871565b156124b7576040517f08c379a00000000000000000000000000000000000000000000000000000000081526004016124ae906130d0565b60405180910390fd5b6001600360008473ffffffffffffffffffffffffffffffffffffffff1673ffffffffffffffffffffffffffffffffffffffff16815260200190815260200160002060008282540192505081905550816002600083815260200190815260200160002060006101000a81548173ffffffffffffffffffffffffffffffffffffffff021916908373ffffffffffffffffffffffffffffffffffffffff160217905550808273ffffffffffffffffffffffffffffffffffffffff16600073ffffffffffffffffffffffffffffffffffffffff167fddf252ad1be2c89b69c2b068fc378daa952ba7f163c4a11628f55a4df523b3ef60405160405180910390a46125c1600083836001611f98565b5050565b6000808273ffffffffffffffffffffffffffffffffffffffff163b119050919050565b600080600090507a184f03e93ff9f4daa797ed6e38ed64bf6a1f010000000000000000831061266c577a184f03e93ff9f4daa797ed6e38ed64bf6a1f0100000000000000008381612662577f4e487b7100000000000000000000000000000000000000000000000000000000600052601260045260246000fd5b0492506040810190505b6d04ee2d6d415b85acef810000000083106126cf576d04ee2d6d415b85acef810000000083816126c5577f4e487b7100000000000000000000000000000000000000000000000000000000600052601260045260246000fd5b0492506020810190505b662386f26fc10000831061272457662386f26fc10000838161271a577f4e487b7100000000000000000000000000000000000000000000000000000000600052601260045260246000fd5b0492506010810190505b6305f5e1008310612773576305f5e1008381612769577f4e487b7100000000000000000000000000000000000000000000000000000000600052601260045260246000fd5b0492506008810190505b61271083106127be5761271083816127b4577f4e487b7100000000000000000000000000000000000000000000000000000000600052601260045260246000fd5b0492506004810190505b6064831061280757606483816127fd577f4e487b7100000000000000000000000000000000000000000000000000000000600052601260045260246000fd5b0492506002810190505b600a8310612816576001810190505b80915050919050565b50805461282b9061353f565b6000825580601f1061283d575061285c565b601f01602090049060005260206000209081019061285b919061285f565b5b50565b5b80821115612878576000816000905550600101612860565b5090565b600061288f61288a846133dc565b6133b7565b9050828152602081018484840111156128a757600080fd5b6128b28482856134fd565b509392505050565b6000813590506128c9816139ce565b92915050565b6000813590506128de816139e5565b92915050565b6000813590506128f3816139fc565b92915050565b600081519050612908816139fc565b92915050565b600082601f83011261291f57600080fd5b813561292f84826020860161287c565b91505092915050565b60008135905061294781613a13565b92915050565b60006020828403121561295f57600080fd5b600061296d848285016128ba565b91505092915050565b6000806040838503121561298957600080fd5b6000612997858286016128ba565b92505060206129a8858286016128ba565b9150509250929050565b6000806000606084860312156129c757600080fd5b60006129d5868287016128ba565b93505060206129e6868287016128ba565b92505060406129f786828701612938565b9150509250925092565b60008060008060808587031215612a1757600080fd5b6000612a25878288016128ba565b9450506020612a36878288016128ba565b9350506040612a4787828801612938565b925050606085013567ffffffffffffffff811115612a6457600080fd5b612a708782880161290e565b91505092959194509250565b60008060408385031215612a8f57600080fd5b6000612a9d858286016128ba565b9250506020612aae858286016128cf565b9150509250929050565b60008060408385031215612acb57600080fd5b6000612ad9858286016128ba565b9250506020612aea85828601612938565b9150509250929050565b600060208284031215612b0657600080fd5b6000612b14848285016128e4565b91505092915050565b600060208284031215612b2f57600080fd5b6000612b3d848285016128f9565b91505092915050565b600060208284031215612b5857600080fd5b6000612b6684828501612938565b91505092915050565b60008060408385031215612b8257600080fd5b6000612b9085828601612938565b9250506020612ba1858286016128ba565b9150509250929050565b60008060408385031215612bbe57600080fd5b6000612bcc85828601612938565b9250506020612bdd85828601612938565b9150509250929050565b60008060008060808587031215612bfd57600080fd5b6000612c0b87828801612938565b9450506020612c1c87828801612938565b9350506040612c2d87828801612938565b9250506060612c3e87828801612938565b91505092959194509250565b6000612c568383612f48565b60208301905092915050565b612c6b81613489565b82525050565b6000612c7c8261341d565b612c86818561344b565b9350612c918361340d565b8060005b83811015612cc2578151612ca98882612c4a565b9750612cb48361343e565b925050600181019050612c95565b5085935050505092915050565b612cd88161349b565b82525050565b6000612ce982613428565b612cf3818561345c565b9350612d0381856020860161350c565b612d0c81613678565b840191505092915050565b6000612d2282613433565b612d2c818561346d565b9350612d3c81856020860161350c565b612d4581613678565b840191505092915050565b6000612d5b82613433565b612d65818561347e565b9350612d7581856020860161350c565b80840191505092915050565b6000612d8e602d8361346d565b9150612d9982613689565b604082019050919050565b6000612db160328361346d565b9150612dbc826136d8565b604082019050919050565b6000612dd460168361346d565b9150612ddf82613727565b602082019050919050565b6000612df760258361346d565b9150612e0282613750565b604082019050919050565b6000612e1a601c8361346d565b9150612e258261379f565b602082019050919050565b6000612e3d60248361346d565b9150612e48826137c8565b604082019050919050565b6000612e6060198361346d565b9150612e6b82613817565b602082019050919050565b6000612e8360298361346d565b9150612e8e82613840565b604082019050919050565b6000612ea660268361346d565b9150612eb18261388f565b604082019050919050565b6000612ec960208361346d565b9150612ed4826138de565b602082019050919050565b6000612eec60188361346d565b9150612ef782613907565b602082019050919050565b6000612f0f60218361346d565b9150612f1a82613930565b604082019050919050565b6000612f32603d8361346d565b9150612f3d8261397f565b604082019050919050565b612f51816134f3565b82525050565b612f60816134f3565b82525050565b6000612f728285612d50565b9150612f7e8284612d50565b91508190509392505050565b6000602082019050612f9f6000830184612c62565b92915050565b6000608082019050612fba6000830187612c62565b612fc76020830186612c62565b612fd46040830185612f57565b8181036060830152612fe68184612cde565b905095945050505050565b6000602082019050818103600083015261300b8184612c71565b905092915050565b60006020820190506130286000830184612ccf565b92915050565b600060208201905081810360008301526130488184612d17565b905092915050565b6000602082019050818103600083015261306981612d81565b9050919050565b6000602082019050818103600083015261308981612da4565b9050919050565b600060208201905081810360008301526130a981612dc7565b9050919050565b600060208201905081810360008301526130c981612dea565b9050919050565b600060208201905081810360008301526130e981612e0d565b9050919050565b6000602082019050818103600083015261310981612e30565b9050919050565b6000602082019050818103600083015261312981612e53565b9050919050565b6000602082019050818103600083015261314981612e76565b9050919050565b6000602082019050818103600083015261316981612e99565b9050919050565b6000602082019050818103600083015261318981612ebc565b9050919050565b600060208201905081810360008301526131a981612edf565b9050919050565b600060208201905081810360008301526131c981612f02565b9050919050565b600060208201905081810360008301526131e981612f25565b9050919050565b60006020820190506132056000830184612f57565b92915050565b60006040820190506132206000830185612f57565b61322d6020830184612c62565b9392505050565b60006060820190506132496000830186612f57565b6132566020830185612c62565b6132636040830184612c62565b949350505050565b60006060820190506132806000830186612f57565b61328d6020830185612c62565b61329a6040830184612f57565b949350505050565b600060c0820190506132b76000830189612f57565b6132c46020830188612f57565b6132d16040830187612c62565b6132de6060830186612ccf565b6132eb6080830185612f57565b6132f860a0830184612f57565b979650505050505050565b60006080820190506133186000830187612f57565b6133256020830186612f57565b6133326040830185612f57565b61333f6060830184612c62565b95945050505050565b600060e08201905061335d600083018a612f57565b61336a6020830189612f57565b6133776040830188612f57565b6133846060830187612c62565b6133916080830186612ccf565b61339e60a0830185612f57565b6133ab60c0830184612f57565b98975050505050505050565b60006133c16133d2565b90506133cd8282613571565b919050565b6000604051905090565b600067ffffffffffffffff8211156133f7576133f6613649565b5b61340082613678565b9050602081019050919050565b6000819050602082019050919050565b600081519050919050565b600081519050919050565b600081519050919050565b6000602082019050919050565b600082825260208201905092915050565b600082825260208201905092915050565b600082825260208201905092915050565b600081905092915050565b6000613494826134d3565b9050919050565b60008115159050919050565b60007fffffffff0000000000000000000000000000000000000000000000000000000082169050919050565b600073ffffffffffffffffffffffffffffffffffffffff82169050919050565b6000819050919050565b82818337600083830152505050565b60005b8381101561352a57808201518184015260208101905061350f565b83811115613539576000848401525b50505050565b6000600282049050600182168061355757607f821691505b6020821081141561356b5761356a61361a565b5b50919050565b61357a82613678565b810181811067ffffffffffffffff8211171561359957613598613649565b5b80604052505050565b60006135ad826134f3565b91507fffffffffffffffffffffffffffffffffffffffffffffffffffffffffffffffff8214156135e0576135df6135eb565b5b600182019050919050565b7f4e487b7100000000000000000000000000000000000000000000000000000000600052601160045260246000fd5b7f4e487b7100000000000000000000000000000000000000000000000000000000600052602260045260246000fd5b7f4e487b7100000000000000000000000000000000000000000000000000000000600052604160045260246000fd5b6000601f19601f8301169050919050565b7f4552433732313a2063616c6c6572206973206e6f7420746f6b656e206f776e6560008201527f72206f7220617070726f76656400000000000000000000000000000000000000602082015250565b7f4552433732313a207472616e7366657220746f206e6f6e20455243373231526560008201527f63656976657220696d706c656d656e7465720000000000000000000000000000602082015250565b7f5469636b657420646f6573206e6f742065786973742100000000000000000000600082015250565b7f4552433732313a207472616e736665722066726f6d20696e636f72726563742060008201527f6f776e6572000000000000000000000000000000000000000000000000000000602082015250565b7f4552433732313a20746f6b656e20616c7265616479206d696e74656400000000600082015250565b7f4552433732313a207472616e7366657220746f20746865207a65726f2061646460008201527f7265737300000000000000000000000000000000000000000000000000000000602082015250565b7f4552433732313a20617070726f766520746f2063616c6c657200000000000000600082015250565b7f4552433732313a2061646472657373207a65726f206973206e6f74206120766160008201527f6c6964206f776e65720000000000000000000000000000000000000000000000602082015250565b7f5469636b657420746f6b656e2068617320616c7265616479206265656e20637260008201527f65617465642e0000000000000000000000000000000000000000000000000000602082015250565b7f4552433732313a206d696e7420746f20746865207a65726f2061646472657373600082015250565b7f4552433732313a20696e76616c696420746f6b656e2049440000000000000000600082015250565b7f4552433732313a20617070726f76616c20746f2063757272656e74206f776e6560008201527f7200000000000000000000000000000000000000000000000000000000000000602082015250565b7f4552433732313a20617070726f76652063616c6c6572206973206e6f7420746f60008201527f6b656e206f776e6572206f7220617070726f76656420666f7220616c6c000000602082015250565b6139d781613489565b81146139e257600080fd5b50565b6139ee8161349b565b81146139f957600080fd5b50565b613a05816134a7565b8114613a1057600080fd5b50565b613a1c816134f3565b8114613a2757600080fd5b5056fea264697066735822122065ed7b2574b27c182017a7cdce7ce8d895bbc9c92490059be04122d480cbb2f964736f6c63430008010033",
  "immutableReferences": {},
  "source": "// SPDX-License-Identifier: UNLICENSED\npragma solidity >=0.6.0 <0.9.0;\npragma experimental ABIEncoderV2;\n\nimport \"../node_modules/@openzeppelin/contracts/token/ERC721/ERC721.sol\";\nimport \"../node_modules/@openzeppelin/contracts/utils/math/SafeMath.sol\";\nimport \"../node_modules/@openzeppelin/contracts/access/Ownable.sol\";\nimport \"../node_modules/@openzeppelin/contracts/token/ERC721/extensions/ERC721URIStorage.sol\";\n\ninterface ITicketMgmt {\n    function createTickets(\n        uint256 eventId,\n        uint256 categoryId,\n        uint256 ticketPrice,\n        uint256 numberOfTickets\n    ) external returns (uint256[] memory ticketIds);\n\n    function getTicketInfo(\n        uint256 ticketId\n    )\n        external\n        view\n        returns (\n            uint256 eventId,\n            uint256 categoryId,\n            address owner,\n            bool isOnSale,\n            uint256 originalPrice,\n            uint256 resalePrice\n        );\n\n    function getEventId(uint256 ticketId) external view returns (uint256);\n\n    function getTicketOwner(uint256 ticketId) external view returns (address);\n\n    function isForSale(uint256 ticketId) external view returns (bool);\n\n    function getOriginalTicketPrice(\n        uint256 ticketId\n    ) external view returns (uint256);\n\n    function getResaleTicketPrice(\n        uint256 ticketId\n    ) external view returns (uint256);\n\n    function transferTicket(uint256 ticketId, address newOwner) external;\n\n    function listTicketForResale(\n        uint256 ticketId,\n        uint256 resalePrice\n    ) external;\n\n    function unlistTicketFromResale(uint256 ticketId) external;\n\n    function cancelTicket(uint256 ticketId) external;\n}\n\ncontract TicketMgmt is ERC721URIStorage, ITicketMgmt {\n    constructor() ERC721(\"TicketMister\", \"TMT\") {}\n\n    // counter for ticketId - incremented each time a new tick is created;\n    uint256 private ticketCounter;\n\n    // mapping of ticketId to TicketInfo\n    mapping(uint256 => TicketInfo) public tickets;\n\n    struct TicketInfo {\n        uint256 ticketId;\n        uint256 eventId;\n        uint256 categoryId;\n        address owner;\n        bool isOnSale;\n        uint256 originalPrice;\n        uint256 resalePrice;\n    }\n\n    event TicketsCreated(\n        uint256 eventId,\n        uint256 categoryId,\n        uint256 numberOfTickets,\n        address owner\n    );\n    event TicketTransferred(\n        uint256 ticketId,\n        address previousOwner,\n        address newOwner\n    );\n    event TicketListedForResale(\n        uint256 ticketId,\n        address owner,\n        uint256 resalePrice\n    );\n    event TicketUnlistedFromResale(uint256 ticketId, address owner);\n    event TicketCancelled(uint256 ticketId);\n\n    function createTickets(\n        uint256 eventId,\n        uint256 categoryId,\n        uint256 ticketPrice,\n        uint256 numberOfTickets\n    ) external override returns (uint256[] memory ticketIds) {\n        ticketIds = new uint256[](numberOfTickets);\n\n        for (uint256 i = 0; i < numberOfTickets; i++) {\n            uint256 ticketId = ticketCounter;\n            ticketCounter++;\n            require(\n                !_exists(ticketId),\n                \"Ticket token has already been created.\"\n            );\n            _safeMint(tx.origin, ticketId);\n\n            TicketInfo memory newTicket = TicketInfo({\n                ticketId: ticketId,\n                eventId: eventId,\n                categoryId: categoryId,\n                owner: tx.origin,\n                isOnSale: true,\n                originalPrice: ticketPrice,\n                resalePrice: 0\n            });\n\n            tickets[ticketId] = newTicket;\n            ticketIds[i] = ticketId;\n        }\n\n        emit TicketsCreated(eventId, categoryId, numberOfTickets, tx.origin);\n        return ticketIds;\n    }\n\n    function cancelTicket(uint256 ticketId) external override {\n        _burn(ticketId);\n        delete tickets[ticketId];\n        emit TicketCancelled(ticketId);\n    }\n\n    function getTicketInfo(\n        uint256 ticketId\n    )\n        external\n        view\n        override\n        returns (uint256, uint256, address, bool, uint256, uint256)\n    {\n        require(\n            (ticketId >= 0) && (ticketId < ticketCounter),\n            \"Ticket does not exist!\"\n        );\n        TicketInfo memory ticketInfo = tickets[ticketId];\n        return (\n            ticketInfo.eventId,\n            ticketInfo.categoryId,\n            ticketInfo.owner,\n            ticketInfo.isOnSale,\n            ticketInfo.originalPrice,\n            ticketInfo.resalePrice\n        );\n    }\n\n    function getEventId(\n        uint256 ticketId\n    ) public view override returns (uint256) {\n        require(\n            (ticketId >= 0) && (ticketId < ticketCounter),\n            \"Ticket does not exist!\"\n        );\n        return tickets[ticketId].eventId;\n    }\n\n    function getTicketOwner(\n        uint256 ticketId\n    ) public view override returns (address) {\n        require(\n            (ticketId >= 0) && (ticketId < ticketCounter),\n            \"Ticket does not exist!\"\n        );\n        return tickets[ticketId].owner;\n    }\n\n    function isForSale(uint256 ticketId) public view override returns (bool) {\n        require(\n            (ticketId >= 0) && (ticketId < ticketCounter),\n            \"Ticket does not exist!\"\n        );\n        return tickets[ticketId].isOnSale;\n    }\n\n    function getOriginalTicketPrice(\n        uint256 ticketId\n    ) public view override returns (uint256) {\n        require(\n            (ticketId >= 0) && (ticketId < ticketCounter),\n            \"Ticket does not exist!\"\n        );\n        return tickets[ticketId].originalPrice;\n    }\n\n    function getResaleTicketPrice(\n        uint256 ticketId\n    ) public view override returns (uint256) {\n        require(\n            (ticketId >= 0) && (ticketId < ticketCounter),\n            \"Ticket does not exist!\"\n        );\n        return tickets[ticketId].resalePrice;\n    }\n\n    function transferTicket(\n        uint256 ticketId,\n        address newOwner\n    ) public override {\n        require(\n            (ticketId >= 0) && (ticketId < ticketCounter),\n            \"Ticket does not exist!\"\n        );\n        address currentOwner = tickets[ticketId].owner;\n        _transfer(currentOwner, newOwner, ticketId);\n        tickets[ticketId].owner = newOwner;\n        tickets[ticketId].isOnSale = false;\n        emit TicketTransferred(ticketId, currentOwner, newOwner);\n    }\n\n    function listTicketForResale(\n        uint256 ticketId,\n        uint256 resalePrice\n    ) public override {\n        require(\n            (ticketId >= 0) && (ticketId < ticketCounter),\n            \"Ticket does not exist!\"\n        );\n        tickets[ticketId].isOnSale = true;\n        tickets[ticketId].resalePrice = resalePrice;\n        emit TicketListedForResale(ticketId, tx.origin, resalePrice);\n    }\n\n    function unlistTicketFromResale(uint256 ticketId) public override{\n        require(\n            (ticketId >= 0) && (ticketId < ticketCounter),\n            \"Ticket does not exist!\"\n        );\n        tickets[ticketId].isOnSale = false;\n        emit TicketUnlistedFromResale(ticketId, tx.origin);\n    }\n    \n}\n",
  "sourcePath": "/Users/yaner/Documents/NUS/Y2S2/IS4302/ticketmister/contracts/TicketMgmt.sol",
  "compiler": {
    "name": "solc",
    "version": "0.8.1+commit.df193b15.Emscripten.clang"
  },
  "schemaVersion": "3.3.3",
  "updatedAt": "2024-04-20T08:29:23.564Z",
  "networkType": "ethereum",
  "devdoc": {
    "kind": "dev",
    "methods": {
      "approve(address,uint256)": {
        "details": "See {IERC721-approve}."
      },
      "balanceOf(address)": {
        "details": "See {IERC721-balanceOf}."
      },
      "getApproved(uint256)": {
        "details": "See {IERC721-getApproved}."
      },
      "isApprovedForAll(address,address)": {
        "details": "See {IERC721-isApprovedForAll}."
      },
      "name()": {
        "details": "See {IERC721Metadata-name}."
      },
      "ownerOf(uint256)": {
        "details": "See {IERC721-ownerOf}."
      },
      "safeTransferFrom(address,address,uint256)": {
        "details": "See {IERC721-safeTransferFrom}."
      },
      "safeTransferFrom(address,address,uint256,bytes)": {
        "details": "See {IERC721-safeTransferFrom}."
      },
      "setApprovalForAll(address,bool)": {
        "details": "See {IERC721-setApprovalForAll}."
      },
      "supportsInterface(bytes4)": {
        "details": "See {IERC165-supportsInterface}."
      },
      "symbol()": {
        "details": "See {IERC721Metadata-symbol}."
      },
      "tokenURI(uint256)": {
        "details": "See {IERC721Metadata-tokenURI}."
      },
      "transferFrom(address,address,uint256)": {
        "details": "See {IERC721-transferFrom}."
      }
    },
    "version": 1
  },
  "userdoc": {
    "kind": "user",
    "methods": {},
    "version": 1
  }
}