{
  "contractName": "TicketMkt",
  "abi": [
    {
      "inputs": [
        {
          "internalType": "address",
          "name": "_eventMgmtAddress",
          "type": "address"
        }
      ],
      "stateMutability": "nonpayable",
      "type": "constructor"
    },
    {
      "anonymous": false,
      "inputs": [
        {
          "indexed": false,
          "internalType": "uint256",
          "name": "ticketId",
          "type": "uint256"
        },
        {
          "indexed": false,
          "internalType": "address",
          "name": "buyer",
          "type": "address"
        },
        {
          "indexed": false,
          "internalType": "address",
          "name": "seller",
          "type": "address"
        }
      ],
      "name": "ticketBought",
      "type": "event"
    },
    {
      "inputs": [
        {
          "internalType": "string",
          "name": "eventName",
          "type": "string"
        },
        {
          "internalType": "string",
          "name": "eventDescription",
          "type": "string"
        },
        {
          "internalType": "uint256",
          "name": "maxResalePercentage",
          "type": "uint256"
        }
      ],
      "name": "createEvent",
      "outputs": [
        {
          "internalType": "uint256",
          "name": "eventId",
          "type": "uint256"
        }
      ],
      "stateMutability": "nonpayable",
      "type": "function"
    },
    {
      "inputs": [
        {
          "internalType": "uint256",
          "name": "eventId",
          "type": "uint256"
        },
        {
          "internalType": "string",
          "name": "categoryName",
          "type": "string"
        },
        {
          "internalType": "string",
          "name": "categoryDescription",
          "type": "string"
        },
        {
          "internalType": "uint256",
          "name": "ticketPrice",
          "type": "uint256"
        },
        {
          "internalType": "uint256",
          "name": "numberOfTickets",
          "type": "uint256"
        }
      ],
      "name": "createTicketCategory",
      "outputs": [
        {
          "internalType": "uint256",
          "name": "categoryId",
          "type": "uint256"
        }
      ],
      "stateMutability": "nonpayable",
      "type": "function"
    },
    {
      "inputs": [
        {
          "internalType": "uint256",
          "name": "eventId",
          "type": "uint256"
        },
        {
          "internalType": "string",
          "name": "newDescription",
          "type": "string"
        }
      ],
      "name": "updateEventDescription",
      "outputs": [],
      "stateMutability": "nonpayable",
      "type": "function"
    },
    {
      "inputs": [
        {
          "internalType": "uint256",
          "name": "eventId",
          "type": "uint256"
        },
        {
          "internalType": "uint256",
          "name": "newMaxPercentage",
          "type": "uint256"
        }
      ],
      "name": "updateMaxResalePercentage",
      "outputs": [],
      "stateMutability": "nonpayable",
      "type": "function"
    },
    {
      "inputs": [
        {
          "internalType": "uint256",
          "name": "eventId",
          "type": "uint256"
        }
      ],
      "name": "cancelEventAndRefund",
      "outputs": [],
      "stateMutability": "payable",
      "type": "function",
      "payable": true
    },
    {
      "inputs": [
        {
          "internalType": "uint256",
          "name": "ticketId",
          "type": "uint256"
        }
      ],
      "name": "buyTicket",
      "outputs": [],
      "stateMutability": "payable",
      "type": "function",
      "payable": true
    },
    {
      "inputs": [
        {
          "internalType": "uint256",
          "name": "ticketId",
          "type": "uint256"
        },
        {
          "internalType": "uint256",
          "name": "resalePrice",
          "type": "uint256"
        }
      ],
      "name": "listTicketForResale",
      "outputs": [],
      "stateMutability": "nonpayable",
      "type": "function"
    },
    {
      "inputs": [
        {
          "internalType": "uint256",
          "name": "ticketId",
          "type": "uint256"
        }
      ],
      "name": "unlistTicketFromResale",
      "outputs": [],
      "stateMutability": "nonpayable",
      "type": "function"
    },
    {
      "inputs": [
        {
          "internalType": "uint256",
          "name": "eventId",
          "type": "uint256"
        }
      ],
      "name": "getEventInfo",
      "outputs": [
        {
          "internalType": "string",
          "name": "eventName",
          "type": "string"
        },
        {
          "internalType": "address",
          "name": "eventOrganiser",
          "type": "address"
        },
        {
          "internalType": "string",
          "name": "eventDescription",
          "type": "string"
        },
        {
          "internalType": "uint256",
          "name": "maxResalePercentage",
          "type": "uint256"
        },
        {
          "internalType": "bool",
          "name": "isActive",
          "type": "bool"
        },
        {
          "internalType": "uint256[]",
          "name": "categoryIds",
          "type": "uint256[]"
        }
      ],
      "stateMutability": "view",
      "type": "function",
      "constant": true
    },
    {
      "inputs": [
        {
          "internalType": "uint256",
          "name": "categoryId",
          "type": "uint256"
        }
      ],
      "name": "getCategoryInfo",
      "outputs": [
        {
          "internalType": "uint256",
          "name": "eventId",
          "type": "uint256"
        },
        {
          "internalType": "string",
          "name": "categoryName",
          "type": "string"
        },
        {
          "internalType": "string",
          "name": "categoryDescription",
          "type": "string"
        },
        {
          "internalType": "uint256",
          "name": "ticketPrice",
          "type": "uint256"
        },
        {
          "internalType": "uint256[]",
          "name": "ticketIds",
          "type": "uint256[]"
        }
      ],
      "stateMutability": "view",
      "type": "function",
      "constant": true
    },
    {
      "inputs": [
        {
          "internalType": "uint256",
          "name": "ticketId",
          "type": "uint256"
        }
      ],
      "name": "getTicketInfo",
      "outputs": [
        {
          "internalType": "uint256",
          "name": "eventId",
          "type": "uint256"
        },
        {
          "internalType": "uint256",
          "name": "categoryId",
          "type": "uint256"
        },
        {
          "internalType": "address",
          "name": "owner",
          "type": "address"
        },
        {
          "internalType": "bool",
          "name": "isOnSale",
          "type": "bool"
        },
        {
          "internalType": "uint256",
          "name": "originalPrice",
          "type": "uint256"
        },
        {
          "internalType": "uint256",
          "name": "resalePrice",
          "type": "uint256"
        }
      ],
      "stateMutability": "view",
      "type": "function",
      "constant": true
    },
    {
      "inputs": [
        {
          "internalType": "uint256",
          "name": "eventId",
          "type": "uint256"
        }
      ],
      "name": "getEventTickets",
      "outputs": [
        {
          "internalType": "uint256[]",
          "name": "eventTickets",
          "type": "uint256[]"
        }
      ],
      "stateMutability": "view",
      "type": "function",
      "constant": true
    },
    {
      "inputs": [
        {
          "internalType": "uint256",
          "name": "categoryId",
          "type": "uint256"
        }
      ],
      "name": "getCategoryTickets",
      "outputs": [
        {
          "internalType": "uint256[]",
          "name": "categoryTickets",
          "type": "uint256[]"
        }
      ],
      "stateMutability": "view",
      "type": "function",
      "constant": true
    }
  ],
  "bytecode": "0x60806040523480156200001157600080fd5b506040516200387838038062003878833981810160405281019062000037919062000095565b806000806101000a81548173ffffffffffffffffffffffffffffffffffffffff021916908373ffffffffffffffffffffffffffffffffffffffff160217905550506200010f565b6000815190506200008f81620000f5565b92915050565b600060208284031215620000a857600080fd5b6000620000b8848285016200007e565b91505092915050565b6000620000ce82620000d5565b9050919050565b600073ffffffffffffffffffffffffffffffffffffffff82169050919050565b6200010081620000c1565b81146200010c57600080fd5b50565b613759806200011f6000396000f3fe6080604052600436106100c25760003560e01c80636c23b7c61161007f578063c371138311610059578063c37113831461025f578063ca261ce1146102a0578063e78ab4f7146102dd578063ff99a0631461031a576100c2565b80636c23b7c6146101dd57806393dca79d14610206578063c0fb742714610222576100c2565b80631d645b12146100c75780635555fe171461010957806359cda41f146101465780635b906bd71461016f5780636053b0ef1461019857806367dd74ca146101c1575b600080fd5b3480156100d357600080fd5b506100ee60048036038101906100e99190612955565b61035c565b60405161010096959493929190612e4b565b60405180910390f35b34801561011557600080fd5b50610130600480360381019061012b91906128d6565b61042a565b60405161013d9190613006565b60405180910390f35b34801561015257600080fd5b5061016d60048036038101906101689190612b61565b61054b565b005b34801561017b57600080fd5b5061019660048036038101906101919190612955565b6106c8565b005b3480156101a457600080fd5b506101bf60048036038101906101ba9190612b61565b610aab565b005b6101db60048036038101906101d69190612955565b610f0f565b005b3480156101e957600080fd5b5061020460048036038101906101ff91906129a7565b6115cd565b005b610220600480360381019061021b9190612955565b61174a565b005b34801561022e57600080fd5b5061024960048036038101906102449190612955565b611ba5565b6040516102569190612e29565b60405180910390f35b34801561026b57600080fd5b5061028660048036038101906102819190612955565b611c5c565b6040516102979594939291906130b1565b60405180910390f35b3480156102ac57600080fd5b506102c760048036038101906102c29190612955565b611d26565b6040516102d49190612e29565b60405180910390f35b3480156102e957600080fd5b5061030460048036038101906102ff9190612aba565b611ddd565b6040516103119190613006565b60405180910390f35b34801561032657600080fd5b50610341600480360381019061033c9190612955565b61217d565b604051610353969594939291906131a3565b60405180910390f35b606060006060600080606060008054906101000a900473ffffffffffffffffffffffffffffffffffffffff1673ffffffffffffffffffffffffffffffffffffffff16631d645b12886040518263ffffffff1660e01b81526004016103c09190613006565b60006040518083038186803b1580156103d857600080fd5b505afa1580156103ec573d6000803e3d6000fd5b505050506040513d6000823e3d601f19601f820116820180604052508101906104159190612805565b95509550955095509550955091939550919395565b60008060009054906101000a900473ffffffffffffffffffffffffffffffffffffffff1673ffffffffffffffffffffffffffffffffffffffff16635555fe178585856040518463ffffffff1660e01b815260040161048a93929190612ec1565b602060405180830381600087803b1580156104a457600080fd5b505af11580156104b8573d6000803e3d6000fd5b505050506040513d601f19601f820116820180604052508101906104dc919061297e565b9050600160003373ffffffffffffffffffffffffffffffffffffffff1673ffffffffffffffffffffffffffffffffffffffff1681526020019081526020016000208190806001815401808255809150506001900390600052602060002001600090919091909150559392505050565b8160008054906101000a900473ffffffffffffffffffffffffffffffffffffffff1673ffffffffffffffffffffffffffffffffffffffff1663f1f04baa82336040518363ffffffff1660e01b81526004016105a7929190613021565b60206040518083038186803b1580156105bf57600080fd5b505afa1580156105d3573d6000803e3d6000fd5b505050506040513d601f19601f820116820180604052508101906105f791906127dc565b610636576040517f08c379a000000000000000000000000000000000000000000000000000000000815260040161062d90612f86565b60405180910390fd5b60008054906101000a900473ffffffffffffffffffffffffffffffffffffffff1673ffffffffffffffffffffffffffffffffffffffff166359cda41f84846040518363ffffffff1660e01b815260040161069192919061317a565b600060405180830381600087803b1580156106ab57600080fd5b505af11580156106bf573d6000803e3d6000fd5b50505050505050565b3373ffffffffffffffffffffffffffffffffffffffff1660008054906101000a900473ffffffffffffffffffffffffffffffffffffffff1673ffffffffffffffffffffffffffffffffffffffff1663ad093409836040518263ffffffff1660e01b81526004016107389190613006565b60206040518083038186803b15801561075057600080fd5b505afa158015610764573d6000803e3d6000fd5b505050506040513d601f19601f820116820180604052508101906107889190612772565b73ffffffffffffffffffffffffffffffffffffffff16146107de576040517f08c379a00000000000000000000000000000000000000000000000000000000081526004016107d590612fa6565b60405180910390fd5b6001151560008054906101000a900473ffffffffffffffffffffffffffffffffffffffff1673ffffffffffffffffffffffffffffffffffffffff16638546d002836040518263ffffffff1660e01b815260040161083b9190613006565b60206040518083038186803b15801561085357600080fd5b505afa158015610867573d6000803e3d6000fd5b505050506040513d601f19601f8201168201806040525081019061088b91906127dc565b1515146108cd576040517f08c379a00000000000000000000000000000000000000000000000000000000081526004016108c490612f26565b60405180910390fd5b60008054906101000a900473ffffffffffffffffffffffffffffffffffffffff1673ffffffffffffffffffffffffffffffffffffffff16635b906bd7826040518263ffffffff1660e01b81526004016109269190613006565b600060405180830381600087803b15801561094057600080fd5b505af1158015610954573d6000803e3d6000fd5b5050505060008060009054906101000a900473ffffffffffffffffffffffffffffffffffffffff1673ffffffffffffffffffffffffffffffffffffffff1663c3be559b836040518263ffffffff1660e01b81526004016109b49190613006565b60206040518083038186803b1580156109cc57600080fd5b505afa1580156109e0573d6000803e3d6000fd5b505050506040513d601f19601f82011682018060405250810190610a04919061297e565b905060005b6003600083815260200190815260200160002080549050811015610aa65782600360008481526020019081526020016000208281548110610a73577f4e487b7100000000000000000000000000000000000000000000000000000000600052603260045260246000fd5b90600052602060002001541415610a9357610a8e8282612244565b610aa6565b8080610a9e90613420565b915050610a09565b505050565b3373ffffffffffffffffffffffffffffffffffffffff1660008054906101000a900473ffffffffffffffffffffffffffffffffffffffff1673ffffffffffffffffffffffffffffffffffffffff1663ad093409846040518263ffffffff1660e01b8152600401610b1b9190613006565b60206040518083038186803b158015610b3357600080fd5b505afa158015610b47573d6000803e3d6000fd5b505050506040513d601f19601f82011682018060405250810190610b6b9190612772565b73ffffffffffffffffffffffffffffffffffffffff1614610bc1576040517f08c379a0000000000000000000000000000000000000000000000000000000008152600401610bb890612fa6565b60405180910390fd5b6000151560008054906101000a900473ffffffffffffffffffffffffffffffffffffffff1673ffffffffffffffffffffffffffffffffffffffff16638546d002846040518263ffffffff1660e01b8152600401610c1e9190613006565b60206040518083038186803b158015610c3657600080fd5b505afa158015610c4a573d6000803e3d6000fd5b505050506040513d601f19601f82011682018060405250810190610c6e91906127dc565b151514610cb0576040517f08c379a0000000000000000000000000000000000000000000000000000000008152600401610ca790612f46565b60405180910390fd5b60008054906101000a900473ffffffffffffffffffffffffffffffffffffffff1673ffffffffffffffffffffffffffffffffffffffff16635c744769836040518263ffffffff1660e01b8152600401610d099190613006565b60206040518083038186803b158015610d2157600080fd5b505afa158015610d35573d6000803e3d6000fd5b505050506040513d601f19601f82011682018060405250810190610d59919061297e565b811115610d9b576040517f08c379a0000000000000000000000000000000000000000000000000000000008152600401610d9290612f06565b60405180910390fd5b60008054906101000a900473ffffffffffffffffffffffffffffffffffffffff1673ffffffffffffffffffffffffffffffffffffffff16636053b0ef83836040518363ffffffff1660e01b8152600401610df692919061317a565b600060405180830381600087803b158015610e1057600080fd5b505af1158015610e24573d6000803e3d6000fd5b50505050600360008060009054906101000a900473ffffffffffffffffffffffffffffffffffffffff1673ffffffffffffffffffffffffffffffffffffffff1663c3be559b856040518263ffffffff1660e01b8152600401610e869190613006565b60206040518083038186803b158015610e9e57600080fd5b505afa158015610eb2573d6000803e3d6000fd5b505050506040513d601f19601f82011682018060405250810190610ed6919061297e565b81526020019081526020016000208290806001815401808255809150506001900390600052602060002001600090919091909150555050565b60008054906101000a900473ffffffffffffffffffffffffffffffffffffffff1673ffffffffffffffffffffffffffffffffffffffff16638546d002826040518263ffffffff1660e01b8152600401610f689190613006565b60206040518083038186803b158015610f8057600080fd5b505afa158015610f94573d6000803e3d6000fd5b505050506040513d601f19601f82011682018060405250810190610fb891906127dc565b610ff7576040517f08c379a0000000000000000000000000000000000000000000000000000000008152600401610fee90612fe6565b60405180910390fd5b60008060009054906101000a900473ffffffffffffffffffffffffffffffffffffffff1673ffffffffffffffffffffffffffffffffffffffff1663f06fc961836040518263ffffffff1660e01b81526004016110539190613006565b60206040518083038186803b15801561106b57600080fd5b505afa15801561107f573d6000803e3d6000fd5b505050506040513d601f19601f820116820180604052508101906110a3919061297e565b90508034146110e7576040517f08c379a00000000000000000000000000000000000000000000000000000000081526004016110de90612fc6565b60405180910390fd5b60008060009054906101000a900473ffffffffffffffffffffffffffffffffffffffff1673ffffffffffffffffffffffffffffffffffffffff1663ad093409846040518263ffffffff1660e01b81526004016111439190613006565b60206040518083038186803b15801561115b57600080fd5b505afa15801561116f573d6000803e3d6000fd5b505050506040513d601f19601f820116820180604052508101906111939190612772565b90508073ffffffffffffffffffffffffffffffffffffffff163373ffffffffffffffffffffffffffffffffffffffff161415611204576040517f08c379a00000000000000000000000000000000000000000000000000000000081526004016111fb90612f66565b60405180910390fd5b60008054906101000a900473ffffffffffffffffffffffffffffffffffffffff1673ffffffffffffffffffffffffffffffffffffffff1663679ebf1a84336040518363ffffffff1660e01b815260040161125f929190613021565b600060405180830381600087803b15801561127957600080fd5b505af115801561128d573d6000803e3d6000fd5b5050505060008190508073ffffffffffffffffffffffffffffffffffffffff166108fc349081150290604051600060405180830381858888f193505050501580156112dc573d6000803e3d6000fd5b5060005b600260008473ffffffffffffffffffffffffffffffffffffffff1673ffffffffffffffffffffffffffffffffffffffff168152602001908152602001600020805490508110156113d55784600260008573ffffffffffffffffffffffffffffffffffffffff1673ffffffffffffffffffffffffffffffffffffffff16815260200190815260200160002082815481106113a2577f4e487b7100000000000000000000000000000000000000000000000000000000600052603260045260246000fd5b906000526020600020015414156113c2576113bd83826123a6565b6113d5565b80806113cd90613420565b9150506112e0565b50600260003373ffffffffffffffffffffffffffffffffffffffff1673ffffffffffffffffffffffffffffffffffffffff16815260200190815260200160002084908060018154018082558091505060019003906000526020600020016000909190919091505560008060009054906101000a900473ffffffffffffffffffffffffffffffffffffffff1673ffffffffffffffffffffffffffffffffffffffff1663c3be559b866040518263ffffffff1660e01b81526004016114989190613006565b60206040518083038186803b1580156114b057600080fd5b505afa1580156114c4573d6000803e3d6000fd5b505050506040513d601f19601f820116820180604052508101906114e8919061297e565b905060005b600360008381526020019081526020016000208054905081101561158a5785600360008481526020019081526020016000208281548110611557577f4e487b7100000000000000000000000000000000000000000000000000000000600052603260045260246000fd5b90600052602060002001541415611577576115728282612244565b61158a565b808061158290613420565b9150506114ed565b507fdbbdbdbebcc77cbb6a5bbf2c2190b7462f85d855cad3a985652b1bde31b293f08533856040516115be9392919061304a565b60405180910390a15050505050565b8160008054906101000a900473ffffffffffffffffffffffffffffffffffffffff1673ffffffffffffffffffffffffffffffffffffffff1663f1f04baa82336040518363ffffffff1660e01b8152600401611629929190613021565b60206040518083038186803b15801561164157600080fd5b505afa158015611655573d6000803e3d6000fd5b505050506040513d601f19601f8201168201806040525081019061167991906127dc565b6116b8576040517f08c379a00000000000000000000000000000000000000000000000000000000081526004016116af90612f86565b60405180910390fd5b60008054906101000a900473ffffffffffffffffffffffffffffffffffffffff1673ffffffffffffffffffffffffffffffffffffffff16636c23b7c684846040518363ffffffff1660e01b8152600401611713929190613081565b600060405180830381600087803b15801561172d57600080fd5b505af1158015611741573d6000803e3d6000fd5b50505050505050565b8060008054906101000a900473ffffffffffffffffffffffffffffffffffffffff1673ffffffffffffffffffffffffffffffffffffffff1663f1f04baa82336040518363ffffffff1660e01b81526004016117a6929190613021565b60206040518083038186803b1580156117be57600080fd5b505afa1580156117d2573d6000803e3d6000fd5b505050506040513d601f19601f820116820180604052508101906117f691906127dc565b611835576040517f08c379a000000000000000000000000000000000000000000000000000000000815260040161182c90612f86565b60405180910390fd5b600061184083611d26565b905060005b8151811015611b9f576000828281518110611889577f4e487b7100000000000000000000000000000000000000000000000000000000600052603260045260246000fd5b6020026020010151905060008060009054906101000a900473ffffffffffffffffffffffffffffffffffffffff1673ffffffffffffffffffffffffffffffffffffffff1663ad093409836040518263ffffffff1660e01b81526004016118ef9190613006565b60206040518083038186803b15801561190757600080fd5b505afa15801561191b573d6000803e3d6000fd5b505050506040513d601f19601f8201168201806040525081019061193f9190612772565b905060005b600260008373ffffffffffffffffffffffffffffffffffffffff1673ffffffffffffffffffffffffffffffffffffffff16815260200190815260200160002080549050811015611a395782600260008473ffffffffffffffffffffffffffffffffffffffff1673ffffffffffffffffffffffffffffffffffffffff1681526020019081526020016000208581548110611a06577f4e487b7100000000000000000000000000000000000000000000000000000000600052603260045260246000fd5b90600052602060002001541415611a2657611a2182826123a6565b611a39565b8080611a3190613420565b915050611944565b5060008054906101000a900473ffffffffffffffffffffffffffffffffffffffff1673ffffffffffffffffffffffffffffffffffffffff16638546d002836040518263ffffffff1660e01b8152600401611a939190613006565b60206040518083038186803b158015611aab57600080fd5b505afa158015611abf573d6000803e3d6000fd5b505050506040513d601f19601f82011682018060405250810190611ae391906127dc565b15611b8a5760005b6003600088815260200190815260200160002080549050811015611b885782600360008981526020019081526020016000208581548110611b55577f4e487b7100000000000000000000000000000000000000000000000000000000600052603260045260246000fd5b90600052602060002001541415611b7557611b708782612244565b611b88565b8080611b8090613420565b915050611aeb565b505b50508080611b9790613420565b915050611845565b50505050565b606060008054906101000a900473ffffffffffffffffffffffffffffffffffffffff1673ffffffffffffffffffffffffffffffffffffffff1663c0fb7427836040518263ffffffff1660e01b8152600401611c009190613006565b60006040518083038186803b158015611c1857600080fd5b505afa158015611c2c573d6000803e3d6000fd5b505050506040513d6000823e3d601f19601f82011682018060405250810190611c55919061279b565b9050919050565b60006060806000606060008054906101000a900473ffffffffffffffffffffffffffffffffffffffff1673ffffffffffffffffffffffffffffffffffffffff1663c3711383876040518263ffffffff1660e01b8152600401611cbe9190613006565b60006040518083038186803b158015611cd657600080fd5b505afa158015611cea573d6000803e3d6000fd5b505050506040513d6000823e3d601f19601f82011682018060405250810190611d1391906129fb565b9450945094509450945091939590929450565b606060008054906101000a900473ffffffffffffffffffffffffffffffffffffffff1673ffffffffffffffffffffffffffffffffffffffff1663ca261ce1836040518263ffffffff1660e01b8152600401611d819190613006565b60006040518083038186803b158015611d9957600080fd5b505afa158015611dad573d6000803e3d6000fd5b505050506040513d6000823e3d601f19601f82011682018060405250810190611dd6919061279b565b9050919050565b60008560008054906101000a900473ffffffffffffffffffffffffffffffffffffffff1673ffffffffffffffffffffffffffffffffffffffff1663f1f04baa82336040518363ffffffff1660e01b8152600401611e3b929190613021565b60206040518083038186803b158015611e5357600080fd5b505afa158015611e67573d6000803e3d6000fd5b505050506040513d601f19601f82011682018060405250810190611e8b91906127dc565b611eca576040517f08c379a0000000000000000000000000000000000000000000000000000000008152600401611ec190612f86565b60405180910390fd5b60008054906101000a900473ffffffffffffffffffffffffffffffffffffffff1673ffffffffffffffffffffffffffffffffffffffff1663cf52f78088888888886040518663ffffffff1660e01b8152600401611f2b959493929190613119565b602060405180830381600087803b158015611f4557600080fd5b505af1158015611f59573d6000803e3d6000fd5b505050506040513d601f19601f82011682018060405250810190611f7d919061297e565b915060008060009054906101000a900473ffffffffffffffffffffffffffffffffffffffff1673ffffffffffffffffffffffffffffffffffffffff1663c0fb7427846040518263ffffffff1660e01b8152600401611fdb9190613006565b60006040518083038186803b158015611ff357600080fd5b505afa158015612007573d6000803e3d6000fd5b505050506040513d6000823e3d601f19601f82011682018060405250810190612030919061279b565b905060005b815181101561217157600260003373ffffffffffffffffffffffffffffffffffffffff1673ffffffffffffffffffffffffffffffffffffffff1681526020019081526020016000208282815181106120b6577f4e487b7100000000000000000000000000000000000000000000000000000000600052603260045260246000fd5b60200260200101519080600181540180825580915050600190039060005260206000200160009091909190915055600360008a8152602001908152602001600020828281518110612130577f4e487b7100000000000000000000000000000000000000000000000000000000600052603260045260246000fd5b60200260200101519080600181540180825580915050600190039060005260206000200160009091909190915055808061216990613420565b915050612035565b50505095945050505050565b60008060008060008060008054906101000a900473ffffffffffffffffffffffffffffffffffffffff1673ffffffffffffffffffffffffffffffffffffffff1663ff99a063886040518263ffffffff1660e01b81526004016121df9190613006565b60c06040518083038186803b1580156121f757600080fd5b505afa15801561220b573d6000803e3d6000fd5b505050506040513d601f19601f8201168201806040525081019061222f9190612b9d565b95509550955095509550955091939550919395565b60008190505b6001600360008581526020019081526020016000208054905061226d9190613331565b811015612342576003600084815260200190815260200160002060018261229491906132db565b815481106122cb577f4e487b7100000000000000000000000000000000000000000000000000000000600052603260045260246000fd5b9060005260206000200154600360008581526020019081526020016000208281548110612321577f4e487b7100000000000000000000000000000000000000000000000000000000600052603260045260246000fd5b9060005260206000200181905550808061233a90613420565b91505061224a565b506003600083815260200190815260200160002080548061238c577f4e487b7100000000000000000000000000000000000000000000000000000000600052603160045260246000fd5b600190038181906000526020600020016000905590555050565b60008190505b6001600260008573ffffffffffffffffffffffffffffffffffffffff1673ffffffffffffffffffffffffffffffffffffffff168152602001908152602001600020805490506123fb9190613331565b81101561252857600260008473ffffffffffffffffffffffffffffffffffffffff1673ffffffffffffffffffffffffffffffffffffffff16815260200190815260200160002060018261244e91906132db565b81548110612485577f4e487b7100000000000000000000000000000000000000000000000000000000600052603260045260246000fd5b9060005260206000200154600260008573ffffffffffffffffffffffffffffffffffffffff1673ffffffffffffffffffffffffffffffffffffffff1681526020019081526020016000208281548110612507577f4e487b7100000000000000000000000000000000000000000000000000000000600052603260045260246000fd5b9060005260206000200181905550808061252090613420565b9150506123ac565b50600260008373ffffffffffffffffffffffffffffffffffffffff1673ffffffffffffffffffffffffffffffffffffffff16815260200190815260200160002080548061259e577f4e487b7100000000000000000000000000000000000000000000000000000000600052603160045260246000fd5b600190038181906000526020600020016000905590555050565b60006125cb6125c684613229565b613204565b905080838252602082019050828560208602820111156125ea57600080fd5b60005b8581101561261a5781612600888261275d565b8452602084019350602083019250506001810190506125ed565b5050509392505050565b600061263761263284613255565b613204565b90508281526020810184848401111561264f57600080fd5b61265a8482856133ad565b509392505050565b600061267561267084613255565b613204565b90508281526020810184848401111561268d57600080fd5b6126988482856133bc565b509392505050565b6000815190506126af816136de565b92915050565b600082601f8301126126c657600080fd5b81516126d68482602086016125b8565b91505092915050565b6000815190506126ee816136f5565b92915050565b600082601f83011261270557600080fd5b8135612715848260208601612624565b91505092915050565b600082601f83011261272f57600080fd5b815161273f848260208601612662565b91505092915050565b6000813590506127578161370c565b92915050565b60008151905061276c8161370c565b92915050565b60006020828403121561278457600080fd5b6000612792848285016126a0565b91505092915050565b6000602082840312156127ad57600080fd5b600082015167ffffffffffffffff8111156127c757600080fd5b6127d3848285016126b5565b91505092915050565b6000602082840312156127ee57600080fd5b60006127fc848285016126df565b91505092915050565b60008060008060008060c0878903121561281e57600080fd5b600087015167ffffffffffffffff81111561283857600080fd5b61284489828a0161271e565b965050602061285589828a016126a0565b955050604087015167ffffffffffffffff81111561287257600080fd5b61287e89828a0161271e565b945050606061288f89828a0161275d565b93505060806128a089828a016126df565b92505060a087015167ffffffffffffffff8111156128bd57600080fd5b6128c989828a016126b5565b9150509295509295509295565b6000806000606084860312156128eb57600080fd5b600084013567ffffffffffffffff81111561290557600080fd5b612911868287016126f4565b935050602084013567ffffffffffffffff81111561292e57600080fd5b61293a868287016126f4565b925050604061294b86828701612748565b9150509250925092565b60006020828403121561296757600080fd5b600061297584828501612748565b91505092915050565b60006020828403121561299057600080fd5b600061299e8482850161275d565b91505092915050565b600080604083850312156129ba57600080fd5b60006129c885828601612748565b925050602083013567ffffffffffffffff8111156129e557600080fd5b6129f1858286016126f4565b9150509250929050565b600080600080600060a08688031215612a1357600080fd5b6000612a218882890161275d565b955050602086015167ffffffffffffffff811115612a3e57600080fd5b612a4a8882890161271e565b945050604086015167ffffffffffffffff811115612a6757600080fd5b612a738882890161271e565b9350506060612a848882890161275d565b925050608086015167ffffffffffffffff811115612aa157600080fd5b612aad888289016126b5565b9150509295509295909350565b600080600080600060a08688031215612ad257600080fd5b6000612ae088828901612748565b955050602086013567ffffffffffffffff811115612afd57600080fd5b612b09888289016126f4565b945050604086013567ffffffffffffffff811115612b2657600080fd5b612b32888289016126f4565b9350506060612b4388828901612748565b9250506080612b5488828901612748565b9150509295509295909350565b60008060408385031215612b7457600080fd5b6000612b8285828601612748565b9250506020612b9385828601612748565b9150509250929050565b60008060008060008060c08789031215612bb657600080fd5b6000612bc489828a0161275d565b9650506020612bd589828a0161275d565b9550506040612be689828a016126a0565b9450506060612bf789828a016126df565b9350506080612c0889828a0161275d565b92505060a0612c1989828a0161275d565b9150509295509295509295565b6000612c328383612e0b565b60208301905092915050565b612c4781613365565b82525050565b6000612c5882613296565b612c6281856132b9565b9350612c6d83613286565b8060005b83811015612c9e578151612c858882612c26565b9750612c90836132ac565b925050600181019050612c71565b5085935050505092915050565b612cb481613377565b82525050565b6000612cc5826132a1565b612ccf81856132ca565b9350612cdf8185602086016133bc565b612ce8816134c7565b840191505092915050565b6000612d00603c836132ca565b9150612d0b826134d8565b604082019050919050565b6000612d236023836132ca565b9150612d2e82613527565b604082019050919050565b6000612d466027836132ca565b9150612d5182613576565b604082019050919050565b6000612d69601c836132ca565b9150612d74826135c5565b602082019050919050565b6000612d8c602d836132ca565b9150612d97826135ee565b604082019050919050565b6000612daf601b836132ca565b9150612dba8261363d565b602082019050919050565b6000612dd26036836132ca565b9150612ddd82613666565b604082019050919050565b6000612df5601c836132ca565b9150612e00826136b5565b602082019050919050565b612e14816133a3565b82525050565b612e23816133a3565b82525050565b60006020820190508181036000830152612e438184612c4d565b905092915050565b600060c0820190508181036000830152612e658189612cba565b9050612e746020830188612c3e565b8181036040830152612e868187612cba565b9050612e956060830186612e1a565b612ea26080830185612cab565b81810360a0830152612eb48184612c4d565b9050979650505050505050565b60006060820190508181036000830152612edb8186612cba565b90508181036020830152612eef8185612cba565b9050612efe6040830184612e1a565b949350505050565b60006020820190508181036000830152612f1f81612cf3565b9050919050565b60006020820190508181036000830152612f3f81612d16565b9050919050565b60006020820190508181036000830152612f5f81612d39565b9050919050565b60006020820190508181036000830152612f7f81612d5c565b9050919050565b60006020820190508181036000830152612f9f81612d7f565b9050919050565b60006020820190508181036000830152612fbf81612da2565b9050919050565b60006020820190508181036000830152612fdf81612dc5565b9050919050565b60006020820190508181036000830152612fff81612de8565b9050919050565b600060208201905061301b6000830184612e1a565b92915050565b60006040820190506130366000830185612e1a565b6130436020830184612c3e565b9392505050565b600060608201905061305f6000830186612e1a565b61306c6020830185612c3e565b6130796040830184612c3e565b949350505050565b60006040820190506130966000830185612e1a565b81810360208301526130a88184612cba565b90509392505050565b600060a0820190506130c66000830188612e1a565b81810360208301526130d88187612cba565b905081810360408301526130ec8186612cba565b90506130fb6060830185612e1a565b818103608083015261310d8184612c4d565b90509695505050505050565b600060a08201905061312e6000830188612e1a565b81810360208301526131408187612cba565b905081810360408301526131548186612cba565b90506131636060830185612e1a565b6131706080830184612e1a565b9695505050505050565b600060408201905061318f6000830185612e1a565b61319c6020830184612e1a565b9392505050565b600060c0820190506131b86000830189612e1a565b6131c56020830188612e1a565b6131d26040830187612c3e565b6131df6060830186612cab565b6131ec6080830185612e1a565b6131f960a0830184612e1a565b979650505050505050565b600061320e61321f565b905061321a82826133ef565b919050565b6000604051905090565b600067ffffffffffffffff82111561324457613243613498565b5b602082029050602081019050919050565b600067ffffffffffffffff8211156132705761326f613498565b5b613279826134c7565b9050602081019050919050565b6000819050602082019050919050565b600081519050919050565b600081519050919050565b6000602082019050919050565b600082825260208201905092915050565b600082825260208201905092915050565b60006132e6826133a3565b91506132f1836133a3565b9250827fffffffffffffffffffffffffffffffffffffffffffffffffffffffffffffffff0382111561332657613325613469565b5b828201905092915050565b600061333c826133a3565b9150613347836133a3565b92508282101561335a57613359613469565b5b828203905092915050565b600061337082613383565b9050919050565b60008115159050919050565b600073ffffffffffffffffffffffffffffffffffffffff82169050919050565b6000819050919050565b82818337600083830152505050565b60005b838110156133da5780820151818401526020810190506133bf565b838111156133e9576000848401525b50505050565b6133f8826134c7565b810181811067ffffffffffffffff8211171561341757613416613498565b5b80604052505050565b600061342b826133a3565b91507fffffffffffffffffffffffffffffffffffffffffffffffffffffffffffffffff82141561345e5761345d613469565b5b600182019050919050565b7f4e487b7100000000000000000000000000000000000000000000000000000000600052601160045260246000fd5b7f4e487b7100000000000000000000000000000000000000000000000000000000600052604160045260246000fd5b6000601f19601f8301169050919050565b7f526573616c652070726963652063616e6e6f742062652068696768657220746860008201527f616e20746865206d6178696d756d20726573616c652070726963652100000000602082015250565b7f54686973207469636b6574206973206e6f74206c697374656420666f7220736160008201527f6c65210000000000000000000000000000000000000000000000000000000000602082015250565b7f54686973207469636b657420697320616c7265616479206c697374656420666f60008201527f722073616c652100000000000000000000000000000000000000000000000000602082015250565b7f596f7520616c7265616479206f776e2074686973207469636b65742100000000600082015250565b7f4f6e6c79206576656e74206f7267616e697365722063616e20706572666f726d60008201527f207468697320616374696f6e2100000000000000000000000000000000000000602082015250565b7f596f7520646f206e6f74206f776e2074686973207469636b6574210000000000600082015250565b7f596f75206d757374207061792074686520657861637420616d6f756e7420746860008201527f61742074686973206973206c697374656420666f722100000000000000000000602082015250565b7f54686973207469636b6574206973206e6f7420666f722073616c652100000000600082015250565b6136e781613365565b81146136f257600080fd5b50565b6136fe81613377565b811461370957600080fd5b50565b613715816133a3565b811461372057600080fd5b5056fea26469706673582212204ee633c94f92a0cfa6ddd96b96dbb04f20b4920b101eecb8e1f1b44663c3e34364736f6c63430008010033",
  "immutableReferences": {},
  "source": "// SPDX-License-Identifier: UNLICENSED\npragma solidity >=0.6.0 <0.9.0;\npragma experimental ABIEncoderV2;\n\nimport \"../node_modules/@openzeppelin/contracts/token/ERC721/ERC721.sol\";\nimport \"../node_modules/@openzeppelin/contracts/utils/math/SafeMath.sol\";\nimport \"./EventMgmt.sol\";\nimport \"./TicketMgmt.sol\";\n\ncontract TicketMkt {\n    using SafeMath for uint256;\n\n    IEventMgmt private IEventMgmtInstance;\n\n    constructor(address _eventMgmtAddress) {\n        IEventMgmtInstance = IEventMgmt(_eventMgmtAddress);\n    }\n\n    // address of event organiser mapped to an array of eventIds\n    mapping(address => uint256[]) private eventsOrganised;\n    // address of owner mapped to array of ticketIds of the tickets they own\n    mapping(address => uint256[]) private ticketsOwned;\n    // eventId mapped to array of ticketIds of all tickets on sale (whether first sale or resale)\n    mapping(uint256 => uint256[]) private ticketsOnSale;\n\n    event ticketBought(uint256 ticketId, address buyer, address seller);\n\n    /**\n        Main Functions For Event Organisers\n     */\n    function createEvent(\n        string memory eventName,\n        string memory eventDescription,\n        uint256 maxResalePercentage\n    ) public returns (uint256 eventId) {\n        eventId = IEventMgmtInstance.createEvent(\n            eventName,\n            eventDescription,\n            maxResalePercentage\n        );\n        eventsOrganised[msg.sender].push(eventId);\n    }\n\n    function createTicketCategory(\n        uint256 eventId,\n        string memory categoryName,\n        string memory categoryDescription,\n        uint256 ticketPrice,\n        uint256 numberOfTickets\n    ) public onlyEventOrganiser(eventId) returns (uint256 categoryId) {\n        categoryId = IEventMgmtInstance.createCategory(\n            eventId,\n            categoryName,\n            categoryDescription,\n            ticketPrice,\n            numberOfTickets\n        );\n        uint256[] memory tickets = IEventMgmtInstance.getCategoryTickets(\n            categoryId\n        );\n        for (uint256 i = 0; i < tickets.length; i++) {\n            ticketsOwned[msg.sender].push(tickets[i]);\n            ticketsOnSale[eventId].push(tickets[i]);\n        }\n    }\n\n    function updateEventDescription(\n        uint256 eventId,\n        string memory newDescription\n    ) public onlyEventOrganiser(eventId) {\n        IEventMgmtInstance.updateEventDescription(eventId, newDescription);\n    }\n\n    function updateMaxResalePercentage(\n        uint256 eventId,\n        uint256 newMaxPercentage\n    ) public onlyEventOrganiser(eventId) {\n        IEventMgmtInstance.updateMaxResalePercentage(eventId, newMaxPercentage);\n    }\n\n    //function getRefundAmount(\n    //    uint256 eventId\n    //) public onlyEventOrganiser(eventId) returns (uint256 refundAmount) {\n    //    uint256[] memory eventTickets = getEventTickets(eventId);\n    //    uint256 refundAmount = 0;\n    //    for (uint256 index = 0; index < eventTickets.length; index++) {\n    //        uint256 ticketId = eventTickets[index];\n    //        address ticketOwner = IEventMgmtInstance.getTicketOwner(ticketId);\n    //        if (ticketOwner != msg.sender) {\n    //            refundAmount += IEventMgmtInstance.getTicketPrice(ticketId);\n    //        }\n    //    }\n    //    return refundAmount;\n    //}\n\n    function cancelEventAndRefund(\n        uint256 eventId\n    ) public payable onlyEventOrganiser(eventId) {\n        uint256[] memory eventTickets = getEventTickets(eventId);\n        for (uint256 index = 0; index < eventTickets.length; index++) {\n            uint256 ticketId = eventTickets[index];\n            address ticketOwner = IEventMgmtInstance.getTicketOwner(ticketId);\n\n            // remove from ticketsOwned\n            for (\n                // iterate through ticketsOwned for previous owner\n                uint256 i = 0;\n                i < ticketsOwned[ticketOwner].length;\n                i++\n            ) {\n                // find the ticketId in the array\n                if (ticketsOwned[ticketOwner][index] == ticketId) {\n                    removeTicketFromTicketsOwned(ticketOwner, i);\n                    break;\n                }\n            }\n\n            // remove from ticketsOnSale\n            if (IEventMgmtInstance.isForSale(ticketId)) {\n                for (\n                    // iterate through ticketsForSale for event\n                    uint256 j = 0;\n                    j < ticketsOnSale[eventId].length;\n                    j++\n                ) {\n                    // find the ticketId in the array\n                    if (ticketsOnSale[eventId][index] == ticketId) {\n                        removeTicketFromTicketsOnSale(eventId, j);\n                        break;\n                    }\n                }\n            }\n        }\n    }\n\n    /**\n        Main Functions For Ticket Buyers\n     */\n    function buyTicket(uint256 ticketId) public payable {\n        require(\n            IEventMgmtInstance.isForSale(ticketId),\n            \"This ticket is not for sale!\"\n        );\n\n        uint256 ticketPrice = IEventMgmtInstance.getTicketPrice(ticketId);\n        require(\n            msg.value == ticketPrice,\n            \"You must pay the exact amount that this is listed for!\"\n        );\n\n        address currentOwner = IEventMgmtInstance.getTicketOwner(ticketId);\n        require(msg.sender != currentOwner, \"You already own this ticket!\");\n\n        // transfer to new owner\n        IEventMgmtInstance.transferTicket(ticketId, msg.sender);\n\n        // pay current owner\n        address payable ownerPayable = payable(currentOwner);\n        ownerPayable.transfer(msg.value);\n\n        // update mappings\n        for (\n            // iterate through ticketsOwned for previous owner\n            uint256 index = 0;\n            index < ticketsOwned[currentOwner].length;\n            index++\n        ) {\n            // find the ticketId in the array\n            if (ticketsOwned[currentOwner][index] == ticketId) {\n                removeTicketFromTicketsOwned(currentOwner, index);\n                break;\n            }\n        }\n\n        // update mappings\n        ticketsOwned[msg.sender].push(ticketId);\n\n        // update mappings\n        uint256 eventId = IEventMgmtInstance.getEventId(ticketId);\n        for (\n            // iterate through ticketsForSale for event\n            uint256 index = 0;\n            index < ticketsOnSale[eventId].length;\n            index++\n        ) {\n            // find the ticketId in the array\n            if (ticketsOnSale[eventId][index] == ticketId) {\n                removeTicketFromTicketsOnSale(eventId, index);\n                break;\n            }\n        }\n        emit ticketBought(ticketId, msg.sender, currentOwner);\n    }\n\n    /**\n        Main Functions For Resellers\n     */\n    function listTicketForResale(uint256 ticketId, uint256 resalePrice) public {\n        require(\n            IEventMgmtInstance.getTicketOwner(ticketId) == msg.sender,\n            \"You do not own this ticket!\"\n        );\n        require(\n            IEventMgmtInstance.isForSale(ticketId) == false,\n            \"This ticket is already listed for sale!\"\n        );\n        require(\n            resalePrice <= IEventMgmtInstance.calculateMaxResalePrice(ticketId),\n            \"Resale price cannot be higher than the maximum resale price!\"\n        );\n\n        IEventMgmtInstance.listTicketForResale(ticketId, resalePrice);\n        ticketsOnSale[IEventMgmtInstance.getEventId(ticketId)].push(ticketId);\n    }\n\n\n    function unlistTicketFromResale(uint256 ticketId) public {\n        require(\n            IEventMgmtInstance.getTicketOwner(ticketId) == msg.sender,\n            \"You do not own this ticket!\"\n        );\n        require(\n            IEventMgmtInstance.isForSale(ticketId) == true,\n            \"This ticket is not listed for sale!\"\n        );\n\n        IEventMgmtInstance.unlistTicketFromResale(ticketId);\n        uint256 eventId = IEventMgmtInstance.getEventId(ticketId);\n        for (\n            // iterate through ticketsForSale for event\n            uint256 index = 0;\n            index < ticketsOnSale[eventId].length;\n            index++\n        ) {\n            // find the ticketId in the array\n            if (ticketsOnSale[eventId][index] == ticketId) {\n                removeTicketFromTicketsOnSale(eventId, index);\n                break;\n            }\n        }\n    }\n\n    /**\n        Helper Functions (Private)\n     */\n    function removeTicketFromTicketsOwned(\n        address owner,\n        uint256 index\n    ) private {\n        // index = index of ticket to remove\n        for (uint256 i = index; i < ticketsOwned[owner].length - 1; i++) {\n            // shift all tickets from index onwards, to the left\n            ticketsOwned[owner][i] = ticketsOwned[owner][i + 1];\n        }\n\n        // remove last element\n        ticketsOwned[owner].pop();\n    }\n\n    function removeTicketFromTicketsOnSale(\n        uint256 eventId,\n        uint256 index\n    ) private {\n        // index = index of ticket to remove\n        for (uint256 i = index; i < ticketsOnSale[eventId].length - 1; i++) {\n            // shift all tickets from index onwards, to the left\n            ticketsOnSale[eventId][i] = ticketsOnSale[eventId][i + 1];\n        }\n\n        // remove last element\n        ticketsOnSale[eventId].pop();\n    }\n\n    /**\n        Getter Functions\n     */\n    function getEventInfo(\n        uint256 eventId\n    )\n        public\n        view\n        returns (\n            string memory eventName,\n            address eventOrganiser,\n            string memory eventDescription,\n            uint256 maxResalePercentage,\n            bool isActive,\n            uint256[] memory categoryIds\n        )\n    {\n        return IEventMgmtInstance.getEventInfo(eventId);\n    }\n\n    function getCategoryInfo(\n        uint256 categoryId\n    )\n        public\n        view\n        returns (\n            uint256 eventId,\n            string memory categoryName,\n            string memory categoryDescription,\n            uint256 ticketPrice,\n            uint256[] memory ticketIds\n        )\n    {\n        return IEventMgmtInstance.getCategoryInfo(categoryId);\n    }\n\n    function getTicketInfo(\n        uint256 ticketId\n    )\n        public\n        view\n        returns (\n            uint256 eventId,\n            uint256 categoryId,\n            address owner,\n            bool isOnSale,\n            uint256 originalPrice,\n            uint256 resalePrice\n        )\n    {\n        return IEventMgmtInstance.getTicketInfo(ticketId);\n    }\n\n    function getEventTickets(\n        uint256 eventId\n    ) public view returns (uint256[] memory eventTickets) {\n        return IEventMgmtInstance.getEventTickets(eventId);\n    }\n\n    function getCategoryTickets(\n        uint256 categoryId\n    ) public view returns (uint256[] memory categoryTickets) {\n        return IEventMgmtInstance.getCategoryTickets(categoryId);\n    }\n\n    modifier onlyEventOrganiser(uint256 eventId) {\n        require(\n            IEventMgmtInstance.isEventOrganiser(eventId, msg.sender),\n            \"Only event organiser can perform this action!\"\n        );\n        _;\n    }\n}\n",
  "sourcePath": "/Users/yaner/Documents/NUS/Y2S2/IS4302/ticketmister/contracts/TicketMkt.sol",
  "compiler": {
    "name": "solc",
    "version": "0.8.1+commit.df193b15.Emscripten.clang"
  },
  "schemaVersion": "3.3.3",
  "updatedAt": "2024-04-20T08:29:23.594Z",
  "networkType": "ethereum",
  "devdoc": {
    "kind": "dev",
    "methods": {},
    "version": 1
  },
  "userdoc": {
    "kind": "user",
    "methods": {
      "buyTicket(uint256)": {
        "notice": "Main Functions For Ticket Buyers"
      },
      "createEvent(string,string,uint256)": {
        "notice": "Main Functions For Event Organisers"
      },
      "getEventInfo(uint256)": {
        "notice": "Getter Functions"
      },
      "listTicketForResale(uint256,uint256)": {
        "notice": "Main Functions For Resellers"
      }
    },
    "version": 1
  }
}