{
  "contractName": "TicketMgmt",
  "abi": [
    {
      "inputs": [],
      "stateMutability": "nonpayable",
      "type": "constructor"
    },
    {
      "anonymous": false,
      "inputs": [
        {
          "indexed": true,
          "internalType": "address",
          "name": "owner",
          "type": "address"
        },
        {
          "indexed": true,
          "internalType": "address",
          "name": "approved",
          "type": "address"
        },
        {
          "indexed": true,
          "internalType": "uint256",
          "name": "tokenId",
          "type": "uint256"
        }
      ],
      "name": "Approval",
      "type": "event"
    },
    {
      "anonymous": false,
      "inputs": [
        {
          "indexed": true,
          "internalType": "address",
          "name": "owner",
          "type": "address"
        },
        {
          "indexed": true,
          "internalType": "address",
          "name": "operator",
          "type": "address"
        },
        {
          "indexed": false,
          "internalType": "bool",
          "name": "approved",
          "type": "bool"
        }
      ],
      "name": "ApprovalForAll",
      "type": "event"
    },
    {
      "anonymous": false,
      "inputs": [
        {
          "indexed": false,
          "internalType": "uint256",
          "name": "_fromTokenId",
          "type": "uint256"
        },
        {
          "indexed": false,
          "internalType": "uint256",
          "name": "_toTokenId",
          "type": "uint256"
        }
      ],
      "name": "BatchMetadataUpdate",
      "type": "event"
    },
    {
      "anonymous": false,
      "inputs": [
        {
          "indexed": false,
          "internalType": "uint256",
          "name": "_tokenId",
          "type": "uint256"
        }
      ],
      "name": "MetadataUpdate",
      "type": "event"
    },
    {
      "anonymous": false,
      "inputs": [
        {
          "indexed": false,
          "internalType": "uint256",
          "name": "ticketId",
          "type": "uint256"
        }
      ],
      "name": "TicketCancelled",
      "type": "event"
    },
    {
      "anonymous": false,
      "inputs": [
        {
          "indexed": false,
          "internalType": "uint256",
          "name": "ticketId",
          "type": "uint256"
        },
        {
          "indexed": false,
          "internalType": "address",
          "name": "owner",
          "type": "address"
        },
        {
          "indexed": false,
          "internalType": "uint256",
          "name": "resalePrice",
          "type": "uint256"
        }
      ],
      "name": "TicketListedForResale",
      "type": "event"
    },
    {
      "anonymous": false,
      "inputs": [
        {
          "indexed": false,
          "internalType": "uint256",
          "name": "ticketId",
          "type": "uint256"
        },
        {
          "indexed": false,
          "internalType": "address",
          "name": "previousOwner",
          "type": "address"
        },
        {
          "indexed": false,
          "internalType": "address",
          "name": "newOwner",
          "type": "address"
        }
      ],
      "name": "TicketTransferred",
      "type": "event"
    },
    {
      "anonymous": false,
      "inputs": [
        {
          "indexed": false,
          "internalType": "uint256",
          "name": "ticketId",
          "type": "uint256"
        },
        {
          "indexed": false,
          "internalType": "address",
          "name": "owner",
          "type": "address"
        }
      ],
      "name": "TicketUnlistedFromResale",
      "type": "event"
    },
    {
      "anonymous": false,
      "inputs": [
        {
          "indexed": false,
          "internalType": "uint256",
          "name": "eventId",
          "type": "uint256"
        },
        {
          "indexed": false,
          "internalType": "uint256",
          "name": "categoryId",
          "type": "uint256"
        },
        {
          "indexed": false,
          "internalType": "uint256",
          "name": "numberOfTickets",
          "type": "uint256"
        },
        {
          "indexed": false,
          "internalType": "address",
          "name": "owner",
          "type": "address"
        }
      ],
      "name": "TicketsCreated",
      "type": "event"
    },
    {
      "anonymous": false,
      "inputs": [
        {
          "indexed": true,
          "internalType": "address",
          "name": "from",
          "type": "address"
        },
        {
          "indexed": true,
          "internalType": "address",
          "name": "to",
          "type": "address"
        },
        {
          "indexed": true,
          "internalType": "uint256",
          "name": "tokenId",
          "type": "uint256"
        }
      ],
      "name": "Transfer",
      "type": "event"
    },
    {
      "inputs": [
        {
          "internalType": "address",
          "name": "to",
          "type": "address"
        },
        {
          "internalType": "uint256",
          "name": "tokenId",
          "type": "uint256"
        }
      ],
      "name": "approve",
      "outputs": [],
      "stateMutability": "nonpayable",
      "type": "function"
    },
    {
      "inputs": [
        {
          "internalType": "address",
          "name": "owner",
          "type": "address"
        }
      ],
      "name": "balanceOf",
      "outputs": [
        {
          "internalType": "uint256",
          "name": "",
          "type": "uint256"
        }
      ],
      "stateMutability": "view",
      "type": "function"
    },
    {
      "inputs": [
        {
          "internalType": "uint256",
          "name": "tokenId",
          "type": "uint256"
        }
      ],
      "name": "getApproved",
      "outputs": [
        {
          "internalType": "address",
          "name": "",
          "type": "address"
        }
      ],
      "stateMutability": "view",
      "type": "function"
    },
    {
      "inputs": [
        {
          "internalType": "address",
          "name": "owner",
          "type": "address"
        },
        {
          "internalType": "address",
          "name": "operator",
          "type": "address"
        }
      ],
      "name": "isApprovedForAll",
      "outputs": [
        {
          "internalType": "bool",
          "name": "",
          "type": "bool"
        }
      ],
      "stateMutability": "view",
      "type": "function"
    },
    {
      "inputs": [],
      "name": "name",
      "outputs": [
        {
          "internalType": "string",
          "name": "",
          "type": "string"
        }
      ],
      "stateMutability": "view",
      "type": "function"
    },
    {
      "inputs": [
        {
          "internalType": "uint256",
          "name": "tokenId",
          "type": "uint256"
        }
      ],
      "name": "ownerOf",
      "outputs": [
        {
          "internalType": "address",
          "name": "",
          "type": "address"
        }
      ],
      "stateMutability": "view",
      "type": "function"
    },
    {
      "inputs": [
        {
          "internalType": "address",
          "name": "from",
          "type": "address"
        },
        {
          "internalType": "address",
          "name": "to",
          "type": "address"
        },
        {
          "internalType": "uint256",
          "name": "tokenId",
          "type": "uint256"
        }
      ],
      "name": "safeTransferFrom",
      "outputs": [],
      "stateMutability": "nonpayable",
      "type": "function"
    },
    {
      "inputs": [
        {
          "internalType": "address",
          "name": "from",
          "type": "address"
        },
        {
          "internalType": "address",
          "name": "to",
          "type": "address"
        },
        {
          "internalType": "uint256",
          "name": "tokenId",
          "type": "uint256"
        },
        {
          "internalType": "bytes",
          "name": "data",
          "type": "bytes"
        }
      ],
      "name": "safeTransferFrom",
      "outputs": [],
      "stateMutability": "nonpayable",
      "type": "function"
    },
    {
      "inputs": [
        {
          "internalType": "address",
          "name": "operator",
          "type": "address"
        },
        {
          "internalType": "bool",
          "name": "approved",
          "type": "bool"
        }
      ],
      "name": "setApprovalForAll",
      "outputs": [],
      "stateMutability": "nonpayable",
      "type": "function"
    },
    {
      "inputs": [
        {
          "internalType": "bytes4",
          "name": "interfaceId",
          "type": "bytes4"
        }
      ],
      "name": "supportsInterface",
      "outputs": [
        {
          "internalType": "bool",
          "name": "",
          "type": "bool"
        }
      ],
      "stateMutability": "view",
      "type": "function"
    },
    {
      "inputs": [],
      "name": "symbol",
      "outputs": [
        {
          "internalType": "string",
          "name": "",
          "type": "string"
        }
      ],
      "stateMutability": "view",
      "type": "function"
    },
    {
      "inputs": [
        {
          "internalType": "uint256",
          "name": "",
          "type": "uint256"
        }
      ],
      "name": "tickets",
      "outputs": [
        {
          "internalType": "uint256",
          "name": "ticketId",
          "type": "uint256"
        },
        {
          "internalType": "uint256",
          "name": "eventId",
          "type": "uint256"
        },
        {
          "internalType": "uint256",
          "name": "categoryId",
          "type": "uint256"
        },
        {
          "internalType": "address",
          "name": "owner",
          "type": "address"
        },
        {
          "internalType": "bool",
          "name": "isOnSale",
          "type": "bool"
        },
        {
          "internalType": "uint256",
          "name": "originalPrice",
          "type": "uint256"
        },
        {
          "internalType": "uint256",
          "name": "resalePrice",
          "type": "uint256"
        }
      ],
      "stateMutability": "view",
      "type": "function"
    },
    {
      "inputs": [
        {
          "internalType": "uint256",
          "name": "tokenId",
          "type": "uint256"
        }
      ],
      "name": "tokenURI",
      "outputs": [
        {
          "internalType": "string",
          "name": "",
          "type": "string"
        }
      ],
      "stateMutability": "view",
      "type": "function"
    },
    {
      "inputs": [
        {
          "internalType": "address",
          "name": "from",
          "type": "address"
        },
        {
          "internalType": "address",
          "name": "to",
          "type": "address"
        },
        {
          "internalType": "uint256",
          "name": "tokenId",
          "type": "uint256"
        }
      ],
      "name": "transferFrom",
      "outputs": [],
      "stateMutability": "nonpayable",
      "type": "function"
    },
    {
      "inputs": [
        {
          "internalType": "uint256",
          "name": "eventId",
          "type": "uint256"
        },
        {
          "internalType": "uint256",
          "name": "categoryId",
          "type": "uint256"
        },
        {
          "internalType": "uint256",
          "name": "ticketPrice",
          "type": "uint256"
        },
        {
          "internalType": "uint256",
          "name": "numberOfTickets",
          "type": "uint256"
        }
      ],
      "name": "createTickets",
      "outputs": [
        {
          "internalType": "uint256[]",
          "name": "ticketIds",
          "type": "uint256[]"
        }
      ],
      "stateMutability": "nonpayable",
      "type": "function"
    },
    {
      "inputs": [
        {
          "internalType": "uint256",
          "name": "ticketId",
          "type": "uint256"
        }
      ],
      "name": "cancelTicket",
      "outputs": [],
      "stateMutability": "nonpayable",
      "type": "function"
    },
    {
      "inputs": [
        {
          "internalType": "uint256",
          "name": "ticketId",
          "type": "uint256"
        }
      ],
      "name": "getTicketInfo",
      "outputs": [
        {
          "internalType": "uint256",
          "name": "",
          "type": "uint256"
        },
        {
          "internalType": "uint256",
          "name": "",
          "type": "uint256"
        },
        {
          "internalType": "address",
          "name": "",
          "type": "address"
        },
        {
          "internalType": "bool",
          "name": "",
          "type": "bool"
        },
        {
          "internalType": "uint256",
          "name": "",
          "type": "uint256"
        },
        {
          "internalType": "uint256",
          "name": "",
          "type": "uint256"
        }
      ],
      "stateMutability": "view",
      "type": "function"
    },
    {
      "inputs": [
        {
          "internalType": "uint256",
          "name": "ticketId",
          "type": "uint256"
        }
      ],
      "name": "getEventId",
      "outputs": [
        {
          "internalType": "uint256",
          "name": "",
          "type": "uint256"
        }
      ],
      "stateMutability": "view",
      "type": "function"
    },
    {
      "inputs": [
        {
          "internalType": "uint256",
          "name": "ticketId",
          "type": "uint256"
        }
      ],
      "name": "getTicketOwner",
      "outputs": [
        {
          "internalType": "address",
          "name": "",
          "type": "address"
        }
      ],
      "stateMutability": "view",
      "type": "function"
    },
    {
      "inputs": [
        {
          "internalType": "uint256",
          "name": "ticketId",
          "type": "uint256"
        }
      ],
      "name": "isForSale",
      "outputs": [
        {
          "internalType": "bool",
          "name": "",
          "type": "bool"
        }
      ],
      "stateMutability": "view",
      "type": "function"
    },
    {
      "inputs": [
        {
          "internalType": "uint256",
          "name": "ticketId",
          "type": "uint256"
        }
      ],
      "name": "getOriginalTicketPrice",
      "outputs": [
        {
          "internalType": "uint256",
          "name": "",
          "type": "uint256"
        }
      ],
      "stateMutability": "view",
      "type": "function"
    },
    {
      "inputs": [
        {
          "internalType": "uint256",
          "name": "ticketId",
          "type": "uint256"
        }
      ],
      "name": "getResaleTicketPrice",
      "outputs": [
        {
          "internalType": "uint256",
          "name": "",
          "type": "uint256"
        }
      ],
      "stateMutability": "view",
      "type": "function"
    },
    {
      "inputs": [
        {
          "internalType": "uint256",
          "name": "ticketId",
          "type": "uint256"
        },
        {
          "internalType": "address",
          "name": "newOwner",
          "type": "address"
        }
      ],
      "name": "transferTicket",
      "outputs": [],
      "stateMutability": "nonpayable",
      "type": "function"
    },
    {
      "inputs": [
        {
          "internalType": "uint256",
          "name": "ticketId",
          "type": "uint256"
        },
        {
          "internalType": "uint256",
          "name": "resalePrice",
          "type": "uint256"
        }
      ],
      "name": "listTicketForResale",
      "outputs": [],
      "stateMutability": "nonpayable",
      "type": "function"
    },
    {
      "inputs": [
        {
          "internalType": "uint256",
          "name": "ticketId",
          "type": "uint256"
        }
      ],
      "name": "unlistTicketFromResale",
      "outputs": [],
      "stateMutability": "nonpayable",
      "type": "function"
    }
  ],
  "bytecode": "0x60806040523480156200001157600080fd5b506040518060400160405280600c81526020017f5469636b65744d697374657200000000000000000000000000000000000000008152506040518060400160405280600381526020017f544d540000000000000000000000000000000000000000000000000000000000815250816000908051906020019062000096929190620000b8565b508060019080519060200190620000af929190620000b8565b505050620001cd565b828054620000c69062000168565b90600052602060002090601f016020900481019282620000ea576000855562000136565b82601f106200010557805160ff191683800117855562000136565b8280016001018555821562000136579182015b828111156200013557825182559160200191906001019062000118565b5b50905062000145919062000149565b5090565b5b80821115620001645760008160009055506001016200014a565b5090565b600060028204905060018216806200018157607f821691505b602082108114156200019857620001976200019e565b5b50919050565b7f4e487b7100000000000000000000000000000000000000000000000000000000600052602260045260246000fd5b613ac180620001dd6000396000f3fe608060405234801561001057600080fd5b50600436106101735760003560e01c8063679ebf1a116100de578063b88d4fde11610097578063c87b56dd11610071578063c87b56dd146104aa578063e985e9c5146104da578063ee355b1f1461050a578063ff99a0631461052657610173565b8063b88d4fde1461042e578063bd9a77ed1461044a578063c3be559b1461047a57610173565b8063679ebf1a1461034857806370a08231146103645780638546d0021461039457806395d89b41146103c4578063a22cb465146103e2578063ad093409146103fe57610173565b806342842e0e1161013057806342842e0e1461025e578063509688d71461027a57806350b44712146102aa5780635b906bd7146102e05780636053b0ef146102fc5780636352211e1461031857610173565b806301ffc9a71461017857806306fdde03146101a8578063081812fc146101c6578063095ea7b3146101f657806311a1c9991461021257806323b872dd14610242575b600080fd5b610192600480360381019061018d9190612b55565b61055b565b60405161019f9190613074565b60405180910390f35b6101b06105bc565b6040516101bd919061308f565b60405180910390f35b6101e060048036038101906101db9190612ba7565b61064e565b6040516101ed9190612feb565b60405180910390f35b610210600480360381019061020b9190612b19565b610694565b005b61022c60048036038101906102279190612c48565b6107ac565b6040516102399190613052565b60405180910390f35b61025c60048036038101906102579190612a13565b610a3e565b005b61027860048036038101906102739190612a13565b610a9e565b005b610294600480360381019061028f9190612ba7565b610abe565b6040516102a19190613251565b60405180910390f35b6102c460048036038101906102bf9190612ba7565b610b2e565b6040516102d797969594939291906133a9565b60405180910390f35b6102fa60048036038101906102f59190612ba7565b610b9d565b005b61031660048036038101906103119190612c0c565b610c59565b005b610332600480360381019061032d9190612ba7565b610d33565b60405161033f9190612feb565b60405180910390f35b610362600480360381019061035d9190612bd0565b610dba565b005b61037e600480360381019061037991906129ae565b610f15565b60405161038b9190613251565b60405180910390f35b6103ae60048036038101906103a99190612ba7565b610fcd565b6040516103bb9190613074565b60405180910390f35b6103cc61104a565b6040516103d9919061308f565b60405180910390f35b6103fc60048036038101906103f79190612add565b6110dc565b005b61041860048036038101906104139190612ba7565b6110f2565b6040516104259190612feb565b60405180910390f35b61044860048036038101906104439190612a62565b611182565b005b610464600480360381019061045f9190612ba7565b6111e4565b6040516104719190613251565b60405180910390f35b610494600480360381019061048f9190612ba7565b611254565b6040516104a19190613251565b60405180910390f35b6104c460048036038101906104bf9190612ba7565b6112c4565b6040516104d1919061308f565b60405180910390f35b6104f460048036038101906104ef91906129d7565b6113d7565b6040516105019190613074565b60405180910390f35b610524600480360381019061051f9190612ba7565b61146b565b005b610540600480360381019061053b9190612ba7565b611527565b60405161055296959493929190613303565b60405180910390f35b6000634906490660e01b7bffffffffffffffffffffffffffffffffffffffffffffffffffffffff1916827bffffffffffffffffffffffffffffffffffffffffffffffffffffffff191614806105b557506105b48261167a565b5b9050919050565b6060600080546105cb906135a0565b80601f01602080910402602001604051908101604052809291908181526020018280546105f7906135a0565b80156106445780601f1061061957610100808354040283529160200191610644565b820191906000526020600020905b81548152906001019060200180831161062757829003601f168201915b5050505050905090565b60006106598261175c565b6004600083815260200190815260200160002060009054906101000a900473ffffffffffffffffffffffffffffffffffffffff169050919050565b600061069f82610d33565b90508073ffffffffffffffffffffffffffffffffffffffff168373ffffffffffffffffffffffffffffffffffffffff161415610710576040517f08c379a000000000000000000000000000000000000000000000000000000000815260040161070790613211565b60405180910390fd5b8073ffffffffffffffffffffffffffffffffffffffff1661072f6117a7565b73ffffffffffffffffffffffffffffffffffffffff16148061075e575061075d816107586117a7565b6113d7565b5b61079d576040517f08c379a000000000000000000000000000000000000000000000000000000000815260040161079490613231565b60405180910390fd5b6107a783836117af565b505050565b60608167ffffffffffffffff8111156107ee577f4e487b7100000000000000000000000000000000000000000000000000000000600052604160045260246000fd5b60405190808252806020026020018201604052801561081c5781602001602082028036833780820191505090505b50905060005b828110156109f8576007600081548092919061083d90613603565b91905055506000600754905061085281611868565b15610892576040517f08c379a0000000000000000000000000000000000000000000000000000000008152600401610889906131b1565b60405180910390fd5b61089c32826118a9565b60006040518060e001604052808381526020018981526020018881526020013273ffffffffffffffffffffffffffffffffffffffff16815260200160011515815260200187815260200160008152509050806008600084815260200190815260200160002060008201518160000155602082015181600101556040820151816002015560608201518160030160006101000a81548173ffffffffffffffffffffffffffffffffffffffff021916908373ffffffffffffffffffffffffffffffffffffffff16021790555060808201518160030160146101000a81548160ff02191690831515021790555060a0820151816004015560c08201518160050155905050818484815181106109d7577f4e487b7100000000000000000000000000000000000000000000000000000000600052603260045260246000fd5b602002602001018181525050505080806109f090613603565b915050610822565b507f79098b20f80a5e28c269d9fd8f028538177584eee5999e5f74f5ddcc5b4a733a85858432604051610a2e9493929190613364565b60405180910390a1949350505050565b610a4f610a496117a7565b826118c7565b610a8e576040517f08c379a0000000000000000000000000000000000000000000000000000000008152600401610a85906130b1565b60405180910390fd5b610a9983838361195c565b505050565b610ab983838360405180602001604052806000815250611182565b505050565b60008082118015610ad157506007548211155b610b10576040517f08c379a0000000000000000000000000000000000000000000000000000000008152600401610b07906130f1565b60405180910390fd5b60086000838152602001908152602001600020600501549050919050565b60086020528060005260406000206000915090508060000154908060010154908060020154908060030160009054906101000a900473ffffffffffffffffffffffffffffffffffffffff16908060030160149054906101000a900460ff16908060040154908060050154905087565b600081118015610baf57506007548111155b610bee576040517f08c379a0000000000000000000000000000000000000000000000000000000008152600401610be5906130f1565b60405180910390fd5b60006008600083815260200190815260200160002060030160146101000a81548160ff0219169083151502179055507f50fb0da31f51d5941eb530f40ae9be31281f6d95cd66bdebb9059eab24337b348132604051610c4e92919061326c565b60405180910390a150565b600082118015610c6b57506007548211155b610caa576040517f08c379a0000000000000000000000000000000000000000000000000000000008152600401610ca1906130f1565b60405180910390fd5b60016008600084815260200190815260200160002060030160146101000a81548160ff0219169083151502179055508060086000848152602001908152602001600020600501819055507fc2c5e12125f9e5bf4720760322e943e274b1e7d378dcf5097250aabe27405277823283604051610d27939291906132cc565b60405180910390a15050565b600080610d3f83611c56565b9050600073ffffffffffffffffffffffffffffffffffffffff168173ffffffffffffffffffffffffffffffffffffffff161415610db1576040517f08c379a0000000000000000000000000000000000000000000000000000000008152600401610da8906131f1565b60405180910390fd5b80915050919050565b600082118015610dcc57506007548211155b610e0b576040517f08c379a0000000000000000000000000000000000000000000000000000000008152600401610e02906130f1565b60405180910390fd5b60006008600084815260200190815260200160002060030160009054906101000a900473ffffffffffffffffffffffffffffffffffffffff169050610e5181838561195c565b816008600085815260200190815260200160002060030160006101000a81548173ffffffffffffffffffffffffffffffffffffffff021916908373ffffffffffffffffffffffffffffffffffffffff16021790555060006008600085815260200190815260200160002060030160146101000a81548160ff0219169083151502179055507fd15524263ae66f75c1e604c47db6085085110f23ef7322b355179ac5e3b0783a838284604051610f0893929190613295565b60405180910390a1505050565b60008073ffffffffffffffffffffffffffffffffffffffff168273ffffffffffffffffffffffffffffffffffffffff161415610f86576040517f08c379a0000000000000000000000000000000000000000000000000000000008152600401610f7d90613191565b60405180910390fd5b600360008373ffffffffffffffffffffffffffffffffffffffff1673ffffffffffffffffffffffffffffffffffffffff168152602001908152602001600020549050919050565b60008082118015610fe057506007548211155b61101f576040517f08c379a0000000000000000000000000000000000000000000000000000000008152600401611016906130f1565b60405180910390fd5b6008600083815260200190815260200160002060030160149054906101000a900460ff169050919050565b606060018054611059906135a0565b80601f0160208091040260200160405190810160405280929190818152602001828054611085906135a0565b80156110d25780601f106110a7576101008083540402835291602001916110d2565b820191906000526020600020905b8154815290600101906020018083116110b557829003601f168201915b5050505050905090565b6110ee6110e76117a7565b8383611c93565b5050565b6000808211801561110557506007548211155b611144576040517f08c379a000000000000000000000000000000000000000000000000000000000815260040161113b906130f1565b60405180910390fd5b6008600083815260200190815260200160002060030160009054906101000a900473ffffffffffffffffffffffffffffffffffffffff169050919050565b61119361118d6117a7565b836118c7565b6111d2576040517f08c379a00000000000000000000000000000000000000000000000000000000081526004016111c9906130b1565b60405180910390fd5b6111de84848484611e00565b50505050565b600080821180156111f757506007548211155b611236576040517f08c379a000000000000000000000000000000000000000000000000000000000815260040161122d906130f1565b60405180910390fd5b60086000838152602001908152602001600020600401549050919050565b6000808211801561126757506007548211155b6112a6576040517f08c379a000000000000000000000000000000000000000000000000000000000815260040161129d906130f1565b60405180910390fd5b60086000838152602001908152602001600020600101549050919050565b60606112cf8261175c565b60006006600084815260200190815260200160002080546112ef906135a0565b80601f016020809104026020016040519081016040528092919081815260200182805461131b906135a0565b80156113685780601f1061133d57610100808354040283529160200191611368565b820191906000526020600020905b81548152906001019060200180831161134b57829003601f168201915b505050505090506000611379611e5c565b905060008151141561138f5781925050506113d2565b6000825111156113c45780826040516020016113ac929190612fc7565b604051602081830303815290604052925050506113d2565b6113cd84611e73565b925050505b919050565b6000600560008473ffffffffffffffffffffffffffffffffffffffff1673ffffffffffffffffffffffffffffffffffffffff16815260200190815260200160002060008373ffffffffffffffffffffffffffffffffffffffff1673ffffffffffffffffffffffffffffffffffffffff16815260200190815260200160002060009054906101000a900460ff16905092915050565b61147481611edb565b60086000828152602001908152602001600020600080820160009055600182016000905560028201600090556003820160006101000a81549073ffffffffffffffffffffffffffffffffffffffff02191690556003820160146101000a81549060ff02191690556004820160009055600582016000905550507f90a5808be5f77b4a2e0aa0389f433983252aabf738204c5c421fc59e5ecdaeea8160405161151c9190613251565b60405180910390a150565b60008060008060008060008711801561154257506007548711155b611581576040517f08c379a0000000000000000000000000000000000000000000000000000000008152600401611578906130f1565b60405180910390fd5b6000600860008981526020019081526020016000206040518060e00160405290816000820154815260200160018201548152602001600282015481526020016003820160009054906101000a900473ffffffffffffffffffffffffffffffffffffffff1673ffffffffffffffffffffffffffffffffffffffff1673ffffffffffffffffffffffffffffffffffffffff1681526020016003820160149054906101000a900460ff1615151515815260200160048201548152602001600582015481525050905080602001518160400151826060015183608001518460a001518560c001519650965096509650965096505091939550919395565b60007f80ac58cd000000000000000000000000000000000000000000000000000000007bffffffffffffffffffffffffffffffffffffffffffffffffffffffff1916827bffffffffffffffffffffffffffffffffffffffffffffffffffffffff1916148061174557507f5b5e139f000000000000000000000000000000000000000000000000000000007bffffffffffffffffffffffffffffffffffffffffffffffffffffffff1916827bffffffffffffffffffffffffffffffffffffffffffffffffffffffff1916145b80611755575061175482611f2e565b5b9050919050565b61176581611868565b6117a4576040517f08c379a000000000000000000000000000000000000000000000000000000000815260040161179b906131f1565b60405180910390fd5b50565b600033905090565b816004600083815260200190815260200160002060006101000a81548173ffffffffffffffffffffffffffffffffffffffff021916908373ffffffffffffffffffffffffffffffffffffffff160217905550808273ffffffffffffffffffffffffffffffffffffffff1661182283610d33565b73ffffffffffffffffffffffffffffffffffffffff167f8c5be1e5ebec7d5bd14f71427d1e84f3dd0314c0f7b2291e5b200ac8c7c3b92560405160405180910390a45050565b60008073ffffffffffffffffffffffffffffffffffffffff1661188a83611c56565b73ffffffffffffffffffffffffffffffffffffffff1614159050919050565b6118c3828260405180602001604052806000815250611f98565b5050565b6000806118d383610d33565b90508073ffffffffffffffffffffffffffffffffffffffff168473ffffffffffffffffffffffffffffffffffffffff161480611915575061191481856113d7565b5b8061195357508373ffffffffffffffffffffffffffffffffffffffff1661193b8461064e565b73ffffffffffffffffffffffffffffffffffffffff16145b91505092915050565b8273ffffffffffffffffffffffffffffffffffffffff1661197c82610d33565b73ffffffffffffffffffffffffffffffffffffffff16146119d2576040517f08c379a00000000000000000000000000000000000000000000000000000000081526004016119c990613111565b60405180910390fd5b600073ffffffffffffffffffffffffffffffffffffffff168273ffffffffffffffffffffffffffffffffffffffff161415611a42576040517f08c379a0000000000000000000000000000000000000000000000000000000008152600401611a3990613151565b60405180910390fd5b611a4f8383836001611ff3565b8273ffffffffffffffffffffffffffffffffffffffff16611a6f82610d33565b73ffffffffffffffffffffffffffffffffffffffff1614611ac5576040517f08c379a0000000000000000000000000000000000000000000000000000000008152600401611abc90613111565b60405180910390fd5b6004600082815260200190815260200160002060006101000a81549073ffffffffffffffffffffffffffffffffffffffff02191690556001600360008573ffffffffffffffffffffffffffffffffffffffff1673ffffffffffffffffffffffffffffffffffffffff168152602001908152602001600020600082825403925050819055506001600360008473ffffffffffffffffffffffffffffffffffffffff1673ffffffffffffffffffffffffffffffffffffffff16815260200190815260200160002060008282540192505081905550816002600083815260200190815260200160002060006101000a81548173ffffffffffffffffffffffffffffffffffffffff021916908373ffffffffffffffffffffffffffffffffffffffff160217905550808273ffffffffffffffffffffffffffffffffffffffff168473ffffffffffffffffffffffffffffffffffffffff167fddf252ad1be2c89b69c2b068fc378daa952ba7f163c4a11628f55a4df523b3ef60405160405180910390a4611c518383836001611ff9565b505050565b60006002600083815260200190815260200160002060009054906101000a900473ffffffffffffffffffffffffffffffffffffffff169050919050565b8173ffffffffffffffffffffffffffffffffffffffff168373ffffffffffffffffffffffffffffffffffffffff161415611d02576040517f08c379a0000000000000000000000000000000000000000000000000000000008152600401611cf990613171565b60405180910390fd5b80600560008573ffffffffffffffffffffffffffffffffffffffff1673ffffffffffffffffffffffffffffffffffffffff16815260200190815260200160002060008473ffffffffffffffffffffffffffffffffffffffff1673ffffffffffffffffffffffffffffffffffffffff16815260200190815260200160002060006101000a81548160ff0219169083151502179055508173ffffffffffffffffffffffffffffffffffffffff168373ffffffffffffffffffffffffffffffffffffffff167f17307eab39ab6107e8899845ad3d59bd9653f200f220920489ca2b5937696c3183604051611df39190613074565b60405180910390a3505050565b611e0b84848461195c565b611e1784848484611fff565b611e56576040517f08c379a0000000000000000000000000000000000000000000000000000000008152600401611e4d906130d1565b60405180910390fd5b50505050565b606060405180602001604052806000815250905090565b6060611e7e8261175c565b6000611e88611e5c565b90506000815111611ea85760405180602001604052806000815250611ed3565b80611eb284612196565b604051602001611ec3929190612fc7565b6040516020818303038152906040525b915050919050565b611ee4816122ba565b6000600660008381526020019081526020016000208054611f04906135a0565b905014611f2b57600660008281526020019081526020016000206000611f2a9190612880565b5b50565b60007f01ffc9a7000000000000000000000000000000000000000000000000000000007bffffffffffffffffffffffffffffffffffffffffffffffffffffffff1916827bffffffffffffffffffffffffffffffffffffffffffffffffffffffff1916149050919050565b611fa28383612408565b611faf6000848484611fff565b611fee576040517f08c379a0000000000000000000000000000000000000000000000000000000008152600401611fe5906130d1565b60405180910390fd5b505050565b50505050565b50505050565b60006120208473ffffffffffffffffffffffffffffffffffffffff16612626565b15612189578373ffffffffffffffffffffffffffffffffffffffff1663150b7a026120496117a7565b8786866040518563ffffffff1660e01b815260040161206b9493929190613006565b602060405180830381600087803b15801561208557600080fd5b505af19250505080156120b657506040513d601f19601f820116820180604052508101906120b39190612b7e565b60015b612139573d80600081146120e6576040519150601f19603f3d011682016040523d82523d6000602084013e6120eb565b606091505b50600081511415612131576040517f08c379a0000000000000000000000000000000000000000000000000000000008152600401612128906130d1565b60405180910390fd5b805181602001fd5b63150b7a0260e01b7bffffffffffffffffffffffffffffffffffffffffffffffffffffffff1916817bffffffffffffffffffffffffffffffffffffffffffffffffffffffff19161491505061218e565b600190505b949350505050565b6060600060016121a584612649565b01905060008167ffffffffffffffff8111156121ea577f4e487b7100000000000000000000000000000000000000000000000000000000600052604160045260246000fd5b6040519080825280601f01601f19166020018201604052801561221c5781602001600182028036833780820191505090505b509050600082602001820190505b6001156122af578080600190039150507f3031323334353637383961626364656600000000000000000000000000000000600a86061a8153600a8581612299577f4e487b7100000000000000000000000000000000000000000000000000000000600052601260045260246000fd5b04945060008514156122aa576122af565b61222a565b819350505050919050565b60006122c582610d33565b90506122d5816000846001611ff3565b6122de82610d33565b90506004600083815260200190815260200160002060006101000a81549073ffffffffffffffffffffffffffffffffffffffff02191690556001600360008373ffffffffffffffffffffffffffffffffffffffff1673ffffffffffffffffffffffffffffffffffffffff168152602001908152602001600020600082825403925050819055506002600083815260200190815260200160002060006101000a81549073ffffffffffffffffffffffffffffffffffffffff021916905581600073ffffffffffffffffffffffffffffffffffffffff168273ffffffffffffffffffffffffffffffffffffffff167fddf252ad1be2c89b69c2b068fc378daa952ba7f163c4a11628f55a4df523b3ef60405160405180910390a4612404816000846001611ff9565b5050565b600073ffffffffffffffffffffffffffffffffffffffff168273ffffffffffffffffffffffffffffffffffffffff161415612478576040517f08c379a000000000000000000000000000000000000000000000000000000000815260040161246f906131d1565b60405180910390fd5b61248181611868565b156124c1576040517f08c379a00000000000000000000000000000000000000000000000000000000081526004016124b890613131565b60405180910390fd5b6124cf600083836001611ff3565b6124d881611868565b15612518576040517f08c379a000000000000000000000000000000000000000000000000000000000815260040161250f90613131565b60405180910390fd5b6001600360008473ffffffffffffffffffffffffffffffffffffffff1673ffffffffffffffffffffffffffffffffffffffff16815260200190815260200160002060008282540192505081905550816002600083815260200190815260200160002060006101000a81548173ffffffffffffffffffffffffffffffffffffffff021916908373ffffffffffffffffffffffffffffffffffffffff160217905550808273ffffffffffffffffffffffffffffffffffffffff16600073ffffffffffffffffffffffffffffffffffffffff167fddf252ad1be2c89b69c2b068fc378daa952ba7f163c4a11628f55a4df523b3ef60405160405180910390a4612622600083836001611ff9565b5050565b6000808273ffffffffffffffffffffffffffffffffffffffff163b119050919050565b600080600090507a184f03e93ff9f4daa797ed6e38ed64bf6a1f01000000000000000083106126cd577a184f03e93ff9f4daa797ed6e38ed64bf6a1f01000000000000000083816126c3577f4e487b7100000000000000000000000000000000000000000000000000000000600052601260045260246000fd5b0492506040810190505b6d04ee2d6d415b85acef81000000008310612730576d04ee2d6d415b85acef81000000008381612726577f4e487b7100000000000000000000000000000000000000000000000000000000600052601260045260246000fd5b0492506020810190505b662386f26fc10000831061278557662386f26fc10000838161277b577f4e487b7100000000000000000000000000000000000000000000000000000000600052601260045260246000fd5b0492506010810190505b6305f5e10083106127d4576305f5e10083816127ca577f4e487b7100000000000000000000000000000000000000000000000000000000600052601260045260246000fd5b0492506008810190505b612710831061281f576127108381612815577f4e487b7100000000000000000000000000000000000000000000000000000000600052601260045260246000fd5b0492506004810190505b60648310612868576064838161285e577f4e487b7100000000000000000000000000000000000000000000000000000000600052601260045260246000fd5b0492506002810190505b600a8310612877576001810190505b80915050919050565b50805461288c906135a0565b6000825580601f1061289e57506128bd565b601f0160209004906000526020600020908101906128bc91906128c0565b5b50565b5b808211156128d95760008160009055506001016128c1565b5090565b60006128f06128eb8461343d565b613418565b90508281526020810184848401111561290857600080fd5b61291384828561355e565b509392505050565b60008135905061292a81613a2f565b92915050565b60008135905061293f81613a46565b92915050565b60008135905061295481613a5d565b92915050565b60008151905061296981613a5d565b92915050565b600082601f83011261298057600080fd5b81356129908482602086016128dd565b91505092915050565b6000813590506129a881613a74565b92915050565b6000602082840312156129c057600080fd5b60006129ce8482850161291b565b91505092915050565b600080604083850312156129ea57600080fd5b60006129f88582860161291b565b9250506020612a098582860161291b565b9150509250929050565b600080600060608486031215612a2857600080fd5b6000612a368682870161291b565b9350506020612a478682870161291b565b9250506040612a5886828701612999565b9150509250925092565b60008060008060808587031215612a7857600080fd5b6000612a868782880161291b565b9450506020612a978782880161291b565b9350506040612aa887828801612999565b925050606085013567ffffffffffffffff811115612ac557600080fd5b612ad18782880161296f565b91505092959194509250565b60008060408385031215612af057600080fd5b6000612afe8582860161291b565b9250506020612b0f85828601612930565b9150509250929050565b60008060408385031215612b2c57600080fd5b6000612b3a8582860161291b565b9250506020612b4b85828601612999565b9150509250929050565b600060208284031215612b6757600080fd5b6000612b7584828501612945565b91505092915050565b600060208284031215612b9057600080fd5b6000612b9e8482850161295a565b91505092915050565b600060208284031215612bb957600080fd5b6000612bc784828501612999565b91505092915050565b60008060408385031215612be357600080fd5b6000612bf185828601612999565b9250506020612c028582860161291b565b9150509250929050565b60008060408385031215612c1f57600080fd5b6000612c2d85828601612999565b9250506020612c3e85828601612999565b9150509250929050565b60008060008060808587031215612c5e57600080fd5b6000612c6c87828801612999565b9450506020612c7d87828801612999565b9350506040612c8e87828801612999565b9250506060612c9f87828801612999565b91505092959194509250565b6000612cb78383612fa9565b60208301905092915050565b612ccc816134ea565b82525050565b6000612cdd8261347e565b612ce781856134ac565b9350612cf28361346e565b8060005b83811015612d23578151612d0a8882612cab565b9750612d158361349f565b925050600181019050612cf6565b5085935050505092915050565b612d39816134fc565b82525050565b6000612d4a82613489565b612d5481856134bd565b9350612d6481856020860161356d565b612d6d816136d9565b840191505092915050565b6000612d8382613494565b612d8d81856134ce565b9350612d9d81856020860161356d565b612da6816136d9565b840191505092915050565b6000612dbc82613494565b612dc681856134df565b9350612dd681856020860161356d565b80840191505092915050565b6000612def602d836134ce565b9150612dfa826136ea565b604082019050919050565b6000612e126032836134ce565b9150612e1d82613739565b604082019050919050565b6000612e356016836134ce565b9150612e4082613788565b602082019050919050565b6000612e586025836134ce565b9150612e63826137b1565b604082019050919050565b6000612e7b601c836134ce565b9150612e8682613800565b602082019050919050565b6000612e9e6024836134ce565b9150612ea982613829565b604082019050919050565b6000612ec16019836134ce565b9150612ecc82613878565b602082019050919050565b6000612ee46029836134ce565b9150612eef826138a1565b604082019050919050565b6000612f076026836134ce565b9150612f12826138f0565b604082019050919050565b6000612f2a6020836134ce565b9150612f358261393f565b602082019050919050565b6000612f4d6018836134ce565b9150612f5882613968565b602082019050919050565b6000612f706021836134ce565b9150612f7b82613991565b604082019050919050565b6000612f93603d836134ce565b9150612f9e826139e0565b604082019050919050565b612fb281613554565b82525050565b612fc181613554565b82525050565b6000612fd38285612db1565b9150612fdf8284612db1565b91508190509392505050565b60006020820190506130006000830184612cc3565b92915050565b600060808201905061301b6000830187612cc3565b6130286020830186612cc3565b6130356040830185612fb8565b81810360608301526130478184612d3f565b905095945050505050565b6000602082019050818103600083015261306c8184612cd2565b905092915050565b60006020820190506130896000830184612d30565b92915050565b600060208201905081810360008301526130a98184612d78565b905092915050565b600060208201905081810360008301526130ca81612de2565b9050919050565b600060208201905081810360008301526130ea81612e05565b9050919050565b6000602082019050818103600083015261310a81612e28565b9050919050565b6000602082019050818103600083015261312a81612e4b565b9050919050565b6000602082019050818103600083015261314a81612e6e565b9050919050565b6000602082019050818103600083015261316a81612e91565b9050919050565b6000602082019050818103600083015261318a81612eb4565b9050919050565b600060208201905081810360008301526131aa81612ed7565b9050919050565b600060208201905081810360008301526131ca81612efa565b9050919050565b600060208201905081810360008301526131ea81612f1d565b9050919050565b6000602082019050818103600083015261320a81612f40565b9050919050565b6000602082019050818103600083015261322a81612f63565b9050919050565b6000602082019050818103600083015261324a81612f86565b9050919050565b60006020820190506132666000830184612fb8565b92915050565b60006040820190506132816000830185612fb8565b61328e6020830184612cc3565b9392505050565b60006060820190506132aa6000830186612fb8565b6132b76020830185612cc3565b6132c46040830184612cc3565b949350505050565b60006060820190506132e16000830186612fb8565b6132ee6020830185612cc3565b6132fb6040830184612fb8565b949350505050565b600060c0820190506133186000830189612fb8565b6133256020830188612fb8565b6133326040830187612cc3565b61333f6060830186612d30565b61334c6080830185612fb8565b61335960a0830184612fb8565b979650505050505050565b60006080820190506133796000830187612fb8565b6133866020830186612fb8565b6133936040830185612fb8565b6133a06060830184612cc3565b95945050505050565b600060e0820190506133be600083018a612fb8565b6133cb6020830189612fb8565b6133d86040830188612fb8565b6133e56060830187612cc3565b6133f26080830186612d30565b6133ff60a0830185612fb8565b61340c60c0830184612fb8565b98975050505050505050565b6000613422613433565b905061342e82826135d2565b919050565b6000604051905090565b600067ffffffffffffffff821115613458576134576136aa565b5b613461826136d9565b9050602081019050919050565b6000819050602082019050919050565b600081519050919050565b600081519050919050565b600081519050919050565b6000602082019050919050565b600082825260208201905092915050565b600082825260208201905092915050565b600082825260208201905092915050565b600081905092915050565b60006134f582613534565b9050919050565b60008115159050919050565b60007fffffffff0000000000000000000000000000000000000000000000000000000082169050919050565b600073ffffffffffffffffffffffffffffffffffffffff82169050919050565b6000819050919050565b82818337600083830152505050565b60005b8381101561358b578082015181840152602081019050613570565b8381111561359a576000848401525b50505050565b600060028204905060018216806135b857607f821691505b602082108114156135cc576135cb61367b565b5b50919050565b6135db826136d9565b810181811067ffffffffffffffff821117156135fa576135f96136aa565b5b80604052505050565b600061360e82613554565b91507fffffffffffffffffffffffffffffffffffffffffffffffffffffffffffffffff8214156136415761364061364c565b5b600182019050919050565b7f4e487b7100000000000000000000000000000000000000000000000000000000600052601160045260246000fd5b7f4e487b7100000000000000000000000000000000000000000000000000000000600052602260045260246000fd5b7f4e487b7100000000000000000000000000000000000000000000000000000000600052604160045260246000fd5b6000601f19601f8301169050919050565b7f4552433732313a2063616c6c6572206973206e6f7420746f6b656e206f776e6560008201527f72206f7220617070726f76656400000000000000000000000000000000000000602082015250565b7f4552433732313a207472616e7366657220746f206e6f6e20455243373231526560008201527f63656976657220696d706c656d656e7465720000000000000000000000000000602082015250565b7f5469636b657420646f6573206e6f742065786973742100000000000000000000600082015250565b7f4552433732313a207472616e736665722066726f6d20696e636f72726563742060008201527f6f776e6572000000000000000000000000000000000000000000000000000000602082015250565b7f4552433732313a20746f6b656e20616c7265616479206d696e74656400000000600082015250565b7f4552433732313a207472616e7366657220746f20746865207a65726f2061646460008201527f7265737300000000000000000000000000000000000000000000000000000000602082015250565b7f4552433732313a20617070726f766520746f2063616c6c657200000000000000600082015250565b7f4552433732313a2061646472657373207a65726f206973206e6f74206120766160008201527f6c6964206f776e65720000000000000000000000000000000000000000000000602082015250565b7f5469636b657420746f6b656e2068617320616c7265616479206265656e20637260008201527f65617465642e0000000000000000000000000000000000000000000000000000602082015250565b7f4552433732313a206d696e7420746f20746865207a65726f2061646472657373600082015250565b7f4552433732313a20696e76616c696420746f6b656e2049440000000000000000600082015250565b7f4552433732313a20617070726f76616c20746f2063757272656e74206f776e6560008201527f7200000000000000000000000000000000000000000000000000000000000000602082015250565b7f4552433732313a20617070726f76652063616c6c6572206973206e6f7420746f60008201527f6b656e206f776e6572206f7220617070726f76656420666f7220616c6c000000602082015250565b613a38816134ea565b8114613a4357600080fd5b50565b613a4f816134fc565b8114613a5a57600080fd5b50565b613a6681613508565b8114613a7157600080fd5b50565b613a7d81613554565b8114613a8857600080fd5b5056fea2646970667358221220106ed22f4a65a55c3d5450f2c325bcce145e0e516bac22b2a62476682315b98764736f6c63430008010033",
  "immutableReferences": {},
  "source": "// SPDX-License-Identifier: UNLICENSED\npragma solidity >=0.6.0 <0.9.0;\npragma experimental ABIEncoderV2;\n\nimport \"../node_modules/@openzeppelin/contracts/token/ERC721/ERC721.sol\";\nimport \"../node_modules/@openzeppelin/contracts/utils/math/SafeMath.sol\";\nimport \"../node_modules/@openzeppelin/contracts/access/Ownable.sol\";\nimport \"../node_modules/@openzeppelin/contracts/token/ERC721/extensions/ERC721URIStorage.sol\";\n\ninterface ITicketMgmt {\n    function createTickets(\n        uint256 eventId,\n        uint256 categoryId,\n        uint256 ticketPrice,\n        uint256 numberOfTickets\n    ) external returns (uint256[] memory ticketIds);\n\n    function getTicketInfo(\n        uint256 ticketId\n    )\n        external\n        view\n        returns (\n            uint256 eventId,\n            uint256 categoryId,\n            address owner,\n            bool isOnSale,\n            uint256 originalPrice,\n            uint256 resalePrice\n        );\n\n    function getEventId(uint256 ticketId) external view returns (uint256);\n\n    function getTicketOwner(uint256 ticketId) external view returns (address);\n\n    function isForSale(uint256 ticketId) external view returns (bool);\n\n    function getOriginalTicketPrice(\n        uint256 ticketId\n    ) external view returns (uint256);\n\n    function getResaleTicketPrice(\n        uint256 ticketId\n    ) external view returns (uint256);\n\n    function transferTicket(uint256 ticketId, address newOwner) external;\n\n    function listTicketForResale(\n        uint256 ticketId,\n        uint256 resalePrice\n    ) external;\n\n    function unlistTicketFromResale(uint256 ticketId) external;\n\n    function cancelTicket(uint256 ticketId) external;\n}\n\ncontract TicketMgmt is ERC721URIStorage, ITicketMgmt {\n    constructor() ERC721(\"TicketMister\", \"TMT\") {}\n\n    // counter for ticketId - incremented each time a new tick is created;\n    uint256 private ticketCounter;\n\n    // mapping of ticketId to TicketInfo\n    mapping(uint256 => TicketInfo) public tickets;\n\n    struct TicketInfo {\n        uint256 ticketId;\n        uint256 eventId;\n        uint256 categoryId;\n        address owner;\n        bool isOnSale;\n        uint256 originalPrice;\n        uint256 resalePrice;\n    }\n\n    event TicketsCreated(\n        uint256 eventId,\n        uint256 categoryId,\n        uint256 numberOfTickets,\n        address owner\n    );\n    event TicketTransferred(\n        uint256 ticketId,\n        address previousOwner,\n        address newOwner\n    );\n    event TicketListedForResale(\n        uint256 ticketId,\n        address owner,\n        uint256 resalePrice\n    );\n    event TicketUnlistedFromResale(uint256 ticketId, address owner);\n    event TicketCancelled(uint256 ticketId);\n\n    function createTickets(\n        uint256 eventId,\n        uint256 categoryId,\n        uint256 ticketPrice,\n        uint256 numberOfTickets\n    ) external override returns (uint256[] memory ticketIds) {\n        ticketIds = new uint256[](numberOfTickets);\n\n        for (uint256 i = 0; i < numberOfTickets; i++) {\n            ticketCounter++;\n            uint256 ticketId = ticketCounter;\n            require(\n                !_exists(ticketId),\n                \"Ticket token has already been created.\"\n            );\n            _safeMint(tx.origin, ticketId);\n\n            TicketInfo memory newTicket = TicketInfo({\n                ticketId: ticketId,\n                eventId: eventId,\n                categoryId: categoryId,\n                owner: tx.origin,\n                isOnSale: true,\n                originalPrice: ticketPrice,\n                resalePrice: 0\n            });\n\n            tickets[ticketId] = newTicket;\n            ticketIds[i] = ticketId;\n        }\n\n        emit TicketsCreated(eventId, categoryId, numberOfTickets, tx.origin);\n        return ticketIds;\n    }\n\n    function cancelTicket(uint256 ticketId) external override {\n        _burn(ticketId);\n        delete tickets[ticketId];\n        emit TicketCancelled(ticketId);\n    }\n\n    function getTicketInfo(\n        uint256 ticketId\n    )\n        external\n        view\n        override\n        returns (uint256, uint256, address, bool, uint256, uint256)\n    {\n        require(\n            (ticketId > 0) && (ticketId <= ticketCounter),\n            \"Ticket does not exist!\"\n        );\n        TicketInfo memory ticketInfo = tickets[ticketId];\n        return (\n            ticketInfo.eventId,\n            ticketInfo.categoryId,\n            ticketInfo.owner,\n            ticketInfo.isOnSale,\n            ticketInfo.originalPrice,\n            ticketInfo.resalePrice\n        );\n    }\n\n    function getEventId(\n        uint256 ticketId\n    ) public view override returns (uint256) {\n        require(\n            (ticketId > 0) && (ticketId <= ticketCounter),\n            \"Ticket does not exist!\"\n        );\n        return tickets[ticketId].eventId;\n    }\n\n    function getTicketOwner(\n        uint256 ticketId\n    ) public view override returns (address) {\n        require(\n            (ticketId > 0) && (ticketId <= ticketCounter),\n            \"Ticket does not exist!\"\n        );\n        return tickets[ticketId].owner;\n    }\n\n    function isForSale(uint256 ticketId) public view override returns (bool) {\n        require(\n            (ticketId > 0) && (ticketId <= ticketCounter),\n            \"Ticket does not exist!\"\n        );\n        return tickets[ticketId].isOnSale;\n    }\n\n    function getOriginalTicketPrice(\n        uint256 ticketId\n    ) public view override returns (uint256) {\n        require(\n            (ticketId > 0) && (ticketId <= ticketCounter),\n            \"Ticket does not exist!\"\n        );\n        return tickets[ticketId].originalPrice;\n    }\n\n    function getResaleTicketPrice(\n        uint256 ticketId\n    ) public view override returns (uint256) {\n        require(\n            (ticketId > 0) && (ticketId <= ticketCounter),\n            \"Ticket does not exist!\"\n        );\n        return tickets[ticketId].resalePrice;\n    }\n\n    function transferTicket(\n        uint256 ticketId,\n        address newOwner\n    ) public override {\n        require(\n            (ticketId > 0) && (ticketId <= ticketCounter),\n            \"Ticket does not exist!\"\n        );\n        address currentOwner = tickets[ticketId].owner;\n        _transfer(currentOwner, newOwner, ticketId);\n        tickets[ticketId].owner = newOwner;\n        tickets[ticketId].isOnSale = false;\n        emit TicketTransferred(ticketId, currentOwner, newOwner);\n    }\n\n    function listTicketForResale(\n        uint256 ticketId,\n        uint256 resalePrice\n    ) public override {\n        require(\n            (ticketId > 0) && (ticketId <= ticketCounter),\n            \"Ticket does not exist!\"\n        );\n        tickets[ticketId].isOnSale = true;\n        tickets[ticketId].resalePrice = resalePrice;\n        emit TicketListedForResale(ticketId, tx.origin, resalePrice);\n    }\n\n    function unlistTicketFromResale(uint256 ticketId) public override {\n        require(\n            (ticketId > 0) && (ticketId <= ticketCounter),\n            \"Ticket does not exist!\"\n        );\n        tickets[ticketId].isOnSale = false;\n        emit TicketUnlistedFromResale(ticketId, tx.origin);\n    }\n    \n}\n",
  "sourcePath": "/Users/yaner/Documents/NUS/Y2S2/IS4302/ticketmister/contracts/TicketMgmt.sol",
  "compiler": {
    "name": "solc",
    "version": "0.8.1+commit.df193b15.Emscripten.clang"
  },
  "schemaVersion": "3.3.3",
  "updatedAt": "2024-04-20T15:08:42.332Z",
  "devdoc": {
    "kind": "dev",
    "methods": {
      "approve(address,uint256)": {
        "details": "See {IERC721-approve}."
      },
      "balanceOf(address)": {
        "details": "See {IERC721-balanceOf}."
      },
      "getApproved(uint256)": {
        "details": "See {IERC721-getApproved}."
      },
      "isApprovedForAll(address,address)": {
        "details": "See {IERC721-isApprovedForAll}."
      },
      "name()": {
        "details": "See {IERC721Metadata-name}."
      },
      "ownerOf(uint256)": {
        "details": "See {IERC721-ownerOf}."
      },
      "safeTransferFrom(address,address,uint256)": {
        "details": "See {IERC721-safeTransferFrom}."
      },
      "safeTransferFrom(address,address,uint256,bytes)": {
        "details": "See {IERC721-safeTransferFrom}."
      },
      "setApprovalForAll(address,bool)": {
        "details": "See {IERC721-setApprovalForAll}."
      },
      "supportsInterface(bytes4)": {
        "details": "See {IERC165-supportsInterface}"
      },
      "symbol()": {
        "details": "See {IERC721Metadata-symbol}."
      },
      "tokenURI(uint256)": {
        "details": "See {IERC721Metadata-tokenURI}."
      },
      "transferFrom(address,address,uint256)": {
        "details": "See {IERC721-transferFrom}."
      }
    },
    "version": 1
  },
  "userdoc": {
    "kind": "user",
    "methods": {},
    "version": 1
  }
}