{
  "contractName": "TicketMister",
  "abi": [
    {
      "inputs": [],
      "stateMutability": "nonpayable",
      "type": "constructor"
    },
    {
      "anonymous": false,
      "inputs": [
        {
          "indexed": true,
          "internalType": "address",
          "name": "owner",
          "type": "address"
        },
        {
          "indexed": true,
          "internalType": "address",
          "name": "approved",
          "type": "address"
        },
        {
          "indexed": true,
          "internalType": "uint256",
          "name": "tokenId",
          "type": "uint256"
        }
      ],
      "name": "Approval",
      "type": "event"
    },
    {
      "anonymous": false,
      "inputs": [
        {
          "indexed": true,
          "internalType": "address",
          "name": "owner",
          "type": "address"
        },
        {
          "indexed": true,
          "internalType": "address",
          "name": "operator",
          "type": "address"
        },
        {
          "indexed": false,
          "internalType": "bool",
          "name": "approved",
          "type": "bool"
        }
      ],
      "name": "ApprovalForAll",
      "type": "event"
    },
    {
      "anonymous": false,
      "inputs": [
        {
          "indexed": false,
          "internalType": "uint256",
          "name": "_fromTokenId",
          "type": "uint256"
        },
        {
          "indexed": false,
          "internalType": "uint256",
          "name": "_toTokenId",
          "type": "uint256"
        }
      ],
      "name": "BatchMetadataUpdate",
      "type": "event"
    },
    {
      "anonymous": false,
      "inputs": [
        {
          "indexed": false,
          "internalType": "uint256",
          "name": "eventId",
          "type": "uint256"
        },
        {
          "indexed": false,
          "internalType": "string",
          "name": "eventName",
          "type": "string"
        },
        {
          "indexed": false,
          "internalType": "string",
          "name": "eventDescription",
          "type": "string"
        },
        {
          "indexed": false,
          "internalType": "uint256",
          "name": "maxResalePercentage",
          "type": "uint256"
        }
      ],
      "name": "EventDetailsUpdated",
      "type": "event"
    },
    {
      "anonymous": false,
      "inputs": [
        {
          "indexed": false,
          "internalType": "uint256",
          "name": "maxResalePrice",
          "type": "uint256"
        }
      ],
      "name": "MaxResalePriceCalculated",
      "type": "event"
    },
    {
      "anonymous": false,
      "inputs": [
        {
          "indexed": false,
          "internalType": "uint256",
          "name": "_tokenId",
          "type": "uint256"
        }
      ],
      "name": "MetadataUpdate",
      "type": "event"
    },
    {
      "anonymous": false,
      "inputs": [
        {
          "indexed": true,
          "internalType": "address",
          "name": "previousOwner",
          "type": "address"
        },
        {
          "indexed": true,
          "internalType": "address",
          "name": "newOwner",
          "type": "address"
        }
      ],
      "name": "OwnershipTransferred",
      "type": "event"
    },
    {
      "anonymous": false,
      "inputs": [
        {
          "indexed": true,
          "internalType": "address",
          "name": "from",
          "type": "address"
        },
        {
          "indexed": true,
          "internalType": "address",
          "name": "to",
          "type": "address"
        },
        {
          "indexed": true,
          "internalType": "uint256",
          "name": "tokenId",
          "type": "uint256"
        }
      ],
      "name": "Transfer",
      "type": "event"
    },
    {
      "anonymous": false,
      "inputs": [
        {
          "indexed": false,
          "internalType": "uint256",
          "name": "eventId",
          "type": "uint256"
        },
        {
          "indexed": false,
          "internalType": "string",
          "name": "eventName",
          "type": "string"
        },
        {
          "indexed": false,
          "internalType": "address",
          "name": "organiser",
          "type": "address"
        }
      ],
      "name": "eventCreated",
      "type": "event"
    },
    {
      "anonymous": false,
      "inputs": [
        {
          "indexed": false,
          "internalType": "uint256",
          "name": "ticketId",
          "type": "uint256"
        },
        {
          "indexed": false,
          "internalType": "address",
          "name": "seller",
          "type": "address"
        },
        {
          "indexed": false,
          "internalType": "uint256",
          "name": "price",
          "type": "uint256"
        }
      ],
      "name": "ticketListedForResale",
      "type": "event"
    },
    {
      "anonymous": false,
      "inputs": [
        {
          "indexed": false,
          "internalType": "uint256",
          "name": "ticketId",
          "type": "uint256"
        },
        {
          "indexed": false,
          "internalType": "address",
          "name": "buyer",
          "type": "address"
        },
        {
          "indexed": false,
          "internalType": "address",
          "name": "seller",
          "type": "address"
        },
        {
          "indexed": false,
          "internalType": "uint256",
          "name": "price",
          "type": "uint256"
        }
      ],
      "name": "ticketSold",
      "type": "event"
    },
    {
      "anonymous": false,
      "inputs": [
        {
          "indexed": false,
          "internalType": "uint256",
          "name": "ticketId",
          "type": "uint256"
        },
        {
          "indexed": false,
          "internalType": "address",
          "name": "seller",
          "type": "address"
        }
      ],
      "name": "ticketUnlistedFromResale",
      "type": "event"
    },
    {
      "inputs": [
        {
          "internalType": "address",
          "name": "to",
          "type": "address"
        },
        {
          "internalType": "uint256",
          "name": "tokenId",
          "type": "uint256"
        }
      ],
      "name": "approve",
      "outputs": [],
      "stateMutability": "nonpayable",
      "type": "function"
    },
    {
      "inputs": [
        {
          "internalType": "address",
          "name": "owner",
          "type": "address"
        }
      ],
      "name": "balanceOf",
      "outputs": [
        {
          "internalType": "uint256",
          "name": "",
          "type": "uint256"
        }
      ],
      "stateMutability": "view",
      "type": "function"
    },
    {
      "inputs": [
        {
          "internalType": "uint256",
          "name": "tokenId",
          "type": "uint256"
        }
      ],
      "name": "getApproved",
      "outputs": [
        {
          "internalType": "address",
          "name": "",
          "type": "address"
        }
      ],
      "stateMutability": "view",
      "type": "function"
    },
    {
      "inputs": [
        {
          "internalType": "address",
          "name": "owner",
          "type": "address"
        },
        {
          "internalType": "address",
          "name": "operator",
          "type": "address"
        }
      ],
      "name": "isApprovedForAll",
      "outputs": [
        {
          "internalType": "bool",
          "name": "",
          "type": "bool"
        }
      ],
      "stateMutability": "view",
      "type": "function"
    },
    {
      "inputs": [],
      "name": "name",
      "outputs": [
        {
          "internalType": "string",
          "name": "",
          "type": "string"
        }
      ],
      "stateMutability": "view",
      "type": "function"
    },
    {
      "inputs": [],
      "name": "owner",
      "outputs": [
        {
          "internalType": "address",
          "name": "",
          "type": "address"
        }
      ],
      "stateMutability": "view",
      "type": "function"
    },
    {
      "inputs": [
        {
          "internalType": "uint256",
          "name": "tokenId",
          "type": "uint256"
        }
      ],
      "name": "ownerOf",
      "outputs": [
        {
          "internalType": "address",
          "name": "",
          "type": "address"
        }
      ],
      "stateMutability": "view",
      "type": "function"
    },
    {
      "inputs": [],
      "name": "renounceOwnership",
      "outputs": [],
      "stateMutability": "nonpayable",
      "type": "function"
    },
    {
      "inputs": [
        {
          "internalType": "address",
          "name": "from",
          "type": "address"
        },
        {
          "internalType": "address",
          "name": "to",
          "type": "address"
        },
        {
          "internalType": "uint256",
          "name": "tokenId",
          "type": "uint256"
        }
      ],
      "name": "safeTransferFrom",
      "outputs": [],
      "stateMutability": "nonpayable",
      "type": "function"
    },
    {
      "inputs": [
        {
          "internalType": "address",
          "name": "from",
          "type": "address"
        },
        {
          "internalType": "address",
          "name": "to",
          "type": "address"
        },
        {
          "internalType": "uint256",
          "name": "tokenId",
          "type": "uint256"
        },
        {
          "internalType": "bytes",
          "name": "data",
          "type": "bytes"
        }
      ],
      "name": "safeTransferFrom",
      "outputs": [],
      "stateMutability": "nonpayable",
      "type": "function"
    },
    {
      "inputs": [
        {
          "internalType": "address",
          "name": "operator",
          "type": "address"
        },
        {
          "internalType": "bool",
          "name": "approved",
          "type": "bool"
        }
      ],
      "name": "setApprovalForAll",
      "outputs": [],
      "stateMutability": "nonpayable",
      "type": "function"
    },
    {
      "inputs": [
        {
          "internalType": "bytes4",
          "name": "interfaceId",
          "type": "bytes4"
        }
      ],
      "name": "supportsInterface",
      "outputs": [
        {
          "internalType": "bool",
          "name": "",
          "type": "bool"
        }
      ],
      "stateMutability": "view",
      "type": "function"
    },
    {
      "inputs": [],
      "name": "symbol",
      "outputs": [
        {
          "internalType": "string",
          "name": "",
          "type": "string"
        }
      ],
      "stateMutability": "view",
      "type": "function"
    },
    {
      "inputs": [
        {
          "internalType": "uint256",
          "name": "tokenId",
          "type": "uint256"
        }
      ],
      "name": "tokenURI",
      "outputs": [
        {
          "internalType": "string",
          "name": "",
          "type": "string"
        }
      ],
      "stateMutability": "view",
      "type": "function"
    },
    {
      "inputs": [
        {
          "internalType": "address",
          "name": "from",
          "type": "address"
        },
        {
          "internalType": "address",
          "name": "to",
          "type": "address"
        },
        {
          "internalType": "uint256",
          "name": "tokenId",
          "type": "uint256"
        }
      ],
      "name": "transferFrom",
      "outputs": [],
      "stateMutability": "nonpayable",
      "type": "function"
    },
    {
      "inputs": [
        {
          "internalType": "address",
          "name": "newOwner",
          "type": "address"
        }
      ],
      "name": "transferOwnership",
      "outputs": [],
      "stateMutability": "nonpayable",
      "type": "function"
    },
    {
      "inputs": [
        {
          "internalType": "string",
          "name": "eventName",
          "type": "string"
        },
        {
          "internalType": "string",
          "name": "eventDescription",
          "type": "string"
        },
        {
          "internalType": "uint256",
          "name": "maxResalePercentage",
          "type": "uint256"
        }
      ],
      "name": "createEvent",
      "outputs": [],
      "stateMutability": "nonpayable",
      "type": "function"
    },
    {
      "inputs": [
        {
          "internalType": "uint256",
          "name": "eventId",
          "type": "uint256"
        },
        {
          "internalType": "string",
          "name": "categoryName",
          "type": "string"
        },
        {
          "internalType": "string",
          "name": "description",
          "type": "string"
        },
        {
          "internalType": "uint256",
          "name": "ticketPrice",
          "type": "uint256"
        },
        {
          "internalType": "uint256",
          "name": "numberOfTickets",
          "type": "uint256"
        }
      ],
      "name": "createCategory",
      "outputs": [],
      "stateMutability": "nonpayable",
      "type": "function"
    },
    {
      "inputs": [
        {
          "internalType": "uint256",
          "name": "ticketId",
          "type": "uint256"
        }
      ],
      "name": "buyTicket",
      "outputs": [],
      "stateMutability": "payable",
      "type": "function"
    },
    {
      "inputs": [
        {
          "internalType": "uint256",
          "name": "ticketId",
          "type": "uint256"
        },
        {
          "internalType": "uint256",
          "name": "price",
          "type": "uint256"
        }
      ],
      "name": "listTicketForResale",
      "outputs": [],
      "stateMutability": "nonpayable",
      "type": "function"
    },
    {
      "inputs": [
        {
          "internalType": "uint256",
          "name": "ticketId",
          "type": "uint256"
        }
      ],
      "name": "unlistTicketFromResale",
      "outputs": [],
      "stateMutability": "nonpayable",
      "type": "function"
    },
    {
      "inputs": [
        {
          "internalType": "address",
          "name": "to",
          "type": "address"
        },
        {
          "internalType": "uint256[]",
          "name": "ticketIds",
          "type": "uint256[]"
        }
      ],
      "name": "transferMultipleTickets",
      "outputs": [],
      "stateMutability": "nonpayable",
      "type": "function"
    },
    {
      "inputs": [
        {
          "internalType": "uint256",
          "name": "eventId",
          "type": "uint256"
        }
      ],
      "name": "viewAllEventTickets",
      "outputs": [
        {
          "components": [
            {
              "internalType": "uint256",
              "name": "eventId",
              "type": "uint256"
            },
            {
              "internalType": "uint256",
              "name": "categoryId",
              "type": "uint256"
            },
            {
              "internalType": "uint256",
              "name": "ticketId",
              "type": "uint256"
            },
            {
              "internalType": "address",
              "name": "owner",
              "type": "address"
            },
            {
              "internalType": "uint256",
              "name": "originalPrice",
              "type": "uint256"
            },
            {
              "internalType": "bool",
              "name": "isForSale",
              "type": "bool"
            },
            {
              "internalType": "uint256",
              "name": "resalePrice",
              "type": "uint256"
            }
          ],
          "internalType": "struct TicketMister.TicketInfo[]",
          "name": "",
          "type": "tuple[]"
        }
      ],
      "stateMutability": "view",
      "type": "function"
    },
    {
      "inputs": [
        {
          "internalType": "uint256",
          "name": "eventId",
          "type": "uint256"
        }
      ],
      "name": "cancelEventAndRefund",
      "outputs": [],
      "stateMutability": "nonpayable",
      "type": "function"
    },
    {
      "inputs": [
        {
          "internalType": "uint256",
          "name": "eventId",
          "type": "uint256"
        },
        {
          "internalType": "string",
          "name": "eventName",
          "type": "string"
        },
        {
          "internalType": "string",
          "name": "eventDescription",
          "type": "string"
        },
        {
          "internalType": "uint256",
          "name": "maxResalePercentage",
          "type": "uint256"
        }
      ],
      "name": "updateEventDetails",
      "outputs": [],
      "stateMutability": "nonpayable",
      "type": "function"
    },
    {
      "inputs": [],
      "name": "viewMyTickets",
      "outputs": [
        {
          "components": [
            {
              "internalType": "uint256",
              "name": "eventId",
              "type": "uint256"
            },
            {
              "internalType": "uint256",
              "name": "categoryId",
              "type": "uint256"
            },
            {
              "internalType": "uint256",
              "name": "ticketId",
              "type": "uint256"
            },
            {
              "internalType": "address",
              "name": "owner",
              "type": "address"
            },
            {
              "internalType": "uint256",
              "name": "originalPrice",
              "type": "uint256"
            },
            {
              "internalType": "bool",
              "name": "isForSale",
              "type": "bool"
            },
            {
              "internalType": "uint256",
              "name": "resalePrice",
              "type": "uint256"
            }
          ],
          "internalType": "struct TicketMister.TicketInfo[]",
          "name": "",
          "type": "tuple[]"
        }
      ],
      "stateMutability": "view",
      "type": "function"
    },
    {
      "inputs": [
        {
          "internalType": "uint256",
          "name": "eventId",
          "type": "uint256"
        }
      ],
      "name": "getEventInfo",
      "outputs": [
        {
          "internalType": "uint256",
          "name": "",
          "type": "uint256"
        },
        {
          "internalType": "address",
          "name": "",
          "type": "address"
        },
        {
          "internalType": "string",
          "name": "",
          "type": "string"
        },
        {
          "internalType": "string",
          "name": "",
          "type": "string"
        },
        {
          "internalType": "uint256",
          "name": "",
          "type": "uint256"
        },
        {
          "internalType": "uint256",
          "name": "",
          "type": "uint256"
        },
        {
          "internalType": "uint256",
          "name": "",
          "type": "uint256"
        },
        {
          "internalType": "bool",
          "name": "",
          "type": "bool"
        },
        {
          "internalType": "uint256[]",
          "name": "",
          "type": "uint256[]"
        }
      ],
      "stateMutability": "view",
      "type": "function"
    },
    {
      "inputs": [
        {
          "internalType": "uint256",
          "name": "categoryId",
          "type": "uint256"
        }
      ],
      "name": "getCategoryInfo",
      "outputs": [
        {
          "internalType": "uint256",
          "name": "",
          "type": "uint256"
        },
        {
          "internalType": "uint256",
          "name": "",
          "type": "uint256"
        },
        {
          "internalType": "string",
          "name": "",
          "type": "string"
        },
        {
          "internalType": "string",
          "name": "",
          "type": "string"
        },
        {
          "internalType": "uint256",
          "name": "",
          "type": "uint256"
        },
        {
          "internalType": "uint256",
          "name": "",
          "type": "uint256"
        }
      ],
      "stateMutability": "view",
      "type": "function"
    },
    {
      "inputs": [
        {
          "internalType": "uint256",
          "name": "ticketId",
          "type": "uint256"
        }
      ],
      "name": "getTicketInfo",
      "outputs": [
        {
          "internalType": "uint256",
          "name": "",
          "type": "uint256"
        },
        {
          "internalType": "uint256",
          "name": "",
          "type": "uint256"
        },
        {
          "internalType": "uint256",
          "name": "",
          "type": "uint256"
        },
        {
          "internalType": "address",
          "name": "",
          "type": "address"
        },
        {
          "internalType": "uint256",
          "name": "",
          "type": "uint256"
        },
        {
          "internalType": "bool",
          "name": "",
          "type": "bool"
        },
        {
          "internalType": "uint256",
          "name": "",
          "type": "uint256"
        }
      ],
      "stateMutability": "view",
      "type": "function"
    }
  ],
  "bytecode": "0x60806040523480156200001157600080fd5b506040518060400160405280600c81526020017f5469636b65744d697374657200000000000000000000000000000000000000008152506040518060400160405280600381526020017f544d540000000000000000000000000000000000000000000000000000000000815250816000908051906020019062000096929190620001a6565b508060019080519060200190620000af929190620001a6565b505050620000d2620000c6620000d860201b60201c565b620000e060201b60201c565b620002bb565b600033905090565b6000600760009054906101000a900473ffffffffffffffffffffffffffffffffffffffff16905081600760006101000a81548173ffffffffffffffffffffffffffffffffffffffff021916908373ffffffffffffffffffffffffffffffffffffffff1602179055508173ffffffffffffffffffffffffffffffffffffffff168173ffffffffffffffffffffffffffffffffffffffff167f8be0079c531659141344cd1fd0a4f28419497f9722a3daafe3b4186f6b6457e060405160405180910390a35050565b828054620001b49062000256565b90600052602060002090601f016020900481019282620001d8576000855562000224565b82601f10620001f357805160ff191683800117855562000224565b8280016001018555821562000224579182015b828111156200022357825182559160200191906001019062000206565b5b50905062000233919062000237565b5090565b5b808211156200025257600081600090555060010162000238565b5090565b600060028204905060018216806200026f57607f821691505b602082108114156200028657620002856200028c565b5b50919050565b7f4e487b7100000000000000000000000000000000000000000000000000000000600052602260045260246000fd5b616fcd80620002cb6000396000f3fe6080604052600436106101c25760003560e01c806370a08231116100f7578063b88d4fde11610095578063cf52f78011610064578063cf52f7801461065e578063e985e9c514610687578063f2fde38b146106c4578063ff99a063146106ed576101c2565b8063b88d4fde1461058d578063ba0537d9146105b6578063c3711383146105df578063c87b56dd14610621576101c2565b806393dca79d116100d157806393dca79d146104d357806395d89b41146104fc578063a22cb46514610527578063b5fefe0614610550576101c2565b806370a0823114610454578063715018a6146104915780638da5cb5b146104a8576101c2565b806323ed75b0116101645780635b906bd71161013e5780635b906bd7146103a95780636053b0ef146103d25780636352211e146103fb57806367dd74ca14610438576101c2565b806323ed75b01461032e57806342842e0e146103575780635555fe1714610380576101c2565b8063095ea7b3116101a0578063095ea7b31461026c578063148f6d19146102955780631d645b12146102c057806323b872dd14610305576101c2565b806301ffc9a7146101c757806306fdde0314610204578063081812fc1461022f575b600080fd5b3480156101d357600080fd5b506101ee60048036038101906101e991906151ed565b610730565b6040516101fb9190615c04565b60405180910390f35b34801561021057600080fd5b50610219610791565b6040516102269190615c1f565b60405180910390f35b34801561023b57600080fd5b50610256600480360381019061025191906152be565b610823565b6040516102639190615b7b565b60405180910390f35b34801561027857600080fd5b50610293600480360381019061028e91906151b1565b610869565b005b3480156102a157600080fd5b506102aa610981565b6040516102b79190615be2565b60405180910390f35b3480156102cc57600080fd5b506102e760048036038101906102e291906152be565b610c07565b6040516102fc999897969594939291906160ea565b60405180910390f35b34801561031157600080fd5b5061032c60048036038101906103279190615057565b610ee0565b005b34801561033a57600080fd5b5061035560048036038101906103509190615121565b610f40565b005b34801561036357600080fd5b5061037e60048036038101906103799190615057565b611080565b005b34801561038c57600080fd5b506103a760048036038101906103a2919061523f565b6110a0565b005b3480156103b557600080fd5b506103d060048036038101906103cb91906152be565b611448565b005b3480156103de57600080fd5b506103f960048036038101906103f49190615421565b611664565b005b34801561040757600080fd5b50610422600480360381019061041d91906152be565b611baa565b60405161042f9190615b7b565b60405180910390f35b610452600480360381019061044d91906152be565b611c31565b005b34801561046057600080fd5b5061047b60048036038101906104769190614ff2565b612263565b6040516104889190616061565b60405180910390f35b34801561049d57600080fd5b506104a661231b565b005b3480156104b457600080fd5b506104bd61232f565b6040516104ca9190615b7b565b60405180910390f35b3480156104df57600080fd5b506104fa60048036038101906104f591906152be565b612359565b005b34801561050857600080fd5b506105116126c0565b60405161051e9190615c1f565b60405180910390f35b34801561053357600080fd5b5061054e60048036038101906105499190615175565b612752565b005b34801561055c57600080fd5b50610577600480360381019061057291906152be565b612768565b6040516105849190615be2565b60405180910390f35b34801561059957600080fd5b506105b460048036038101906105af91906150a6565b612a0f565b005b3480156105c257600080fd5b506105dd60048036038101906105d891906152e7565b612a71565b005b3480156105eb57600080fd5b50610606600480360381019061060191906152be565b612c0c565b60405161061896959493929190616254565b60405180910390f35b34801561062d57600080fd5b50610648600480360381019061064391906152be565b612dfc565b6040516106559190615c1f565b60405180910390f35b34801561066a57600080fd5b506106856004803603810190610680919061537a565b612f0f565b005b34801561069357600080fd5b506106ae60048036038101906106a9919061501b565b6130d7565b6040516106bb9190615c04565b60405180910390f35b3480156106d057600080fd5b506106eb60048036038101906106e69190614ff2565b61316b565b005b3480156106f957600080fd5b50610714600480360381019061070f91906152be565b6131ef565b60405161072797969594939291906162c3565b60405180910390f35b6000634906490660e01b7bffffffffffffffffffffffffffffffffffffffffffffffffffffffff1916827bffffffffffffffffffffffffffffffffffffffffffffffffffffffff1916148061078a575061078982613341565b5b9050919050565b6060600080546107a090616665565b80601f01602080910402602001604051908101604052809291908181526020018280546107cc90616665565b80156108195780601f106107ee57610100808354040283529160200191610819565b820191906000526020600020905b8154815290600101906020018083116107fc57829003601f168201915b5050505050905090565b600061082e82613423565b6004600083815260200190815260200160002060009054906101000a900473ffffffffffffffffffffffffffffffffffffffff169050919050565b600061087482611baa565b90508073ffffffffffffffffffffffffffffffffffffffff168373ffffffffffffffffffffffffffffffffffffffff1614156108e5576040517f08c379a00000000000000000000000000000000000000000000000000000000081526004016108dc90615f01565b60405180910390fd5b8073ffffffffffffffffffffffffffffffffffffffff1661090461346e565b73ffffffffffffffffffffffffffffffffffffffff16148061093357506109328161092d61346e565b6130d7565b5b610972576040517f08c379a000000000000000000000000000000000000000000000000000000000815260040161096990615f41565b60405180910390fd5b61097c8383613476565b505050565b60606000600f60003373ffffffffffffffffffffffffffffffffffffffff1673ffffffffffffffffffffffffffffffffffffffff168152602001908152602001600020805480602002602001604051908101604052809291908181526020018280548015610a0e57602002820191906000526020600020905b8154815260200190600101908083116109fa575b505050505090506000815167ffffffffffffffff811115610a58577f4e487b7100000000000000000000000000000000000000000000000000000000600052604160045260246000fd5b604051908082528060200260200182016040528015610a9157816020015b610a7e614cbd565b815260200190600190039081610a765790505b50905060005b8251811015610bfe576000838281518110610adb577f4e487b7100000000000000000000000000000000000000000000000000000000600052603260045260246000fd5b60200260200101519050600b60008281526020019081526020016000206040518060e00160405290816000820154815260200160018201548152602001600282015481526020016003820160009054906101000a900473ffffffffffffffffffffffffffffffffffffffff1673ffffffffffffffffffffffffffffffffffffffff1673ffffffffffffffffffffffffffffffffffffffff168152602001600482015481526020016005820160009054906101000a900460ff16151515158152602001600682015481525050838381518110610bdf577f4e487b7100000000000000000000000000000000000000000000000000000000600052603260045260246000fd5b6020026020010181905250508080610bf6906166c8565b915050610a97565b50809250505090565b60008060608060008060008060606008548a1115610c5a576040517f08c379a0000000000000000000000000000000000000000000000000000000008152600401610c5190616001565b60405180910390fd5b6000600c60008c815260200190815260200160002060405180610120016040529081600082015481526020016001820160009054906101000a900473ffffffffffffffffffffffffffffffffffffffff1673ffffffffffffffffffffffffffffffffffffffff1673ffffffffffffffffffffffffffffffffffffffff168152602001600282018054610ceb90616665565b80601f0160208091040260200160405190810160405280929190818152602001828054610d1790616665565b8015610d645780601f10610d3957610100808354040283529160200191610d64565b820191906000526020600020905b815481529060010190602001808311610d4757829003601f168201915b50505050508152602001600382018054610d7d90616665565b80601f0160208091040260200160405190810160405280929190818152602001828054610da990616665565b8015610df65780601f10610dcb57610100808354040283529160200191610df6565b820191906000526020600020905b815481529060010190602001808311610dd957829003601f168201915b505050505081526020016004820154815260200160058201548152602001600682015481526020016007820160009054906101000a900460ff1615151515815260200160088201805480602002602001604051908101604052809291908181526020018280548015610e8757602002820191906000526020600020905b815481526020019060010190808311610e73575b5050505050815250509050806000015181602001518260400151836060015184608001518560a001518660c001518760e00151886101000151995099509950995099509950995099509950509193959799909294969850565b610ef1610eeb61346e565b8261352f565b610f30576040517f08c379a0000000000000000000000000000000000000000000000000000000008152600401610f2790615c61565b60405180910390fd5b610f3b8383836135c4565b505050565b60005b815181101561107b576000828281518110610f87577f4e487b7100000000000000000000000000000000000000000000000000000000600052603260045260246000fd5b602002602001015190503373ffffffffffffffffffffffffffffffffffffffff16610fb182611baa565b73ffffffffffffffffffffffffffffffffffffffff1614611007576040517f08c379a0000000000000000000000000000000000000000000000000000000008152600401610ffe90615de1565b60405180910390fd5b6110123385836138be565b83600b600083815260200190815260200160002060030160006101000a81548173ffffffffffffffffffffffffffffffffffffffff021916908373ffffffffffffffffffffffffffffffffffffffff160217905550508080611073906166c8565b915050610f43565b505050565b61109b83838360405180602001604052806000815250612a0f565b505050565b600860008154809291906110b3906166c8565b91905055506000600854905060006040518061012001604052808381526020013373ffffffffffffffffffffffffffffffffffffffff1681526020018681526020018581526020016000815260200160008152602001848152602001600115158152602001600067ffffffffffffffff811115611159577f4e487b7100000000000000000000000000000000000000000000000000000000600052604160045260246000fd5b6040519080825280602002602001820160405280156111875781602001602082028036833780820191505090505b50815250905080600c60008481526020019081526020016000206000820151816000015560208201518160010160006101000a81548173ffffffffffffffffffffffffffffffffffffffff021916908373ffffffffffffffffffffffffffffffffffffffff160217905550604082015181600201908051906020019061120e929190614d12565b50606082015181600301908051906020019061122b929190614d12565b506080820151816004015560a0820151816005015560c0820151816006015560e08201518160070160006101000a81548160ff021916908315150217905550610100820151816008019080519060200190611287929190614d98565b5090505060128190806001815401808255809150506001900390600052602060002090600902016000909190919091506000820151816000015560208201518160010160006101000a81548173ffffffffffffffffffffffffffffffffffffffff021916908373ffffffffffffffffffffffffffffffffffffffff1602179055506040820151816002019080519060200190611324929190614d12565b506060820151816003019080519060200190611341929190614d12565b506080820151816004015560a0820151816005015560c0820151816006015560e08201518160070160006101000a81548160ff02191690831515021790555061010082015181600801908051906020019061139d929190614d98565b505050600e60003373ffffffffffffffffffffffffffffffffffffffff1673ffffffffffffffffffffffffffffffffffffffff1681526020019081526020016000208290806001815401808255809150506001900390600052602060002001600090919091909150557fc289dc0834afce1928a99ab79e00669db71091db16f571ad965d5ed147da0afe828633604051611439939291906161c3565b60405180910390a15050505050565b3373ffffffffffffffffffffffffffffffffffffffff1661146882611baa565b73ffffffffffffffffffffffffffffffffffffffff16146114be576040517f08c379a00000000000000000000000000000000000000000000000000000000081526004016114b590615d81565b60405180910390fd5b6000600b60008381526020019081526020016000206040518060e00160405290816000820154815260200160018201548152602001600282015481526020016003820160009054906101000a900473ffffffffffffffffffffffffffffffffffffffff1673ffffffffffffffffffffffffffffffffffffffff1673ffffffffffffffffffffffffffffffffffffffff168152602001600482015481526020016005820160009054906101000a900460ff161515151581526020016006820154815250509050600115158160a001511515146115ce576040517f08c379a00000000000000000000000000000000000000000000000000000000081526004016115c590615fe1565b60405180910390fd5b6000600b600084815260200190815260200160002060050160006101000a81548160ff0219169083151502179055506000600b600084815260200190815260200160002060060181905550611627816000015183613a24565b7f4a891ae0e779db402c7e720a700f7470c92565c84d19711fa900ec87f4172b5b823360405161165892919061607c565b60405180910390a15050565b3373ffffffffffffffffffffffffffffffffffffffff1661168483611baa565b73ffffffffffffffffffffffffffffffffffffffff16146116da576040517f08c379a00000000000000000000000000000000000000000000000000000000081526004016116d190615d81565b60405180910390fd5b6000600b60008481526020019081526020016000206040518060e00160405290816000820154815260200160018201548152602001600282015481526020016003820160009054906101000a900473ffffffffffffffffffffffffffffffffffffffff1673ffffffffffffffffffffffffffffffffffffffff1673ffffffffffffffffffffffffffffffffffffffff168152602001600482015481526020016005820160009054906101000a900460ff161515151581526020016006820154815250509050600015158160a001511515146117ea576040517f08c379a00000000000000000000000000000000000000000000000000000000081526004016117e190615da1565b60405180910390fd5b60008160c0015114611831576040517f08c379a000000000000000000000000000000000000000000000000000000000815260040161182890615e21565b60405180910390fd5b6000600c60008360000151815260200190815260200160002060405180610120016040529081600082015481526020016001820160009054906101000a900473ffffffffffffffffffffffffffffffffffffffff1673ffffffffffffffffffffffffffffffffffffffff1673ffffffffffffffffffffffffffffffffffffffff1681526020016002820180546118c690616665565b80601f01602080910402602001604051908101604052809291908181526020018280546118f290616665565b801561193f5780601f106119145761010080835404028352916020019161193f565b820191906000526020600020905b81548152906001019060200180831161192257829003601f168201915b5050505050815260200160038201805461195890616665565b80601f016020809104026020016040519081016040528092919081815260200182805461198490616665565b80156119d15780601f106119a6576101008083540402835291602001916119d1565b820191906000526020600020905b8154815290600101906020018083116119b457829003601f168201915b505050505081526020016004820154815260200160058201548152602001600682015481526020016007820160009054906101000a900460ff1615151515815260200160088201805480602002602001604051908101604052809291908181526020018280548015611a6257602002820191906000526020600020905b815481526020019060010190808311611a4e575b50505050508152505090506000600160648360c00151611a8291906164f0565b611a8c919061649a565b8360800151611a9b9190616521565b905080841115611ae0576040517f08c379a0000000000000000000000000000000000000000000000000000000008152600401611ad790615f81565b60405180910390fd5b83600b6000878152602001908152602001600020600601819055506001600b600087815260200190815260200160002060050160006101000a81548160ff02191690831515021790555060106000846000015181526020019081526020016000208590806001815401808255809150506001900390600052602060002001600090919091909150557fb852647c1ba317c7485f6f5732fe8b19b23ca3ea408034ccf31d44856c60208e853386604051611b9b9392919061618c565b60405180910390a15050505050565b600080611bb683613b86565b9050600073ffffffffffffffffffffffffffffffffffffffff168173ffffffffffffffffffffffffffffffffffffffff161415611c28576040517f08c379a0000000000000000000000000000000000000000000000000000000008152600401611c1f90615ee1565b60405180910390fd5b80915050919050565b611c3a81613bc3565b611c79576040517f08c379a0000000000000000000000000000000000000000000000000000000008152600401611c7090615d41565b60405180910390fd5b6000600b60008381526020019081526020016000206040518060e00160405290816000820154815260200160018201548152602001600282015481526020016003820160009054906101000a900473ffffffffffffffffffffffffffffffffffffffff1673ffffffffffffffffffffffffffffffffffffffff1673ffffffffffffffffffffffffffffffffffffffff168152602001600482015481526020016005820160009054906101000a900460ff1615151515815260200160068201548152505090506000816060015190508160a00151611d8b576040517f08c379a0000000000000000000000000000000000000000000000000000000008152600401611d8290616041565b60405180910390fd5b8160c001513414611dd1576040517f08c379a0000000000000000000000000000000000000000000000000000000008152600401611dc890616021565b60405180910390fd5b8073ffffffffffffffffffffffffffffffffffffffff163373ffffffffffffffffffffffffffffffffffffffff161415611e40576040517f08c379a0000000000000000000000000000000000000000000000000000000008152600401611e3790615e61565b60405180910390fd5b6000819050611e508233866138be565b8073ffffffffffffffffffffffffffffffffffffffff166108fc349081150290604051600060405180830381858888f19350505050158015611e96573d6000803e3d6000fd5b5033600b600086815260200190815260200160002060030160006101000a81548173ffffffffffffffffffffffffffffffffffffffff021916908373ffffffffffffffffffffffffffffffffffffffff1602179055506000600b600086815260200190815260200160002060050160006101000a81548160ff0219169083151502179055506000600b600086815260200190815260200160002060060181905550601160008460000151815260200190815260200160002084908060018154018082558091505060019003906000526020600020016000909190919091505560005b600f60008473ffffffffffffffffffffffffffffffffffffffff1673ffffffffffffffffffffffffffffffffffffffff1681526020019081526020016000208054905081101561206d5784600f60008573ffffffffffffffffffffffffffffffffffffffff1673ffffffffffffffffffffffffffffffffffffffff168152602001908152602001600020828154811061203a577f4e487b7100000000000000000000000000000000000000000000000000000000600052603260045260246000fd5b9060005260206000200154141561205a576120558382613c04565b61206d565b8080612065906166c8565b915050611f78565b50600f60003373ffffffffffffffffffffffffffffffffffffffff1673ffffffffffffffffffffffffffffffffffffffff16815260200190815260200160002084908060018154018082558091505060019003906000526020600020016000909190919091505560005b601060008560000151815260200190815260200160002080549050811015612180578460106000866000015181526020019081526020016000208281548110612149577f4e487b7100000000000000000000000000000000000000000000000000000000600052603260045260246000fd5b9060005260206000200154141561216d57612168846000015182613a24565b612180565b8080612178906166c8565b9150506120d7565b50600c60008460000151815260200190815260200160002060010160009054906101000a900473ffffffffffffffffffffffffffffffffffffffff1673ffffffffffffffffffffffffffffffffffffffff168273ffffffffffffffffffffffffffffffffffffffff16141561222057600c600084600001518152602001908152602001600020600501600081548092919061221a906166c8565b91905055505b7ff0e0db42a7a0ca5f3ce8dd6dd05ed77ae315f1f448a1f9b634fe849743aaa95c8433843460405161225594939291906160a5565b60405180910390a150505050565b60008073ffffffffffffffffffffffffffffffffffffffff168273ffffffffffffffffffffffffffffffffffffffff1614156122d4576040517f08c379a00000000000000000000000000000000000000000000000000000000081526004016122cb90615dc1565b60405180910390fd5b600360008373ffffffffffffffffffffffffffffffffffffffff1673ffffffffffffffffffffffffffffffffffffffff168152602001908152602001600020549050919050565b612323613e16565b61232d6000613e94565b565b6000600760009054906101000a900473ffffffffffffffffffffffffffffffffffffffff16905090565b80600061236582613f5a565b90508073ffffffffffffffffffffffffffffffffffffffff163373ffffffffffffffffffffffffffffffffffffffff16146123d5576040517f08c379a00000000000000000000000000000000000000000000000000000000081526004016123cc90615fa1565b60405180910390fd5b6000600c600085815260200190815260200160002090508060070160009054906101000a900460ff1661243d576040517f08c379a000000000000000000000000000000000000000000000000000000000815260040161243490615f21565b60405180910390fd5b60006011600086815260200190815260200160002080548060200260200160405190810160405280929190818152602001828054801561249c57602002820191906000526020600020905b815481526020019060010190808311612488575b5050505050905060005b815181101561266a5760008282815181106124ea577f4e487b7100000000000000000000000000000000000000000000000000000000600052603260045260246000fd5b6020026020010151905060006124ff82611baa565b90506000600b60008481526020019081526020016000206006015490506000811115612571578173ffffffffffffffffffffffffffffffffffffffff166108fc829081150290604051600060405180830381858888f1935050505015801561256b573d6000803e3d6000fd5b506125cf565b8173ffffffffffffffffffffffffffffffffffffffff166108fc600b6000868152602001908152602001600020600401549081150290604051600060405180830381858888f193505050501580156125cd573d6000803e3d6000fd5b505b6125db826000856135c4565b600b6000848152602001908152602001600020600080820160009055600182016000905560028201600090556003820160006101000a81549073ffffffffffffffffffffffffffffffffffffffff021916905560048201600090556005820160006101000a81549060ff0219169055600682016000905550505050508080612662906166c8565b9150506124a6565b5060106000868152602001908152602001600020600061268a9190614de5565b6000600c600087815260200190815260200160002060070160006101000a81548160ff0219169083151502179055505050505050565b6060600180546126cf90616665565b80601f01602080910402602001604051908101604052809291908181526020018280546126fb90616665565b80156127485780601f1061271d57610100808354040283529160200191612748565b820191906000526020600020905b81548152906001019060200180831161272b57829003601f168201915b5050505050905090565b61276461275d61346e565b8383613f9a565b5050565b60606008548211156127af576040517f08c379a00000000000000000000000000000000000000000000000000000000081526004016127a690615d61565b60405180910390fd5b60006010600084815260200190815260200160002080548060200260200160405190810160405280929190818152602001828054801561280e57602002820191906000526020600020905b8154815260200190600101908083116127fa575b505050505090506000815167ffffffffffffffff811115612858577f4e487b7100000000000000000000000000000000000000000000000000000000600052604160045260246000fd5b60405190808252806020026020018201604052801561289157816020015b61287e614cbd565b8152602001906001900390816128765790505b50905060005b8251811015612a045760008382815181106128db577f4e487b7100000000000000000000000000000000000000000000000000000000600052603260045260246000fd5b602002602001015190506000600b60008381526020019081526020016000206040518060e00160405290816000820154815260200160018201548152602001600282015481526020016003820160009054906101000a900473ffffffffffffffffffffffffffffffffffffffff1673ffffffffffffffffffffffffffffffffffffffff1673ffffffffffffffffffffffffffffffffffffffff168152602001600482015481526020016005820160009054906101000a900460ff161515151581526020016006820154815250509050808484815181106129e4577f4e487b7100000000000000000000000000000000000000000000000000000000600052603260045260246000fd5b6020026020010181905250505080806129fc906166c8565b915050612897565b508092505050919050565b612a20612a1a61346e565b8361352f565b612a5f576040517f08c379a0000000000000000000000000000000000000000000000000000000008152600401612a5690615c61565b60405180910390fd5b612a6b84848484614107565b50505050565b836000612a7d82613f5a565b90508073ffffffffffffffffffffffffffffffffffffffff163373ffffffffffffffffffffffffffffffffffffffff1614612aed576040517f08c379a0000000000000000000000000000000000000000000000000000000008152600401612ae490615fa1565b60405180910390fd5b6000600c600088815260200190815260200160002090508060070160009054906101000a900460ff16612b55576040517f08c379a0000000000000000000000000000000000000000000000000000000008152600401612b4c90615f21565b60405180910390fd5b85600c60008981526020019081526020016000206002019080519060200190612b7f929190614d12565b5084600c60008981526020019081526020016000206003019080519060200190612baa929190614d12565b5083600c6000898152602001908152602001600020600601819055507fbc18e0fb862bb8cd0d60d52538675d4e1e294545a4dfb01365d13266b007612687878787604051612bfb9493929190616201565b60405180910390a150505050505050565b600080606080600080600954871115612c5a576040517f08c379a0000000000000000000000000000000000000000000000000000000008152600401612c5190615fc1565b60405180910390fd5b6000600d60008981526020019081526020016000206040518060c00160405290816000820154815260200160018201548152602001600282018054612c9e90616665565b80601f0160208091040260200160405190810160405280929190818152602001828054612cca90616665565b8015612d175780601f10612cec57610100808354040283529160200191612d17565b820191906000526020600020905b815481529060010190602001808311612cfa57829003601f168201915b50505050508152602001600382018054612d3090616665565b80601f0160208091040260200160405190810160405280929190818152602001828054612d5c90616665565b8015612da95780601f10612d7e57610100808354040283529160200191612da9565b820191906000526020600020905b815481529060010190602001808311612d8c57829003601f168201915b50505050508152602001600482015481526020016005820154815250509050806000015181602001518260400151836060015184608001518560a001519650965096509650965096505091939550919395565b6060612e0782613423565b6000600660008481526020019081526020016000208054612e2790616665565b80601f0160208091040260200160405190810160405280929190818152602001828054612e5390616665565b8015612ea05780601f10612e7557610100808354040283529160200191612ea0565b820191906000526020600020905b815481529060010190602001808311612e8357829003601f168201915b505050505090506000612eb1614163565b9050600081511415612ec7578192505050612f0a565b600082511115612efc578082604051602001612ee4929190615b57565b60405160208183030381529060405292505050612f0a565b612f058461417a565b925050505b919050565b846000612f1b82613f5a565b90508073ffffffffffffffffffffffffffffffffffffffff163373ffffffffffffffffffffffffffffffffffffffff1614612f8b576040517f08c379a0000000000000000000000000000000000000000000000000000000008152600401612f8290615fa1565b60405180910390fd5b60096000815480929190612f9e906166c8565b91905055506000600954905060006040518060c001604052808a815260200183815260200189815260200188815260200187815260200186815250905080600d60008481526020019081526020016000206000820151816000015560208201518160010155604082015181600201908051906020019061301f929190614d12565b50606082015181600301908051906020019061303c929190614d12565b506080820151816004015560a08201518160050155905050600c60008a815260200190815260200160002060080182908060018154018082558091505060019003906000526020600020016000909190919091505561309f338a84888a336141e2565b84600c60008b815260200190815260200160002060040160008282546130c5919061649a565b92505081905550505050505050505050565b6000600560008473ffffffffffffffffffffffffffffffffffffffff1673ffffffffffffffffffffffffffffffffffffffff16815260200190815260200160002060008373ffffffffffffffffffffffffffffffffffffffff1673ffffffffffffffffffffffffffffffffffffffff16815260200190815260200160002060009054906101000a900460ff16905092915050565b613173613e16565b600073ffffffffffffffffffffffffffffffffffffffff168173ffffffffffffffffffffffffffffffffffffffff1614156131e3576040517f08c379a00000000000000000000000000000000000000000000000000000000081526004016131da90615ca1565b60405180910390fd5b6131ec81613e94565b50565b6000806000806000806000600a5488111561323f576040517f08c379a000000000000000000000000000000000000000000000000000000000815260040161323690615e41565b60405180910390fd5b6000600b60008a81526020019081526020016000206040518060e00160405290816000820154815260200160018201548152602001600282015481526020016003820160009054906101000a900473ffffffffffffffffffffffffffffffffffffffff1673ffffffffffffffffffffffffffffffffffffffff1673ffffffffffffffffffffffffffffffffffffffff168152602001600482015481526020016005820160009054906101000a900460ff161515151581526020016006820154815250509050806000015181602001518260400151836060015184608001518560a001518660c00151975097509750975097509750975050919395979092949650565b60007f80ac58cd000000000000000000000000000000000000000000000000000000007bffffffffffffffffffffffffffffffffffffffffffffffffffffffff1916827bffffffffffffffffffffffffffffffffffffffffffffffffffffffff1916148061340c57507f5b5e139f000000000000000000000000000000000000000000000000000000007bffffffffffffffffffffffffffffffffffffffffffffffffffffffff1916827bffffffffffffffffffffffffffffffffffffffffffffffffffffffff1916145b8061341c575061341b8261449b565b5b9050919050565b61342c81613bc3565b61346b576040517f08c379a000000000000000000000000000000000000000000000000000000000815260040161346290615ee1565b60405180910390fd5b50565b600033905090565b816004600083815260200190815260200160002060006101000a81548173ffffffffffffffffffffffffffffffffffffffff021916908373ffffffffffffffffffffffffffffffffffffffff160217905550808273ffffffffffffffffffffffffffffffffffffffff166134e983611baa565b73ffffffffffffffffffffffffffffffffffffffff167f8c5be1e5ebec7d5bd14f71427d1e84f3dd0314c0f7b2291e5b200ac8c7c3b92560405160405180910390a45050565b60008061353b83611baa565b90508073ffffffffffffffffffffffffffffffffffffffff168473ffffffffffffffffffffffffffffffffffffffff16148061357d575061357c81856130d7565b5b806135bb57508373ffffffffffffffffffffffffffffffffffffffff166135a384610823565b73ffffffffffffffffffffffffffffffffffffffff16145b91505092915050565b8273ffffffffffffffffffffffffffffffffffffffff166135e482611baa565b73ffffffffffffffffffffffffffffffffffffffff161461363a576040517f08c379a000000000000000000000000000000000000000000000000000000000815260040161363190615cc1565b60405180910390fd5b600073ffffffffffffffffffffffffffffffffffffffff168273ffffffffffffffffffffffffffffffffffffffff1614156136aa576040517f08c379a00000000000000000000000000000000000000000000000000000000081526004016136a190615d01565b60405180910390fd5b6136b78383836001614505565b8273ffffffffffffffffffffffffffffffffffffffff166136d782611baa565b73ffffffffffffffffffffffffffffffffffffffff161461372d576040517f08c379a000000000000000000000000000000000000000000000000000000000815260040161372490615cc1565b60405180910390fd5b6004600082815260200190815260200160002060006101000a81549073ffffffffffffffffffffffffffffffffffffffff02191690556001600360008573ffffffffffffffffffffffffffffffffffffffff1673ffffffffffffffffffffffffffffffffffffffff168152602001908152602001600020600082825403925050819055506001600360008473ffffffffffffffffffffffffffffffffffffffff1673ffffffffffffffffffffffffffffffffffffffff16815260200190815260200160002060008282540192505081905550816002600083815260200190815260200160002060006101000a81548173ffffffffffffffffffffffffffffffffffffffff021916908373ffffffffffffffffffffffffffffffffffffffff160217905550808273ffffffffffffffffffffffffffffffffffffffff168473ffffffffffffffffffffffffffffffffffffffff167fddf252ad1be2c89b69c2b068fc378daa952ba7f163c4a11628f55a4df523b3ef60405160405180910390a46138b9838383600161450b565b505050565b8273ffffffffffffffffffffffffffffffffffffffff166138de82611baa565b73ffffffffffffffffffffffffffffffffffffffff1614613934576040517f08c379a000000000000000000000000000000000000000000000000000000000815260040161392b90615c41565b60405180910390fd5b600073ffffffffffffffffffffffffffffffffffffffff168273ffffffffffffffffffffffffffffffffffffffff1614156139a4576040517f08c379a000000000000000000000000000000000000000000000000000000000815260040161399b90615ea1565b60405180910390fd5b600073ffffffffffffffffffffffffffffffffffffffff168373ffffffffffffffffffffffffffffffffffffffff161415613a14576040517f08c379a0000000000000000000000000000000000000000000000000000000008152600401613a0b90615f61565b60405180910390fd5b613a1f8383836135c4565b505050565b60008190505b60016010600085815260200190815260200160002080549050613a4d919061657b565b811015613b225760106000848152602001908152602001600020600182613a74919061649a565b81548110613aab577f4e487b7100000000000000000000000000000000000000000000000000000000600052603260045260246000fd5b9060005260206000200154601060008581526020019081526020016000208281548110613b01577f4e487b7100000000000000000000000000000000000000000000000000000000600052603260045260246000fd5b90600052602060002001819055508080613b1a906166c8565b915050613a2a565b5060106000838152602001908152602001600020805480613b6c577f4e487b7100000000000000000000000000000000000000000000000000000000600052603160045260246000fd5b600190038181906000526020600020016000905590555050565b60006002600083815260200190815260200160002060009054906101000a900473ffffffffffffffffffffffffffffffffffffffff169050919050565b60008073ffffffffffffffffffffffffffffffffffffffff16613be583613b86565b73ffffffffffffffffffffffffffffffffffffffff1614159050919050565b60008190505b6001600f60008573ffffffffffffffffffffffffffffffffffffffff1673ffffffffffffffffffffffffffffffffffffffff16815260200190815260200160002080549050613c59919061657b565b811015613d8657600f60008473ffffffffffffffffffffffffffffffffffffffff1673ffffffffffffffffffffffffffffffffffffffff168152602001908152602001600020600182613cac919061649a565b81548110613ce3577f4e487b7100000000000000000000000000000000000000000000000000000000600052603260045260246000fd5b9060005260206000200154600f60008573ffffffffffffffffffffffffffffffffffffffff1673ffffffffffffffffffffffffffffffffffffffff1681526020019081526020016000208281548110613d65577f4e487b7100000000000000000000000000000000000000000000000000000000600052603260045260246000fd5b90600052602060002001819055508080613d7e906166c8565b915050613c0a565b50600f60008373ffffffffffffffffffffffffffffffffffffffff1673ffffffffffffffffffffffffffffffffffffffff168152602001908152602001600020805480613dfc577f4e487b7100000000000000000000000000000000000000000000000000000000600052603160045260246000fd5b600190038181906000526020600020016000905590555050565b613e1e61346e565b73ffffffffffffffffffffffffffffffffffffffff16613e3c61232f565b73ffffffffffffffffffffffffffffffffffffffff1614613e92576040517f08c379a0000000000000000000000000000000000000000000000000000000008152600401613e8990615ec1565b60405180910390fd5b565b6000600760009054906101000a900473ffffffffffffffffffffffffffffffffffffffff16905081600760006101000a81548173ffffffffffffffffffffffffffffffffffffffff021916908373ffffffffffffffffffffffffffffffffffffffff1602179055508173ffffffffffffffffffffffffffffffffffffffff168173ffffffffffffffffffffffffffffffffffffffff167f8be0079c531659141344cd1fd0a4f28419497f9722a3daafe3b4186f6b6457e060405160405180910390a35050565b6000600c600083815260200190815260200160002060010160009054906101000a900473ffffffffffffffffffffffffffffffffffffffff169050919050565b8173ffffffffffffffffffffffffffffffffffffffff168373ffffffffffffffffffffffffffffffffffffffff161415614009576040517f08c379a000000000000000000000000000000000000000000000000000000000815260040161400090615d21565b60405180910390fd5b80600560008573ffffffffffffffffffffffffffffffffffffffff1673ffffffffffffffffffffffffffffffffffffffff16815260200190815260200160002060008473ffffffffffffffffffffffffffffffffffffffff1673ffffffffffffffffffffffffffffffffffffffff16815260200190815260200160002060006101000a81548160ff0219169083151502179055508173ffffffffffffffffffffffffffffffffffffffff168373ffffffffffffffffffffffffffffffffffffffff167f17307eab39ab6107e8899845ad3d59bd9653f200f220920489ca2b5937696c31836040516140fa9190615c04565b60405180910390a3505050565b6141128484846135c4565b61411e84848484614511565b61415d576040517f08c379a000000000000000000000000000000000000000000000000000000000815260040161415490615c81565b60405180910390fd5b50505050565b606060405180602001604052806000815250905090565b606061418582613423565b600061418f614163565b905060008151116141af57604051806020016040528060008152506141da565b806141b9846146a8565b6040516020016141ca929190615b57565b6040516020818303038152906040525b915050919050565b8460006141ee82613f5a565b90508073ffffffffffffffffffffffffffffffffffffffff163373ffffffffffffffffffffffffffffffffffffffff161461425e576040517f08c379a000000000000000000000000000000000000000000000000000000000815260040161425590615fa1565b60405180910390fd5b60005b8581101561449057600a600081548092919061427c906166c8565b91905055506000600a54905061429181613bc3565b156142d1576040517f08c379a00000000000000000000000000000000000000000000000000000000081526004016142c890615e01565b60405180910390fd5b6142db8a826147cc565b60006040518060e001604052808b81526020018a81526020018381526020018773ffffffffffffffffffffffffffffffffffffffff16815260200188815260200160011515815260200188815250905080600b600084815260200190815260200160002060008201518160000155602082015181600101556040820151816002015560608201518160030160006101000a81548173ffffffffffffffffffffffffffffffffffffffff021916908373ffffffffffffffffffffffffffffffffffffffff1602179055506080820151816004015560a08201518160050160006101000a81548160ff02191690831515021790555060c08201518160060155905050601060008b8152602001908152602001600020829080600181540180825580915050600190039060005260206000200160009091909190915055600f60008773ffffffffffffffffffffffffffffffffffffffff1673ffffffffffffffffffffffffffffffffffffffff16815260200190815260200160002082908060018154018082558091505060019003906000526020600020016000909190919091505550508080614488906166c8565b915050614261565b505050505050505050565b60007f01ffc9a7000000000000000000000000000000000000000000000000000000007bffffffffffffffffffffffffffffffffffffffffffffffffffffffff1916827bffffffffffffffffffffffffffffffffffffffffffffffffffffffff1916149050919050565b50505050565b50505050565b60006145328473ffffffffffffffffffffffffffffffffffffffff166147ea565b1561469b578373ffffffffffffffffffffffffffffffffffffffff1663150b7a0261455b61346e565b8786866040518563ffffffff1660e01b815260040161457d9493929190615b96565b602060405180830381600087803b15801561459757600080fd5b505af19250505080156145c857506040513d601f19601f820116820180604052508101906145c59190615216565b60015b61464b573d80600081146145f8576040519150601f19603f3d011682016040523d82523d6000602084013e6145fd565b606091505b50600081511415614643576040517f08c379a000000000000000000000000000000000000000000000000000000000815260040161463a90615c81565b60405180910390fd5b805181602001fd5b63150b7a0260e01b7bffffffffffffffffffffffffffffffffffffffffffffffffffffffff1916817bffffffffffffffffffffffffffffffffffffffffffffffffffffffff1916149150506146a0565b600190505b949350505050565b6060600060016146b78461480d565b01905060008167ffffffffffffffff8111156146fc577f4e487b7100000000000000000000000000000000000000000000000000000000600052604160045260246000fd5b6040519080825280601f01601f19166020018201604052801561472e5781602001600182028036833780820191505090505b509050600082602001820190505b6001156147c1578080600190039150507f3031323334353637383961626364656600000000000000000000000000000000600a86061a8153600a85816147ab577f4e487b7100000000000000000000000000000000000000000000000000000000600052601260045260246000fd5b04945060008514156147bc576147c1565b61473c565b819350505050919050565b6147e6828260405180602001604052806000815250614a44565b5050565b6000808273ffffffffffffffffffffffffffffffffffffffff163b119050919050565b600080600090507a184f03e93ff9f4daa797ed6e38ed64bf6a1f0100000000000000008310614891577a184f03e93ff9f4daa797ed6e38ed64bf6a1f0100000000000000008381614887577f4e487b7100000000000000000000000000000000000000000000000000000000600052601260045260246000fd5b0492506040810190505b6d04ee2d6d415b85acef810000000083106148f4576d04ee2d6d415b85acef810000000083816148ea577f4e487b7100000000000000000000000000000000000000000000000000000000600052601260045260246000fd5b0492506020810190505b662386f26fc10000831061494957662386f26fc10000838161493f577f4e487b7100000000000000000000000000000000000000000000000000000000600052601260045260246000fd5b0492506010810190505b6305f5e1008310614998576305f5e100838161498e577f4e487b7100000000000000000000000000000000000000000000000000000000600052601260045260246000fd5b0492506008810190505b61271083106149e35761271083816149d9577f4e487b7100000000000000000000000000000000000000000000000000000000600052601260045260246000fd5b0492506004810190505b60648310614a2c5760648381614a22577f4e487b7100000000000000000000000000000000000000000000000000000000600052601260045260246000fd5b0492506002810190505b600a8310614a3b576001810190505b80915050919050565b614a4e8383614a9f565b614a5b6000848484614511565b614a9a576040517f08c379a0000000000000000000000000000000000000000000000000000000008152600401614a9190615c81565b60405180910390fd5b505050565b600073ffffffffffffffffffffffffffffffffffffffff168273ffffffffffffffffffffffffffffffffffffffff161415614b0f576040517f08c379a0000000000000000000000000000000000000000000000000000000008152600401614b0690615e81565b60405180910390fd5b614b1881613bc3565b15614b58576040517f08c379a0000000000000000000000000000000000000000000000000000000008152600401614b4f90615ce1565b60405180910390fd5b614b66600083836001614505565b614b6f81613bc3565b15614baf576040517f08c379a0000000000000000000000000000000000000000000000000000000008152600401614ba690615ce1565b60405180910390fd5b6001600360008473ffffffffffffffffffffffffffffffffffffffff1673ffffffffffffffffffffffffffffffffffffffff16815260200190815260200160002060008282540192505081905550816002600083815260200190815260200160002060006101000a81548173ffffffffffffffffffffffffffffffffffffffff021916908373ffffffffffffffffffffffffffffffffffffffff160217905550808273ffffffffffffffffffffffffffffffffffffffff16600073ffffffffffffffffffffffffffffffffffffffff167fddf252ad1be2c89b69c2b068fc378daa952ba7f163c4a11628f55a4df523b3ef60405160405180910390a4614cb960008383600161450b565b5050565b6040518060e00160405280600081526020016000815260200160008152602001600073ffffffffffffffffffffffffffffffffffffffff16815260200160008152602001600015158152602001600081525090565b828054614d1e90616665565b90600052602060002090601f016020900481019282614d405760008555614d87565b82601f10614d5957805160ff1916838001178555614d87565b82800160010185558215614d87579182015b82811115614d86578251825591602001919060010190614d6b565b5b509050614d949190614e06565b5090565b828054828255906000526020600020908101928215614dd4579160200282015b82811115614dd3578251825591602001919060010190614db8565b5b509050614de19190614e06565b5090565b5080546000825590600052602060002090810190614e039190614e06565b50565b5b80821115614e1f576000816000905550600101614e07565b5090565b6000614e36614e3184616357565b616332565b90508083825260208201905082856020860282011115614e5557600080fd5b60005b85811015614e855781614e6b8882614fdd565b845260208401935060208301925050600181019050614e58565b5050509392505050565b6000614ea2614e9d84616383565b616332565b905082815260208101848484011115614eba57600080fd5b614ec5848285616623565b509392505050565b6000614ee0614edb846163b4565b616332565b905082815260208101848484011115614ef857600080fd5b614f03848285616623565b509392505050565b600081359050614f1a81616f3b565b92915050565b600082601f830112614f3157600080fd5b8135614f41848260208601614e23565b91505092915050565b600081359050614f5981616f52565b92915050565b600081359050614f6e81616f69565b92915050565b600081519050614f8381616f69565b92915050565b600082601f830112614f9a57600080fd5b8135614faa848260208601614e8f565b91505092915050565b600082601f830112614fc457600080fd5b8135614fd4848260208601614ecd565b91505092915050565b600081359050614fec81616f80565b92915050565b60006020828403121561500457600080fd5b600061501284828501614f0b565b91505092915050565b6000806040838503121561502e57600080fd5b600061503c85828601614f0b565b925050602061504d85828601614f0b565b9150509250929050565b60008060006060848603121561506c57600080fd5b600061507a86828701614f0b565b935050602061508b86828701614f0b565b925050604061509c86828701614fdd565b9150509250925092565b600080600080608085870312156150bc57600080fd5b60006150ca87828801614f0b565b94505060206150db87828801614f0b565b93505060406150ec87828801614fdd565b925050606085013567ffffffffffffffff81111561510957600080fd5b61511587828801614f89565b91505092959194509250565b6000806040838503121561513457600080fd5b600061514285828601614f0b565b925050602083013567ffffffffffffffff81111561515f57600080fd5b61516b85828601614f20565b9150509250929050565b6000806040838503121561518857600080fd5b600061519685828601614f0b565b92505060206151a785828601614f4a565b9150509250929050565b600080604083850312156151c457600080fd5b60006151d285828601614f0b565b92505060206151e385828601614fdd565b9150509250929050565b6000602082840312156151ff57600080fd5b600061520d84828501614f5f565b91505092915050565b60006020828403121561522857600080fd5b600061523684828501614f74565b91505092915050565b60008060006060848603121561525457600080fd5b600084013567ffffffffffffffff81111561526e57600080fd5b61527a86828701614fb3565b935050602084013567ffffffffffffffff81111561529757600080fd5b6152a386828701614fb3565b92505060406152b486828701614fdd565b9150509250925092565b6000602082840312156152d057600080fd5b60006152de84828501614fdd565b91505092915050565b600080600080608085870312156152fd57600080fd5b600061530b87828801614fdd565b945050602085013567ffffffffffffffff81111561532857600080fd5b61533487828801614fb3565b935050604085013567ffffffffffffffff81111561535157600080fd5b61535d87828801614fb3565b925050606061536e87828801614fdd565b91505092959194509250565b600080600080600060a0868803121561539257600080fd5b60006153a088828901614fdd565b955050602086013567ffffffffffffffff8111156153bd57600080fd5b6153c988828901614fb3565b945050604086013567ffffffffffffffff8111156153e657600080fd5b6153f288828901614fb3565b935050606061540388828901614fdd565b925050608061541488828901614fdd565b9150509295509295909350565b6000806040838503121561543457600080fd5b600061544285828601614fdd565b925050602061545385828601614fdd565b9150509250929050565b60006154698383615aab565b60e08301905092915050565b60006154818383615b39565b60208301905092915050565b615496816165af565b82525050565b6154a5816165af565b82525050565b60006154b682616405565b6154c0818561644b565b93506154cb836163e5565b8060005b838110156154fc5781516154e3888261545d565b97506154ee83616431565b9250506001810190506154cf565b5085935050505092915050565b600061551482616410565b61551e818561645c565b9350615529836163f5565b8060005b8381101561555a5781516155418882615475565b975061554c8361643e565b92505060018101905061552d565b5085935050505092915050565b615570816165c1565b82525050565b61557f816165c1565b82525050565b60006155908261641b565b61559a818561646d565b93506155aa818560208601616632565b6155b3816167cd565b840191505092915050565b60006155c982616426565b6155d3818561647e565b93506155e3818560208601616632565b6155ec816167cd565b840191505092915050565b600061560282616426565b61560c818561648f565b935061561c818560208601616632565b80840191505092915050565b6000615635601a8361647e565b9150615640826167de565b602082019050919050565b6000615658602d8361647e565b915061566382616807565b604082019050919050565b600061567b60328361647e565b915061568682616856565b604082019050919050565b600061569e60268361647e565b91506156a9826168a5565b604082019050919050565b60006156c160258361647e565b91506156cc826168f4565b604082019050919050565b60006156e4601c8361647e565b91506156ef82616943565b602082019050919050565b600061570760248361647e565b91506157128261696c565b604082019050919050565b600061572a60198361647e565b9150615735826169bb565b602082019050919050565b600061574d601a8361647e565b9150615758826169e4565b602082019050919050565b600061577060188361647e565b915061577b82616a0d565b602082019050919050565b600061579360198361647e565b915061579e82616a36565b602082019050919050565b60006157b660218361647e565b91506157c182616a5f565b604082019050919050565b60006157d960298361647e565b91506157e482616aae565b604082019050919050565b60006157fc60228361647e565b915061580782616afd565b604082019050919050565b600061581f601d8361647e565b915061582a82616b4c565b602082019050919050565b600061584260238361647e565b915061584d82616b75565b604082019050919050565b6000615865601a8361647e565b915061587082616bc4565b602082019050919050565b6000615888601c8361647e565b915061589382616bed565b602082019050919050565b60006158ab60208361647e565b91506158b682616c16565b602082019050919050565b60006158ce60198361647e565b91506158d982616c3f565b602082019050919050565b60006158f160208361647e565b91506158fc82616c68565b602082019050919050565b600061591460188361647e565b915061591f82616c91565b602082019050919050565b600061593760218361647e565b915061594282616cba565b604082019050919050565b600061595a60138361647e565b915061596582616d09565b602082019050919050565b600061597d603d8361647e565b915061598882616d32565b604082019050919050565b60006159a060168361647e565b91506159ab82616d81565b602082019050919050565b60006159c3603b8361647e565b91506159ce82616daa565b604082019050919050565b60006159e660318361647e565b91506159f182616df9565b604082019050919050565b6000615a09601c8361647e565b9150615a1482616e48565b602082019050919050565b6000615a2c601f8361647e565b9150615a3782616e71565b602082019050919050565b6000615a4f60198361647e565b9150615a5a82616e9a565b602082019050919050565b6000615a7260368361647e565b9150615a7d82616ec3565b604082019050919050565b6000615a95601c8361647e565b9150615aa082616f12565b602082019050919050565b60e082016000820151615ac16000850182615b39565b506020820151615ad46020850182615b39565b506040820151615ae76040850182615b39565b506060820151615afa606085018261548d565b506080820151615b0d6080850182615b39565b5060a0820151615b2060a0850182615567565b5060c0820151615b3360c0850182615b39565b50505050565b615b4281616619565b82525050565b615b5181616619565b82525050565b6000615b6382856155f7565b9150615b6f82846155f7565b91508190509392505050565b6000602082019050615b90600083018461549c565b92915050565b6000608082019050615bab600083018761549c565b615bb8602083018661549c565b615bc56040830185615b48565b8181036060830152615bd78184615585565b905095945050505050565b60006020820190508181036000830152615bfc81846154ab565b905092915050565b6000602082019050615c196000830184615576565b92915050565b60006020820190508181036000830152615c3981846155be565b905092915050565b60006020820190508181036000830152615c5a81615628565b9050919050565b60006020820190508181036000830152615c7a8161564b565b9050919050565b60006020820190508181036000830152615c9a8161566e565b9050919050565b60006020820190508181036000830152615cba81615691565b9050919050565b60006020820190508181036000830152615cda816156b4565b9050919050565b60006020820190508181036000830152615cfa816156d7565b9050919050565b60006020820190508181036000830152615d1a816156fa565b9050919050565b60006020820190508181036000830152615d3a8161571d565b9050919050565b60006020820190508181036000830152615d5a81615740565b9050919050565b60006020820190508181036000830152615d7a81615763565b9050919050565b60006020820190508181036000830152615d9a81615786565b9050919050565b60006020820190508181036000830152615dba816157a9565b9050919050565b60006020820190508181036000830152615dda816157cc565b9050919050565b60006020820190508181036000830152615dfa816157ef565b9050919050565b60006020820190508181036000830152615e1a81615812565b9050919050565b60006020820190508181036000830152615e3a81615835565b9050919050565b60006020820190508181036000830152615e5a81615858565b9050919050565b60006020820190508181036000830152615e7a8161587b565b9050919050565b60006020820190508181036000830152615e9a8161589e565b9050919050565b60006020820190508181036000830152615eba816158c1565b9050919050565b60006020820190508181036000830152615eda816158e4565b9050919050565b60006020820190508181036000830152615efa81615907565b9050919050565b60006020820190508181036000830152615f1a8161592a565b9050919050565b60006020820190508181036000830152615f3a8161594d565b9050919050565b60006020820190508181036000830152615f5a81615970565b9050919050565b60006020820190508181036000830152615f7a81615993565b9050919050565b60006020820190508181036000830152615f9a816159b6565b9050919050565b60006020820190508181036000830152615fba816159d9565b9050919050565b60006020820190508181036000830152615fda816159fc565b9050919050565b60006020820190508181036000830152615ffa81615a1f565b9050919050565b6000602082019050818103600083015261601a81615a42565b9050919050565b6000602082019050818103600083015261603a81615a65565b9050919050565b6000602082019050818103600083015261605a81615a88565b9050919050565b60006020820190506160766000830184615b48565b92915050565b60006040820190506160916000830185615b48565b61609e602083018461549c565b9392505050565b60006080820190506160ba6000830187615b48565b6160c7602083018661549c565b6160d4604083018561549c565b6160e16060830184615b48565b95945050505050565b600061012082019050616100600083018c615b48565b61610d602083018b61549c565b818103604083015261611f818a6155be565b9050818103606083015261613381896155be565b90506161426080830188615b48565b61614f60a0830187615b48565b61615c60c0830186615b48565b61616960e0830185615576565b81810361010083015261617c8184615509565b90509a9950505050505050505050565b60006060820190506161a16000830186615b48565b6161ae602083018561549c565b6161bb6040830184615b48565b949350505050565b60006060820190506161d86000830186615b48565b81810360208301526161ea81856155be565b90506161f9604083018461549c565b949350505050565b60006080820190506162166000830187615b48565b818103602083015261622881866155be565b9050818103604083015261623c81856155be565b905061624b6060830184615b48565b95945050505050565b600060c0820190506162696000830189615b48565b6162766020830188615b48565b818103604083015261628881876155be565b9050818103606083015261629c81866155be565b90506162ab6080830185615b48565b6162b860a0830184615b48565b979650505050505050565b600060e0820190506162d8600083018a615b48565b6162e56020830189615b48565b6162f26040830188615b48565b6162ff606083018761549c565b61630c6080830186615b48565b61631960a0830185615576565b61632660c0830184615b48565b98975050505050505050565b600061633c61634d565b90506163488282616697565b919050565b6000604051905090565b600067ffffffffffffffff8211156163725761637161679e565b5b602082029050602081019050919050565b600067ffffffffffffffff82111561639e5761639d61679e565b5b6163a7826167cd565b9050602081019050919050565b600067ffffffffffffffff8211156163cf576163ce61679e565b5b6163d8826167cd565b9050602081019050919050565b6000819050602082019050919050565b6000819050602082019050919050565b600081519050919050565b600081519050919050565b600081519050919050565b600081519050919050565b6000602082019050919050565b6000602082019050919050565b600082825260208201905092915050565b600082825260208201905092915050565b600082825260208201905092915050565b600082825260208201905092915050565b600081905092915050565b60006164a582616619565b91506164b083616619565b9250827fffffffffffffffffffffffffffffffffffffffffffffffffffffffffffffffff038211156164e5576164e4616711565b5b828201905092915050565b60006164fb82616619565b915061650683616619565b92508261651657616515616740565b5b828204905092915050565b600061652c82616619565b915061653783616619565b9250817fffffffffffffffffffffffffffffffffffffffffffffffffffffffffffffffff04831182151516156165705761656f616711565b5b828202905092915050565b600061658682616619565b915061659183616619565b9250828210156165a4576165a3616711565b5b828203905092915050565b60006165ba826165f9565b9050919050565b60008115159050919050565b60007fffffffff0000000000000000000000000000000000000000000000000000000082169050919050565b600073ffffffffffffffffffffffffffffffffffffffff82169050919050565b6000819050919050565b82818337600083830152505050565b60005b83811015616650578082015181840152602081019050616635565b8381111561665f576000848401525b50505050565b6000600282049050600182168061667d57607f821691505b602082108114156166915761669061676f565b5b50919050565b6166a0826167cd565b810181811067ffffffffffffffff821117156166bf576166be61679e565b5b80604052505050565b60006166d382616619565b91507fffffffffffffffffffffffffffffffffffffffffffffffffffffffffffffffff82141561670657616705616711565b5b600182019050919050565b7f4e487b7100000000000000000000000000000000000000000000000000000000600052601160045260246000fd5b7f4e487b7100000000000000000000000000000000000000000000000000000000600052601260045260246000fd5b7f4e487b7100000000000000000000000000000000000000000000000000000000600052602260045260246000fd5b7f4e487b7100000000000000000000000000000000000000000000000000000000600052604160045260246000fd5b6000601f19601f8301169050919050565b7f5469636b6574206e6f74206f776e65642062792073656e646572000000000000600082015250565b7f4552433732313a2063616c6c6572206973206e6f7420746f6b656e206f776e6560008201527f72206f7220617070726f76656400000000000000000000000000000000000000602082015250565b7f4552433732313a207472616e7366657220746f206e6f6e20455243373231526560008201527f63656976657220696d706c656d656e7465720000000000000000000000000000602082015250565b7f4f776e61626c653a206e6577206f776e657220697320746865207a65726f206160008201527f6464726573730000000000000000000000000000000000000000000000000000602082015250565b7f4552433732313a207472616e736665722066726f6d20696e636f72726563742060008201527f6f776e6572000000000000000000000000000000000000000000000000000000602082015250565b7f4552433732313a20746f6b656e20616c7265616479206d696e74656400000000600082015250565b7f4552433732313a207472616e7366657220746f20746865207a65726f2061646460008201527f7265737300000000000000000000000000000000000000000000000000000000602082015250565b7f4552433732313a20617070726f766520746f2063616c6c657200000000000000600082015250565b7f54686973207469636b657420646f65736e277420657869737421000000000000600082015250565b7f54686973206576656e7420646f65736e27742065786973740000000000000000600082015250565b7f596f7520646f6e2774206f776e2074686973207469636b657400000000000000600082015250565b7f5469636b657420697320616c7265616479206c697374656420666f722073616c60008201527f6500000000000000000000000000000000000000000000000000000000000000602082015250565b7f4552433732313a2061646472657373207a65726f206973206e6f74206120766160008201527f6c6964206f776e65720000000000000000000000000000000000000000000000602082015250565b7f596f7520646f6e2774206f776e20616c6c206f66207468657365207469636b6560008201527f7473000000000000000000000000000000000000000000000000000000000000602082015250565b7f546f6b656e2068617320616c7265616479206265656e206d696e746564000000600082015250565b7f5469636b657420697320616c7265616479206c697374656420666f722072657360008201527f616c650000000000000000000000000000000000000000000000000000000000602082015250565b7f54686973207469636b657420646f6573206e6f74206578697374000000000000600082015250565b7f596f7520616c7265616479206f776e2074686973207469636b65742100000000600082015250565b7f4552433732313a206d696e7420746f20746865207a65726f2061646472657373600082015250565b7f496e76616c696420726563697069656e74206164647265737300000000000000600082015250565b7f4f776e61626c653a2063616c6c6572206973206e6f7420746865206f776e6572600082015250565b7f4552433732313a20696e76616c696420746f6b656e2049440000000000000000600082015250565b7f4552433732313a20617070726f76616c20746f2063757272656e74206f776e6560008201527f7200000000000000000000000000000000000000000000000000000000000000602082015250565b7f4576656e74206973206e6f742061637469766500000000000000000000000000600082015250565b7f4552433732313a20617070726f76652063616c6c6572206973206e6f7420746f60008201527f6b656e206f776e6572206f7220617070726f76656420666f7220616c6c000000602082015250565b7f496e76616c69642073656e646572206164647265737300000000000000000000600082015250565b7f526573616c652070726963652063616e6e6f742062652068696768657220746860008201527f616e20746865206d6178696d756d20726573616c652070726963650000000000602082015250565b7f4f6e6c7920746865206f7267616e69736572206f662074686973206576656e7460008201527f2063616e20657865637574652074686973000000000000000000000000000000602082015250565b7f546869732063617465676f727920646f6573206e6f7420657869737400000000600082015250565b7f5469636b6574206973206e6f74206c697374656420666f7220726573616c6500600082015250565b7f54686973206576656e7420646f6573206e6f7420657869737400000000000000600082015250565b7f596f75206d757374207061792074686520657861637420616d6f756e7420746860008201527f61742074686973206973206c697374656420666f722100000000000000000000602082015250565b7f54686973207469636b6574206973206e6f7420666f722073616c652100000000600082015250565b616f44816165af565b8114616f4f57600080fd5b50565b616f5b816165c1565b8114616f6657600080fd5b50565b616f72816165cd565b8114616f7d57600080fd5b50565b616f8981616619565b8114616f9457600080fd5b5056fea2646970667358221220bc978d5b6ce44c0768541ac7314af20146f48025071c8380dd9c46240c28d26564736f6c63430008010033",
  "immutableReferences": {},
  "source": "// SPDX-License-Identifier: UNLICENSED\npragma solidity >=0.6.0 <0.9.0;\npragma experimental ABIEncoderV2;\n\n//import \"https://github.com/OpenZeppelin/openzeppelin-contracts/blob/v2.5.0/contracts/token/ERC721/ERC721.sol\";\nimport \"../node_modules/@openzeppelin/contracts/token/ERC721/ERC721.sol\";\nimport \"../node_modules/@openzeppelin/contracts/utils/math/SafeMath.sol\";\n//import \"../node_modules/@openzeppelin/contracts/utils/Counters.sol\";\n//use uint256 private _tokenIds instead;\n//to increment: _tokenIds++;\nimport \"../node_modules/@openzeppelin/contracts/access/Ownable.sol\";\nimport \"../node_modules/@openzeppelin/contracts/token/ERC721/extensions/ERC721URIStorage.sol\";\n\ncontract TicketMister is ERC721URIStorage, Ownable {\n    constructor() ERC721(\"TicketMister\", \"TMT\") {}\n\n    // 1 token = 1 ticket\n\n    // counter for eventId - incremented each time a new event is created\n    uint256 private eventIdCounter;\n\n    // counter for categoryId - incremented each time a new category is created\n    uint256 private categoryIdCounter;\n\n    // counter for ticketId - incremented each time a new ticket is created\n    uint256 private ticketIdCounter;\n\n    // ticketId mapped to TicketInfo struct\n    mapping(uint256 => TicketInfo) private tickets;\n\n    // eventId mapped to EventInfo struct\n    mapping(uint256 => EventInfo) private events;\n\n    // categoryId mapped to CategoryInfo struct\n    mapping(uint256 => CategoryInfo) private categories;\n\n    // address of event organiser mapped to an array of eventIds\n    mapping(address => uint256[]) private eventsOrganised;\n\n    // address of owner mapped to array of ticketIds of the tickets they own\n    mapping(address => uint256[]) private ticketsOwned;\n\n    // eventId mapped to array of ticketIds of all tickets on sale (whether first sale or resale)\n    mapping(uint256 => uint256[]) private ticketsForSale;\n\n    // eventId mapped to array of ticketIds of all tickets sold\n    mapping(uint256 => uint256[]) private ticketsSold;\n\n    // array storing all of the events\n    EventInfo[] allEventsArray;\n\n    struct EventInfo {\n        uint256 eventId;\n        address organiser;\n        string eventName;\n        string eventDescription;\n        uint256 numberOfTickets; // total number of tickets for this event\n        uint256 soldTickets; // number of tickets already sold for this event - updated when someone buys from organiser\n        uint256 maxResalePercentage; // maximum percentage that the ticket price can be resold for - might be complicated with decimals\n        bool isActive;\n        uint256[] categoryIds; // list of categoryIds for this event\n    }\n\n    struct CategoryInfo {\n        uint256 eventId; // event that this category is tagged to\n        uint256 categoryId;\n        string categoryName;\n        string description;\n        uint256 ticketPrice;\n        uint256 numberOfTickets; // number of tickets for this category\n    }\n\n    struct TicketInfo {\n        uint256 eventId; // event that this category is tagged to\n        uint256 categoryId; // category that this ticket is tagged to\n        uint256 ticketId;\n        address owner;\n        uint256 originalPrice;\n        bool isForSale;\n        uint256 resalePrice;\n    }\n\n    // Events Emitted\n    event eventCreated(uint256 eventId, string eventName, address organiser);\n\n    event ticketSold(\n        uint256 ticketId,\n        address buyer,\n        address seller,\n        uint256 price\n    );\n    event ticketListedForResale(\n        uint256 ticketId,\n        address seller,\n        uint256 price\n    ); // emitted when listing ticket (NOT by organisers)\n    event ticketUnlistedFromResale(uint256 ticketId, address seller);\n\n    // emitted when organiser updates event details\n    event EventDetailsUpdated(uint eventId, string eventName, string eventDescription, uint256 maxResalePercentage);\n\n    // emitted to check max resale price calculated\n    event MaxResalePriceCalculated(uint maxResalePrice);\n\n    // function to create a new event - anyone can create a new event\n    function createEvent(\n        string memory eventName,\n        string memory eventDescription,\n        uint256 maxResalePercentage\n    ) public {\n        eventIdCounter++;\n        uint256 newEventId = eventIdCounter;\n\n        // Create new event struct\n        EventInfo memory newEvent = EventInfo(\n            newEventId,\n            msg.sender,\n            eventName,\n            eventDescription,\n            0,\n            0,\n            maxResalePercentage,\n            true,\n            new uint256[](0)\n        );\n\n        // Update events mapping (eventId => EventInfo)\n        events[newEventId] = newEvent;\n\n        // push new event to allEventsArray\n        allEventsArray.push(newEvent);\n\n        // push new event to eventsOrganised mapping (organiser => eventId[])\n        eventsOrganised[msg.sender].push(newEventId);\n\n        emit eventCreated(newEventId, eventName, msg.sender);\n    }\n\n    // user needs to create event first before they can create category and mint tickets for that event\n    function createCategory(\n        uint256 eventId,\n        string memory categoryName,\n        string memory description,\n        uint256 ticketPrice,\n        uint256 numberOfTickets\n    ) public onlyOrganiser(eventId) {\n        categoryIdCounter++;\n        uint256 newCategoryId = categoryIdCounter;\n\n        // Create new category struct\n        CategoryInfo memory newCategory = CategoryInfo(\n            eventId,\n            newCategoryId,\n            categoryName,\n            description,\n            ticketPrice,\n            numberOfTickets\n        );\n\n        // Update categories mapping (categoryId => CategoryInfo)\n        categories[newCategoryId] = newCategory;\n\n        // push new category to event's ticketCategories array\n        events[eventId].categoryIds.push(newCategoryId);\n\n        // mint tickets for this category\n        mintTickets(\n            msg.sender,\n            eventId,\n            newCategoryId,\n            numberOfTickets,\n            ticketPrice,\n            msg.sender\n        );\n\n        // increment total number of tickets for this event\n        events[eventId].numberOfTickets += numberOfTickets;\n    }\n\n    // this function will be called when createCategory is called, to mint the tickets for that respective category\n    function mintTickets(\n        address to, // address of owner (im unsure what the use of this is - 'to' & 'owner' are the same address when minting)\n        uint256 eventId, // will be generated when event is created\n        uint256 categoryId, // will be generated when category is created\n        uint256 numberOfTickets,\n        uint256 ticketPrice,\n        address owner // address of owner\n    ) private onlyOrganiser(eventId) {\n        for (uint256 counter = 0; counter < numberOfTickets; counter++) {\n            ticketIdCounter++;\n            uint256 newTicketId = ticketIdCounter;\n            require(!_exists(newTicketId), \"Token has already been minted\");\n            _safeMint(to, newTicketId);\n\n            // Each ticketId will have the ticket information mapped to it (ticketID => TicketInfo)\n            // Create new ticket struct\n            TicketInfo memory newTicket = TicketInfo(\n                eventId,\n                categoryId,\n                newTicketId,\n                owner,\n                ticketPrice,\n                true, // when minted, will be for sale\n                ticketPrice // set resale price as original price at the start. buying will always use resale price\n            );\n\n            // Update tickets mapping (ticketId => TicketInfo)\n            tickets[newTicketId] = newTicket;\n\n            // push tickets minted to 'ticketsForSale' (eventId => uint256[] List of ticketIds for sale)\n            ticketsForSale[eventId].push(newTicketId);\n\n            // push tickets minted to 'ticketsOwned' for organiser (owner => uint256[] List of ticketIds owned)\n            ticketsOwned[owner].push(newTicketId);\n        }\n    }\n\n    function buyTicket(uint256 ticketId) public payable {\n        require(_exists(ticketId), \"This ticket doesn't exist!\");\n        TicketInfo memory ticketInfo = tickets[ticketId];\n        address previousOwner = ticketInfo.owner;\n        require(ticketInfo.isForSale, \"This ticket is not for sale!\");\n        require(\n            msg.value == ticketInfo.resalePrice,\n            \"You must pay the exact amount that this is listed for!\"\n        );\n        require(msg.sender != previousOwner, \"You already own this ticket!\");\n        address payable ownerPayable = payable(previousOwner);\n\n        // transfer ticket to new owner\n        transferTicket(previousOwner, msg.sender, ticketId);\n        ownerPayable.transfer(msg.value);\n\n        // update respective ticketInfo\n        tickets[ticketId].owner = msg.sender;\n        tickets[ticketId].isForSale = false;\n        tickets[ticketId].resalePrice = 0;\n        \n        // Update ticketsSold mapping\n        ticketsSold[ticketInfo.eventId].push(ticketId);\n\n        // remove ticket from ticketsOwned for previous owner\n        for (\n            // iterate through ticketsOwned for previous owner\n            uint256 index = 0;\n            index < ticketsOwned[previousOwner].length;\n            index++\n        ) {\n            // find the ticketId in the array\n            if (ticketsOwned[previousOwner][index] == ticketId) {\n                removeTicketFromTicketsOwned(previousOwner, index);\n                break;\n            }\n        }\n\n        // add ticket to new owner\n        ticketsOwned[msg.sender].push(ticketId);\n\n        // remove ticket from ticketsForSale for event\n        for (\n            // iterate through ticketsForSale for event\n            uint256 index = 0;\n            index < ticketsForSale[ticketInfo.eventId].length;\n            index++\n        ) {\n            // find the ticketId in the array\n            if (ticketsForSale[ticketInfo.eventId][index] == ticketId) {\n                removeTicketFromTicketsForSale(ticketInfo.eventId, index);\n                break;\n            }\n        }\n\n        // update eventInfo if ticket was bought from organiser\n        if (previousOwner == events[ticketInfo.eventId].organiser) {\n            events[ticketInfo.eventId].soldTickets++;\n        }\n\n        emit ticketSold(ticketId, msg.sender, previousOwner, msg.value);\n    }\n\n    // Function to list a ticket for resale\n    function listTicketForResale(uint256 ticketId, uint256 price) public {\n        require(ownerOf(ticketId) == msg.sender, \"You don't own this ticket\");\n        TicketInfo memory ticket = tickets[ticketId];\n        require(ticket.isForSale == false, \"Ticket is already listed for sale\");\n        require(ticket.resalePrice == 0, \"Ticket is already listed for resale\");\n\n        // Calculate max resale price based on the resale percentage\n        EventInfo memory eventInfo = events[ticket.eventId];  \n        uint256 maxResalePrice = ticket.originalPrice * ((eventInfo.maxResalePercentage / 100) + 1);\n\n\n        require(\n            price <= maxResalePrice,\n            \"Resale price cannot be higher than the maximum resale price\"\n        );\n\n        // Update ticket info\n        tickets[ticketId].resalePrice = price;\n        tickets[ticketId].isForSale = true;\n\n        // Add ticket to ticketsForSale mapping\n        ticketsForSale[ticket.eventId].push(ticketId);\n\n        emit ticketListedForResale(ticketId, msg.sender, price);\n    }\n\n    // Function to unlist a ticket from resale\n    function unlistTicketFromResale(uint256 ticketId) public {\n        require(ownerOf(ticketId) == msg.sender, \"You don't own this ticket\");\n        TicketInfo memory ticket = tickets[ticketId];\n        require(ticket.isForSale == true, \"Ticket is not listed for resale\");\n\n        // Update ticket info\n        tickets[ticketId].isForSale = false;\n        tickets[ticketId].resalePrice = 0;\n\n        // Remove ticket from ticketsForSale mapping\n        removeTicketFromTicketsForSale(ticket.eventId, ticketId);\n\n        emit ticketUnlistedFromResale(ticketId, msg.sender);\n    }\n\n    function removeTicketFromTicketsOwned(\n        address owner,\n        uint256 index\n    ) private {\n        // index = index of ticket to remove\n        for (uint256 i = index; i < ticketsOwned[owner].length - 1; i++) {\n            // shift all tickets from index onwards, to the left\n            ticketsOwned[owner][i] = ticketsOwned[owner][i + 1];\n        }\n\n        // remove last element\n        ticketsOwned[owner].pop();\n    }\n\n    function removeTicketFromTicketsForSale(\n        uint256 eventId,\n        uint256 index\n    ) private {\n        // index = index of ticket to remove\n        for (uint256 i = index; i < ticketsForSale[eventId].length - 1; i++) {\n            // shift all tickets from index onwards, to the left\n            ticketsForSale[eventId][i] = ticketsForSale[eventId][i + 1];\n        }\n\n        // remove last element\n        ticketsForSale[eventId].pop();\n    }\n\n    function transferTicket(\n        address from,\n        address to,\n        uint256 ticketId\n    ) private {\n        require(ownerOf(ticketId) == from, \"Ticket not owned by sender\");\n        require(to != address(0), \"Invalid recipient address\");\n        require(from != address(0), \"Invalid sender address\");\n        _transfer(from, to, ticketId);\n    } // im not sure whether this works - because we completely remove 'tokens'\n\n\n    // This is the function for a ticket owners to transfer multiple tickets\n    function transferMultipleTickets(address to, uint256[] memory ticketIds) public {\n        for (uint256 i = 0; i < ticketIds.length; i++) {\n            uint256 ticketId = ticketIds[i];\n            require(ownerOf(ticketId) == msg.sender, \"You don't own all of these tickets\");\n            // Transfer ticket to new owner\n            transferTicket(msg.sender, to, ticketId);\n            // Update ticket owner in storage\n            tickets[ticketId].owner = to;\n        }\n    }\n\n    // This is the function to see all of the tickets being sold for a specific event\n    function viewAllEventTickets(\n        uint256 eventId\n    ) public view returns (TicketInfo[] memory) {\n        require(eventId <= eventIdCounter, \"This event doesn't exist\");\n        uint256[] memory ticketIdsForSale = ticketsForSale[eventId];\n        TicketInfo[] memory allEventTickets = new TicketInfo[](\n            ticketIdsForSale.length\n        );\n        for (\n            uint256 counter = 0;\n            counter < ticketIdsForSale.length;\n            counter++\n        ) {\n            uint256 ticketId = ticketIdsForSale[counter];\n            TicketInfo memory ticketInfo = tickets[ticketId];\n            allEventTickets[counter] = ticketInfo;\n        }\n        return (allEventTickets);\n    }\n\n    // This is the function for organisers to cancel an event\n    function cancelEventAndRefund(uint256 eventId) public onlyOrganiser(eventId) {\n        EventInfo storage eventInfo = events[eventId];\n        require(eventInfo.isActive, \"Event is not active\");\n\n        // Refund ticket holders\n        uint256[] memory ticketsSoldForEvent = ticketsSold[eventId];\n        for (uint256 i = 0; i < ticketsSoldForEvent.length; i++) {\n            uint256 ticketId = ticketsSoldForEvent[i];\n            address payable ticketOwner = payable(ownerOf(ticketId));\n            uint256 resalePrice = tickets[ticketId].resalePrice;\n            if (resalePrice > 0) {\n                ticketOwner.transfer(resalePrice);\n            } else {\n                ticketOwner.transfer(tickets[ticketId].originalPrice);\n            }\n\n            // Clear ticket ownership and remove it from mappings\n            _transfer(ticketOwner, address(0), ticketId);\n            delete tickets[ticketId];\n        }\n        \n        // Unlist remaining tickets for sale\n        delete ticketsForSale[eventId];\n\n        // Mark event as inactive\n        events[eventId].isActive = false;\n    }\n\n\n    // This function is for event organisers to update event details \n    function updateEventDetails(\n        uint256 eventId,\n        string memory eventName,\n        string memory eventDescription,\n        uint256 maxResalePercentage\n    ) public onlyOrganiser(eventId) {\n        EventInfo storage eventInfo = events[eventId];\n        \n        // Check if the event is active\n        require(eventInfo.isActive, \"Event is not active\");\n\n        // Update event details\n        events[eventId].eventName = eventName;\n        events[eventId].eventDescription = eventDescription;\n        events[eventId].maxResalePercentage = maxResalePercentage;\n        \n        emit EventDetailsUpdated(eventId, eventName, eventDescription, maxResalePercentage);\n    }\n\n\n    function viewMyTickets() public view returns (TicketInfo[] memory) {\n        uint256[] memory ticketIds = ticketsOwned[msg.sender];\n        TicketInfo[] memory myTickets = new TicketInfo[](ticketIds.length);\n        for (uint256 i = 0; i < ticketIds.length; i++) {\n            uint256 ticketId = ticketIds[i];\n            myTickets[i] = tickets[ticketId];\n        }\n        return myTickets;\n    }\n\n    // only the organiser can execute a specific function\n    modifier onlyOrganiser(uint256 eventId) {\n        address eventOrganiserAddress = getEventOrganiserAddress(eventId);\n        require(\n            msg.sender == eventOrganiserAddress,\n            \"Only the organiser of this event can execute this\"\n        );\n        _;\n    }\n\n    function getEventOrganiserAddress(\n        uint256 eventId\n    ) private view returns (address) {\n        return events[eventId].organiser;\n    }\n\n    function getEventInfo(\n        uint256 eventId\n    )\n        public\n        view\n        returns (\n            uint256,\n            address,\n            string memory,\n            string memory,\n            uint256,\n            uint256,\n            uint256,\n            bool,\n            uint256[] memory\n        )\n    {\n        require(eventId <= eventIdCounter, \"This event does not exist\");\n        EventInfo memory eventInfo = events[eventId];\n        return (\n            eventInfo.eventId,\n            eventInfo.organiser,\n            eventInfo.eventName,\n            eventInfo.eventDescription,\n            eventInfo.numberOfTickets,\n            eventInfo.soldTickets,\n            eventInfo.maxResalePercentage,\n            eventInfo.isActive,\n            eventInfo.categoryIds\n        );\n    }\n\n    function getCategoryInfo(\n        uint256 categoryId\n    )\n        public\n        view\n        returns (\n            uint256,\n            uint256,\n            string memory,\n            string memory,\n            uint256,\n            uint256\n        )\n    {\n        require(\n            categoryId <= categoryIdCounter,\n            \"This category does not exist\"\n        );\n        CategoryInfo memory categoryInfo = categories[categoryId];\n        return (\n            categoryInfo.eventId,\n            categoryInfo.categoryId,\n            categoryInfo.categoryName,\n            categoryInfo.description,\n            categoryInfo.ticketPrice,\n            categoryInfo.numberOfTickets\n        );\n    }\n\n    function getTicketInfo(\n        uint256 ticketId\n    )\n        public\n        view\n        returns (uint256, uint256, uint256, address, uint256, bool, uint256)\n    {\n        require(ticketId <= ticketIdCounter, \"This ticket does not exist\");\n        TicketInfo memory ticketInfo = tickets[ticketId];\n        return (\n            ticketInfo.eventId,\n            ticketInfo.categoryId,\n            ticketInfo.ticketId,\n            ticketInfo.owner,\n            ticketInfo.originalPrice,\n            ticketInfo.isForSale,\n            ticketInfo.resalePrice\n        );\n    }\n}\n",
  "sourcePath": "/Users/yaner/Documents/NUS/Y2S2/IS4302/ticketmister/contracts/TicketMister.sol",
  "compiler": {
    "name": "solc",
    "version": "0.8.1+commit.df193b15.Emscripten.clang"
  },
  "schemaVersion": "3.3.3",
  "updatedAt": "2024-04-20T15:08:42.336Z",
  "devdoc": {
    "kind": "dev",
    "methods": {
      "approve(address,uint256)": {
        "details": "See {IERC721-approve}."
      },
      "balanceOf(address)": {
        "details": "See {IERC721-balanceOf}."
      },
      "getApproved(uint256)": {
        "details": "See {IERC721-getApproved}."
      },
      "isApprovedForAll(address,address)": {
        "details": "See {IERC721-isApprovedForAll}."
      },
      "name()": {
        "details": "See {IERC721Metadata-name}."
      },
      "owner()": {
        "details": "Returns the address of the current owner."
      },
      "ownerOf(uint256)": {
        "details": "See {IERC721-ownerOf}."
      },
      "renounceOwnership()": {
        "details": "Leaves the contract without owner. It will not be possible to call `onlyOwner` functions. Can only be called by the current owner. NOTE: Renouncing ownership will leave the contract without an owner, thereby disabling any functionality that is only available to the owner."
      },
      "safeTransferFrom(address,address,uint256)": {
        "details": "See {IERC721-safeTransferFrom}."
      },
      "safeTransferFrom(address,address,uint256,bytes)": {
        "details": "See {IERC721-safeTransferFrom}."
      },
      "setApprovalForAll(address,bool)": {
        "details": "See {IERC721-setApprovalForAll}."
      },
      "supportsInterface(bytes4)": {
        "details": "See {IERC165-supportsInterface}"
      },
      "symbol()": {
        "details": "See {IERC721Metadata-symbol}."
      },
      "tokenURI(uint256)": {
        "details": "See {IERC721Metadata-tokenURI}."
      },
      "transferFrom(address,address,uint256)": {
        "details": "See {IERC721-transferFrom}."
      },
      "transferOwnership(address)": {
        "details": "Transfers ownership of the contract to a new account (`newOwner`). Can only be called by the current owner."
      }
    },
    "version": 1
  },
  "userdoc": {
    "kind": "user",
    "methods": {},
    "version": 1
  }
}